{
	"contracts/MV.sol": {
		"MvCoin": {
			"abi": [
				{
					"inputs": [
						{
							"internalType": "address",
							"name": "_acbConfig",
							"type": "address"
						}
					],
					"stateMutability": "nonpayable",
					"type": "constructor"
				},
				{
					"anonymous": false,
					"inputs": [
						{
							"indexed": true,
							"internalType": "address",
							"name": "owner",
							"type": "address"
						},
						{
							"indexed": true,
							"internalType": "address",
							"name": "spender",
							"type": "address"
						},
						{
							"indexed": false,
							"internalType": "uint256",
							"name": "value",
							"type": "uint256"
						}
					],
					"name": "Approval",
					"type": "event"
				},
				{
					"anonymous": false,
					"inputs": [
						{
							"indexed": true,
							"internalType": "address",
							"name": "from",
							"type": "address"
						},
						{
							"indexed": true,
							"internalType": "address",
							"name": "to",
							"type": "address"
						},
						{
							"indexed": false,
							"internalType": "uint256",
							"name": "value",
							"type": "uint256"
						}
					],
					"name": "Transfer",
					"type": "event"
				},
				{
					"inputs": [],
					"name": "acbConfig",
					"outputs": [
						{
							"internalType": "address",
							"name": "",
							"type": "address"
						}
					],
					"stateMutability": "view",
					"type": "function"
				},
				{
					"inputs": [
						{
							"internalType": "address",
							"name": "owner",
							"type": "address"
						},
						{
							"internalType": "address",
							"name": "spender",
							"type": "address"
						}
					],
					"name": "allowance",
					"outputs": [
						{
							"internalType": "uint256",
							"name": "",
							"type": "uint256"
						}
					],
					"stateMutability": "view",
					"type": "function"
				},
				{
					"inputs": [
						{
							"internalType": "address",
							"name": "spender",
							"type": "address"
						},
						{
							"internalType": "uint256",
							"name": "amount",
							"type": "uint256"
						}
					],
					"name": "approve",
					"outputs": [
						{
							"internalType": "bool",
							"name": "",
							"type": "bool"
						}
					],
					"stateMutability": "nonpayable",
					"type": "function"
				},
				{
					"inputs": [
						{
							"internalType": "address",
							"name": "account",
							"type": "address"
						}
					],
					"name": "balanceOf",
					"outputs": [
						{
							"internalType": "uint256",
							"name": "",
							"type": "uint256"
						}
					],
					"stateMutability": "view",
					"type": "function"
				},
				{
					"inputs": [
						{
							"internalType": "address",
							"name": "_acbConfig",
							"type": "address"
						}
					],
					"name": "changeConfig",
					"outputs": [],
					"stateMutability": "nonpayable",
					"type": "function"
				},
				{
					"inputs": [],
					"name": "decimals",
					"outputs": [
						{
							"internalType": "uint8",
							"name": "",
							"type": "uint8"
						}
					],
					"stateMutability": "view",
					"type": "function"
				},
				{
					"inputs": [],
					"name": "name",
					"outputs": [
						{
							"internalType": "string",
							"name": "",
							"type": "string"
						}
					],
					"stateMutability": "view",
					"type": "function"
				},
				{
					"inputs": [],
					"name": "owner",
					"outputs": [
						{
							"internalType": "address",
							"name": "",
							"type": "address"
						}
					],
					"stateMutability": "view",
					"type": "function"
				},
				{
					"inputs": [],
					"name": "symbol",
					"outputs": [
						{
							"internalType": "string",
							"name": "",
							"type": "string"
						}
					],
					"stateMutability": "view",
					"type": "function"
				},
				{
					"inputs": [],
					"name": "totalSupply",
					"outputs": [
						{
							"internalType": "uint256",
							"name": "",
							"type": "uint256"
						}
					],
					"stateMutability": "view",
					"type": "function"
				},
				{
					"inputs": [
						{
							"internalType": "address",
							"name": "to",
							"type": "address"
						},
						{
							"internalType": "uint256",
							"name": "amount",
							"type": "uint256"
						}
					],
					"name": "transfer",
					"outputs": [
						{
							"internalType": "bool",
							"name": "",
							"type": "bool"
						}
					],
					"stateMutability": "nonpayable",
					"type": "function"
				},
				{
					"inputs": [
						{
							"internalType": "address",
							"name": "from",
							"type": "address"
						},
						{
							"internalType": "address",
							"name": "to",
							"type": "address"
						},
						{
							"internalType": "uint256",
							"name": "amount",
							"type": "uint256"
						}
					],
					"name": "transferFrom",
					"outputs": [
						{
							"internalType": "bool",
							"name": "",
							"type": "bool"
						}
					],
					"stateMutability": "nonpayable",
					"type": "function"
				},
				{
					"inputs": [
						{
							"internalType": "address",
							"name": "newOwner",
							"type": "address"
						}
					],
					"name": "transferOwnership",
					"outputs": [],
					"stateMutability": "nonpayable",
					"type": "function"
				},
				{
					"inputs": [
						{
							"internalType": "uint256",
							"name": "amount",
							"type": "uint256"
						}
					],
					"name": "usdtswap",
					"outputs": [],
					"stateMutability": "nonpayable",
					"type": "function"
				}
			],
			"devdoc": {
				"kind": "dev",
				"methods": {},
				"version": 1
			},
			"evm": {
				"assembly": "    /* \"contracts/MV.sol\":711:1824  contract MvCoin is ERC20StandardToken, Ownable {... */\n  mstore(0x40, 0xa0)\n    /* \"contracts/MV.sol\":829:977  constructor(address _acbConfig) ERC20StandardToken('MV', 'MV', 18, 100000000  ether) {... */\n  callvalue\n  dup1\n  iszero\n  tag_1\n  jumpi\n  0x00\n  dup1\n  revert\ntag_1:\n  pop\n  mload(0x40)\n  sub(codesize, bytecodeSize)\n  dup1\n  bytecodeSize\n  dup4\n  codecopy\n  dup2\n  add\n  0x40\n  dup2\n  swap1\n  mstore\n  tag_2\n  swap2\n  tag_3\n  jump\t// in\ntag_2:\n    /* \"contracts/ERC20StandardToken.sol\":1035:1264  constructor(string memory symbol_, string memory name_, uint8 decimals_, uint256 totalSupply_) {... */\n  mload(0x40)\n  dup1\n  0x40\n  add\n  0x40\n  mstore\n  dup1\n  0x02\n  dup2\n  mstore\n  0x20\n  add\n  shl(0xf1, 0x26ab)\n  dup2\n  mstore\n  pop\n  mload(0x40)\n  dup1\n  0x40\n  add\n  0x40\n  mstore\n  dup1\n  0x02\n  dup2\n  mstore\n  0x20\n  add\n  shl(0xf1, 0x26ab)\n  dup2\n  mstore\n  pop\n    /* \"contracts/MV.sol\":892:894  18 */\n  0x12\n    /* \"contracts/MV.sol\":896:912  100000000  ether */\n  0x52b7d2dcc80cd2e4000000\n    /* \"contracts/ERC20StandardToken.sol\":1151:1158  symbol_ */\n  dup4\n    /* \"contracts/ERC20StandardToken.sol\":1141:1148  _symbol */\n  0x02\n    /* \"contracts/ERC20StandardToken.sol\":1141:1158  _symbol = symbol_ */\n  swap1\n  dup2\n  tag_8\n  swap2\n  swap1\n  tag_9\n  jump\t// in\ntag_8:\n  pop\n    /* \"contracts/ERC20StandardToken.sol\":1169:1174  _name */\n  0x03\n    /* \"contracts/ERC20StandardToken.sol\":1169:1182  _name = name_ */\n  tag_10\n    /* \"contracts/ERC20StandardToken.sol\":1177:1182  name_ */\n  dup5\n    /* \"contracts/ERC20StandardToken.sol\":1169:1174  _name */\n  dup3\n    /* \"contracts/ERC20StandardToken.sol\":1169:1182  _name = name_ */\n  tag_9\n  jump\t// in\ntag_10:\n  pop\n    /* \"contracts/ERC20StandardToken.sol\":1193:1214  _decimals = decimals_ */\n  0xff\n  dup3\n  and\n  0x80\n  mstore\n    /* \"contracts/ERC20StandardToken.sol\":1225:1256  _mint(msg.sender, totalSupply_) */\n  tag_11\n    /* \"contracts/ERC20StandardToken.sol\":1231:1241  msg.sender */\n  caller\n    /* \"contracts/ERC20StandardToken.sol\":1243:1255  totalSupply_ */\n  dup3\n    /* \"contracts/ERC20StandardToken.sol\":1225:1230  _mint */\n  tag_12\n    /* \"contracts/ERC20StandardToken.sol\":1225:1256  _mint(msg.sender, totalSupply_) */\n  jump\t// in\ntag_11:\n  pop\n  pop\n    /* \"contracts/MV.sol\":449:454  owner */\n  0x05\n    /* \"contracts/MV.sol\":449:467  owner = msg.sender */\n  dup1\n  sload\n    /* \"contracts/MV.sol\":457:467  msg.sender */\n  caller\n  not(sub(shl(0xa0, 0x01), 0x01))\n    /* \"contracts/MV.sol\":449:467  owner = msg.sender */\n  swap2\n  dup3\n  and\n  or\n  swap1\n  swap2\n  sstore\n    /* \"contracts/MV.sol\":926:935  acbConfig */\n  0x06\n    /* \"contracts/MV.sol\":926:947  acbConfig =_acbConfig */\n  dup1\n  sload\n  swap1\n  swap2\n  and\n  sub(shl(0xa0, 0x01), 0x01)\n  swap5\n  swap1\n  swap5\n  and\n  swap4\n  swap1\n  swap4\n  or\n  swap1\n  swap3\n  sstore\n  pop\n    /* \"contracts/MV.sol\":711:1824  contract MvCoin is ERC20StandardToken, Ownable {... */\n  tag_29\n  swap1\n  pop\n  jump\n    /* \"contracts/ERC20StandardToken.sol\":4223:4533  function _mint(address account, uint256 amount) internal virtual {... */\ntag_12:\n  sub(shl(0xa0, 0x01), 0x01)\n    /* \"contracts/ERC20StandardToken.sol\":4307:4328  account != address(0) */\n  dup3\n  and\n    /* \"contracts/ERC20StandardToken.sol\":4299:4364  require(account != address(0), \"ERC20: mint to the zero address\") */\n  tag_17\n  jumpi\n  mload(0x40)\n  shl(0xe5, 0x461bcd)\n  dup2\n  mstore\n    /* \"#utility.yul\":3232:3234   */\n  0x20\n    /* \"contracts/ERC20StandardToken.sol\":4299:4364  require(account != address(0), \"ERC20: mint to the zero address\") */\n  0x04\n  dup3\n  add\n    /* \"#utility.yul\":3214:3235   */\n  mstore\n    /* \"#utility.yul\":3271:3273   */\n  0x1f\n    /* \"#utility.yul\":3251:3269   */\n  0x24\n  dup3\n  add\n    /* \"#utility.yul\":3244:3274   */\n  mstore\n    /* \"#utility.yul\":3310:3343   */\n  0x45524332303a206d696e7420746f20746865207a65726f206164647265737300\n    /* \"#utility.yul\":3290:3308   */\n  0x44\n  dup3\n  add\n    /* \"#utility.yul\":3283:3344   */\n  mstore\n    /* \"#utility.yul\":3361:3379   */\n  0x64\n  add\n    /* \"contracts/ERC20StandardToken.sol\":4299:4364  require(account != address(0), \"ERC20: mint to the zero address\") */\n  mload(0x40)\n  dup1\n  swap2\n  sub\n  swap1\n  revert\ntag_17:\n    /* \"contracts/ERC20StandardToken.sol\":4391:4397  amount */\n  dup1\n    /* \"contracts/ERC20StandardToken.sol\":4375:4387  _totalSupply */\n  0x04\n  0x00\n    /* \"contracts/ERC20StandardToken.sol\":4375:4397  _totalSupply += amount */\n  dup3\n  dup3\n  sload\n  tag_20\n  swap2\n  swap1\n  tag_21\n  jump\t// in\ntag_20:\n  swap1\n  swap2\n  sstore\n  pop\n  pop\n  sub(shl(0xa0, 0x01), 0x01)\n    /* \"contracts/ERC20StandardToken.sol\":4433:4451  _balances[account] */\n  dup3\n  and\n    /* \"contracts/ERC20StandardToken.sol\":4433:4442  _balances */\n  0x00\n    /* \"contracts/ERC20StandardToken.sol\":4433:4451  _balances[account] */\n  dup2\n  dup2\n  mstore\n  0x20\n  dup2\n  dup2\n  mstore\n  0x40\n  dup1\n  dup4\n  keccak256\n    /* \"contracts/ERC20StandardToken.sol\":4433:4461  _balances[account] += amount */\n  dup1\n  sload\n  dup7\n  add\n  swap1\n  sstore\n    /* \"contracts/ERC20StandardToken.sol\":4488:4525  Transfer(address(0), account, amount) */\n  mload\n    /* \"#utility.yul\":3763:3788   */\n  dup5\n  dup2\n  mstore\n    /* \"contracts/ERC20StandardToken.sol\":4488:4525  Transfer(address(0), account, amount) */\n  0xddf252ad1be2c89b69c2b068fc378daa952ba7f163c4a11628f55a4df523b3ef\n  swap2\n    /* \"#utility.yul\":3736:3754   */\n  add\n    /* \"contracts/ERC20StandardToken.sol\":4488:4525  Transfer(address(0), account, amount) */\n  mload(0x40)\n  dup1\n  swap2\n  sub\n  swap1\n  log3\n    /* \"contracts/ERC20StandardToken.sol\":4223:4533  function _mint(address account, uint256 amount) internal virtual {... */\n  pop\n  pop\n  jump\t// out\n    /* \"#utility.yul\":14:304   */\ntag_3:\n    /* \"#utility.yul\":84:90   */\n  0x00\n    /* \"#utility.yul\":137:139   */\n  0x20\n    /* \"#utility.yul\":125:134   */\n  dup3\n    /* \"#utility.yul\":116:123   */\n  dup5\n    /* \"#utility.yul\":112:135   */\n  sub\n    /* \"#utility.yul\":108:140   */\n  slt\n    /* \"#utility.yul\":105:157   */\n  iszero\n  tag_31\n  jumpi\n    /* \"#utility.yul\":153:154   */\n  0x00\n    /* \"#utility.yul\":150:151   */\n  dup1\n    /* \"#utility.yul\":143:155   */\n  revert\n    /* \"#utility.yul\":105:157   */\ntag_31:\n    /* \"#utility.yul\":179:195   */\n  dup2\n  mload\n  sub(shl(0xa0, 0x01), 0x01)\n    /* \"#utility.yul\":224:255   */\n  dup2\n  and\n    /* \"#utility.yul\":214:256   */\n  dup2\n  eq\n    /* \"#utility.yul\":204:274   */\n  tag_32\n  jumpi\n    /* \"#utility.yul\":270:271   */\n  0x00\n    /* \"#utility.yul\":267:268   */\n  dup1\n    /* \"#utility.yul\":260:272   */\n  revert\n    /* \"#utility.yul\":204:274   */\ntag_32:\n    /* \"#utility.yul\":293:298   */\n  swap4\n    /* \"#utility.yul\":14:304   */\n  swap3\n  pop\n  pop\n  pop\n  jump\t// out\n    /* \"#utility.yul\":309:436   */\ntag_24:\n    /* \"#utility.yul\":370:380   */\n  0x4e487b71\n    /* \"#utility.yul\":365:368   */\n  0xe0\n    /* \"#utility.yul\":361:381   */\n  shl\n    /* \"#utility.yul\":358:359   */\n  0x00\n    /* \"#utility.yul\":351:382   */\n  mstore\n    /* \"#utility.yul\":401:405   */\n  0x41\n    /* \"#utility.yul\":398:399   */\n  0x04\n    /* \"#utility.yul\":391:406   */\n  mstore\n    /* \"#utility.yul\":425:429   */\n  0x24\n    /* \"#utility.yul\":422:423   */\n  0x00\n    /* \"#utility.yul\":415:430   */\n  revert\n    /* \"#utility.yul\":441:821   */\ntag_25:\n    /* \"#utility.yul\":520:521   */\n  0x01\n    /* \"#utility.yul\":516:528   */\n  dup2\n  dup2\n  shr\n  swap1\n    /* \"#utility.yul\":563:575   */\n  dup3\n  and\n  dup1\n    /* \"#utility.yul\":584:645   */\n  tag_35\n  jumpi\n    /* \"#utility.yul\":638:642   */\n  0x7f\n    /* \"#utility.yul\":630:636   */\n  dup3\n    /* \"#utility.yul\":626:643   */\n  and\n    /* \"#utility.yul\":616:643   */\n  swap2\n  pop\n    /* \"#utility.yul\":584:645   */\ntag_35:\n    /* \"#utility.yul\":691:693   */\n  0x20\n    /* \"#utility.yul\":683:689   */\n  dup3\n    /* \"#utility.yul\":680:694   */\n  lt\n    /* \"#utility.yul\":660:678   */\n  dup2\n    /* \"#utility.yul\":657:695   */\n  sub\n    /* \"#utility.yul\":654:815   */\n  tag_36\n  jumpi\n    /* \"#utility.yul\":737:747   */\n  0x4e487b71\n    /* \"#utility.yul\":732:735   */\n  0xe0\n    /* \"#utility.yul\":728:748   */\n  shl\n    /* \"#utility.yul\":725:726   */\n  0x00\n    /* \"#utility.yul\":718:749   */\n  mstore\n    /* \"#utility.yul\":772:776   */\n  0x22\n    /* \"#utility.yul\":769:770   */\n  0x04\n    /* \"#utility.yul\":762:777   */\n  mstore\n    /* \"#utility.yul\":800:804   */\n  0x24\n    /* \"#utility.yul\":797:798   */\n  0x00\n    /* \"#utility.yul\":790:805   */\n  revert\n    /* \"#utility.yul\":654:815   */\ntag_36:\n  pop\n    /* \"#utility.yul\":441:821   */\n  swap2\n  swap1\n  pop\n  jump\t// out\n    /* \"#utility.yul\":952:1497   */\ntag_27:\n    /* \"#utility.yul\":1054:1056   */\n  0x1f\n    /* \"#utility.yul\":1049:1052   */\n  dup3\n    /* \"#utility.yul\":1046:1057   */\n  gt\n    /* \"#utility.yul\":1043:1491   */\n  iszero\n  tag_39\n  jumpi\n    /* \"#utility.yul\":1090:1091   */\n  0x00\n    /* \"#utility.yul\":1115:1120   */\n  dup2\n    /* \"#utility.yul\":1111:1113   */\n  dup2\n    /* \"#utility.yul\":1104:1121   */\n  mstore\n    /* \"#utility.yul\":1160:1164   */\n  0x20\n    /* \"#utility.yul\":1156:1158   */\n  dup2\n    /* \"#utility.yul\":1146:1165   */\n  keccak256\n    /* \"#utility.yul\":1230:1232   */\n  0x1f\n    /* \"#utility.yul\":1218:1228   */\n  dup6\n    /* \"#utility.yul\":1214:1233   */\n  add\n    /* \"#utility.yul\":1211:1212   */\n  0x05\n    /* \"#utility.yul\":1207:1234   */\n  shr\n    /* \"#utility.yul\":1201:1205   */\n  dup2\n    /* \"#utility.yul\":1197:1235   */\n  add\n    /* \"#utility.yul\":1266:1270   */\n  0x20\n    /* \"#utility.yul\":1254:1264   */\n  dup7\n    /* \"#utility.yul\":1251:1271   */\n  lt\n    /* \"#utility.yul\":1248:1295   */\n  iszero\n  tag_40\n  jumpi\n  pop\n    /* \"#utility.yul\":1289:1293   */\n  dup1\n    /* \"#utility.yul\":1248:1295   */\ntag_40:\n    /* \"#utility.yul\":1344:1346   */\n  0x1f\n    /* \"#utility.yul\":1339:1342   */\n  dup6\n    /* \"#utility.yul\":1335:1347   */\n  add\n    /* \"#utility.yul\":1332:1333   */\n  0x05\n    /* \"#utility.yul\":1328:1348   */\n  shr\n    /* \"#utility.yul\":1322:1326   */\n  dup3\n    /* \"#utility.yul\":1318:1349   */\n  add\n    /* \"#utility.yul\":1308:1349   */\n  swap2\n  pop\n    /* \"#utility.yul\":1399:1481   */\ntag_41:\n    /* \"#utility.yul\":1417:1419   */\n  dup2\n    /* \"#utility.yul\":1410:1415   */\n  dup2\n    /* \"#utility.yul\":1407:1420   */\n  lt\n    /* \"#utility.yul\":1399:1481   */\n  iszero\n  tag_43\n  jumpi\n    /* \"#utility.yul\":1462:1479   */\n  dup3\n  dup2\n  sstore\n    /* \"#utility.yul\":1443:1444   */\n  0x01\n    /* \"#utility.yul\":1432:1445   */\n  add\n    /* \"#utility.yul\":1399:1481   */\n  jump(tag_41)\ntag_43:\n    /* \"#utility.yul\":1403:1406   */\n  pop\n  pop\n  pop\n    /* \"#utility.yul\":1043:1491   */\ntag_39:\n    /* \"#utility.yul\":952:1497   */\n  pop\n  pop\n  pop\n  jump\t// out\n    /* \"#utility.yul\":1673:3025   */\ntag_9:\n    /* \"#utility.yul\":1793:1803   */\n  dup2\n  mload\n  sub(shl(0x40, 0x01), 0x01)\n    /* \"#utility.yul\":1815:1845   */\n  dup2\n  gt\n    /* \"#utility.yul\":1812:1868   */\n  iszero\n  tag_47\n  jumpi\n    /* \"#utility.yul\":1848:1866   */\n  tag_47\n  tag_24\n  jump\t// in\ntag_47:\n    /* \"#utility.yul\":1877:1974   */\n  tag_48\n    /* \"#utility.yul\":1967:1973   */\n  dup2\n    /* \"#utility.yul\":1927:1965   */\n  tag_49\n    /* \"#utility.yul\":1959:1963   */\n  dup5\n    /* \"#utility.yul\":1953:1964   */\n  sload\n    /* \"#utility.yul\":1927:1965   */\n  tag_25\n  jump\t// in\ntag_49:\n    /* \"#utility.yul\":1921:1925   */\n  dup5\n    /* \"#utility.yul\":1877:1974   */\n  tag_27\n  jump\t// in\ntag_48:\n    /* \"#utility.yul\":2029:2033   */\n  0x20\n  dup1\n    /* \"#utility.yul\":2093:2095   */\n  0x1f\n    /* \"#utility.yul\":2082:2096   */\n  dup4\n  gt\n    /* \"#utility.yul\":2110:2111   */\n  0x01\n    /* \"#utility.yul\":2105:2768   */\n  dup2\n  eq\n  tag_51\n  jumpi\n    /* \"#utility.yul\":2812:2813   */\n  0x00\n    /* \"#utility.yul\":2829:2835   */\n  dup5\n    /* \"#utility.yul\":2826:2915   */\n  iszero\n  tag_52\n  jumpi\n  pop\n    /* \"#utility.yul\":2881:2900   */\n  dup6\n  dup4\n  add\n    /* \"#utility.yul\":2875:2901   */\n  mload\n    /* \"#utility.yul\":2826:2915   */\ntag_52:\n  not(0x00)\n    /* \"#utility.yul\":1630:1631   */\n  0x03\n    /* \"#utility.yul\":1626:1637   */\n  dup7\n  swap1\n  shl\n    /* \"#utility.yul\":1622:1646   */\n  shr\n    /* \"#utility.yul\":1618:1647   */\n  not\n    /* \"#utility.yul\":1608:1648   */\n  and\n    /* \"#utility.yul\":1654:1655   */\n  0x01\n    /* \"#utility.yul\":1650:1661   */\n  dup6\n  swap1\n  shl\n    /* \"#utility.yul\":1605:1662   */\n  or\n    /* \"#utility.yul\":2928:3009   */\n  dup6\n  sstore\n    /* \"#utility.yul\":2075:3019   */\n  jump(tag_43)\n    /* \"#utility.yul\":2105:2768   */\ntag_51:\n    /* \"#utility.yul\":899:900   */\n  0x00\n    /* \"#utility.yul\":892:906   */\n  dup6\n  dup2\n  mstore\n    /* \"#utility.yul\":936:940   */\n  0x20\n    /* \"#utility.yul\":923:941   */\n  dup2\n  keccak256\n  not(0x1f)\n    /* \"#utility.yul\":2141:2161   */\n  dup7\n  and\n  swap2\n    /* \"#utility.yul\":2259:2495   */\ntag_55:\n    /* \"#utility.yul\":2273:2280   */\n  dup3\n    /* \"#utility.yul\":2270:2271   */\n  dup2\n    /* \"#utility.yul\":2267:2281   */\n  lt\n    /* \"#utility.yul\":2259:2495   */\n  iszero\n  tag_57\n  jumpi\n    /* \"#utility.yul\":2362:2381   */\n  dup9\n  dup7\n  add\n    /* \"#utility.yul\":2356:2382   */\n  mload\n    /* \"#utility.yul\":2341:2383   */\n  dup3\n  sstore\n    /* \"#utility.yul\":2454:2481   */\n  swap5\n  dup5\n  add\n  swap5\n    /* \"#utility.yul\":2422:2423   */\n  0x01\n    /* \"#utility.yul\":2410:2424   */\n  swap1\n  swap2\n  add\n  swap1\n    /* \"#utility.yul\":2289:2308   */\n  dup5\n  add\n    /* \"#utility.yul\":2259:2495   */\n  jump(tag_55)\ntag_57:\n    /* \"#utility.yul\":2263:2266   */\n  pop\n    /* \"#utility.yul\":2523:2529   */\n  dup6\n    /* \"#utility.yul\":2514:2521   */\n  dup3\n    /* \"#utility.yul\":2511:2530   */\n  lt\n    /* \"#utility.yul\":2508:2709   */\n  iszero\n  tag_58\n  jumpi\n    /* \"#utility.yul\":2584:2603   */\n  dup8\n  dup6\n  add\n    /* \"#utility.yul\":2578:2604   */\n  mload\n  not(0x00)\n    /* \"#utility.yul\":2667:2668   */\n  0x03\n    /* \"#utility.yul\":2663:2677   */\n  dup9\n  swap1\n  shl\n    /* \"#utility.yul\":2679:2682   */\n  0xf8\n    /* \"#utility.yul\":2659:2683   */\n  and\n    /* \"#utility.yul\":2655:2692   */\n  shr\n    /* \"#utility.yul\":2651:2693   */\n  not\n    /* \"#utility.yul\":2636:2694   */\n  and\n    /* \"#utility.yul\":2621:2695   */\n  dup2\n  sstore\n    /* \"#utility.yul\":2508:2709   */\ntag_58:\n  pop\n  pop\n  pop\n  pop\n  pop\n    /* \"#utility.yul\":2755:2756   */\n  0x01\n    /* \"#utility.yul\":2739:2753   */\n  swap1\n  dup2\n  shl\n    /* \"#utility.yul\":2735:2757   */\n  add\n    /* \"#utility.yul\":2722:2758   */\n  swap1\n  sstore\n  pop\n    /* \"#utility.yul\":1673:3025   */\n  jump\t// out\n    /* \"#utility.yul\":3390:3612   */\ntag_21:\n    /* \"#utility.yul\":3455:3464   */\n  dup1\n  dup3\n  add\n    /* \"#utility.yul\":3476:3486   */\n  dup1\n  dup3\n  gt\n    /* \"#utility.yul\":3473:3606   */\n  iszero\n  tag_61\n  jumpi\n    /* \"#utility.yul\":3528:3538   */\n  0x4e487b71\n    /* \"#utility.yul\":3523:3526   */\n  0xe0\n    /* \"#utility.yul\":3519:3539   */\n  shl\n    /* \"#utility.yul\":3516:3517   */\n  0x00\n    /* \"#utility.yul\":3509:3540   */\n  mstore\n    /* \"#utility.yul\":3563:3567   */\n  0x11\n    /* \"#utility.yul\":3560:3561   */\n  0x04\n    /* \"#utility.yul\":3553:3568   */\n  mstore\n    /* \"#utility.yul\":3591:3595   */\n  0x24\n    /* \"#utility.yul\":3588:3589   */\n  0x00\n    /* \"#utility.yul\":3581:3596   */\n  revert\n    /* \"#utility.yul\":3473:3606   */\ntag_61:\n    /* \"#utility.yul\":3390:3612   */\n  swap3\n  swap2\n  pop\n  pop\n  jump\t// out\n    /* \"#utility.yul\":3617:3794   */\ntag_29:\n    /* \"contracts/MV.sol\":711:1824  contract MvCoin is ERC20StandardToken, Ownable {... */\n  mload(0x80)\n  codecopy(0x00, dataOffset(sub_0), dataSize(sub_0))\n  0x00\n  assignImmutable(\"0xcc193713febc75d3d9bd2f9ce113f403ff19633f15c8cdbcf79756ae23e77f9a\")\n  return(0x00, dataSize(sub_0))\nstop\n\nsub_0: assembly {\n        /* \"contracts/MV.sol\":711:1824  contract MvCoin is ERC20StandardToken, Ownable {... */\n      mstore(0x40, 0x80)\n      callvalue\n      dup1\n      iszero\n      tag_1\n      jumpi\n      0x00\n      dup1\n      revert\n    tag_1:\n      pop\n      jumpi(tag_2, lt(calldatasize, 0x04))\n      shr(0xe0, calldataload(0x00))\n      dup1\n      0x06fdde03\n      eq\n      tag_3\n      jumpi\n      dup1\n      0x095ea7b3\n      eq\n      tag_4\n      jumpi\n      dup1\n      0x18160ddd\n      eq\n      tag_5\n      jumpi\n      dup1\n      0x210835ae\n      eq\n      tag_6\n      jumpi\n      dup1\n      0x23b872dd\n      eq\n      tag_7\n      jumpi\n      dup1\n      0x313ce567\n      eq\n      tag_8\n      jumpi\n      dup1\n      0x70a08231\n      eq\n      tag_9\n      jumpi\n      dup1\n      0x8da5cb5b\n      eq\n      tag_10\n      jumpi\n      dup1\n      0x95d89b41\n      eq\n      tag_11\n      jumpi\n      dup1\n      0xa9059cbb\n      eq\n      tag_12\n      jumpi\n      dup1\n      0xd0675bfd\n      eq\n      tag_13\n      jumpi\n      dup1\n      0xdba64f8f\n      eq\n      tag_14\n      jumpi\n      dup1\n      0xdd62ed3e\n      eq\n      tag_15\n      jumpi\n      dup1\n      0xf2fde38b\n      eq\n      tag_16\n      jumpi\n    tag_2:\n      0x00\n      dup1\n      revert\n        /* \"contracts/ERC20StandardToken.sol\":1375:1466  function name() public view virtual returns (string memory) {... */\n    tag_3:\n      tag_17\n      tag_18\n      jump\t// in\n    tag_17:\n      mload(0x40)\n      tag_19\n      swap2\n      swap1\n      tag_20\n      jump\t// in\n    tag_19:\n      mload(0x40)\n      dup1\n      swap2\n      sub\n      swap1\n      return\n        /* \"contracts/ERC20StandardToken.sol\":2154:2321  function approve(address spender, uint256 amount) public virtual override returns (bool) {... */\n    tag_4:\n      tag_21\n      tag_22\n      calldatasize\n      0x04\n      tag_23\n      jump\t// in\n    tag_22:\n      tag_24\n      jump\t// in\n    tag_21:\n      mload(0x40)\n        /* \"#utility.yul\":1188:1202   */\n      swap1\n      iszero\n        /* \"#utility.yul\":1181:1203   */\n      iszero\n        /* \"#utility.yul\":1163:1204   */\n      dup2\n      mstore\n        /* \"#utility.yul\":1151:1153   */\n      0x20\n        /* \"#utility.yul\":1136:1154   */\n      add\n        /* \"contracts/ERC20StandardToken.sol\":2154:2321  function approve(address spender, uint256 amount) public virtual override returns (bool) {... */\n      tag_19\n        /* \"#utility.yul\":1023:1210   */\n      jump\n        /* \"contracts/ERC20StandardToken.sol\":1575:1683  function totalSupply() public view virtual override returns (uint256) {... */\n    tag_5:\n        /* \"contracts/ERC20StandardToken.sol\":1663:1675  _totalSupply */\n      sload(0x04)\n        /* \"contracts/ERC20StandardToken.sol\":1575:1683  function totalSupply() public view virtual override returns (uint256) {... */\n    tag_27:\n      mload(0x40)\n        /* \"#utility.yul\":1361:1386   */\n      swap1\n      dup2\n      mstore\n        /* \"#utility.yul\":1349:1351   */\n      0x20\n        /* \"#utility.yul\":1334:1352   */\n      add\n        /* \"contracts/ERC20StandardToken.sol\":1575:1683  function totalSupply() public view virtual override returns (uint256) {... */\n      tag_19\n        /* \"#utility.yul\":1215:1392   */\n      jump\n        /* \"contracts/MV.sol\":1708:1808  function changeConfig(address _acbConfig)external onlyOwner{... */\n    tag_6:\n      tag_31\n      tag_32\n      calldatasize\n      0x04\n      tag_33\n      jump\t// in\n    tag_32:\n      tag_34\n      jump\t// in\n    tag_31:\n      stop\n        /* \"contracts/ERC20StandardToken.sol\":2329:2552  function transferFrom(address from, address to, uint256 amount) public virtual override returns (bool) {... */\n    tag_7:\n      tag_21\n      tag_36\n      calldatasize\n      0x04\n      tag_37\n      jump\t// in\n    tag_36:\n      tag_38\n      jump\t// in\n        /* \"contracts/ERC20StandardToken.sol\":1474:1565  function decimals() public view virtual returns (uint8) {... */\n    tag_8:\n      mload(0x40)\n        /* \"#utility.yul\":2282:2286   */\n      0xff\n        /* \"contracts/ERC20StandardToken.sol\":1548:1557  _decimals */\n      immutable(\"0xcc193713febc75d3d9bd2f9ce113f403ff19633f15c8cdbcf79756ae23e77f9a\")\n        /* \"#utility.yul\":2270:2287   */\n      and\n        /* \"#utility.yul\":2252:2288   */\n      dup2\n      mstore\n        /* \"#utility.yul\":2240:2242   */\n      0x20\n        /* \"#utility.yul\":2225:2243   */\n      add\n        /* \"contracts/ERC20StandardToken.sol\":1474:1565  function decimals() public view virtual returns (uint8) {... */\n      tag_19\n        /* \"#utility.yul\":2110:2294   */\n      jump\n        /* \"contracts/ERC20StandardToken.sol\":1691:1818  function balanceOf(address account) public view virtual override returns (uint256) {... */\n    tag_9:\n      tag_27\n      tag_45\n      calldatasize\n      0x04\n      tag_33\n      jump\t// in\n    tag_45:\n      sub(shl(0xa0, 0x01), 0x01)\n        /* \"contracts/ERC20StandardToken.sol\":1792:1810  _balances[account] */\n      and\n        /* \"contracts/ERC20StandardToken.sol\":1765:1772  uint256 */\n      0x00\n        /* \"contracts/ERC20StandardToken.sol\":1792:1810  _balances[account] */\n      swap1\n      dup2\n      mstore\n      0x20\n      dup2\n      swap1\n      mstore\n      0x40\n      swap1\n      keccak256\n      sload\n      swap1\n        /* \"contracts/ERC20StandardToken.sol\":1691:1818  function balanceOf(address account) public view virtual override returns (uint256) {... */\n      jump\n        /* \"contracts/MV.sol\":394:414  address public owner */\n    tag_10:\n      sload(0x05)\n      tag_48\n      swap1\n      sub(shl(0xa0, 0x01), 0x01)\n      and\n      dup2\n      jump\n    tag_48:\n      mload(0x40)\n      sub(shl(0xa0, 0x01), 0x01)\n        /* \"#utility.yul\":2463:2495   */\n      swap1\n      swap2\n      and\n        /* \"#utility.yul\":2445:2496   */\n      dup2\n      mstore\n        /* \"#utility.yul\":2433:2435   */\n      0x20\n        /* \"#utility.yul\":2418:2436   */\n      add\n        /* \"contracts/MV.sol\":394:414  address public owner */\n      tag_19\n        /* \"#utility.yul\":2299:2502   */\n      jump\n        /* \"contracts/ERC20StandardToken.sol\":1272:1367  function symbol() public view virtual returns (string memory) {... */\n    tag_11:\n      tag_17\n      tag_53\n      jump\t// in\n        /* \"contracts/ERC20StandardToken.sol\":1987:2146  function transfer(address to, uint256 amount) public virtual override returns (bool) {... */\n    tag_12:\n      tag_21\n      tag_56\n      calldatasize\n      0x04\n      tag_23\n      jump\t// in\n    tag_56:\n      tag_57\n      jump\t// in\n        /* \"contracts/MV.sol\":1295:1702  function usdtswap(uint256 amount)external {... */\n    tag_13:\n      tag_31\n      tag_60\n      calldatasize\n      0x04\n      tag_61\n      jump\t// in\n    tag_60:\n      tag_62\n      jump\t// in\n        /* \"contracts/MV.sol\":784:809  address public  acbConfig */\n    tag_14:\n      sload(0x06)\n      tag_48\n      swap1\n      sub(shl(0xa0, 0x01), 0x01)\n      and\n      dup2\n      jump\n        /* \"contracts/ERC20StandardToken.sol\":1826:1977  function allowance(address owner, address spender) public view virtual override returns (uint256) {... */\n    tag_15:\n      tag_27\n      tag_67\n      calldatasize\n      0x04\n      tag_68\n      jump\t// in\n    tag_67:\n      sub(shl(0xa0, 0x01), 0x01)\n        /* \"contracts/ERC20StandardToken.sol\":1942:1960  _allowances[owner] */\n      swap2\n      dup3\n      and\n        /* \"contracts/ERC20StandardToken.sol\":1915:1922  uint256 */\n      0x00\n        /* \"contracts/ERC20StandardToken.sol\":1942:1960  _allowances[owner] */\n      swap1\n      dup2\n      mstore\n        /* \"contracts/ERC20StandardToken.sol\":1942:1953  _allowances */\n      0x01\n        /* \"contracts/ERC20StandardToken.sol\":1942:1960  _allowances[owner] */\n      0x20\n      swap1\n      dup2\n      mstore\n      0x40\n      dup1\n      dup4\n      keccak256\n        /* \"contracts/ERC20StandardToken.sol\":1942:1969  _allowances[owner][spender] */\n      swap4\n      swap1\n      swap5\n      and\n      dup3\n      mstore\n      swap2\n      swap1\n      swap2\n      mstore\n      keccak256\n      sload\n      swap1\n        /* \"contracts/ERC20StandardToken.sol\":1826:1977  function allowance(address owner, address spender) public view virtual override returns (uint256) {... */\n      jump\n        /* \"contracts/MV.sol\":607:704  function transferOwnership(address newOwner) public onlyOwner {... */\n    tag_16:\n      tag_31\n      tag_72\n      calldatasize\n      0x04\n      tag_33\n      jump\t// in\n    tag_72:\n      tag_73\n      jump\t// in\n        /* \"contracts/ERC20StandardToken.sol\":1375:1466  function name() public view virtual returns (string memory) {... */\n    tag_18:\n        /* \"contracts/ERC20StandardToken.sol\":1420:1433  string memory */\n      0x60\n        /* \"contracts/ERC20StandardToken.sol\":1453:1458  _name */\n      0x03\n        /* \"contracts/ERC20StandardToken.sol\":1446:1458  return _name */\n      dup1\n      sload\n      tag_75\n      swap1\n      tag_76\n      jump\t// in\n    tag_75:\n      dup1\n      0x1f\n      add\n      0x20\n      dup1\n      swap2\n      div\n      mul\n      0x20\n      add\n      mload(0x40)\n      swap1\n      dup2\n      add\n      0x40\n      mstore\n      dup1\n      swap3\n      swap2\n      swap1\n      dup2\n      dup2\n      mstore\n      0x20\n      add\n      dup3\n      dup1\n      sload\n      tag_77\n      swap1\n      tag_76\n      jump\t// in\n    tag_77:\n      dup1\n      iszero\n      tag_78\n      jumpi\n      dup1\n      0x1f\n      lt\n      tag_79\n      jumpi\n      0x0100\n      dup1\n      dup4\n      sload\n      div\n      mul\n      dup4\n      mstore\n      swap2\n      0x20\n      add\n      swap2\n      jump(tag_78)\n    tag_79:\n      dup3\n      add\n      swap2\n      swap1\n      0x00\n      mstore\n      keccak256(0x00, 0x20)\n      swap1\n    tag_80:\n      dup2\n      sload\n      dup2\n      mstore\n      swap1\n      0x01\n      add\n      swap1\n      0x20\n      add\n      dup1\n      dup4\n      gt\n      tag_80\n      jumpi\n      dup3\n      swap1\n      sub\n      0x1f\n      and\n      dup3\n      add\n      swap2\n    tag_78:\n      pop\n      pop\n      pop\n      pop\n      pop\n      swap1\n      pop\n        /* \"contracts/ERC20StandardToken.sol\":1375:1466  function name() public view virtual returns (string memory) {... */\n      swap1\n      jump\t// out\n        /* \"contracts/ERC20StandardToken.sol\":2154:2321  function approve(address spender, uint256 amount) public virtual override returns (bool) {... */\n    tag_24:\n        /* \"contracts/ERC20StandardToken.sol\":2237:2241  bool */\n      0x00\n        /* \"contracts/ERC20StandardToken.sol\":2254:2291  _approve(msg.sender, spender, amount) */\n      tag_82\n        /* \"contracts/ERC20StandardToken.sol\":2263:2273  msg.sender */\n      caller\n        /* \"contracts/ERC20StandardToken.sol\":2275:2282  spender */\n      dup5\n        /* \"contracts/ERC20StandardToken.sol\":2284:2290  amount */\n      dup5\n        /* \"contracts/ERC20StandardToken.sol\":2254:2262  _approve */\n      tag_83\n        /* \"contracts/ERC20StandardToken.sol\":2254:2291  _approve(msg.sender, spender, amount) */\n      jump\t// in\n    tag_82:\n      pop\n        /* \"contracts/ERC20StandardToken.sol\":2309:2313  true */\n      0x01\n        /* \"contracts/ERC20StandardToken.sol\":2154:2321  function approve(address spender, uint256 amount) public virtual override returns (bool) {... */\n    tag_81:\n      swap3\n      swap2\n      pop\n      pop\n      jump\t// out\n        /* \"contracts/MV.sol\":1708:1808  function changeConfig(address _acbConfig)external onlyOwner{... */\n    tag_34:\n        /* \"contracts/MV.sol\":523:528  owner */\n      and(sub(shl(0xa0, 0x01), 0x01), sload(0x05))\n        /* \"contracts/MV.sol\":532:542  msg.sender */\n      caller\n        /* \"contracts/MV.sol\":523:542  owner == msg.sender */\n      eq\n        /* \"contracts/MV.sol\":515:579  require(owner == msg.sender, \"Ownable: caller is not the owner\") */\n      tag_86\n      jumpi\n      mload(0x40)\n      shl(0xe5, 0x461bcd)\n      dup2\n      mstore\n      0x04\n      add\n      tag_87\n      swap1\n      tag_88\n      jump\t// in\n    tag_87:\n      mload(0x40)\n      dup1\n      swap2\n      sub\n      swap1\n      revert\n    tag_86:\n        /* \"contracts/MV.sol\":1778:1787  acbConfig */\n      0x06\n        /* \"contracts/MV.sol\":1778:1800  acbConfig = _acbConfig */\n      dup1\n      sload\n      not(sub(shl(0xa0, 0x01), 0x01))\n      and\n      sub(shl(0xa0, 0x01), 0x01)\n      swap3\n      swap1\n      swap3\n      and\n      swap2\n      swap1\n      swap2\n      or\n      swap1\n      sstore\n        /* \"contracts/MV.sol\":1708:1808  function changeConfig(address _acbConfig)external onlyOwner{... */\n      jump\t// out\n        /* \"contracts/ERC20StandardToken.sol\":2329:2552  function transferFrom(address from, address to, uint256 amount) public virtual override returns (bool) {... */\n    tag_38:\n        /* \"contracts/ERC20StandardToken.sol\":2426:2430  bool */\n      0x00\n        /* \"contracts/ERC20StandardToken.sol\":2443:2484  _spendAllowance(from, msg.sender, amount) */\n      tag_91\n        /* \"contracts/ERC20StandardToken.sol\":2459:2463  from */\n      dup5\n        /* \"contracts/ERC20StandardToken.sol\":2465:2475  msg.sender */\n      caller\n        /* \"contracts/ERC20StandardToken.sol\":2477:2483  amount */\n      dup5\n        /* \"contracts/ERC20StandardToken.sol\":2443:2458  _spendAllowance */\n      tag_92\n        /* \"contracts/ERC20StandardToken.sol\":2443:2484  _spendAllowance(from, msg.sender, amount) */\n      jump\t// in\n    tag_91:\n        /* \"contracts/ERC20StandardToken.sol\":2495:2522  _transfer(from, to, amount) */\n      tag_93\n        /* \"contracts/ERC20StandardToken.sol\":2505:2509  from */\n      dup5\n        /* \"contracts/ERC20StandardToken.sol\":2511:2513  to */\n      dup5\n        /* \"contracts/ERC20StandardToken.sol\":2515:2521  amount */\n      dup5\n        /* \"contracts/ERC20StandardToken.sol\":2495:2504  _transfer */\n      tag_94\n        /* \"contracts/ERC20StandardToken.sol\":2495:2522  _transfer(from, to, amount) */\n      jump\t// in\n    tag_93:\n      pop\n        /* \"contracts/ERC20StandardToken.sol\":2540:2544  true */\n      0x01\n        /* \"contracts/ERC20StandardToken.sol\":2329:2552  function transferFrom(address from, address to, uint256 amount) public virtual override returns (bool) {... */\n      swap4\n      swap3\n      pop\n      pop\n      pop\n      jump\t// out\n        /* \"contracts/ERC20StandardToken.sol\":1272:1367  function symbol() public view virtual returns (string memory) {... */\n    tag_53:\n        /* \"contracts/ERC20StandardToken.sol\":1319:1332  string memory */\n      0x60\n        /* \"contracts/ERC20StandardToken.sol\":1352:1359  _symbol */\n      0x02\n        /* \"contracts/ERC20StandardToken.sol\":1345:1359  return _symbol */\n      dup1\n      sload\n      tag_75\n      swap1\n      tag_76\n      jump\t// in\n        /* \"contracts/ERC20StandardToken.sol\":1987:2146  function transfer(address to, uint256 amount) public virtual override returns (bool) {... */\n    tag_57:\n        /* \"contracts/ERC20StandardToken.sol\":2066:2070  bool */\n      0x00\n        /* \"contracts/ERC20StandardToken.sol\":2083:2116  _transfer(msg.sender, to, amount) */\n      tag_82\n        /* \"contracts/ERC20StandardToken.sol\":2093:2103  msg.sender */\n      caller\n        /* \"contracts/ERC20StandardToken.sol\":2105:2107  to */\n      dup5\n        /* \"contracts/ERC20StandardToken.sol\":2109:2115  amount */\n      dup5\n        /* \"contracts/ERC20StandardToken.sol\":2083:2092  _transfer */\n      tag_94\n        /* \"contracts/ERC20StandardToken.sol\":2083:2116  _transfer(msg.sender, to, amount) */\n      jump\t// in\n        /* \"contracts/MV.sol\":1295:1702  function usdtswap(uint256 amount)external {... */\n    tag_62:\n        /* \"contracts/MV.sol\":1378:1387  acbConfig */\n      0x06\n      0x00\n      swap1\n      sload\n      swap1\n      0x0100\n      exp\n      swap1\n      div\n      sub(shl(0xa0, 0x01), 0x01)\n      and\n      sub(shl(0xa0, 0x01), 0x01)\n        /* \"contracts/MV.sol\":1369:1393  ACCONFIG(acbConfig).usdt */\n      and\n      0x2f48ab7d\n        /* \"contracts/MV.sol\":1369:1395  ACCONFIG(acbConfig).usdt() */\n      mload(0x40)\n      dup2\n      0xffffffff\n      and\n      0xe0\n      shl\n      dup2\n      mstore\n      0x04\n      add\n      0x20\n      mload(0x40)\n      dup1\n      dup4\n      sub\n      dup2\n      dup7\n      gas\n      staticcall\n      iszero\n      dup1\n      iszero\n      tag_107\n      jumpi\n      returndatasize\n      0x00\n      dup1\n      returndatacopy\n      revert(0x00, returndatasize)\n    tag_107:\n      pop\n      pop\n      pop\n      pop\n      mload(0x40)\n      returndatasize\n      not(0x1f)\n      0x1f\n      dup3\n      add\n      and\n      dup3\n      add\n      dup1\n      0x40\n      mstore\n      pop\n      dup2\n      add\n      swap1\n      tag_108\n      swap2\n      swap1\n      tag_109\n      jump\t// in\n    tag_108:\n      sub(shl(0xa0, 0x01), 0x01)\n        /* \"contracts/MV.sol\":1350:1409  ERC20StandardToken(ACCONFIG(acbConfig).usdt()).transferFrom */\n      and\n      0x23b872dd\n        /* \"contracts/MV.sol\":1410:1420  msg.sender */\n      caller\n        /* \"contracts/MV.sol\":1431:1440  acbConfig */\n      0x06\n      0x00\n      swap1\n      sload\n      swap1\n      0x0100\n      exp\n      swap1\n      div\n      sub(shl(0xa0, 0x01), 0x01)\n      and\n      sub(shl(0xa0, 0x01), 0x01)\n        /* \"contracts/MV.sol\":1422:1457  ACCONFIG(acbConfig).platformAddress */\n      and\n      0xdbe55e56\n        /* \"contracts/MV.sol\":1422:1459  ACCONFIG(acbConfig).platformAddress() */\n      mload(0x40)\n      dup2\n      0xffffffff\n      and\n      0xe0\n      shl\n      dup2\n      mstore\n      0x04\n      add\n      0x20\n      mload(0x40)\n      dup1\n      dup4\n      sub\n      dup2\n      dup7\n      gas\n      staticcall\n      iszero\n      dup1\n      iszero\n      tag_111\n      jumpi\n      returndatasize\n      0x00\n      dup1\n      returndatacopy\n      revert(0x00, returndatasize)\n    tag_111:\n      pop\n      pop\n      pop\n      pop\n      mload(0x40)\n      returndatasize\n      not(0x1f)\n      0x1f\n      dup3\n      add\n      and\n      dup3\n      add\n      dup1\n      0x40\n      mstore\n      pop\n      dup2\n      add\n      swap1\n      tag_112\n      swap2\n      swap1\n      tag_109\n      jump\t// in\n    tag_112:\n        /* \"contracts/MV.sol\":1479:1488  acbConfig */\n      sload(0x06)\n        /* \"contracts/MV.sol\":1470:1500  ACCONFIG(acbConfig).swapRate() */\n      0x40\n      dup1\n      mload\n      shl(0xe0, 0x698518e5)\n      dup2\n      mstore\n      swap1\n      mload\n        /* \"contracts/MV.sol\":1503:1507  1000 */\n      0x03e8\n      swap3\n      sub(shl(0xa0, 0x01), 0x01)\n        /* \"contracts/MV.sol\":1479:1488  acbConfig */\n      and\n      swap2\n        /* \"contracts/MV.sol\":1470:1498  ACCONFIG(acbConfig).swapRate */\n      0x698518e5\n      swap2\n        /* \"contracts/MV.sol\":1470:1500  ACCONFIG(acbConfig).swapRate() */\n      0x04\n      dup1\n      dup4\n      add\n      swap3\n      0x20\n      swap3\n      swap2\n      swap1\n      dup3\n      swap1\n      sub\n      add\n      dup2\n        /* \"contracts/MV.sol\":1479:1488  acbConfig */\n      dup7\n        /* \"contracts/MV.sol\":1470:1500  ACCONFIG(acbConfig).swapRate() */\n      gas\n      staticcall\n      iszero\n      dup1\n      iszero\n      tag_114\n      jumpi\n      returndatasize\n      0x00\n      dup1\n      returndatacopy\n      revert(0x00, returndatasize)\n    tag_114:\n      pop\n      pop\n      pop\n      pop\n      mload(0x40)\n      returndatasize\n      not(0x1f)\n      0x1f\n      dup3\n      add\n      and\n      dup3\n      add\n      dup1\n      0x40\n      mstore\n      pop\n      dup2\n      add\n      swap1\n      tag_115\n      swap2\n      swap1\n      tag_116\n      jump\t// in\n    tag_115:\n        /* \"contracts/MV.sol\":1461:1500  amount * ACCONFIG(acbConfig).swapRate() */\n      tag_117\n      swap1\n        /* \"contracts/MV.sol\":1461:1467  amount */\n      dup8\n        /* \"contracts/MV.sol\":1461:1500  amount * ACCONFIG(acbConfig).swapRate() */\n      tag_118\n      jump\t// in\n    tag_117:\n        /* \"contracts/MV.sol\":1461:1507  amount * ACCONFIG(acbConfig).swapRate() / 1000 */\n      tag_119\n      swap2\n      swap1\n      tag_120\n      jump\t// in\n    tag_119:\n        /* \"contracts/MV.sol\":1350:1508  ERC20StandardToken(ACCONFIG(acbConfig).usdt()).transferFrom(msg.sender, ACCONFIG(acbConfig).platformAddress(), amount * ACCONFIG(acbConfig).swapRate() / 1000) */\n      mload(0x40)\n      dup5\n      0xffffffff\n      and\n      0xe0\n      shl\n      dup2\n      mstore\n      0x04\n      add\n      tag_121\n      swap4\n      swap3\n      swap2\n      swap1\n      tag_122\n      jump\t// in\n    tag_121:\n      0x20\n      mload(0x40)\n      dup1\n      dup4\n      sub\n      dup2\n      0x00\n      dup8\n      gas\n      call\n      iszero\n      dup1\n      iszero\n      tag_124\n      jumpi\n      returndatasize\n      0x00\n      dup1\n      returndatacopy\n      revert(0x00, returndatasize)\n    tag_124:\n      pop\n      pop\n      pop\n      pop\n      mload(0x40)\n      returndatasize\n      not(0x1f)\n      0x1f\n      dup3\n      add\n      and\n      dup3\n      add\n      dup1\n      0x40\n      mstore\n      pop\n      dup2\n      add\n      swap1\n      tag_125\n      swap2\n      swap1\n      tag_126\n      jump\t// in\n    tag_125:\n      pop\n        /* \"contracts/MV.sol\":1554:1563  acbConfig */\n      0x06\n      0x00\n      swap1\n      sload\n      swap1\n      0x0100\n      exp\n      swap1\n      div\n      sub(shl(0xa0, 0x01), 0x01)\n      and\n      sub(shl(0xa0, 0x01), 0x01)\n        /* \"contracts/MV.sol\":1545:1567  ACCONFIG(acbConfig).mv */\n      and\n      0x8f05cdf5\n        /* \"contracts/MV.sol\":1545:1569  ACCONFIG(acbConfig).mv() */\n      mload(0x40)\n      dup2\n      0xffffffff\n      and\n      0xe0\n      shl\n      dup2\n      mstore\n      0x04\n      add\n      0x20\n      mload(0x40)\n      dup1\n      dup4\n      sub\n      dup2\n      dup7\n      gas\n      staticcall\n      iszero\n      dup1\n      iszero\n      tag_128\n      jumpi\n      returndatasize\n      0x00\n      dup1\n      returndatacopy\n      revert(0x00, returndatasize)\n    tag_128:\n      pop\n      pop\n      pop\n      pop\n      mload(0x40)\n      returndatasize\n      not(0x1f)\n      0x1f\n      dup3\n      add\n      and\n      dup3\n      add\n      dup1\n      0x40\n      mstore\n      pop\n      dup2\n      add\n      swap1\n      tag_129\n      swap2\n      swap1\n      tag_109\n      jump\t// in\n    tag_129:\n      sub(shl(0xa0, 0x01), 0x01)\n        /* \"contracts/MV.sol\":1526:1583  ERC20StandardToken(ACCONFIG(acbConfig).mv()).transferFrom */\n      and\n      0x23b872dd\n        /* \"contracts/MV.sol\":1594:1603  acbConfig */\n      0x06\n      0x00\n      swap1\n      sload\n      swap1\n      0x0100\n      exp\n      swap1\n      div\n      sub(shl(0xa0, 0x01), 0x01)\n      and\n      sub(shl(0xa0, 0x01), 0x01)\n        /* \"contracts/MV.sol\":1585:1620  ACCONFIG(acbConfig).platformAddress */\n      and\n      0xdbe55e56\n        /* \"contracts/MV.sol\":1585:1622  ACCONFIG(acbConfig).platformAddress() */\n      mload(0x40)\n      dup2\n      0xffffffff\n      and\n      0xe0\n      shl\n      dup2\n      mstore\n      0x04\n      add\n      0x20\n      mload(0x40)\n      dup1\n      dup4\n      sub\n      dup2\n      dup7\n      gas\n      staticcall\n      iszero\n      dup1\n      iszero\n      tag_131\n      jumpi\n      returndatasize\n      0x00\n      dup1\n      returndatacopy\n      revert(0x00, returndatasize)\n    tag_131:\n      pop\n      pop\n      pop\n      pop\n      mload(0x40)\n      returndatasize\n      not(0x1f)\n      0x1f\n      dup3\n      add\n      and\n      dup3\n      add\n      dup1\n      0x40\n      mstore\n      pop\n      dup2\n      add\n      swap1\n      tag_132\n      swap2\n      swap1\n      tag_109\n      jump\t// in\n    tag_132:\n        /* \"contracts/MV.sol\":1623:1633  msg.sender */\n      caller\n        /* \"contracts/MV.sol\":1678:1682  1000 */\n      0x03e8\n        /* \"contracts/MV.sol\":1654:1663  acbConfig */\n      0x06\n      0x00\n      swap1\n      sload\n      swap1\n      0x0100\n      exp\n      swap1\n      div\n      sub(shl(0xa0, 0x01), 0x01)\n      and\n      sub(shl(0xa0, 0x01), 0x01)\n        /* \"contracts/MV.sol\":1645:1673  ACCONFIG(acbConfig).swapRate */\n      and\n      0x698518e5\n        /* \"contracts/MV.sol\":1645:1675  ACCONFIG(acbConfig).swapRate() */\n      mload(0x40)\n      dup2\n      0xffffffff\n      and\n      0xe0\n      shl\n      dup2\n      mstore\n      0x04\n      add\n      0x20\n      mload(0x40)\n      dup1\n      dup4\n      sub\n      dup2\n      dup7\n      gas\n      staticcall\n      iszero\n      dup1\n      iszero\n      tag_134\n      jumpi\n      returndatasize\n      0x00\n      dup1\n      returndatacopy\n      revert(0x00, returndatasize)\n    tag_134:\n      pop\n      pop\n      pop\n      pop\n      mload(0x40)\n      returndatasize\n      not(0x1f)\n      0x1f\n      dup3\n      add\n      and\n      dup3\n      add\n      dup1\n      0x40\n      mstore\n      pop\n      dup2\n      add\n      swap1\n      tag_135\n      swap2\n      swap1\n      tag_116\n      jump\t// in\n    tag_135:\n        /* \"contracts/MV.sol\":1636:1675  amount * ACCONFIG(acbConfig).swapRate() */\n      tag_136\n      swap1\n        /* \"contracts/MV.sol\":1636:1642  amount */\n      dup8\n        /* \"contracts/MV.sol\":1636:1675  amount * ACCONFIG(acbConfig).swapRate() */\n      tag_118\n      jump\t// in\n    tag_136:\n        /* \"contracts/MV.sol\":1636:1682  amount * ACCONFIG(acbConfig).swapRate() / 1000 */\n      tag_137\n      swap2\n      swap1\n      tag_120\n      jump\t// in\n    tag_137:\n        /* \"contracts/MV.sol\":1526:1683  ERC20StandardToken(ACCONFIG(acbConfig).mv()).transferFrom( ACCONFIG(acbConfig).platformAddress(),msg.sender , amount * ACCONFIG(acbConfig).swapRate() / 1000) */\n      mload(0x40)\n      dup5\n      0xffffffff\n      and\n      0xe0\n      shl\n      dup2\n      mstore\n      0x04\n      add\n      tag_138\n      swap4\n      swap3\n      swap2\n      swap1\n      tag_122\n      jump\t// in\n    tag_138:\n      0x20\n      mload(0x40)\n      dup1\n      dup4\n      sub\n      dup2\n      0x00\n      dup8\n      gas\n      call\n      iszero\n      dup1\n      iszero\n      tag_140\n      jumpi\n      returndatasize\n      0x00\n      dup1\n      returndatacopy\n      revert(0x00, returndatasize)\n    tag_140:\n      pop\n      pop\n      pop\n      pop\n      mload(0x40)\n      returndatasize\n      not(0x1f)\n      0x1f\n      dup3\n      add\n      and\n      dup3\n      add\n      dup1\n      0x40\n      mstore\n      pop\n      dup2\n      add\n      swap1\n      tag_141\n      swap2\n      swap1\n      tag_126\n      jump\t// in\n    tag_141:\n      pop\n        /* \"contracts/MV.sol\":1295:1702  function usdtswap(uint256 amount)external {... */\n      pop\n      jump\t// out\n        /* \"contracts/MV.sol\":607:704  function transferOwnership(address newOwner) public onlyOwner {... */\n    tag_73:\n        /* \"contracts/MV.sol\":523:528  owner */\n      and(sub(shl(0xa0, 0x01), 0x01), sload(0x05))\n        /* \"contracts/MV.sol\":532:542  msg.sender */\n      caller\n        /* \"contracts/MV.sol\":523:542  owner == msg.sender */\n      eq\n        /* \"contracts/MV.sol\":515:579  require(owner == msg.sender, \"Ownable: caller is not the owner\") */\n      tag_144\n      jumpi\n      mload(0x40)\n      shl(0xe5, 0x461bcd)\n      dup2\n      mstore\n      0x04\n      add\n      tag_87\n      swap1\n      tag_88\n      jump\t// in\n    tag_144:\n        /* \"contracts/MV.sol\":680:685  owner */\n      0x05\n        /* \"contracts/MV.sol\":680:696  owner = newOwner */\n      dup1\n      sload\n      not(sub(shl(0xa0, 0x01), 0x01))\n      and\n      sub(shl(0xa0, 0x01), 0x01)\n      swap3\n      swap1\n      swap3\n      and\n      swap2\n      swap1\n      swap2\n      or\n      swap1\n      sstore\n        /* \"contracts/MV.sol\":607:704  function transferOwnership(address newOwner) public onlyOwner {... */\n      jump\t// out\n        /* \"contracts/ERC20StandardToken.sol\":4029:4215  function _approve(address owner, address spender, uint256 amount) internal virtual {... */\n    tag_83:\n      sub(shl(0xa0, 0x01), 0x01)\n        /* \"contracts/ERC20StandardToken.sol\":4123:4141  _allowances[owner] */\n      dup4\n      dup2\n      and\n      0x00\n      dup2\n      dup2\n      mstore\n        /* \"contracts/ERC20StandardToken.sol\":4123:4134  _allowances */\n      0x01\n        /* \"contracts/ERC20StandardToken.sol\":4123:4141  _allowances[owner] */\n      0x20\n      swap1\n      dup2\n      mstore\n      0x40\n      dup1\n      dup4\n      keccak256\n        /* \"contracts/ERC20StandardToken.sol\":4123:4150  _allowances[owner][spender] */\n      swap5\n      dup8\n      and\n      dup1\n      dup5\n      mstore\n      swap5\n      dup3\n      mstore\n      swap2\n      dup3\n      swap1\n      keccak256\n        /* \"contracts/ERC20StandardToken.sol\":4123:4159  _allowances[owner][spender] = amount */\n      dup6\n      swap1\n      sstore\n        /* \"contracts/ERC20StandardToken.sol\":4175:4207  Approval(owner, spender, amount) */\n      swap1\n      mload\n        /* \"#utility.yul\":1361:1386   */\n      dup5\n      dup2\n      mstore\n        /* \"contracts/ERC20StandardToken.sol\":4175:4207  Approval(owner, spender, amount) */\n      0x8c5be1e5ebec7d5bd14f71427d1e84f3dd0314c0f7b2291e5b200ac8c7c3b925\n      swap2\n        /* \"#utility.yul\":1334:1352   */\n      add\n        /* \"contracts/ERC20StandardToken.sol\":4175:4207  Approval(owner, spender, amount) */\n      mload(0x40)\n      dup1\n      swap2\n      sub\n      swap1\n      log3\n        /* \"contracts/ERC20StandardToken.sol\":4029:4215  function _approve(address owner, address spender, uint256 amount) internal virtual {... */\n      pop\n      pop\n      pop\n      jump\t// out\n        /* \"contracts/ERC20StandardToken.sol\":3600:4021  function _spendAllowance(address owner, address spender, uint256 amount) internal virtual {... */\n    tag_92:\n      sub(shl(0xa0, 0x01), 0x01)\n        /* \"contracts/ERC20StandardToken.sol\":3728:3746  _allowances[owner] */\n      dup1\n      dup5\n      and\n        /* \"contracts/ERC20StandardToken.sol\":3701:3725  uint256 currentAllowance */\n      0x00\n        /* \"contracts/ERC20StandardToken.sol\":3728:3746  _allowances[owner] */\n      swap1\n      dup2\n      mstore\n        /* \"contracts/ERC20StandardToken.sol\":3728:3739  _allowances */\n      0x01\n        /* \"contracts/ERC20StandardToken.sol\":3728:3746  _allowances[owner] */\n      0x20\n      swap1\n      dup2\n      mstore\n      0x40\n      dup1\n      dup4\n      keccak256\n        /* \"contracts/ERC20StandardToken.sol\":3728:3755  _allowances[owner][spender] */\n      swap4\n      dup7\n      and\n      dup4\n      mstore\n      swap3\n      swap1\n      mstore\n      keccak256\n      sload\n      not(0x00)\n        /* \"contracts/ERC20StandardToken.sol\":3770:3807  currentAllowance != type(uint256).max */\n      dup2\n      eq\n        /* \"contracts/ERC20StandardToken.sol\":3766:4014  if (currentAllowance != type(uint256).max) {... */\n      tag_154\n      jumpi\n        /* \"contracts/ERC20StandardToken.sol\":3852:3858  amount */\n      dup2\n        /* \"contracts/ERC20StandardToken.sol\":3832:3848  currentAllowance */\n      dup2\n        /* \"contracts/ERC20StandardToken.sol\":3832:3858  currentAllowance >= amount */\n      lt\n      iszero\n        /* \"contracts/ERC20StandardToken.sol\":3824:3892  require(currentAllowance >= amount, \"ERC20: insufficient allowance\") */\n      tag_151\n      jumpi\n      mload(0x40)\n      shl(0xe5, 0x461bcd)\n      dup2\n      mstore\n        /* \"#utility.yul\":5632:5634   */\n      0x20\n        /* \"contracts/ERC20StandardToken.sol\":3824:3892  require(currentAllowance >= amount, \"ERC20: insufficient allowance\") */\n      0x04\n      dup3\n      add\n        /* \"#utility.yul\":5614:5635   */\n      mstore\n        /* \"#utility.yul\":5671:5673   */\n      0x1d\n        /* \"#utility.yul\":5651:5669   */\n      0x24\n      dup3\n      add\n        /* \"#utility.yul\":5644:5674   */\n      mstore\n        /* \"#utility.yul\":5710:5741   */\n      0x45524332303a20696e73756666696369656e7420616c6c6f77616e6365000000\n        /* \"#utility.yul\":5690:5708   */\n      0x44\n      dup3\n      add\n        /* \"#utility.yul\":5683:5742   */\n      mstore\n        /* \"#utility.yul\":5759:5777   */\n      0x64\n      add\n        /* \"contracts/ERC20StandardToken.sol\":3824:3892  require(currentAllowance >= amount, \"ERC20: insufficient allowance\") */\n      tag_87\n        /* \"#utility.yul\":5430:5783   */\n      jump\n        /* \"contracts/ERC20StandardToken.sol\":3824:3892  require(currentAllowance >= amount, \"ERC20: insufficient allowance\") */\n    tag_151:\n        /* \"contracts/ERC20StandardToken.sol\":3936:3987  _approve(owner, spender, currentAllowance - amount) */\n      tag_154\n        /* \"contracts/ERC20StandardToken.sol\":3945:3950  owner */\n      dup5\n        /* \"contracts/ERC20StandardToken.sol\":3952:3959  spender */\n      dup5\n        /* \"contracts/ERC20StandardToken.sol\":3980:3986  amount */\n      dup5\n        /* \"contracts/ERC20StandardToken.sol\":3961:3977  currentAllowance */\n      dup5\n        /* \"contracts/ERC20StandardToken.sol\":3961:3986  currentAllowance - amount */\n      sub\n        /* \"contracts/ERC20StandardToken.sol\":3936:3944  _approve */\n      tag_83\n        /* \"contracts/ERC20StandardToken.sol\":3936:3987  _approve(owner, spender, currentAllowance - amount) */\n      jump\t// in\n    tag_154:\n        /* \"contracts/ERC20StandardToken.sol\":3690:4021  {... */\n      pop\n        /* \"contracts/ERC20StandardToken.sol\":3600:4021  function _spendAllowance(address owner, address spender, uint256 amount) internal virtual {... */\n      pop\n      pop\n      pop\n      jump\t// out\n        /* \"contracts/MV.sol\":988:1289  function _transfer(address from, address to, uint256 amount) internal override {... */\n    tag_94:\n        /* \"contracts/MV.sol\":1136:1151  extcodesize(to) */\n      dup2\n      extcodesize\n        /* \"contracts/MV.sol\":1176:1184  size > 0 */\n      dup1\n      iszero\n        /* \"contracts/MV.sol\":1173:1220  if(size > 0 ){... */\n      tag_156\n      jumpi\n        /* \"contracts/MV.sol\":1202:1209  return; */\n      pop\n        /* \"contracts/MV.sol\":988:1289  function _transfer(address from, address to, uint256 amount) internal override {... */\n      pop\n      pop\n      pop\n      jump\t// out\n        /* \"contracts/MV.sol\":1173:1220  if(size > 0 ){... */\n    tag_156:\n        /* \"contracts/MV.sol\":1230:1263  super._transfer(from, to, amount) */\n      tag_154\n        /* \"contracts/MV.sol\":1246:1250  from */\n      dup5\n        /* \"contracts/MV.sol\":1252:1254  to */\n      dup5\n        /* \"contracts/MV.sol\":1256:1262  amount */\n      dup5\n      sub(shl(0xa0, 0x01), 0x01)\n        /* \"contracts/ERC20StandardToken.sol\":2673:2688  _balances[from] */\n      dup4\n      and\n        /* \"contracts/ERC20StandardToken.sol\":2651:2670  uint256 fromBalance */\n      0x00\n        /* \"contracts/ERC20StandardToken.sol\":2673:2688  _balances[from] */\n      swap1\n      dup2\n      mstore\n      0x20\n      dup2\n      swap1\n      mstore\n      0x40\n      swap1\n      keccak256\n      sload\n        /* \"contracts/ERC20StandardToken.sol\":2707:2728  fromBalance >= amount */\n      dup2\n      dup2\n      lt\n      iszero\n        /* \"contracts/ERC20StandardToken.sol\":2699:2771  require(fromBalance >= amount, \"ERC20: transfer amount exceeds balance\") */\n      tag_160\n      jumpi\n      mload(0x40)\n      shl(0xe5, 0x461bcd)\n      dup2\n      mstore\n        /* \"#utility.yul\":5990:5992   */\n      0x20\n        /* \"contracts/ERC20StandardToken.sol\":2699:2771  require(fromBalance >= amount, \"ERC20: transfer amount exceeds balance\") */\n      0x04\n      dup3\n      add\n        /* \"#utility.yul\":5972:5993   */\n      mstore\n        /* \"#utility.yul\":6029:6031   */\n      0x26\n        /* \"#utility.yul\":6009:6027   */\n      0x24\n      dup3\n      add\n        /* \"#utility.yul\":6002:6032   */\n      mstore\n        /* \"#utility.yul\":6068:6102   */\n      0x45524332303a207472616e7366657220616d6f756e7420657863656564732062\n        /* \"#utility.yul\":6048:6066   */\n      0x44\n      dup3\n      add\n        /* \"#utility.yul\":6041:6103   */\n      mstore\n      shl(0xd0, 0x616c616e6365)\n        /* \"#utility.yul\":6119:6137   */\n      0x64\n      dup3\n      add\n        /* \"#utility.yul\":6112:6148   */\n      mstore\n        /* \"#utility.yul\":6165:6184   */\n      0x84\n      add\n        /* \"contracts/ERC20StandardToken.sol\":2699:2771  require(fromBalance >= amount, \"ERC20: transfer amount exceeds balance\") */\n      tag_87\n        /* \"#utility.yul\":5788:6190   */\n      jump\n        /* \"contracts/ERC20StandardToken.sol\":2699:2771  require(fromBalance >= amount, \"ERC20: transfer amount exceeds balance\") */\n    tag_160:\n      sub(shl(0xa0, 0x01), 0x01)\n        /* \"contracts/ERC20StandardToken.sol\":2807:2822  _balances[from] */\n      dup5\n      dup2\n      and\n        /* \"contracts/ERC20StandardToken.sol\":2807:2816  _balances */\n      0x00\n        /* \"contracts/ERC20StandardToken.sol\":2807:2822  _balances[from] */\n      dup2\n      dup2\n      mstore\n      0x20\n      dup2\n      dup2\n      mstore\n      0x40\n      dup1\n      dup4\n      keccak256\n        /* \"contracts/ERC20StandardToken.sol\":2825:2845  fromBalance - amount */\n      dup8\n      dup8\n      sub\n        /* \"contracts/ERC20StandardToken.sol\":2807:2845  _balances[from] = fromBalance - amount */\n      swap1\n      sstore\n        /* \"contracts/ERC20StandardToken.sol\":2860:2873  _balances[to] */\n      swap4\n      dup8\n      and\n      dup1\n      dup4\n      mstore\n      swap2\n      dup5\n      swap1\n      keccak256\n        /* \"contracts/ERC20StandardToken.sol\":2860:2883  _balances[to] += amount */\n      dup1\n      sload\n      dup8\n      add\n      swap1\n      sstore\n        /* \"contracts/ERC20StandardToken.sol\":2910:2936  Transfer(from, to, amount) */\n      swap3\n      mload\n        /* \"#utility.yul\":1361:1386   */\n      dup6\n      dup2\n      mstore\n        /* \"contracts/ERC20StandardToken.sol\":2860:2873  _balances[to] */\n      swap1\n      swap3\n        /* \"contracts/ERC20StandardToken.sol\":2910:2936  Transfer(from, to, amount) */\n      0xddf252ad1be2c89b69c2b068fc378daa952ba7f163c4a11628f55a4df523b3ef\n      swap2\n        /* \"#utility.yul\":1334:1352   */\n      add\n        /* \"contracts/ERC20StandardToken.sol\":2910:2936  Transfer(from, to, amount) */\n      mload(0x40)\n      dup1\n      swap2\n      sub\n      swap1\n      log3\n        /* \"contracts/ERC20StandardToken.sol\":2640:2944  {... */\n      pop\n        /* \"contracts/ERC20StandardToken.sol\":2562:2944  function _transfer(address from, address to, uint256 amount) internal virtual {... */\n      pop\n      pop\n      pop\n      jump\t// out\n        /* \"#utility.yul\":14:562   */\n    tag_20:\n        /* \"#utility.yul\":126:130   */\n      0x00\n        /* \"#utility.yul\":155:157   */\n      0x20\n        /* \"#utility.yul\":184:186   */\n      dup1\n        /* \"#utility.yul\":173:182   */\n      dup4\n        /* \"#utility.yul\":166:187   */\n      mstore\n        /* \"#utility.yul\":216:222   */\n      dup4\n        /* \"#utility.yul\":210:223   */\n      mload\n        /* \"#utility.yul\":259:265   */\n      dup1\n        /* \"#utility.yul\":254:256   */\n      dup3\n        /* \"#utility.yul\":243:252   */\n      dup6\n        /* \"#utility.yul\":239:257   */\n      add\n        /* \"#utility.yul\":232:266   */\n      mstore\n        /* \"#utility.yul\":284:285   */\n      0x00\n        /* \"#utility.yul\":294:434   */\n    tag_167:\n        /* \"#utility.yul\":308:314   */\n      dup2\n        /* \"#utility.yul\":305:306   */\n      dup2\n        /* \"#utility.yul\":302:315   */\n      lt\n        /* \"#utility.yul\":294:434   */\n      iszero\n      tag_169\n      jumpi\n        /* \"#utility.yul\":403:417   */\n      dup6\n      dup2\n      add\n        /* \"#utility.yul\":399:422   */\n      dup4\n      add\n        /* \"#utility.yul\":393:423   */\n      mload\n        /* \"#utility.yul\":369:386   */\n      dup6\n      dup3\n      add\n        /* \"#utility.yul\":388:390   */\n      0x40\n        /* \"#utility.yul\":365:391   */\n      add\n        /* \"#utility.yul\":358:424   */\n      mstore\n        /* \"#utility.yul\":323:333   */\n      dup3\n      add\n        /* \"#utility.yul\":294:434   */\n      jump(tag_167)\n    tag_169:\n        /* \"#utility.yul\":298:301   */\n      pop\n        /* \"#utility.yul\":483:484   */\n      0x00\n        /* \"#utility.yul\":478:480   */\n      0x40\n        /* \"#utility.yul\":469:475   */\n      dup3\n        /* \"#utility.yul\":458:467   */\n      dup7\n        /* \"#utility.yul\":454:476   */\n      add\n        /* \"#utility.yul\":450:481   */\n      add\n        /* \"#utility.yul\":443:485   */\n      mstore\n        /* \"#utility.yul\":553:555   */\n      0x40\n        /* \"#utility.yul\":546:548   */\n      0x1f\n        /* \"#utility.yul\":542:549   */\n      not\n        /* \"#utility.yul\":537:539   */\n      0x1f\n        /* \"#utility.yul\":529:535   */\n      dup4\n        /* \"#utility.yul\":525:540   */\n      add\n        /* \"#utility.yul\":521:550   */\n      and\n        /* \"#utility.yul\":510:519   */\n      dup6\n        /* \"#utility.yul\":506:551   */\n      add\n        /* \"#utility.yul\":502:556   */\n      add\n        /* \"#utility.yul\":494:556   */\n      swap3\n      pop\n      pop\n      pop\n        /* \"#utility.yul\":14:562   */\n      swap3\n      swap2\n      pop\n      pop\n      jump\t// out\n        /* \"#utility.yul\":567:698   */\n    tag_164:\n      sub(shl(0xa0, 0x01), 0x01)\n        /* \"#utility.yul\":642:673   */\n      dup2\n      and\n        /* \"#utility.yul\":632:674   */\n      dup2\n      eq\n        /* \"#utility.yul\":622:692   */\n      tag_171\n      jumpi\n        /* \"#utility.yul\":688:689   */\n      0x00\n        /* \"#utility.yul\":685:686   */\n      dup1\n        /* \"#utility.yul\":678:690   */\n      revert\n        /* \"#utility.yul\":622:692   */\n    tag_171:\n        /* \"#utility.yul\":567:698   */\n      pop\n      jump\t// out\n        /* \"#utility.yul\":703:1018   */\n    tag_23:\n        /* \"#utility.yul\":771:777   */\n      0x00\n        /* \"#utility.yul\":779:785   */\n      dup1\n        /* \"#utility.yul\":832:834   */\n      0x40\n        /* \"#utility.yul\":820:829   */\n      dup4\n        /* \"#utility.yul\":811:818   */\n      dup6\n        /* \"#utility.yul\":807:830   */\n      sub\n        /* \"#utility.yul\":803:835   */\n      slt\n        /* \"#utility.yul\":800:852   */\n      iszero\n      tag_173\n      jumpi\n        /* \"#utility.yul\":848:849   */\n      0x00\n        /* \"#utility.yul\":845:846   */\n      dup1\n        /* \"#utility.yul\":838:850   */\n      revert\n        /* \"#utility.yul\":800:852   */\n    tag_173:\n        /* \"#utility.yul\":887:896   */\n      dup3\n        /* \"#utility.yul\":874:897   */\n      calldataload\n        /* \"#utility.yul\":906:937   */\n      tag_174\n        /* \"#utility.yul\":931:936   */\n      dup2\n        /* \"#utility.yul\":906:937   */\n      tag_164\n      jump\t// in\n    tag_174:\n        /* \"#utility.yul\":956:961   */\n      swap5\n        /* \"#utility.yul\":1008:1010   */\n      0x20\n        /* \"#utility.yul\":993:1011   */\n      swap4\n      swap1\n      swap4\n      add\n        /* \"#utility.yul\":980:1012   */\n      calldataload\n      swap4\n      pop\n      pop\n      pop\n        /* \"#utility.yul\":703:1018   */\n      jump\t// out\n        /* \"#utility.yul\":1397:1644   */\n    tag_33:\n        /* \"#utility.yul\":1456:1462   */\n      0x00\n        /* \"#utility.yul\":1509:1511   */\n      0x20\n        /* \"#utility.yul\":1497:1506   */\n      dup3\n        /* \"#utility.yul\":1488:1495   */\n      dup5\n        /* \"#utility.yul\":1484:1507   */\n      sub\n        /* \"#utility.yul\":1480:1512   */\n      slt\n        /* \"#utility.yul\":1477:1529   */\n      iszero\n      tag_178\n      jumpi\n        /* \"#utility.yul\":1525:1526   */\n      0x00\n        /* \"#utility.yul\":1522:1523   */\n      dup1\n        /* \"#utility.yul\":1515:1527   */\n      revert\n        /* \"#utility.yul\":1477:1529   */\n    tag_178:\n        /* \"#utility.yul\":1564:1573   */\n      dup2\n        /* \"#utility.yul\":1551:1574   */\n      calldataload\n        /* \"#utility.yul\":1583:1614   */\n      tag_179\n        /* \"#utility.yul\":1608:1613   */\n      dup2\n        /* \"#utility.yul\":1583:1614   */\n      tag_164\n      jump\t// in\n    tag_179:\n        /* \"#utility.yul\":1633:1638   */\n      swap4\n        /* \"#utility.yul\":1397:1644   */\n      swap3\n      pop\n      pop\n      pop\n      jump\t// out\n        /* \"#utility.yul\":1649:2105   */\n    tag_37:\n        /* \"#utility.yul\":1726:1732   */\n      0x00\n        /* \"#utility.yul\":1734:1740   */\n      dup1\n        /* \"#utility.yul\":1742:1748   */\n      0x00\n        /* \"#utility.yul\":1795:1797   */\n      0x60\n        /* \"#utility.yul\":1783:1792   */\n      dup5\n        /* \"#utility.yul\":1774:1781   */\n      dup7\n        /* \"#utility.yul\":1770:1793   */\n      sub\n        /* \"#utility.yul\":1766:1798   */\n      slt\n        /* \"#utility.yul\":1763:1815   */\n      iszero\n      tag_181\n      jumpi\n        /* \"#utility.yul\":1811:1812   */\n      0x00\n        /* \"#utility.yul\":1808:1809   */\n      dup1\n        /* \"#utility.yul\":1801:1813   */\n      revert\n        /* \"#utility.yul\":1763:1815   */\n    tag_181:\n        /* \"#utility.yul\":1850:1859   */\n      dup4\n        /* \"#utility.yul\":1837:1860   */\n      calldataload\n        /* \"#utility.yul\":1869:1900   */\n      tag_182\n        /* \"#utility.yul\":1894:1899   */\n      dup2\n        /* \"#utility.yul\":1869:1900   */\n      tag_164\n      jump\t// in\n    tag_182:\n        /* \"#utility.yul\":1919:1924   */\n      swap3\n      pop\n        /* \"#utility.yul\":1976:1978   */\n      0x20\n        /* \"#utility.yul\":1961:1979   */\n      dup5\n      add\n        /* \"#utility.yul\":1948:1980   */\n      calldataload\n        /* \"#utility.yul\":1989:2022   */\n      tag_183\n        /* \"#utility.yul\":1948:1980   */\n      dup2\n        /* \"#utility.yul\":1989:2022   */\n      tag_164\n      jump\t// in\n    tag_183:\n        /* \"#utility.yul\":1649:2105   */\n      swap3\n      swap6\n        /* \"#utility.yul\":2041:2048   */\n      swap3\n      swap5\n      pop\n      pop\n      pop\n        /* \"#utility.yul\":2095:2097   */\n      0x40\n        /* \"#utility.yul\":2080:2098   */\n      swap2\n      swap1\n      swap2\n      add\n        /* \"#utility.yul\":2067:2099   */\n      calldataload\n      swap1\n        /* \"#utility.yul\":1649:2105   */\n      jump\t// out\n        /* \"#utility.yul\":2507:2687   */\n    tag_61:\n        /* \"#utility.yul\":2566:2572   */\n      0x00\n        /* \"#utility.yul\":2619:2621   */\n      0x20\n        /* \"#utility.yul\":2607:2616   */\n      dup3\n        /* \"#utility.yul\":2598:2605   */\n      dup5\n        /* \"#utility.yul\":2594:2617   */\n      sub\n        /* \"#utility.yul\":2590:2622   */\n      slt\n        /* \"#utility.yul\":2587:2639   */\n      iszero\n      tag_187\n      jumpi\n        /* \"#utility.yul\":2635:2636   */\n      0x00\n        /* \"#utility.yul\":2632:2633   */\n      dup1\n        /* \"#utility.yul\":2625:2637   */\n      revert\n        /* \"#utility.yul\":2587:2639   */\n    tag_187:\n      pop\n        /* \"#utility.yul\":2658:2681   */\n      calldataload\n      swap2\n        /* \"#utility.yul\":2507:2687   */\n      swap1\n      pop\n      jump\t// out\n        /* \"#utility.yul\":2692:3080   */\n    tag_68:\n        /* \"#utility.yul\":2760:2766   */\n      0x00\n        /* \"#utility.yul\":2768:2774   */\n      dup1\n        /* \"#utility.yul\":2821:2823   */\n      0x40\n        /* \"#utility.yul\":2809:2818   */\n      dup4\n        /* \"#utility.yul\":2800:2807   */\n      dup6\n        /* \"#utility.yul\":2796:2819   */\n      sub\n        /* \"#utility.yul\":2792:2824   */\n      slt\n        /* \"#utility.yul\":2789:2841   */\n      iszero\n      tag_189\n      jumpi\n        /* \"#utility.yul\":2837:2838   */\n      0x00\n        /* \"#utility.yul\":2834:2835   */\n      dup1\n        /* \"#utility.yul\":2827:2839   */\n      revert\n        /* \"#utility.yul\":2789:2841   */\n    tag_189:\n        /* \"#utility.yul\":2876:2885   */\n      dup3\n        /* \"#utility.yul\":2863:2886   */\n      calldataload\n        /* \"#utility.yul\":2895:2926   */\n      tag_190\n        /* \"#utility.yul\":2920:2925   */\n      dup2\n        /* \"#utility.yul\":2895:2926   */\n      tag_164\n      jump\t// in\n    tag_190:\n        /* \"#utility.yul\":2945:2950   */\n      swap2\n      pop\n        /* \"#utility.yul\":3002:3004   */\n      0x20\n        /* \"#utility.yul\":2987:3005   */\n      dup4\n      add\n        /* \"#utility.yul\":2974:3006   */\n      calldataload\n        /* \"#utility.yul\":3015:3048   */\n      tag_191\n        /* \"#utility.yul\":2974:3006   */\n      dup2\n        /* \"#utility.yul\":3015:3048   */\n      tag_164\n      jump\t// in\n    tag_191:\n        /* \"#utility.yul\":3067:3074   */\n      dup1\n        /* \"#utility.yul\":3057:3074   */\n      swap2\n      pop\n      pop\n        /* \"#utility.yul\":2692:3080   */\n      swap3\n      pop\n      swap3\n      swap1\n      pop\n      jump\t// out\n        /* \"#utility.yul\":3085:3465   */\n    tag_76:\n        /* \"#utility.yul\":3164:3165   */\n      0x01\n        /* \"#utility.yul\":3160:3172   */\n      dup2\n      dup2\n      shr\n      swap1\n        /* \"#utility.yul\":3207:3219   */\n      dup3\n      and\n      dup1\n        /* \"#utility.yul\":3228:3289   */\n      tag_193\n      jumpi\n        /* \"#utility.yul\":3282:3286   */\n      0x7f\n        /* \"#utility.yul\":3274:3280   */\n      dup3\n        /* \"#utility.yul\":3270:3287   */\n      and\n        /* \"#utility.yul\":3260:3287   */\n      swap2\n      pop\n        /* \"#utility.yul\":3228:3289   */\n    tag_193:\n        /* \"#utility.yul\":3335:3337   */\n      0x20\n        /* \"#utility.yul\":3327:3333   */\n      dup3\n        /* \"#utility.yul\":3324:3338   */\n      lt\n        /* \"#utility.yul\":3304:3322   */\n      dup2\n        /* \"#utility.yul\":3301:3339   */\n      sub\n        /* \"#utility.yul\":3298:3459   */\n      tag_194\n      jumpi\n        /* \"#utility.yul\":3381:3391   */\n      0x4e487b71\n        /* \"#utility.yul\":3376:3379   */\n      0xe0\n        /* \"#utility.yul\":3372:3392   */\n      shl\n        /* \"#utility.yul\":3369:3370   */\n      0x00\n        /* \"#utility.yul\":3362:3393   */\n      mstore\n        /* \"#utility.yul\":3416:3420   */\n      0x22\n        /* \"#utility.yul\":3413:3414   */\n      0x04\n        /* \"#utility.yul\":3406:3421   */\n      mstore\n        /* \"#utility.yul\":3444:3448   */\n      0x24\n        /* \"#utility.yul\":3441:3442   */\n      0x00\n        /* \"#utility.yul\":3434:3449   */\n      revert\n        /* \"#utility.yul\":3298:3459   */\n    tag_194:\n      pop\n        /* \"#utility.yul\":3085:3465   */\n      swap2\n      swap1\n      pop\n      jump\t// out\n        /* \"#utility.yul\":3470:3826   */\n    tag_88:\n        /* \"#utility.yul\":3672:3674   */\n      0x20\n        /* \"#utility.yul\":3654:3675   */\n      dup1\n      dup3\n      mstore\n        /* \"#utility.yul\":3691:3709   */\n      dup2\n      dup2\n      add\n        /* \"#utility.yul\":3684:3714   */\n      mstore\n        /* \"#utility.yul\":3750:3784   */\n      0x4f776e61626c653a2063616c6c6572206973206e6f7420746865206f776e6572\n        /* \"#utility.yul\":3745:3747   */\n      0x40\n        /* \"#utility.yul\":3730:3748   */\n      dup3\n      add\n        /* \"#utility.yul\":3723:3785   */\n      mstore\n        /* \"#utility.yul\":3817:3819   */\n      0x60\n        /* \"#utility.yul\":3802:3820   */\n      add\n      swap1\n        /* \"#utility.yul\":3470:3826   */\n      jump\t// out\n        /* \"#utility.yul\":3831:4082   */\n    tag_109:\n        /* \"#utility.yul\":3901:3907   */\n      0x00\n        /* \"#utility.yul\":3954:3956   */\n      0x20\n        /* \"#utility.yul\":3942:3951   */\n      dup3\n        /* \"#utility.yul\":3933:3940   */\n      dup5\n        /* \"#utility.yul\":3929:3952   */\n      sub\n        /* \"#utility.yul\":3925:3957   */\n      slt\n        /* \"#utility.yul\":3922:3974   */\n      iszero\n      tag_197\n      jumpi\n        /* \"#utility.yul\":3970:3971   */\n      0x00\n        /* \"#utility.yul\":3967:3968   */\n      dup1\n        /* \"#utility.yul\":3960:3972   */\n      revert\n        /* \"#utility.yul\":3922:3974   */\n    tag_197:\n        /* \"#utility.yul\":4002:4011   */\n      dup2\n        /* \"#utility.yul\":3996:4012   */\n      mload\n        /* \"#utility.yul\":4021:4052   */\n      tag_179\n        /* \"#utility.yul\":4046:4051   */\n      dup2\n        /* \"#utility.yul\":4021:4052   */\n      tag_164\n      jump\t// in\n        /* \"#utility.yul\":4087:4271   */\n    tag_116:\n        /* \"#utility.yul\":4157:4163   */\n      0x00\n        /* \"#utility.yul\":4210:4212   */\n      0x20\n        /* \"#utility.yul\":4198:4207   */\n      dup3\n        /* \"#utility.yul\":4189:4196   */\n      dup5\n        /* \"#utility.yul\":4185:4208   */\n      sub\n        /* \"#utility.yul\":4181:4213   */\n      slt\n        /* \"#utility.yul\":4178:4230   */\n      iszero\n      tag_200\n      jumpi\n        /* \"#utility.yul\":4226:4227   */\n      0x00\n        /* \"#utility.yul\":4223:4224   */\n      dup1\n        /* \"#utility.yul\":4216:4228   */\n      revert\n        /* \"#utility.yul\":4178:4230   */\n    tag_200:\n      pop\n        /* \"#utility.yul\":4249:4265   */\n      mload\n      swap2\n        /* \"#utility.yul\":4087:4271   */\n      swap1\n      pop\n      jump\t// out\n        /* \"#utility.yul\":4276:4541   */\n    tag_118:\n        /* \"#utility.yul\":4349:4358   */\n      dup1\n      dup3\n      mul\n        /* \"#utility.yul\":4380:4389   */\n      dup2\n      iszero\n        /* \"#utility.yul\":4397:4412   */\n      dup3\n      dup3\n      div\n        /* \"#utility.yul\":4391:4413   */\n      dup5\n      eq\n        /* \"#utility.yul\":4377:4414   */\n      or\n        /* \"#utility.yul\":4367:4535   */\n      tag_81\n      jumpi\n        /* \"#utility.yul\":4457:4467   */\n      0x4e487b71\n        /* \"#utility.yul\":4452:4455   */\n      0xe0\n        /* \"#utility.yul\":4448:4468   */\n      shl\n        /* \"#utility.yul\":4445:4446   */\n      0x00\n        /* \"#utility.yul\":4438:4469   */\n      mstore\n        /* \"#utility.yul\":4492:4496   */\n      0x11\n        /* \"#utility.yul\":4489:4490   */\n      0x04\n        /* \"#utility.yul\":4482:4497   */\n      mstore\n        /* \"#utility.yul\":4520:4524   */\n      0x24\n        /* \"#utility.yul\":4517:4518   */\n      0x00\n        /* \"#utility.yul\":4510:4525   */\n      revert\n        /* \"#utility.yul\":4546:4763   */\n    tag_120:\n        /* \"#utility.yul\":4586:4587   */\n      0x00\n        /* \"#utility.yul\":4612:4613   */\n      dup3\n        /* \"#utility.yul\":4602:4734   */\n      tag_204\n      jumpi\n        /* \"#utility.yul\":4656:4666   */\n      0x4e487b71\n        /* \"#utility.yul\":4651:4654   */\n      0xe0\n        /* \"#utility.yul\":4647:4667   */\n      shl\n        /* \"#utility.yul\":4644:4645   */\n      0x00\n        /* \"#utility.yul\":4637:4668   */\n      mstore\n        /* \"#utility.yul\":4691:4695   */\n      0x12\n        /* \"#utility.yul\":4688:4689   */\n      0x04\n        /* \"#utility.yul\":4681:4696   */\n      mstore\n        /* \"#utility.yul\":4719:4723   */\n      0x24\n        /* \"#utility.yul\":4716:4717   */\n      0x00\n        /* \"#utility.yul\":4709:4724   */\n      revert\n        /* \"#utility.yul\":4602:4734   */\n    tag_204:\n      pop\n        /* \"#utility.yul\":4748:4757   */\n      div\n      swap1\n        /* \"#utility.yul\":4546:4763   */\n      jump\t// out\n        /* \"#utility.yul\":4768:5143   */\n    tag_122:\n      sub(shl(0xa0, 0x01), 0x01)\n        /* \"#utility.yul\":5026:5041   */\n      swap4\n      dup5\n      and\n        /* \"#utility.yul\":5008:5042   */\n      dup2\n      mstore\n        /* \"#utility.yul\":5078:5093   */\n      swap2\n      swap1\n      swap3\n      and\n        /* \"#utility.yul\":5073:5075   */\n      0x20\n        /* \"#utility.yul\":5058:5076   */\n      dup3\n      add\n        /* \"#utility.yul\":5051:5094   */\n      mstore\n        /* \"#utility.yul\":5125:5127   */\n      0x40\n        /* \"#utility.yul\":5110:5128   */\n      dup2\n      add\n        /* \"#utility.yul\":5103:5137   */\n      swap2\n      swap1\n      swap2\n      mstore\n        /* \"#utility.yul\":4958:4960   */\n      0x60\n        /* \"#utility.yul\":4943:4961   */\n      add\n      swap1\n        /* \"#utility.yul\":4768:5143   */\n      jump\t// out\n        /* \"#utility.yul\":5148:5425   */\n    tag_126:\n        /* \"#utility.yul\":5215:5221   */\n      0x00\n        /* \"#utility.yul\":5268:5270   */\n      0x20\n        /* \"#utility.yul\":5256:5265   */\n      dup3\n        /* \"#utility.yul\":5247:5254   */\n      dup5\n        /* \"#utility.yul\":5243:5266   */\n      sub\n        /* \"#utility.yul\":5239:5271   */\n      slt\n        /* \"#utility.yul\":5236:5288   */\n      iszero\n      tag_207\n      jumpi\n        /* \"#utility.yul\":5284:5285   */\n      0x00\n        /* \"#utility.yul\":5281:5282   */\n      dup1\n        /* \"#utility.yul\":5274:5286   */\n      revert\n        /* \"#utility.yul\":5236:5288   */\n    tag_207:\n        /* \"#utility.yul\":5316:5325   */\n      dup2\n        /* \"#utility.yul\":5310:5326   */\n      mload\n        /* \"#utility.yul\":5369:5374   */\n      dup1\n        /* \"#utility.yul\":5362:5375   */\n      iszero\n        /* \"#utility.yul\":5355:5376   */\n      iszero\n        /* \"#utility.yul\":5348:5353   */\n      dup2\n        /* \"#utility.yul\":5345:5377   */\n      eq\n        /* \"#utility.yul\":5335:5395   */\n      tag_179\n      jumpi\n        /* \"#utility.yul\":5391:5392   */\n      0x00\n        /* \"#utility.yul\":5388:5389   */\n      dup1\n        /* \"#utility.yul\":5381:5393   */\n      revert\n\n    auxdata: 0xa2646970667358221220e4b74373dd5b9ecb8761561015eb02ce28ede29c82e88133fd695ed95b8e893564736f6c63430008140033\n}\n",
				"bytecode": {
					"linkReferences": {},
					"object": "60a060405234801562000010575f80fd5b5060405162000f7938038062000f798339810160408190526200003391620001a9565b6040518060400160405280600281526020016126ab60f11b8152506040518060400160405280600281526020016126ab60f11b81525060126a52b7d2dcc80cd2e4000000836002908162000088919062000278565b50600362000097848262000278565b5060ff8216608052620000ab3382620000e5565b505060058054336001600160a01b031991821617909155600680549091166001600160a01b03949094169390931790925550620003669050565b6001600160a01b038216620001405760405162461bcd60e51b815260206004820152601f60248201527f45524332303a206d696e7420746f20746865207a65726f206164647265737300604482015260640160405180910390fd5b8060045f82825462000153919062000340565b90915550506001600160a01b0382165f81815260208181526040808320805486019055518481527fddf252ad1be2c89b69c2b068fc378daa952ba7f163c4a11628f55a4df523b3ef910160405180910390a35050565b5f60208284031215620001ba575f80fd5b81516001600160a01b0381168114620001d1575f80fd5b9392505050565b634e487b7160e01b5f52604160045260245ffd5b600181811c908216806200020157607f821691505b6020821081036200022057634e487b7160e01b5f52602260045260245ffd5b50919050565b601f82111562000273575f81815260208120601f850160051c810160208610156200024e5750805b601f850160051c820191505b818110156200026f578281556001016200025a565b5050505b505050565b81516001600160401b03811115620002945762000294620001d8565b620002ac81620002a58454620001ec565b8462000226565b602080601f831160018114620002e2575f8415620002ca5750858301515b5f19600386901b1c1916600185901b1785556200026f565b5f85815260208120601f198616915b828110156200031257888601518255948401946001909101908401620002f1565b50858210156200033057878501515f19600388901b60f8161c191681555b5050505050600190811b01905550565b808201808211156200036057634e487b7160e01b5f52601160045260245ffd5b92915050565b608051610bfa6200037f5f395f61013e0152610bfa5ff3fe608060405234801561000f575f80fd5b50600436106100b8575f3560e01c806306fdde03146100bc578063095ea7b3146100da57806318160ddd146100fd578063210835ae1461010f57806323b872dd14610124578063313ce5671461013757806370a08231146101685780638da5cb5b1461019057806395d89b41146101bb578063a9059cbb146101c3578063d0675bfd146101d6578063dba64f8f146101e9578063dd62ed3e146101fc578063f2fde38b14610234575b5f80fd5b6100c4610247565b6040516100d19190610966565b60405180910390f35b6100ed6100e83660046109c8565b6102d7565b60405190151581526020016100d1565b6004545b6040519081526020016100d1565b61012261011d3660046109f2565b6102ed565b005b6100ed610132366004610a14565b610342565b60405160ff7f00000000000000000000000000000000000000000000000000000000000000001681526020016100d1565b6101016101763660046109f2565b6001600160a01b03165f9081526020819052604090205490565b6005546101a3906001600160a01b031681565b6040516001600160a01b0390911681526020016100d1565b6100c4610363565b6100ed6101d13660046109c8565b610372565b6101226101e4366004610a52565b61037e565b6006546101a3906001600160a01b031681565b61010161020a366004610a69565b6001600160a01b039182165f90815260016020908152604080832093909416825291909152205490565b6101226102423660046109f2565b610739565b60606003805461025690610aa0565b80601f016020809104026020016040519081016040528092919081815260200182805461028290610aa0565b80156102cd5780601f106102a4576101008083540402835291602001916102cd565b820191905f5260205f20905b8154815290600101906020018083116102b057829003601f168201915b5050505050905090565b5f6102e3338484610785565b5060015b92915050565b6005546001600160a01b031633146103205760405162461bcd60e51b815260040161031790610ad8565b60405180910390fd5b600680546001600160a01b0319166001600160a01b0392909216919091179055565b5f61034e8433846107e5565b610359848484610875565b5060019392505050565b60606002805461025690610aa0565b5f6102e3338484610875565b60065f9054906101000a90046001600160a01b03166001600160a01b0316632f48ab7d6040518163ffffffff1660e01b8152600401602060405180830381865afa1580156103ce573d5f803e3d5ffd5b505050506040513d601f19601f820116820180604052508101906103f29190610b0d565b6001600160a01b03166323b872dd3360065f9054906101000a90046001600160a01b03166001600160a01b031663dbe55e566040518163ffffffff1660e01b8152600401602060405180830381865afa158015610451573d5f803e3d5ffd5b505050506040513d601f19601f820116820180604052508101906104759190610b0d565b6006546040805163698518e560e01b815290516103e8926001600160a01b03169163698518e59160048083019260209291908290030181865afa1580156104be573d5f803e3d5ffd5b505050506040513d601f19601f820116820180604052508101906104e29190610b28565b6104ec9087610b3f565b6104f69190610b62565b6040518463ffffffff1660e01b815260040161051493929190610b81565b6020604051808303815f875af1158015610530573d5f803e3d5ffd5b505050506040513d601f19601f820116820180604052508101906105549190610ba5565b5060065f9054906101000a90046001600160a01b03166001600160a01b0316638f05cdf56040518163ffffffff1660e01b8152600401602060405180830381865afa1580156105a5573d5f803e3d5ffd5b505050506040513d601f19601f820116820180604052508101906105c99190610b0d565b6001600160a01b03166323b872dd60065f9054906101000a90046001600160a01b03166001600160a01b031663dbe55e566040518163ffffffff1660e01b8152600401602060405180830381865afa158015610627573d5f803e3d5ffd5b505050506040513d601f19601f8201168201806040525081019061064b9190610b0d565b336103e860065f9054906101000a90046001600160a01b03166001600160a01b031663698518e56040518163ffffffff1660e01b8152600401602060405180830381865afa15801561069f573d5f803e3d5ffd5b505050506040513d601f19601f820116820180604052508101906106c39190610b28565b6106cd9087610b3f565b6106d79190610b62565b6040518463ffffffff1660e01b81526004016106f593929190610b81565b6020604051808303815f875af1158015610711573d5f803e3d5ffd5b505050506040513d601f19601f820116820180604052508101906107359190610ba5565b5050565b6005546001600160a01b031633146107635760405162461bcd60e51b815260040161031790610ad8565b600580546001600160a01b0319166001600160a01b0392909216919091179055565b6001600160a01b038381165f8181526001602090815260408083209487168084529482529182902085905590518481527f8c5be1e5ebec7d5bd14f71427d1e84f3dd0314c0f7b2291e5b200ac8c7c3b925910160405180910390a3505050565b6001600160a01b038084165f908152600160209081526040808320938616835292905220545f19811461086f57818110156108625760405162461bcd60e51b815260206004820152601d60248201527f45524332303a20696e73756666696369656e7420616c6c6f77616e63650000006044820152606401610317565b61086f8484848403610785565b50505050565b813b80156108835750505050565b61086f8484846001600160a01b0383165f90815260208190526040902054818110156109005760405162461bcd60e51b815260206004820152602660248201527f45524332303a207472616e7366657220616d6f756e7420657863656564732062604482015265616c616e636560d01b6064820152608401610317565b6001600160a01b038481165f81815260208181526040808320878703905593871680835291849020805487019055925185815290927fddf252ad1be2c89b69c2b068fc378daa952ba7f163c4a11628f55a4df523b3ef910160405180910390a350505050565b5f6020808352835180828501525f5b8181101561099157858101830151858201604001528201610975565b505f604082860101526040601f19601f8301168501019250505092915050565b6001600160a01b03811681146109c5575f80fd5b50565b5f80604083850312156109d9575f80fd5b82356109e4816109b1565b946020939093013593505050565b5f60208284031215610a02575f80fd5b8135610a0d816109b1565b9392505050565b5f805f60608486031215610a26575f80fd5b8335610a31816109b1565b92506020840135610a41816109b1565b929592945050506040919091013590565b5f60208284031215610a62575f80fd5b5035919050565b5f8060408385031215610a7a575f80fd5b8235610a85816109b1565b91506020830135610a95816109b1565b809150509250929050565b600181811c90821680610ab457607f821691505b602082108103610ad257634e487b7160e01b5f52602260045260245ffd5b50919050565b6020808252818101527f4f776e61626c653a2063616c6c6572206973206e6f7420746865206f776e6572604082015260600190565b5f60208284031215610b1d575f80fd5b8151610a0d816109b1565b5f60208284031215610b38575f80fd5b5051919050565b80820281158282048414176102e757634e487b7160e01b5f52601160045260245ffd5b5f82610b7c57634e487b7160e01b5f52601260045260245ffd5b500490565b6001600160a01b039384168152919092166020820152604081019190915260600190565b5f60208284031215610bb5575f80fd5b81518015158114610a0d575f80fdfea2646970667358221220e4b74373dd5b9ecb8761561015eb02ce28ede29c82e88133fd695ed95b8e893564736f6c63430008140033",
					"opcodes": "PUSH1 0xA0 PUSH1 0x40 MSTORE CALLVALUE DUP1 ISZERO PUSH3 0x10 JUMPI PUSH0 DUP1 REVERT JUMPDEST POP PUSH1 0x40 MLOAD PUSH3 0xF79 CODESIZE SUB DUP1 PUSH3 0xF79 DUP4 CODECOPY DUP2 ADD PUSH1 0x40 DUP2 SWAP1 MSTORE PUSH3 0x33 SWAP2 PUSH3 0x1A9 JUMP JUMPDEST PUSH1 0x40 MLOAD DUP1 PUSH1 0x40 ADD PUSH1 0x40 MSTORE DUP1 PUSH1 0x2 DUP2 MSTORE PUSH1 0x20 ADD PUSH2 0x26AB PUSH1 0xF1 SHL DUP2 MSTORE POP PUSH1 0x40 MLOAD DUP1 PUSH1 0x40 ADD PUSH1 0x40 MSTORE DUP1 PUSH1 0x2 DUP2 MSTORE PUSH1 0x20 ADD PUSH2 0x26AB PUSH1 0xF1 SHL DUP2 MSTORE POP PUSH1 0x12 PUSH11 0x52B7D2DCC80CD2E4000000 DUP4 PUSH1 0x2 SWAP1 DUP2 PUSH3 0x88 SWAP2 SWAP1 PUSH3 0x278 JUMP JUMPDEST POP PUSH1 0x3 PUSH3 0x97 DUP5 DUP3 PUSH3 0x278 JUMP JUMPDEST POP PUSH1 0xFF DUP3 AND PUSH1 0x80 MSTORE PUSH3 0xAB CALLER DUP3 PUSH3 0xE5 JUMP JUMPDEST POP POP PUSH1 0x5 DUP1 SLOAD CALLER PUSH1 0x1 PUSH1 0x1 PUSH1 0xA0 SHL SUB NOT SWAP2 DUP3 AND OR SWAP1 SWAP2 SSTORE PUSH1 0x6 DUP1 SLOAD SWAP1 SWAP2 AND PUSH1 0x1 PUSH1 0x1 PUSH1 0xA0 SHL SUB SWAP5 SWAP1 SWAP5 AND SWAP4 SWAP1 SWAP4 OR SWAP1 SWAP3 SSTORE POP PUSH3 0x366 SWAP1 POP JUMP JUMPDEST PUSH1 0x1 PUSH1 0x1 PUSH1 0xA0 SHL SUB DUP3 AND PUSH3 0x140 JUMPI PUSH1 0x40 MLOAD PUSH3 0x461BCD PUSH1 0xE5 SHL DUP2 MSTORE PUSH1 0x20 PUSH1 0x4 DUP3 ADD MSTORE PUSH1 0x1F PUSH1 0x24 DUP3 ADD MSTORE PUSH32 0x45524332303A206D696E7420746F20746865207A65726F206164647265737300 PUSH1 0x44 DUP3 ADD MSTORE PUSH1 0x64 ADD PUSH1 0x40 MLOAD DUP1 SWAP2 SUB SWAP1 REVERT JUMPDEST DUP1 PUSH1 0x4 PUSH0 DUP3 DUP3 SLOAD PUSH3 0x153 SWAP2 SWAP1 PUSH3 0x340 JUMP JUMPDEST SWAP1 SWAP2 SSTORE POP POP PUSH1 0x1 PUSH1 0x1 PUSH1 0xA0 SHL SUB DUP3 AND PUSH0 DUP2 DUP2 MSTORE PUSH1 0x20 DUP2 DUP2 MSTORE PUSH1 0x40 DUP1 DUP4 KECCAK256 DUP1 SLOAD DUP7 ADD SWAP1 SSTORE MLOAD DUP5 DUP2 MSTORE PUSH32 0xDDF252AD1BE2C89B69C2B068FC378DAA952BA7F163C4A11628F55A4DF523B3EF SWAP2 ADD PUSH1 0x40 MLOAD DUP1 SWAP2 SUB SWAP1 LOG3 POP POP JUMP JUMPDEST PUSH0 PUSH1 0x20 DUP3 DUP5 SUB SLT ISZERO PUSH3 0x1BA JUMPI PUSH0 DUP1 REVERT JUMPDEST DUP2 MLOAD PUSH1 0x1 PUSH1 0x1 PUSH1 0xA0 SHL SUB DUP2 AND DUP2 EQ PUSH3 0x1D1 JUMPI PUSH0 DUP1 REVERT JUMPDEST SWAP4 SWAP3 POP POP POP JUMP JUMPDEST PUSH4 0x4E487B71 PUSH1 0xE0 SHL PUSH0 MSTORE PUSH1 0x41 PUSH1 0x4 MSTORE PUSH1 0x24 PUSH0 REVERT JUMPDEST PUSH1 0x1 DUP2 DUP2 SHR SWAP1 DUP3 AND DUP1 PUSH3 0x201 JUMPI PUSH1 0x7F DUP3 AND SWAP2 POP JUMPDEST PUSH1 0x20 DUP3 LT DUP2 SUB PUSH3 0x220 JUMPI PUSH4 0x4E487B71 PUSH1 0xE0 SHL PUSH0 MSTORE PUSH1 0x22 PUSH1 0x4 MSTORE PUSH1 0x24 PUSH0 REVERT JUMPDEST POP SWAP2 SWAP1 POP JUMP JUMPDEST PUSH1 0x1F DUP3 GT ISZERO PUSH3 0x273 JUMPI PUSH0 DUP2 DUP2 MSTORE PUSH1 0x20 DUP2 KECCAK256 PUSH1 0x1F DUP6 ADD PUSH1 0x5 SHR DUP2 ADD PUSH1 0x20 DUP7 LT ISZERO PUSH3 0x24E JUMPI POP DUP1 JUMPDEST PUSH1 0x1F DUP6 ADD PUSH1 0x5 SHR DUP3 ADD SWAP2 POP JUMPDEST DUP2 DUP2 LT ISZERO PUSH3 0x26F JUMPI DUP3 DUP2 SSTORE PUSH1 0x1 ADD PUSH3 0x25A JUMP JUMPDEST POP POP POP JUMPDEST POP POP POP JUMP JUMPDEST DUP2 MLOAD PUSH1 0x1 PUSH1 0x1 PUSH1 0x40 SHL SUB DUP2 GT ISZERO PUSH3 0x294 JUMPI PUSH3 0x294 PUSH3 0x1D8 JUMP JUMPDEST PUSH3 0x2AC DUP2 PUSH3 0x2A5 DUP5 SLOAD PUSH3 0x1EC JUMP JUMPDEST DUP5 PUSH3 0x226 JUMP JUMPDEST PUSH1 0x20 DUP1 PUSH1 0x1F DUP4 GT PUSH1 0x1 DUP2 EQ PUSH3 0x2E2 JUMPI PUSH0 DUP5 ISZERO PUSH3 0x2CA JUMPI POP DUP6 DUP4 ADD MLOAD JUMPDEST PUSH0 NOT PUSH1 0x3 DUP7 SWAP1 SHL SHR NOT AND PUSH1 0x1 DUP6 SWAP1 SHL OR DUP6 SSTORE PUSH3 0x26F JUMP JUMPDEST PUSH0 DUP6 DUP2 MSTORE PUSH1 0x20 DUP2 KECCAK256 PUSH1 0x1F NOT DUP7 AND SWAP2 JUMPDEST DUP3 DUP2 LT ISZERO PUSH3 0x312 JUMPI DUP9 DUP7 ADD MLOAD DUP3 SSTORE SWAP5 DUP5 ADD SWAP5 PUSH1 0x1 SWAP1 SWAP2 ADD SWAP1 DUP5 ADD PUSH3 0x2F1 JUMP JUMPDEST POP DUP6 DUP3 LT ISZERO PUSH3 0x330 JUMPI DUP8 DUP6 ADD MLOAD PUSH0 NOT PUSH1 0x3 DUP9 SWAP1 SHL PUSH1 0xF8 AND SHR NOT AND DUP2 SSTORE JUMPDEST POP POP POP POP POP PUSH1 0x1 SWAP1 DUP2 SHL ADD SWAP1 SSTORE POP JUMP JUMPDEST DUP1 DUP3 ADD DUP1 DUP3 GT ISZERO PUSH3 0x360 JUMPI PUSH4 0x4E487B71 PUSH1 0xE0 SHL PUSH0 MSTORE PUSH1 0x11 PUSH1 0x4 MSTORE PUSH1 0x24 PUSH0 REVERT JUMPDEST SWAP3 SWAP2 POP POP JUMP JUMPDEST PUSH1 0x80 MLOAD PUSH2 0xBFA PUSH3 0x37F PUSH0 CODECOPY PUSH0 PUSH2 0x13E ADD MSTORE PUSH2 0xBFA PUSH0 RETURN INVALID PUSH1 0x80 PUSH1 0x40 MSTORE CALLVALUE DUP1 ISZERO PUSH2 0xF JUMPI PUSH0 DUP1 REVERT JUMPDEST POP PUSH1 0x4 CALLDATASIZE LT PUSH2 0xB8 JUMPI PUSH0 CALLDATALOAD PUSH1 0xE0 SHR DUP1 PUSH4 0x6FDDE03 EQ PUSH2 0xBC JUMPI DUP1 PUSH4 0x95EA7B3 EQ PUSH2 0xDA JUMPI DUP1 PUSH4 0x18160DDD EQ PUSH2 0xFD JUMPI DUP1 PUSH4 0x210835AE EQ PUSH2 0x10F JUMPI DUP1 PUSH4 0x23B872DD EQ PUSH2 0x124 JUMPI DUP1 PUSH4 0x313CE567 EQ PUSH2 0x137 JUMPI DUP1 PUSH4 0x70A08231 EQ PUSH2 0x168 JUMPI DUP1 PUSH4 0x8DA5CB5B EQ PUSH2 0x190 JUMPI DUP1 PUSH4 0x95D89B41 EQ PUSH2 0x1BB JUMPI DUP1 PUSH4 0xA9059CBB EQ PUSH2 0x1C3 JUMPI DUP1 PUSH4 0xD0675BFD EQ PUSH2 0x1D6 JUMPI DUP1 PUSH4 0xDBA64F8F EQ PUSH2 0x1E9 JUMPI DUP1 PUSH4 0xDD62ED3E EQ PUSH2 0x1FC JUMPI DUP1 PUSH4 0xF2FDE38B EQ PUSH2 0x234 JUMPI JUMPDEST PUSH0 DUP1 REVERT JUMPDEST PUSH2 0xC4 PUSH2 0x247 JUMP JUMPDEST PUSH1 0x40 MLOAD PUSH2 0xD1 SWAP2 SWAP1 PUSH2 0x966 JUMP JUMPDEST PUSH1 0x40 MLOAD DUP1 SWAP2 SUB SWAP1 RETURN JUMPDEST PUSH2 0xED PUSH2 0xE8 CALLDATASIZE PUSH1 0x4 PUSH2 0x9C8 JUMP JUMPDEST PUSH2 0x2D7 JUMP JUMPDEST PUSH1 0x40 MLOAD SWAP1 ISZERO ISZERO DUP2 MSTORE PUSH1 0x20 ADD PUSH2 0xD1 JUMP JUMPDEST PUSH1 0x4 SLOAD JUMPDEST PUSH1 0x40 MLOAD SWAP1 DUP2 MSTORE PUSH1 0x20 ADD PUSH2 0xD1 JUMP JUMPDEST PUSH2 0x122 PUSH2 0x11D CALLDATASIZE PUSH1 0x4 PUSH2 0x9F2 JUMP JUMPDEST PUSH2 0x2ED JUMP JUMPDEST STOP JUMPDEST PUSH2 0xED PUSH2 0x132 CALLDATASIZE PUSH1 0x4 PUSH2 0xA14 JUMP JUMPDEST PUSH2 0x342 JUMP JUMPDEST PUSH1 0x40 MLOAD PUSH1 0xFF PUSH32 0x0 AND DUP2 MSTORE PUSH1 0x20 ADD PUSH2 0xD1 JUMP JUMPDEST PUSH2 0x101 PUSH2 0x176 CALLDATASIZE PUSH1 0x4 PUSH2 0x9F2 JUMP JUMPDEST PUSH1 0x1 PUSH1 0x1 PUSH1 0xA0 SHL SUB AND PUSH0 SWAP1 DUP2 MSTORE PUSH1 0x20 DUP2 SWAP1 MSTORE PUSH1 0x40 SWAP1 KECCAK256 SLOAD SWAP1 JUMP JUMPDEST PUSH1 0x5 SLOAD PUSH2 0x1A3 SWAP1 PUSH1 0x1 PUSH1 0x1 PUSH1 0xA0 SHL SUB AND DUP2 JUMP JUMPDEST PUSH1 0x40 MLOAD PUSH1 0x1 PUSH1 0x1 PUSH1 0xA0 SHL SUB SWAP1 SWAP2 AND DUP2 MSTORE PUSH1 0x20 ADD PUSH2 0xD1 JUMP JUMPDEST PUSH2 0xC4 PUSH2 0x363 JUMP JUMPDEST PUSH2 0xED PUSH2 0x1D1 CALLDATASIZE PUSH1 0x4 PUSH2 0x9C8 JUMP JUMPDEST PUSH2 0x372 JUMP JUMPDEST PUSH2 0x122 PUSH2 0x1E4 CALLDATASIZE PUSH1 0x4 PUSH2 0xA52 JUMP JUMPDEST PUSH2 0x37E JUMP JUMPDEST PUSH1 0x6 SLOAD PUSH2 0x1A3 SWAP1 PUSH1 0x1 PUSH1 0x1 PUSH1 0xA0 SHL SUB AND DUP2 JUMP JUMPDEST PUSH2 0x101 PUSH2 0x20A CALLDATASIZE PUSH1 0x4 PUSH2 0xA69 JUMP JUMPDEST PUSH1 0x1 PUSH1 0x1 PUSH1 0xA0 SHL SUB SWAP2 DUP3 AND PUSH0 SWAP1 DUP2 MSTORE PUSH1 0x1 PUSH1 0x20 SWAP1 DUP2 MSTORE PUSH1 0x40 DUP1 DUP4 KECCAK256 SWAP4 SWAP1 SWAP5 AND DUP3 MSTORE SWAP2 SWAP1 SWAP2 MSTORE KECCAK256 SLOAD SWAP1 JUMP JUMPDEST PUSH2 0x122 PUSH2 0x242 CALLDATASIZE PUSH1 0x4 PUSH2 0x9F2 JUMP JUMPDEST PUSH2 0x739 JUMP JUMPDEST PUSH1 0x60 PUSH1 0x3 DUP1 SLOAD PUSH2 0x256 SWAP1 PUSH2 0xAA0 JUMP JUMPDEST DUP1 PUSH1 0x1F ADD PUSH1 0x20 DUP1 SWAP2 DIV MUL PUSH1 0x20 ADD PUSH1 0x40 MLOAD SWAP1 DUP2 ADD PUSH1 0x40 MSTORE DUP1 SWAP3 SWAP2 SWAP1 DUP2 DUP2 MSTORE PUSH1 0x20 ADD DUP3 DUP1 SLOAD PUSH2 0x282 SWAP1 PUSH2 0xAA0 JUMP JUMPDEST DUP1 ISZERO PUSH2 0x2CD JUMPI DUP1 PUSH1 0x1F LT PUSH2 0x2A4 JUMPI PUSH2 0x100 DUP1 DUP4 SLOAD DIV MUL DUP4 MSTORE SWAP2 PUSH1 0x20 ADD SWAP2 PUSH2 0x2CD JUMP JUMPDEST DUP3 ADD SWAP2 SWAP1 PUSH0 MSTORE PUSH1 0x20 PUSH0 KECCAK256 SWAP1 JUMPDEST DUP2 SLOAD DUP2 MSTORE SWAP1 PUSH1 0x1 ADD SWAP1 PUSH1 0x20 ADD DUP1 DUP4 GT PUSH2 0x2B0 JUMPI DUP3 SWAP1 SUB PUSH1 0x1F AND DUP3 ADD SWAP2 JUMPDEST POP POP POP POP POP SWAP1 POP SWAP1 JUMP JUMPDEST PUSH0 PUSH2 0x2E3 CALLER DUP5 DUP5 PUSH2 0x785 JUMP JUMPDEST POP PUSH1 0x1 JUMPDEST SWAP3 SWAP2 POP POP JUMP JUMPDEST PUSH1 0x5 SLOAD PUSH1 0x1 PUSH1 0x1 PUSH1 0xA0 SHL SUB AND CALLER EQ PUSH2 0x320 JUMPI PUSH1 0x40 MLOAD PUSH3 0x461BCD PUSH1 0xE5 SHL DUP2 MSTORE PUSH1 0x4 ADD PUSH2 0x317 SWAP1 PUSH2 0xAD8 JUMP JUMPDEST PUSH1 0x40 MLOAD DUP1 SWAP2 SUB SWAP1 REVERT JUMPDEST PUSH1 0x6 DUP1 SLOAD PUSH1 0x1 PUSH1 0x1 PUSH1 0xA0 SHL SUB NOT AND PUSH1 0x1 PUSH1 0x1 PUSH1 0xA0 SHL SUB SWAP3 SWAP1 SWAP3 AND SWAP2 SWAP1 SWAP2 OR SWAP1 SSTORE JUMP JUMPDEST PUSH0 PUSH2 0x34E DUP5 CALLER DUP5 PUSH2 0x7E5 JUMP JUMPDEST PUSH2 0x359 DUP5 DUP5 DUP5 PUSH2 0x875 JUMP JUMPDEST POP PUSH1 0x1 SWAP4 SWAP3 POP POP POP JUMP JUMPDEST PUSH1 0x60 PUSH1 0x2 DUP1 SLOAD PUSH2 0x256 SWAP1 PUSH2 0xAA0 JUMP JUMPDEST PUSH0 PUSH2 0x2E3 CALLER DUP5 DUP5 PUSH2 0x875 JUMP JUMPDEST PUSH1 0x6 PUSH0 SWAP1 SLOAD SWAP1 PUSH2 0x100 EXP SWAP1 DIV PUSH1 0x1 PUSH1 0x1 PUSH1 0xA0 SHL SUB AND PUSH1 0x1 PUSH1 0x1 PUSH1 0xA0 SHL SUB AND PUSH4 0x2F48AB7D PUSH1 0x40 MLOAD DUP2 PUSH4 0xFFFFFFFF AND PUSH1 0xE0 SHL DUP2 MSTORE PUSH1 0x4 ADD PUSH1 0x20 PUSH1 0x40 MLOAD DUP1 DUP4 SUB DUP2 DUP7 GAS STATICCALL ISZERO DUP1 ISZERO PUSH2 0x3CE JUMPI RETURNDATASIZE PUSH0 DUP1 RETURNDATACOPY RETURNDATASIZE PUSH0 REVERT JUMPDEST POP POP POP POP PUSH1 0x40 MLOAD RETURNDATASIZE PUSH1 0x1F NOT PUSH1 0x1F DUP3 ADD AND DUP3 ADD DUP1 PUSH1 0x40 MSTORE POP DUP2 ADD SWAP1 PUSH2 0x3F2 SWAP2 SWAP1 PUSH2 0xB0D JUMP JUMPDEST PUSH1 0x1 PUSH1 0x1 PUSH1 0xA0 SHL SUB AND PUSH4 0x23B872DD CALLER PUSH1 0x6 PUSH0 SWAP1 SLOAD SWAP1 PUSH2 0x100 EXP SWAP1 DIV PUSH1 0x1 PUSH1 0x1 PUSH1 0xA0 SHL SUB AND PUSH1 0x1 PUSH1 0x1 PUSH1 0xA0 SHL SUB AND PUSH4 0xDBE55E56 PUSH1 0x40 MLOAD DUP2 PUSH4 0xFFFFFFFF AND PUSH1 0xE0 SHL DUP2 MSTORE PUSH1 0x4 ADD PUSH1 0x20 PUSH1 0x40 MLOAD DUP1 DUP4 SUB DUP2 DUP7 GAS STATICCALL ISZERO DUP1 ISZERO PUSH2 0x451 JUMPI RETURNDATASIZE PUSH0 DUP1 RETURNDATACOPY RETURNDATASIZE PUSH0 REVERT JUMPDEST POP POP POP POP PUSH1 0x40 MLOAD RETURNDATASIZE PUSH1 0x1F NOT PUSH1 0x1F DUP3 ADD AND DUP3 ADD DUP1 PUSH1 0x40 MSTORE POP DUP2 ADD SWAP1 PUSH2 0x475 SWAP2 SWAP1 PUSH2 0xB0D JUMP JUMPDEST PUSH1 0x6 SLOAD PUSH1 0x40 DUP1 MLOAD PUSH4 0x698518E5 PUSH1 0xE0 SHL DUP2 MSTORE SWAP1 MLOAD PUSH2 0x3E8 SWAP3 PUSH1 0x1 PUSH1 0x1 PUSH1 0xA0 SHL SUB AND SWAP2 PUSH4 0x698518E5 SWAP2 PUSH1 0x4 DUP1 DUP4 ADD SWAP3 PUSH1 0x20 SWAP3 SWAP2 SWAP1 DUP3 SWAP1 SUB ADD DUP2 DUP7 GAS STATICCALL ISZERO DUP1 ISZERO PUSH2 0x4BE JUMPI RETURNDATASIZE PUSH0 DUP1 RETURNDATACOPY RETURNDATASIZE PUSH0 REVERT JUMPDEST POP POP POP POP PUSH1 0x40 MLOAD RETURNDATASIZE PUSH1 0x1F NOT PUSH1 0x1F DUP3 ADD AND DUP3 ADD DUP1 PUSH1 0x40 MSTORE POP DUP2 ADD SWAP1 PUSH2 0x4E2 SWAP2 SWAP1 PUSH2 0xB28 JUMP JUMPDEST PUSH2 0x4EC SWAP1 DUP8 PUSH2 0xB3F JUMP JUMPDEST PUSH2 0x4F6 SWAP2 SWAP1 PUSH2 0xB62 JUMP JUMPDEST PUSH1 0x40 MLOAD DUP5 PUSH4 0xFFFFFFFF AND PUSH1 0xE0 SHL DUP2 MSTORE PUSH1 0x4 ADD PUSH2 0x514 SWAP4 SWAP3 SWAP2 SWAP1 PUSH2 0xB81 JUMP JUMPDEST PUSH1 0x20 PUSH1 0x40 MLOAD DUP1 DUP4 SUB DUP2 PUSH0 DUP8 GAS CALL ISZERO DUP1 ISZERO PUSH2 0x530 JUMPI RETURNDATASIZE PUSH0 DUP1 RETURNDATACOPY RETURNDATASIZE PUSH0 REVERT JUMPDEST POP POP POP POP PUSH1 0x40 MLOAD RETURNDATASIZE PUSH1 0x1F NOT PUSH1 0x1F DUP3 ADD AND DUP3 ADD DUP1 PUSH1 0x40 MSTORE POP DUP2 ADD SWAP1 PUSH2 0x554 SWAP2 SWAP1 PUSH2 0xBA5 JUMP JUMPDEST POP PUSH1 0x6 PUSH0 SWAP1 SLOAD SWAP1 PUSH2 0x100 EXP SWAP1 DIV PUSH1 0x1 PUSH1 0x1 PUSH1 0xA0 SHL SUB AND PUSH1 0x1 PUSH1 0x1 PUSH1 0xA0 SHL SUB AND PUSH4 0x8F05CDF5 PUSH1 0x40 MLOAD DUP2 PUSH4 0xFFFFFFFF AND PUSH1 0xE0 SHL DUP2 MSTORE PUSH1 0x4 ADD PUSH1 0x20 PUSH1 0x40 MLOAD DUP1 DUP4 SUB DUP2 DUP7 GAS STATICCALL ISZERO DUP1 ISZERO PUSH2 0x5A5 JUMPI RETURNDATASIZE PUSH0 DUP1 RETURNDATACOPY RETURNDATASIZE PUSH0 REVERT JUMPDEST POP POP POP POP PUSH1 0x40 MLOAD RETURNDATASIZE PUSH1 0x1F NOT PUSH1 0x1F DUP3 ADD AND DUP3 ADD DUP1 PUSH1 0x40 MSTORE POP DUP2 ADD SWAP1 PUSH2 0x5C9 SWAP2 SWAP1 PUSH2 0xB0D JUMP JUMPDEST PUSH1 0x1 PUSH1 0x1 PUSH1 0xA0 SHL SUB AND PUSH4 0x23B872DD PUSH1 0x6 PUSH0 SWAP1 SLOAD SWAP1 PUSH2 0x100 EXP SWAP1 DIV PUSH1 0x1 PUSH1 0x1 PUSH1 0xA0 SHL SUB AND PUSH1 0x1 PUSH1 0x1 PUSH1 0xA0 SHL SUB AND PUSH4 0xDBE55E56 PUSH1 0x40 MLOAD DUP2 PUSH4 0xFFFFFFFF AND PUSH1 0xE0 SHL DUP2 MSTORE PUSH1 0x4 ADD PUSH1 0x20 PUSH1 0x40 MLOAD DUP1 DUP4 SUB DUP2 DUP7 GAS STATICCALL ISZERO DUP1 ISZERO PUSH2 0x627 JUMPI RETURNDATASIZE PUSH0 DUP1 RETURNDATACOPY RETURNDATASIZE PUSH0 REVERT JUMPDEST POP POP POP POP PUSH1 0x40 MLOAD RETURNDATASIZE PUSH1 0x1F NOT PUSH1 0x1F DUP3 ADD AND DUP3 ADD DUP1 PUSH1 0x40 MSTORE POP DUP2 ADD SWAP1 PUSH2 0x64B SWAP2 SWAP1 PUSH2 0xB0D JUMP JUMPDEST CALLER PUSH2 0x3E8 PUSH1 0x6 PUSH0 SWAP1 SLOAD SWAP1 PUSH2 0x100 EXP SWAP1 DIV PUSH1 0x1 PUSH1 0x1 PUSH1 0xA0 SHL SUB AND PUSH1 0x1 PUSH1 0x1 PUSH1 0xA0 SHL SUB AND PUSH4 0x698518E5 PUSH1 0x40 MLOAD DUP2 PUSH4 0xFFFFFFFF AND PUSH1 0xE0 SHL DUP2 MSTORE PUSH1 0x4 ADD PUSH1 0x20 PUSH1 0x40 MLOAD DUP1 DUP4 SUB DUP2 DUP7 GAS STATICCALL ISZERO DUP1 ISZERO PUSH2 0x69F JUMPI RETURNDATASIZE PUSH0 DUP1 RETURNDATACOPY RETURNDATASIZE PUSH0 REVERT JUMPDEST POP POP POP POP PUSH1 0x40 MLOAD RETURNDATASIZE PUSH1 0x1F NOT PUSH1 0x1F DUP3 ADD AND DUP3 ADD DUP1 PUSH1 0x40 MSTORE POP DUP2 ADD SWAP1 PUSH2 0x6C3 SWAP2 SWAP1 PUSH2 0xB28 JUMP JUMPDEST PUSH2 0x6CD SWAP1 DUP8 PUSH2 0xB3F JUMP JUMPDEST PUSH2 0x6D7 SWAP2 SWAP1 PUSH2 0xB62 JUMP JUMPDEST PUSH1 0x40 MLOAD DUP5 PUSH4 0xFFFFFFFF AND PUSH1 0xE0 SHL DUP2 MSTORE PUSH1 0x4 ADD PUSH2 0x6F5 SWAP4 SWAP3 SWAP2 SWAP1 PUSH2 0xB81 JUMP JUMPDEST PUSH1 0x20 PUSH1 0x40 MLOAD DUP1 DUP4 SUB DUP2 PUSH0 DUP8 GAS CALL ISZERO DUP1 ISZERO PUSH2 0x711 JUMPI RETURNDATASIZE PUSH0 DUP1 RETURNDATACOPY RETURNDATASIZE PUSH0 REVERT JUMPDEST POP POP POP POP PUSH1 0x40 MLOAD RETURNDATASIZE PUSH1 0x1F NOT PUSH1 0x1F DUP3 ADD AND DUP3 ADD DUP1 PUSH1 0x40 MSTORE POP DUP2 ADD SWAP1 PUSH2 0x735 SWAP2 SWAP1 PUSH2 0xBA5 JUMP JUMPDEST POP POP JUMP JUMPDEST PUSH1 0x5 SLOAD PUSH1 0x1 PUSH1 0x1 PUSH1 0xA0 SHL SUB AND CALLER EQ PUSH2 0x763 JUMPI PUSH1 0x40 MLOAD PUSH3 0x461BCD PUSH1 0xE5 SHL DUP2 MSTORE PUSH1 0x4 ADD PUSH2 0x317 SWAP1 PUSH2 0xAD8 JUMP JUMPDEST PUSH1 0x5 DUP1 SLOAD PUSH1 0x1 PUSH1 0x1 PUSH1 0xA0 SHL SUB NOT AND PUSH1 0x1 PUSH1 0x1 PUSH1 0xA0 SHL SUB SWAP3 SWAP1 SWAP3 AND SWAP2 SWAP1 SWAP2 OR SWAP1 SSTORE JUMP JUMPDEST PUSH1 0x1 PUSH1 0x1 PUSH1 0xA0 SHL SUB DUP4 DUP2 AND PUSH0 DUP2 DUP2 MSTORE PUSH1 0x1 PUSH1 0x20 SWAP1 DUP2 MSTORE PUSH1 0x40 DUP1 DUP4 KECCAK256 SWAP5 DUP8 AND DUP1 DUP5 MSTORE SWAP5 DUP3 MSTORE SWAP2 DUP3 SWAP1 KECCAK256 DUP6 SWAP1 SSTORE SWAP1 MLOAD DUP5 DUP2 MSTORE PUSH32 0x8C5BE1E5EBEC7D5BD14F71427D1E84F3DD0314C0F7B2291E5B200AC8C7C3B925 SWAP2 ADD PUSH1 0x40 MLOAD DUP1 SWAP2 SUB SWAP1 LOG3 POP POP POP JUMP JUMPDEST PUSH1 0x1 PUSH1 0x1 PUSH1 0xA0 SHL SUB DUP1 DUP5 AND PUSH0 SWAP1 DUP2 MSTORE PUSH1 0x1 PUSH1 0x20 SWAP1 DUP2 MSTORE PUSH1 0x40 DUP1 DUP4 KECCAK256 SWAP4 DUP7 AND DUP4 MSTORE SWAP3 SWAP1 MSTORE KECCAK256 SLOAD PUSH0 NOT DUP2 EQ PUSH2 0x86F JUMPI DUP2 DUP2 LT ISZERO PUSH2 0x862 JUMPI PUSH1 0x40 MLOAD PUSH3 0x461BCD PUSH1 0xE5 SHL DUP2 MSTORE PUSH1 0x20 PUSH1 0x4 DUP3 ADD MSTORE PUSH1 0x1D PUSH1 0x24 DUP3 ADD MSTORE PUSH32 0x45524332303A20696E73756666696369656E7420616C6C6F77616E6365000000 PUSH1 0x44 DUP3 ADD MSTORE PUSH1 0x64 ADD PUSH2 0x317 JUMP JUMPDEST PUSH2 0x86F DUP5 DUP5 DUP5 DUP5 SUB PUSH2 0x785 JUMP JUMPDEST POP POP POP POP JUMP JUMPDEST DUP2 EXTCODESIZE DUP1 ISZERO PUSH2 0x883 JUMPI POP POP POP POP JUMP JUMPDEST PUSH2 0x86F DUP5 DUP5 DUP5 PUSH1 0x1 PUSH1 0x1 PUSH1 0xA0 SHL SUB DUP4 AND PUSH0 SWAP1 DUP2 MSTORE PUSH1 0x20 DUP2 SWAP1 MSTORE PUSH1 0x40 SWAP1 KECCAK256 SLOAD DUP2 DUP2 LT ISZERO PUSH2 0x900 JUMPI PUSH1 0x40 MLOAD PUSH3 0x461BCD PUSH1 0xE5 SHL DUP2 MSTORE PUSH1 0x20 PUSH1 0x4 DUP3 ADD MSTORE PUSH1 0x26 PUSH1 0x24 DUP3 ADD MSTORE PUSH32 0x45524332303A207472616E7366657220616D6F756E7420657863656564732062 PUSH1 0x44 DUP3 ADD MSTORE PUSH6 0x616C616E6365 PUSH1 0xD0 SHL PUSH1 0x64 DUP3 ADD MSTORE PUSH1 0x84 ADD PUSH2 0x317 JUMP JUMPDEST PUSH1 0x1 PUSH1 0x1 PUSH1 0xA0 SHL SUB DUP5 DUP2 AND PUSH0 DUP2 DUP2 MSTORE PUSH1 0x20 DUP2 DUP2 MSTORE PUSH1 0x40 DUP1 DUP4 KECCAK256 DUP8 DUP8 SUB SWAP1 SSTORE SWAP4 DUP8 AND DUP1 DUP4 MSTORE SWAP2 DUP5 SWAP1 KECCAK256 DUP1 SLOAD DUP8 ADD SWAP1 SSTORE SWAP3 MLOAD DUP6 DUP2 MSTORE SWAP1 SWAP3 PUSH32 0xDDF252AD1BE2C89B69C2B068FC378DAA952BA7F163C4A11628F55A4DF523B3EF SWAP2 ADD PUSH1 0x40 MLOAD DUP1 SWAP2 SUB SWAP1 LOG3 POP POP POP POP JUMP JUMPDEST PUSH0 PUSH1 0x20 DUP1 DUP4 MSTORE DUP4 MLOAD DUP1 DUP3 DUP6 ADD MSTORE PUSH0 JUMPDEST DUP2 DUP2 LT ISZERO PUSH2 0x991 JUMPI DUP6 DUP2 ADD DUP4 ADD MLOAD DUP6 DUP3 ADD PUSH1 0x40 ADD MSTORE DUP3 ADD PUSH2 0x975 JUMP JUMPDEST POP PUSH0 PUSH1 0x40 DUP3 DUP7 ADD ADD MSTORE PUSH1 0x40 PUSH1 0x1F NOT PUSH1 0x1F DUP4 ADD AND DUP6 ADD ADD SWAP3 POP POP POP SWAP3 SWAP2 POP POP JUMP JUMPDEST PUSH1 0x1 PUSH1 0x1 PUSH1 0xA0 SHL SUB DUP2 AND DUP2 EQ PUSH2 0x9C5 JUMPI PUSH0 DUP1 REVERT JUMPDEST POP JUMP JUMPDEST PUSH0 DUP1 PUSH1 0x40 DUP4 DUP6 SUB SLT ISZERO PUSH2 0x9D9 JUMPI PUSH0 DUP1 REVERT JUMPDEST DUP3 CALLDATALOAD PUSH2 0x9E4 DUP2 PUSH2 0x9B1 JUMP JUMPDEST SWAP5 PUSH1 0x20 SWAP4 SWAP1 SWAP4 ADD CALLDATALOAD SWAP4 POP POP POP JUMP JUMPDEST PUSH0 PUSH1 0x20 DUP3 DUP5 SUB SLT ISZERO PUSH2 0xA02 JUMPI PUSH0 DUP1 REVERT JUMPDEST DUP2 CALLDATALOAD PUSH2 0xA0D DUP2 PUSH2 0x9B1 JUMP JUMPDEST SWAP4 SWAP3 POP POP POP JUMP JUMPDEST PUSH0 DUP1 PUSH0 PUSH1 0x60 DUP5 DUP7 SUB SLT ISZERO PUSH2 0xA26 JUMPI PUSH0 DUP1 REVERT JUMPDEST DUP4 CALLDATALOAD PUSH2 0xA31 DUP2 PUSH2 0x9B1 JUMP JUMPDEST SWAP3 POP PUSH1 0x20 DUP5 ADD CALLDATALOAD PUSH2 0xA41 DUP2 PUSH2 0x9B1 JUMP JUMPDEST SWAP3 SWAP6 SWAP3 SWAP5 POP POP POP PUSH1 0x40 SWAP2 SWAP1 SWAP2 ADD CALLDATALOAD SWAP1 JUMP JUMPDEST PUSH0 PUSH1 0x20 DUP3 DUP5 SUB SLT ISZERO PUSH2 0xA62 JUMPI PUSH0 DUP1 REVERT JUMPDEST POP CALLDATALOAD SWAP2 SWAP1 POP JUMP JUMPDEST PUSH0 DUP1 PUSH1 0x40 DUP4 DUP6 SUB SLT ISZERO PUSH2 0xA7A JUMPI PUSH0 DUP1 REVERT JUMPDEST DUP3 CALLDATALOAD PUSH2 0xA85 DUP2 PUSH2 0x9B1 JUMP JUMPDEST SWAP2 POP PUSH1 0x20 DUP4 ADD CALLDATALOAD PUSH2 0xA95 DUP2 PUSH2 0x9B1 JUMP JUMPDEST DUP1 SWAP2 POP POP SWAP3 POP SWAP3 SWAP1 POP JUMP JUMPDEST PUSH1 0x1 DUP2 DUP2 SHR SWAP1 DUP3 AND DUP1 PUSH2 0xAB4 JUMPI PUSH1 0x7F DUP3 AND SWAP2 POP JUMPDEST PUSH1 0x20 DUP3 LT DUP2 SUB PUSH2 0xAD2 JUMPI PUSH4 0x4E487B71 PUSH1 0xE0 SHL PUSH0 MSTORE PUSH1 0x22 PUSH1 0x4 MSTORE PUSH1 0x24 PUSH0 REVERT JUMPDEST POP SWAP2 SWAP1 POP JUMP JUMPDEST PUSH1 0x20 DUP1 DUP3 MSTORE DUP2 DUP2 ADD MSTORE PUSH32 0x4F776E61626C653A2063616C6C6572206973206E6F7420746865206F776E6572 PUSH1 0x40 DUP3 ADD MSTORE PUSH1 0x60 ADD SWAP1 JUMP JUMPDEST PUSH0 PUSH1 0x20 DUP3 DUP5 SUB SLT ISZERO PUSH2 0xB1D JUMPI PUSH0 DUP1 REVERT JUMPDEST DUP2 MLOAD PUSH2 0xA0D DUP2 PUSH2 0x9B1 JUMP JUMPDEST PUSH0 PUSH1 0x20 DUP3 DUP5 SUB SLT ISZERO PUSH2 0xB38 JUMPI PUSH0 DUP1 REVERT JUMPDEST POP MLOAD SWAP2 SWAP1 POP JUMP JUMPDEST DUP1 DUP3 MUL DUP2 ISZERO DUP3 DUP3 DIV DUP5 EQ OR PUSH2 0x2E7 JUMPI PUSH4 0x4E487B71 PUSH1 0xE0 SHL PUSH0 MSTORE PUSH1 0x11 PUSH1 0x4 MSTORE PUSH1 0x24 PUSH0 REVERT JUMPDEST PUSH0 DUP3 PUSH2 0xB7C JUMPI PUSH4 0x4E487B71 PUSH1 0xE0 SHL PUSH0 MSTORE PUSH1 0x12 PUSH1 0x4 MSTORE PUSH1 0x24 PUSH0 REVERT JUMPDEST POP DIV SWAP1 JUMP JUMPDEST PUSH1 0x1 PUSH1 0x1 PUSH1 0xA0 SHL SUB SWAP4 DUP5 AND DUP2 MSTORE SWAP2 SWAP1 SWAP3 AND PUSH1 0x20 DUP3 ADD MSTORE PUSH1 0x40 DUP2 ADD SWAP2 SWAP1 SWAP2 MSTORE PUSH1 0x60 ADD SWAP1 JUMP JUMPDEST PUSH0 PUSH1 0x20 DUP3 DUP5 SUB SLT ISZERO PUSH2 0xBB5 JUMPI PUSH0 DUP1 REVERT JUMPDEST DUP2 MLOAD DUP1 ISZERO ISZERO DUP2 EQ PUSH2 0xA0D JUMPI PUSH0 DUP1 REVERT INVALID LOG2 PUSH5 0x6970667358 0x22 SLT KECCAK256 0xE4 0xB7 NUMBER PUSH20 0xDD5B9ECB8761561015EB02CE28EDE29C82E88133 REVERT PUSH10 0x5ED95B8E893564736F6C PUSH4 0x43000814 STOP CALLER "
				},
				"gasEstimates": {
					"creation": {
						"codeDepositCost": "613200",
						"executionCost": "infinite",
						"totalCost": "infinite"
					},
					"external": {
						"acbConfig()": "2556",
						"allowance(address,address)": "infinite",
						"approve(address,uint256)": "24517",
						"balanceOf(address)": "2641",
						"changeConfig(address)": "26747",
						"decimals()": "infinite",
						"name()": "infinite",
						"owner()": "2468",
						"symbol()": "infinite",
						"totalSupply()": "2302",
						"transfer(address,uint256)": "53777",
						"transferFrom(address,address,uint256)": "infinite",
						"transferOwnership(address)": "26967",
						"usdtswap(uint256)": "infinite"
					},
					"internal": {
						"_transfer(address,address,uint256)": "infinite"
					}
				},
				"methodIdentifiers": {
					"acbConfig()": "dba64f8f",
					"allowance(address,address)": "dd62ed3e",
					"approve(address,uint256)": "095ea7b3",
					"balanceOf(address)": "70a08231",
					"changeConfig(address)": "210835ae",
					"decimals()": "313ce567",
					"name()": "06fdde03",
					"owner()": "8da5cb5b",
					"symbol()": "95d89b41",
					"totalSupply()": "18160ddd",
					"transfer(address,uint256)": "a9059cbb",
					"transferFrom(address,address,uint256)": "23b872dd",
					"transferOwnership(address)": "f2fde38b",
					"usdtswap(uint256)": "d0675bfd"
				}
			},
			"storageLayout": {
				"storage": [
					{
						"astId": 74,
						"contract": "contracts/MV.sol:MvCoin",
						"label": "_balances",
						"offset": 0,
						"slot": "0",
						"type": "t_mapping(t_address,t_uint256)"
					},
					{
						"astId": 80,
						"contract": "contracts/MV.sol:MvCoin",
						"label": "_allowances",
						"offset": 0,
						"slot": "1",
						"type": "t_mapping(t_address,t_mapping(t_address,t_uint256))"
					},
					{
						"astId": 82,
						"contract": "contracts/MV.sol:MvCoin",
						"label": "_symbol",
						"offset": 0,
						"slot": "2",
						"type": "t_string_storage"
					},
					{
						"astId": 84,
						"contract": "contracts/MV.sol:MvCoin",
						"label": "_name",
						"offset": 0,
						"slot": "3",
						"type": "t_string_storage"
					},
					{
						"astId": 88,
						"contract": "contracts/MV.sol:MvCoin",
						"label": "_totalSupply",
						"offset": 0,
						"slot": "4",
						"type": "t_uint256"
					},
					{
						"astId": 535,
						"contract": "contracts/MV.sol:MvCoin",
						"label": "owner",
						"offset": 0,
						"slot": "5",
						"type": "t_address"
					},
					{
						"astId": 575,
						"contract": "contracts/MV.sol:MvCoin",
						"label": "acbConfig",
						"offset": 0,
						"slot": "6",
						"type": "t_address"
					}
				],
				"types": {
					"t_address": {
						"encoding": "inplace",
						"label": "address",
						"numberOfBytes": "20"
					},
					"t_mapping(t_address,t_mapping(t_address,t_uint256))": {
						"encoding": "mapping",
						"key": "t_address",
						"label": "mapping(address => mapping(address => uint256))",
						"numberOfBytes": "32",
						"value": "t_mapping(t_address,t_uint256)"
					},
					"t_mapping(t_address,t_uint256)": {
						"encoding": "mapping",
						"key": "t_address",
						"label": "mapping(address => uint256)",
						"numberOfBytes": "32",
						"value": "t_uint256"
					},
					"t_string_storage": {
						"encoding": "bytes",
						"label": "string",
						"numberOfBytes": "32"
					},
					"t_uint256": {
						"encoding": "inplace",
						"label": "uint256",
						"numberOfBytes": "32"
					}
				}
			},
			"userdoc": {
				"kind": "user",
				"methods": {},
				"version": 1
			}
		}
	}
}