{
	"contracts/MVEX.sol": {
		"MVEXContract": {
			"abi": [
				{
					"inputs": [],
					"stateMutability": "nonpayable",
					"type": "constructor"
				},
				{
					"anonymous": false,
					"inputs": [
						{
							"indexed": false,
							"internalType": "address",
							"name": "previousAdmin",
							"type": "address"
						},
						{
							"indexed": false,
							"internalType": "address",
							"name": "newAdmin",
							"type": "address"
						}
					],
					"name": "AdminChanged",
					"type": "event"
				},
				{
					"anonymous": false,
					"inputs": [
						{
							"indexed": true,
							"internalType": "address",
							"name": "beacon",
							"type": "address"
						}
					],
					"name": "BeaconUpgraded",
					"type": "event"
				},
				{
					"anonymous": false,
					"inputs": [
						{
							"indexed": false,
							"internalType": "uint8",
							"name": "version",
							"type": "uint8"
						}
					],
					"name": "Initialized",
					"type": "event"
				},
				{
					"anonymous": false,
					"inputs": [
						{
							"indexed": true,
							"internalType": "address",
							"name": "previousOwner",
							"type": "address"
						},
						{
							"indexed": true,
							"internalType": "address",
							"name": "newOwner",
							"type": "address"
						}
					],
					"name": "OwnershipTransferred",
					"type": "event"
				},
				{
					"anonymous": false,
					"inputs": [
						{
							"indexed": true,
							"internalType": "address",
							"name": "implementation",
							"type": "address"
						}
					],
					"name": "Upgraded",
					"type": "event"
				},
				{
					"inputs": [],
					"name": "acbConfig",
					"outputs": [
						{
							"internalType": "address",
							"name": "",
							"type": "address"
						}
					],
					"stateMutability": "view",
					"type": "function"
				},
				{
					"inputs": [
						{
							"internalType": "address",
							"name": "_acbConfig",
							"type": "address"
						}
					],
					"name": "changeConfig",
					"outputs": [],
					"stateMutability": "nonpayable",
					"type": "function"
				},
				{
					"inputs": [
						{
							"internalType": "address",
							"name": "_acbConfig",
							"type": "address"
						}
					],
					"name": "initialize",
					"outputs": [],
					"stateMutability": "nonpayable",
					"type": "function"
				},
				{
					"inputs": [],
					"name": "monthDividendAddress",
					"outputs": [
						{
							"internalType": "address",
							"name": "",
							"type": "address"
						}
					],
					"stateMutability": "view",
					"type": "function"
				},
				{
					"inputs": [],
					"name": "owner",
					"outputs": [
						{
							"internalType": "address",
							"name": "",
							"type": "address"
						}
					],
					"stateMutability": "view",
					"type": "function"
				},
				{
					"inputs": [],
					"name": "platformAddress",
					"outputs": [
						{
							"internalType": "address",
							"name": "",
							"type": "address"
						}
					],
					"stateMutability": "view",
					"type": "function"
				},
				{
					"inputs": [],
					"name": "platformRate",
					"outputs": [
						{
							"internalType": "uint256",
							"name": "",
							"type": "uint256"
						}
					],
					"stateMutability": "view",
					"type": "function"
				},
				{
					"inputs": [],
					"name": "proxiableUUID",
					"outputs": [
						{
							"internalType": "bytes32",
							"name": "",
							"type": "bytes32"
						}
					],
					"stateMutability": "view",
					"type": "function"
				},
				{
					"inputs": [],
					"name": "remainingAddress",
					"outputs": [
						{
							"internalType": "address",
							"name": "",
							"type": "address"
						}
					],
					"stateMutability": "view",
					"type": "function"
				},
				{
					"inputs": [],
					"name": "renounceOwnership",
					"outputs": [],
					"stateMutability": "nonpayable",
					"type": "function"
				},
				{
					"inputs": [],
					"name": "swapRate",
					"outputs": [
						{
							"internalType": "uint256",
							"name": "",
							"type": "uint256"
						}
					],
					"stateMutability": "view",
					"type": "function"
				},
				{
					"inputs": [],
					"name": "teamRewardAddress",
					"outputs": [
						{
							"internalType": "address",
							"name": "",
							"type": "address"
						}
					],
					"stateMutability": "view",
					"type": "function"
				},
				{
					"inputs": [
						{
							"internalType": "address",
							"name": "newOwner",
							"type": "address"
						}
					],
					"name": "transferOwnership",
					"outputs": [],
					"stateMutability": "nonpayable",
					"type": "function"
				},
				{
					"inputs": [
						{
							"internalType": "address",
							"name": "newImplementation",
							"type": "address"
						}
					],
					"name": "upgradeTo",
					"outputs": [],
					"stateMutability": "nonpayable",
					"type": "function"
				},
				{
					"inputs": [
						{
							"internalType": "address",
							"name": "newImplementation",
							"type": "address"
						},
						{
							"internalType": "bytes",
							"name": "data",
							"type": "bytes"
						}
					],
					"name": "upgradeToAndCall",
					"outputs": [],
					"stateMutability": "payable",
					"type": "function"
				},
				{
					"inputs": [],
					"name": "usdt",
					"outputs": [
						{
							"internalType": "address",
							"name": "",
							"type": "address"
						}
					],
					"stateMutability": "view",
					"type": "function"
				},
				{
					"inputs": [
						{
							"internalType": "uint256",
							"name": "amount",
							"type": "uint256"
						}
					],
					"name": "usdtswap",
					"outputs": [],
					"stateMutability": "nonpayable",
					"type": "function"
				}
			],
			"devdoc": {
				"events": {
					"AdminChanged(address,address)": {
						"details": "Emitted when the admin account has changed."
					},
					"BeaconUpgraded(address)": {
						"details": "Emitted when the beacon is changed."
					},
					"Initialized(uint8)": {
						"details": "Triggered when the contract has been initialized or reinitialized."
					},
					"Upgraded(address)": {
						"details": "Emitted when the implementation is upgraded."
					}
				},
				"kind": "dev",
				"methods": {
					"constructor": {
						"custom:oz-upgrades-unsafe-allow": "constructor"
					},
					"owner()": {
						"details": "Returns the address of the current owner."
					},
					"proxiableUUID()": {
						"details": "Implementation of the ERC1822 {proxiableUUID} function. This returns the storage slot used by the implementation. It is used to validate the implementation's compatibility when performing an upgrade. IMPORTANT: A proxy pointing at a proxiable contract should not be considered proxiable itself, because this risks bricking a proxy that upgrades to it, by delegating to itself until out of gas. Thus it is critical that this function revert if invoked through a proxy. This is guaranteed by the `notDelegated` modifier."
					},
					"renounceOwnership()": {
						"details": "Leaves the contract without owner. It will not be possible to call `onlyOwner` functions anymore. Can only be called by the current owner. NOTE: Renouncing ownership will leave the contract without an owner, thereby removing any functionality that is only available to the owner."
					},
					"transferOwnership(address)": {
						"details": "Transfers ownership of the contract to a new account (`newOwner`). Can only be called by the current owner."
					},
					"upgradeTo(address)": {
						"details": "Upgrade the implementation of the proxy to `newImplementation`. Calls {_authorizeUpgrade}. Emits an {Upgraded} event."
					},
					"upgradeToAndCall(address,bytes)": {
						"details": "Upgrade the implementation of the proxy to `newImplementation`, and subsequently execute the function call encoded in `data`. Calls {_authorizeUpgrade}. Emits an {Upgraded} event."
					}
				},
				"version": 1
			},
			"evm": {
				"assembly": "    /* \"contracts/MVEX.sol\":732:2102  contract MVEXContract is  OwnableUpgradeable, UUPSUpgradeable {... */\n  mstore(0x40, 0xa0)\n    /* \"lib/contracts-upgradeable/proxy/utils/UUPSUpgradeable.sol\":1332:1336  this */\n  address\n    /* \"lib/contracts-upgradeable/proxy/utils/UUPSUpgradeable.sol\":1289:1337  address private immutable __self = address(this) */\n  0x80\n  mstore\n    /* \"contracts/MVEX.sol\":1138:1202  constructor() {... */\n  callvalue\n  dup1\n  iszero\n  tag_1\n  jumpi\n  0x00\n  dup1\n  revert\ntag_1:\n  pop\n    /* \"contracts/MVEX.sol\":1163:1185  _disableInitializers() */\n  tag_4\n    /* \"contracts/MVEX.sol\":1163:1183  _disableInitializers */\n  tag_5\n    /* \"contracts/MVEX.sol\":1163:1185  _disableInitializers() */\n  jump\t// in\ntag_4:\n    /* \"contracts/MVEX.sol\":732:2102  contract MVEXContract is  OwnableUpgradeable, UUPSUpgradeable {... */\n  jump(tag_14)\n    /* \"lib/contracts-upgradeable/proxy/utils/Initializable.sol\":5928:6207  function _disableInitializers() internal virtual {... */\ntag_5:\n    /* \"lib/contracts-upgradeable/proxy/utils/Initializable.sol\":5996:6009  _initializing */\n  sload(0x00)\n  0x0100\n  swap1\n  div\n  0xff\n  and\n    /* \"lib/contracts-upgradeable/proxy/utils/Initializable.sol\":5995:6009  !_initializing */\n  iszero\n    /* \"lib/contracts-upgradeable/proxy/utils/Initializable.sol\":5987:6053  require(!_initializing, \"Initializable: contract is initializing\") */\n  tag_8\n  jumpi\n  mload(0x40)\n  shl(0xe5, 0x461bcd)\n  dup2\n  mstore\n    /* \"#utility.yul\":216:218   */\n  0x20\n    /* \"lib/contracts-upgradeable/proxy/utils/Initializable.sol\":5987:6053  require(!_initializing, \"Initializable: contract is initializing\") */\n  0x04\n  dup3\n  add\n    /* \"#utility.yul\":198:219   */\n  mstore\n    /* \"#utility.yul\":255:257   */\n  0x27\n    /* \"#utility.yul\":235:253   */\n  0x24\n  dup3\n  add\n    /* \"#utility.yul\":228:258   */\n  mstore\n    /* \"#utility.yul\":294:328   */\n  0x496e697469616c697a61626c653a20636f6e747261637420697320696e697469\n    /* \"#utility.yul\":274:292   */\n  0x44\n  dup3\n  add\n    /* \"#utility.yul\":267:329   */\n  mstore\n  shl(0xc8, 0x616c697a696e67)\n    /* \"#utility.yul\":345:363   */\n  0x64\n  dup3\n  add\n    /* \"#utility.yul\":338:375   */\n  mstore\n    /* \"#utility.yul\":392:411   */\n  0x84\n  add\n    /* \"lib/contracts-upgradeable/proxy/utils/Initializable.sol\":5987:6053  require(!_initializing, \"Initializable: contract is initializing\") */\n  mload(0x40)\n  dup1\n  swap2\n  sub\n  swap1\n  revert\ntag_8:\n    /* \"lib/contracts-upgradeable/proxy/utils/Initializable.sol\":6067:6079  _initialized */\n  sload(0x00)\n    /* \"lib/contracts-upgradeable/proxy/utils/Initializable.sol\":6082:6097  type(uint8).max */\n  0xff\n    /* \"lib/contracts-upgradeable/proxy/utils/Initializable.sol\":6067:6079  _initialized */\n  swap1\n  dup2\n  and\n    /* \"lib/contracts-upgradeable/proxy/utils/Initializable.sol\":6067:6097  _initialized < type(uint8).max */\n  lt\n    /* \"lib/contracts-upgradeable/proxy/utils/Initializable.sol\":6063:6201  if (_initialized < type(uint8).max) {... */\n  iszero\n  tag_11\n  jumpi\n    /* \"lib/contracts-upgradeable/proxy/utils/Initializable.sol\":6113:6125  _initialized */\n  0x00\n    /* \"lib/contracts-upgradeable/proxy/utils/Initializable.sol\":6113:6143  _initialized = type(uint8).max */\n  dup1\n  sload\n  not(0xff)\n  and\n    /* \"lib/contracts-upgradeable/proxy/utils/Initializable.sol\":6128:6143  type(uint8).max */\n  0xff\n    /* \"lib/contracts-upgradeable/proxy/utils/Initializable.sol\":6113:6143  _initialized = type(uint8).max */\n  swap1\n  dup2\n  or\n  swap1\n  swap2\n  sstore\n    /* \"lib/contracts-upgradeable/proxy/utils/Initializable.sol\":6162:6190  Initialized(type(uint8).max) */\n  mload(0x40)\n    /* \"#utility.yul\":564:600   */\n  swap1\n  dup2\n  mstore\n    /* \"lib/contracts-upgradeable/proxy/utils/Initializable.sol\":6162:6190  Initialized(type(uint8).max) */\n  0x7f26b83ff96e1f2b6a682f133852f6798a09c465da95921460cefb3847402498\n  swap1\n    /* \"#utility.yul\":552:554   */\n  0x20\n    /* \"#utility.yul\":537:555   */\n  add\n    /* \"lib/contracts-upgradeable/proxy/utils/Initializable.sol\":6162:6190  Initialized(type(uint8).max) */\n  mload(0x40)\n  dup1\n  swap2\n  sub\n  swap1\n  log1\n    /* \"lib/contracts-upgradeable/proxy/utils/Initializable.sol\":6063:6201  if (_initialized < type(uint8).max) {... */\ntag_11:\n    /* \"lib/contracts-upgradeable/proxy/utils/Initializable.sol\":5928:6207  function _disableInitializers() internal virtual {... */\n  jump\t// out\n    /* \"#utility.yul\":422:606   */\ntag_14:\n    /* \"contracts/MVEX.sol\":732:2102  contract MVEXContract is  OwnableUpgradeable, UUPSUpgradeable {... */\n  mload(0x80)\n  codecopy(0x00, dataOffset(sub_0), dataSize(sub_0))\n  0x00\n  assignImmutable(\"0xafc7867dc682bb65dda0adf82b5845e2c7aff376e8ead2312aa01aa72d90f990\")\n  return(0x00, dataSize(sub_0))\nstop\n\nsub_0: assembly {\n        /* \"contracts/MVEX.sol\":732:2102  contract MVEXContract is  OwnableUpgradeable, UUPSUpgradeable {... */\n      mstore(0x40, 0x80)\n      jumpi(tag_1, lt(calldatasize, 0x04))\n      shr(0xe0, calldataload(0x00))\n      dup1\n      0x210835ae\n      eq\n      tag_2\n      jumpi\n      dup1\n      0x2f48ab7d\n      eq\n      tag_3\n      jumpi\n      dup1\n      0x3659cfe6\n      eq\n      tag_4\n      jumpi\n      dup1\n      0x36e0cac6\n      eq\n      tag_5\n      jumpi\n      dup1\n      0x4b21ddec\n      eq\n      tag_6\n      jumpi\n      dup1\n      0x4f1ef286\n      eq\n      tag_7\n      jumpi\n      dup1\n      0x52d1902d\n      eq\n      tag_8\n      jumpi\n      dup1\n      0x698518e5\n      eq\n      tag_9\n      jumpi\n      dup1\n      0x715018a6\n      eq\n      tag_10\n      jumpi\n      dup1\n      0x8da5cb5b\n      eq\n      tag_11\n      jumpi\n      dup1\n      0xb2cf085e\n      eq\n      tag_12\n      jumpi\n      dup1\n      0xc4d66de8\n      eq\n      tag_13\n      jumpi\n      dup1\n      0xd0675bfd\n      eq\n      tag_14\n      jumpi\n      dup1\n      0xdba64f8f\n      eq\n      tag_15\n      jumpi\n      dup1\n      0xdbe55e56\n      eq\n      tag_16\n      jumpi\n      dup1\n      0xf2fde38b\n      eq\n      tag_17\n      jumpi\n      dup1\n      0xf97fe091\n      eq\n      tag_18\n      jumpi\n    tag_1:\n      0x00\n      dup1\n      revert\n        /* \"contracts/MVEX.sol\":1517:1617  function changeConfig(address _acbConfig)external onlyOwner{... */\n    tag_2:\n      callvalue\n      dup1\n      iszero\n      tag_19\n      jumpi\n      0x00\n      dup1\n      revert\n    tag_19:\n      pop\n      tag_20\n      tag_21\n      calldatasize\n      0x04\n      tag_22\n      jump\t// in\n    tag_21:\n      tag_23\n      jump\t// in\n    tag_20:\n      stop\n        /* \"contracts/MVEX.sol\":801:820  address public usdt */\n    tag_3:\n      callvalue\n      dup1\n      iszero\n      tag_24\n      jumpi\n      0x00\n      dup1\n      revert\n    tag_24:\n      pop\n      sload(0xc9)\n      tag_25\n      swap1\n      sub(shl(0xa0, 0x01), 0x01)\n      and\n      dup2\n      jump\n    tag_25:\n      mload(0x40)\n      sub(shl(0xa0, 0x01), 0x01)\n        /* \"#utility.yul\":566:598   */\n      swap1\n      swap2\n      and\n        /* \"#utility.yul\":548:599   */\n      dup2\n      mstore\n        /* \"#utility.yul\":536:538   */\n      0x20\n        /* \"#utility.yul\":521:539   */\n      add\n        /* \"contracts/MVEX.sol\":801:820  address public usdt */\n    tag_27:\n      mload(0x40)\n      dup1\n      swap2\n      sub\n      swap1\n      return\n        /* \"lib/contracts-upgradeable/proxy/utils/UUPSUpgradeable.sol\":3317:3514  function upgradeTo(address newImplementation) external virtual onlyProxy {... */\n    tag_4:\n      callvalue\n      dup1\n      iszero\n      tag_29\n      jumpi\n      0x00\n      dup1\n      revert\n    tag_29:\n      pop\n      tag_20\n      tag_31\n      calldatasize\n      0x04\n      tag_22\n      jump\t// in\n    tag_31:\n      tag_32\n      jump\t// in\n        /* \"contracts/MVEX.sol\":1014:1041  uint256 public platformRate */\n    tag_5:\n      callvalue\n      dup1\n      iszero\n      tag_33\n      jumpi\n      0x00\n      dup1\n      revert\n    tag_33:\n      pop\n      tag_34\n      sload(0xcf)\n      dup2\n      jump\n    tag_34:\n      mload(0x40)\n        /* \"#utility.yul\":756:781   */\n      swap1\n      dup2\n      mstore\n        /* \"#utility.yul\":744:746   */\n      0x20\n        /* \"#utility.yul\":729:747   */\n      add\n        /* \"contracts/MVEX.sol\":1014:1041  uint256 public platformRate */\n      tag_27\n        /* \"#utility.yul\":610:787   */\n      jump\n        /* \"contracts/MVEX.sol\":937:969  address public teamRewardAddress */\n    tag_6:\n      callvalue\n      dup1\n      iszero\n      tag_38\n      jumpi\n      0x00\n      dup1\n      revert\n    tag_38:\n      pop\n      sload(0xcd)\n      tag_25\n      swap1\n      sub(shl(0xa0, 0x01), 0x01)\n      and\n      dup2\n      jump\n        /* \"lib/contracts-upgradeable/proxy/utils/UUPSUpgradeable.sol\":3763:3985  function upgradeToAndCall(address newImplementation, bytes memory data) external payable virtual onlyProxy {... */\n    tag_7:\n      tag_20\n      tag_43\n      calldatasize\n      0x04\n      tag_44\n      jump\t// in\n    tag_43:\n      tag_45\n      jump\t// in\n        /* \"lib/contracts-upgradeable/proxy/utils/UUPSUpgradeable.sol\":3006:3137  function proxiableUUID() external view virtual override notDelegated returns (bytes32) {... */\n    tag_8:\n      callvalue\n      dup1\n      iszero\n      tag_46\n      jumpi\n      0x00\n      dup1\n      revert\n    tag_46:\n      pop\n      tag_34\n      tag_48\n      jump\t// in\n        /* \"contracts/MVEX.sol\":1048:1071  uint256 public swapRate */\n    tag_9:\n      callvalue\n      dup1\n      iszero\n      tag_51\n      jumpi\n      0x00\n      dup1\n      revert\n    tag_51:\n      pop\n      tag_34\n      sload(0xd0)\n      dup2\n      jump\n        /* \"lib/contracts-upgradeable/access/OwnableUpgradeable.sol\":2071:2172  function renounceOwnership() public virtual onlyOwner {... */\n    tag_10:\n      callvalue\n      dup1\n      iszero\n      tag_55\n      jumpi\n      0x00\n      dup1\n      revert\n    tag_55:\n      pop\n      tag_20\n      tag_57\n      jump\t// in\n        /* \"lib/contracts-upgradeable/access/OwnableUpgradeable.sol\":1441:1526  function owner() public view virtual returns (address) {... */\n    tag_11:\n      callvalue\n      dup1\n      iszero\n      tag_58\n      jumpi\n      0x00\n      dup1\n      revert\n    tag_58:\n      pop\n      tag_25\n      tag_60\n      jump\t// in\n        /* \"contracts/MVEX.sol\":864:899  address public monthDividendAddress */\n    tag_12:\n      callvalue\n      dup1\n      iszero\n      tag_62\n      jumpi\n      0x00\n      dup1\n      revert\n    tag_62:\n      pop\n      sload(0xcb)\n      tag_25\n      swap1\n      sub(shl(0xa0, 0x01), 0x01)\n      and\n      dup2\n      jump\n        /* \"contracts/MVEX.sol\":1210:1372  function initialize(address _acbConfig) initializer public {... */\n    tag_13:\n      callvalue\n      dup1\n      iszero\n      tag_66\n      jumpi\n      0x00\n      dup1\n      revert\n    tag_66:\n      pop\n      tag_20\n      tag_68\n      calldatasize\n      0x04\n      tag_22\n      jump\t// in\n    tag_68:\n      tag_69\n      jump\t// in\n        /* \"contracts/MVEX.sol\":1630:2097  function usdtswap(uint256 amount)external {... */\n    tag_14:\n      callvalue\n      dup1\n      iszero\n      tag_70\n      jumpi\n      0x00\n      dup1\n      revert\n    tag_70:\n      pop\n      tag_20\n      tag_72\n      calldatasize\n      0x04\n      tag_73\n      jump\t// in\n    tag_72:\n      tag_74\n      jump\t// in\n        /* \"contracts/MVEX.sol\":906:930  address public acbConfig */\n    tag_15:\n      callvalue\n      dup1\n      iszero\n      tag_75\n      jumpi\n      0x00\n      dup1\n      revert\n    tag_75:\n      pop\n      sload(0xcc)\n      tag_25\n      swap1\n      sub(shl(0xa0, 0x01), 0x01)\n      and\n      dup2\n      jump\n        /* \"contracts/MVEX.sol\":827:857  address public platformAddress */\n    tag_16:\n      callvalue\n      dup1\n      iszero\n      tag_79\n      jumpi\n      0x00\n      dup1\n      revert\n    tag_79:\n      pop\n      sload(0xca)\n      tag_25\n      swap1\n      sub(shl(0xa0, 0x01), 0x01)\n      and\n      dup2\n      jump\n        /* \"lib/contracts-upgradeable/access/OwnableUpgradeable.sol\":2321:2519  function transferOwnership(address newOwner) public virtual onlyOwner {... */\n    tag_17:\n      callvalue\n      dup1\n      iszero\n      tag_83\n      jumpi\n      0x00\n      dup1\n      revert\n    tag_83:\n      pop\n      tag_20\n      tag_85\n      calldatasize\n      0x04\n      tag_22\n      jump\t// in\n    tag_85:\n      tag_86\n      jump\t// in\n        /* \"contracts/MVEX.sol\":976:1007  address public remainingAddress */\n    tag_18:\n      callvalue\n      dup1\n      iszero\n      tag_87\n      jumpi\n      0x00\n      dup1\n      revert\n    tag_87:\n      pop\n      sload(0xce)\n      tag_25\n      swap1\n      sub(shl(0xa0, 0x01), 0x01)\n      and\n      dup2\n      jump\n        /* \"contracts/MVEX.sol\":1517:1617  function changeConfig(address _acbConfig)external onlyOwner{... */\n    tag_23:\n        /* \"lib/contracts-upgradeable/access/OwnableUpgradeable.sol\":1334:1347  _checkOwner() */\n      tag_92\n        /* \"lib/contracts-upgradeable/access/OwnableUpgradeable.sol\":1334:1345  _checkOwner */\n      tag_93\n        /* \"lib/contracts-upgradeable/access/OwnableUpgradeable.sol\":1334:1347  _checkOwner() */\n      jump\t// in\n    tag_92:\n        /* \"contracts/MVEX.sol\":1587:1596  acbConfig */\n      0xcc\n        /* \"contracts/MVEX.sol\":1587:1609  acbConfig = _acbConfig */\n      dup1\n      sload\n      not(sub(shl(0xa0, 0x01), 0x01))\n      and\n      sub(shl(0xa0, 0x01), 0x01)\n      swap3\n      swap1\n      swap3\n      and\n      swap2\n      swap1\n      swap2\n      or\n      swap1\n      sstore\n        /* \"contracts/MVEX.sol\":1517:1617  function changeConfig(address _acbConfig)external onlyOwner{... */\n      jump\t// out\n        /* \"lib/contracts-upgradeable/proxy/utils/UUPSUpgradeable.sol\":3317:3514  function upgradeTo(address newImplementation) external virtual onlyProxy {... */\n    tag_32:\n      sub(shl(0xa0, 0x01), 0x01)\n        /* \"lib/contracts-upgradeable/proxy/utils/UUPSUpgradeable.sol\":1898:1904  __self */\n      immutable(\"0xafc7867dc682bb65dda0adf82b5845e2c7aff376e8ead2312aa01aa72d90f990\")\n        /* \"lib/contracts-upgradeable/proxy/utils/UUPSUpgradeable.sol\":1881:1904  address(this) != __self */\n      and\n        /* \"lib/contracts-upgradeable/proxy/utils/UUPSUpgradeable.sol\":1889:1893  this */\n      address\n        /* \"lib/contracts-upgradeable/proxy/utils/UUPSUpgradeable.sol\":1881:1904  address(this) != __self */\n      sub\n        /* \"lib/contracts-upgradeable/proxy/utils/UUPSUpgradeable.sol\":1873:1953  require(address(this) != __self, \"Function must be called through delegatecall\") */\n      tag_96\n      jumpi\n      mload(0x40)\n      shl(0xe5, 0x461bcd)\n      dup2\n      mstore\n      0x04\n      add\n      tag_97\n      swap1\n      tag_98\n      jump\t// in\n    tag_97:\n      mload(0x40)\n      dup1\n      swap2\n      sub\n      swap1\n      revert\n    tag_96:\n        /* \"lib/contracts-upgradeable/proxy/utils/UUPSUpgradeable.sol\":1995:2001  __self */\n      immutable(\"0xafc7867dc682bb65dda0adf82b5845e2c7aff376e8ead2312aa01aa72d90f990\")\n      sub(shl(0xa0, 0x01), 0x01)\n        /* \"lib/contracts-upgradeable/proxy/utils/UUPSUpgradeable.sol\":1971:2001  _getImplementation() == __self */\n      and\n        /* \"lib/contracts-upgradeable/proxy/utils/UUPSUpgradeable.sol\":1971:1991  _getImplementation() */\n      tag_99\n        /* \"lib/contracts-upgradeable/proxy/utils/UUPSUpgradeable.sol\":1971:1989  _getImplementation */\n      tag_100\n        /* \"lib/contracts-upgradeable/proxy/utils/UUPSUpgradeable.sol\":1971:1991  _getImplementation() */\n      jump\t// in\n    tag_99:\n      sub(shl(0xa0, 0x01), 0x01)\n        /* \"lib/contracts-upgradeable/proxy/utils/UUPSUpgradeable.sol\":1971:2001  _getImplementation() == __self */\n      and\n      eq\n        /* \"lib/contracts-upgradeable/proxy/utils/UUPSUpgradeable.sol\":1963:2050  require(_getImplementation() == __self, \"Function must be called through active proxy\") */\n      tag_101\n      jumpi\n      mload(0x40)\n      shl(0xe5, 0x461bcd)\n      dup2\n      mstore\n      0x04\n      add\n      tag_97\n      swap1\n      tag_103\n      jump\t// in\n    tag_101:\n        /* \"lib/contracts-upgradeable/proxy/utils/UUPSUpgradeable.sol\":3400:3436  _authorizeUpgrade(newImplementation) */\n      tag_105\n        /* \"lib/contracts-upgradeable/proxy/utils/UUPSUpgradeable.sol\":3418:3435  newImplementation */\n      dup2\n        /* \"lib/contracts-upgradeable/proxy/utils/UUPSUpgradeable.sol\":3400:3417  _authorizeUpgrade */\n      tag_106\n        /* \"lib/contracts-upgradeable/proxy/utils/UUPSUpgradeable.sol\":3400:3436  _authorizeUpgrade(newImplementation) */\n      jump\t// in\n    tag_105:\n        /* \"lib/contracts-upgradeable/proxy/utils/UUPSUpgradeable.sol\":3487:3499  new bytes(0) */\n      0x40\n      dup1\n      mload\n        /* \"lib/contracts-upgradeable/proxy/utils/UUPSUpgradeable.sol\":3497:3498  0 */\n      0x00\n        /* \"lib/contracts-upgradeable/proxy/utils/UUPSUpgradeable.sol\":3487:3499  new bytes(0) */\n      dup1\n      dup3\n      mstore\n      0x20\n      dup3\n      add\n      swap1\n      swap3\n      mstore\n        /* \"lib/contracts-upgradeable/proxy/utils/UUPSUpgradeable.sol\":3446:3507  _upgradeToAndCallUUPS(newImplementation, new bytes(0), false) */\n      tag_107\n      swap2\n        /* \"lib/contracts-upgradeable/proxy/utils/UUPSUpgradeable.sol\":3468:3485  newImplementation */\n      dup4\n      swap2\n        /* \"lib/contracts-upgradeable/proxy/utils/UUPSUpgradeable.sol\":3487:3499  new bytes(0) */\n      swap1\n        /* \"lib/contracts-upgradeable/proxy/utils/UUPSUpgradeable.sol\":3446:3467  _upgradeToAndCallUUPS */\n      tag_112\n        /* \"lib/contracts-upgradeable/proxy/utils/UUPSUpgradeable.sol\":3446:3507  _upgradeToAndCallUUPS(newImplementation, new bytes(0), false) */\n      jump\t// in\n    tag_107:\n        /* \"lib/contracts-upgradeable/proxy/utils/UUPSUpgradeable.sol\":3317:3514  function upgradeTo(address newImplementation) external virtual onlyProxy {... */\n      pop\n      jump\t// out\n        /* \"lib/contracts-upgradeable/proxy/utils/UUPSUpgradeable.sol\":3763:3985  function upgradeToAndCall(address newImplementation, bytes memory data) external payable virtual onlyProxy {... */\n    tag_45:\n      sub(shl(0xa0, 0x01), 0x01)\n        /* \"lib/contracts-upgradeable/proxy/utils/UUPSUpgradeable.sol\":1898:1904  __self */\n      immutable(\"0xafc7867dc682bb65dda0adf82b5845e2c7aff376e8ead2312aa01aa72d90f990\")\n        /* \"lib/contracts-upgradeable/proxy/utils/UUPSUpgradeable.sol\":1881:1904  address(this) != __self */\n      and\n        /* \"lib/contracts-upgradeable/proxy/utils/UUPSUpgradeable.sol\":1889:1893  this */\n      address\n        /* \"lib/contracts-upgradeable/proxy/utils/UUPSUpgradeable.sol\":1881:1904  address(this) != __self */\n      sub\n        /* \"lib/contracts-upgradeable/proxy/utils/UUPSUpgradeable.sol\":1873:1953  require(address(this) != __self, \"Function must be called through delegatecall\") */\n      tag_114\n      jumpi\n      mload(0x40)\n      shl(0xe5, 0x461bcd)\n      dup2\n      mstore\n      0x04\n      add\n      tag_97\n      swap1\n      tag_98\n      jump\t// in\n    tag_114:\n        /* \"lib/contracts-upgradeable/proxy/utils/UUPSUpgradeable.sol\":1995:2001  __self */\n      immutable(\"0xafc7867dc682bb65dda0adf82b5845e2c7aff376e8ead2312aa01aa72d90f990\")\n      sub(shl(0xa0, 0x01), 0x01)\n        /* \"lib/contracts-upgradeable/proxy/utils/UUPSUpgradeable.sol\":1971:2001  _getImplementation() == __self */\n      and\n        /* \"lib/contracts-upgradeable/proxy/utils/UUPSUpgradeable.sol\":1971:1991  _getImplementation() */\n      tag_116\n        /* \"lib/contracts-upgradeable/proxy/utils/UUPSUpgradeable.sol\":1971:1989  _getImplementation */\n      tag_100\n        /* \"lib/contracts-upgradeable/proxy/utils/UUPSUpgradeable.sol\":1971:1991  _getImplementation() */\n      jump\t// in\n    tag_116:\n      sub(shl(0xa0, 0x01), 0x01)\n        /* \"lib/contracts-upgradeable/proxy/utils/UUPSUpgradeable.sol\":1971:2001  _getImplementation() == __self */\n      and\n      eq\n        /* \"lib/contracts-upgradeable/proxy/utils/UUPSUpgradeable.sol\":1963:2050  require(_getImplementation() == __self, \"Function must be called through active proxy\") */\n      tag_117\n      jumpi\n      mload(0x40)\n      shl(0xe5, 0x461bcd)\n      dup2\n      mstore\n      0x04\n      add\n      tag_97\n      swap1\n      tag_103\n      jump\t// in\n    tag_117:\n        /* \"lib/contracts-upgradeable/proxy/utils/UUPSUpgradeable.sol\":3880:3916  _authorizeUpgrade(newImplementation) */\n      tag_120\n        /* \"lib/contracts-upgradeable/proxy/utils/UUPSUpgradeable.sol\":3898:3915  newImplementation */\n      dup3\n        /* \"lib/contracts-upgradeable/proxy/utils/UUPSUpgradeable.sol\":3880:3897  _authorizeUpgrade */\n      tag_106\n        /* \"lib/contracts-upgradeable/proxy/utils/UUPSUpgradeable.sol\":3880:3916  _authorizeUpgrade(newImplementation) */\n      jump\t// in\n    tag_120:\n        /* \"lib/contracts-upgradeable/proxy/utils/UUPSUpgradeable.sol\":3926:3978  _upgradeToAndCallUUPS(newImplementation, data, true) */\n      tag_121\n        /* \"lib/contracts-upgradeable/proxy/utils/UUPSUpgradeable.sol\":3948:3965  newImplementation */\n      dup3\n        /* \"lib/contracts-upgradeable/proxy/utils/UUPSUpgradeable.sol\":3967:3971  data */\n      dup3\n        /* \"lib/contracts-upgradeable/proxy/utils/UUPSUpgradeable.sol\":3973:3977  true */\n      0x01\n        /* \"lib/contracts-upgradeable/proxy/utils/UUPSUpgradeable.sol\":3926:3947  _upgradeToAndCallUUPS */\n      tag_112\n        /* \"lib/contracts-upgradeable/proxy/utils/UUPSUpgradeable.sol\":3926:3978  _upgradeToAndCallUUPS(newImplementation, data, true) */\n      jump\t// in\n    tag_121:\n        /* \"lib/contracts-upgradeable/proxy/utils/UUPSUpgradeable.sol\":3763:3985  function upgradeToAndCall(address newImplementation, bytes memory data) external payable virtual onlyProxy {... */\n      pop\n      pop\n      jump\t// out\n        /* \"lib/contracts-upgradeable/proxy/utils/UUPSUpgradeable.sol\":3006:3137  function proxiableUUID() external view virtual override notDelegated returns (bytes32) {... */\n    tag_48:\n        /* \"lib/contracts-upgradeable/proxy/utils/UUPSUpgradeable.sol\":3084:3091  bytes32 */\n      0x00\n        /* \"lib/contracts-upgradeable/proxy/utils/UUPSUpgradeable.sol\":2324:2328  this */\n      address\n      sub(shl(0xa0, 0x01), 0x01)\n        /* \"lib/contracts-upgradeable/proxy/utils/UUPSUpgradeable.sol\":2333:2339  __self */\n      immutable(\"0xafc7867dc682bb65dda0adf82b5845e2c7aff376e8ead2312aa01aa72d90f990\")\n        /* \"lib/contracts-upgradeable/proxy/utils/UUPSUpgradeable.sol\":2316:2339  address(this) == __self */\n      and\n      eq\n        /* \"lib/contracts-upgradeable/proxy/utils/UUPSUpgradeable.sol\":2308:2400  require(address(this) == __self, \"UUPSUpgradeable: must not be called through delegatecall\") */\n      tag_123\n      jumpi\n      mload(0x40)\n      shl(0xe5, 0x461bcd)\n      dup2\n      mstore\n        /* \"#utility.yul\":3380:3382   */\n      0x20\n        /* \"lib/contracts-upgradeable/proxy/utils/UUPSUpgradeable.sol\":2308:2400  require(address(this) == __self, \"UUPSUpgradeable: must not be called through delegatecall\") */\n      0x04\n      dup3\n      add\n        /* \"#utility.yul\":3362:3383   */\n      mstore\n        /* \"#utility.yul\":3419:3421   */\n      0x38\n        /* \"#utility.yul\":3399:3417   */\n      0x24\n      dup3\n      add\n        /* \"#utility.yul\":3392:3422   */\n      mstore\n        /* \"#utility.yul\":3458:3492   */\n      0x555550535570677261646561626c653a206d757374206e6f742062652063616c\n        /* \"#utility.yul\":3438:3456   */\n      0x44\n      dup3\n      add\n        /* \"#utility.yul\":3431:3493   */\n      mstore\n      shl(0x42, 0x1b1959081d1a1c9bdd59da0819195b1959d85d1958d85b1b)\n        /* \"#utility.yul\":3509:3527   */\n      0x64\n      dup3\n      add\n        /* \"#utility.yul\":3502:3556   */\n      mstore\n        /* \"#utility.yul\":3573:3592   */\n      0x84\n      add\n        /* \"lib/contracts-upgradeable/proxy/utils/UUPSUpgradeable.sol\":2308:2400  require(address(this) == __self, \"UUPSUpgradeable: must not be called through delegatecall\") */\n      tag_97\n        /* \"#utility.yul\":3178:3598   */\n      jump\n        /* \"lib/contracts-upgradeable/proxy/utils/UUPSUpgradeable.sol\":2308:2400  require(address(this) == __self, \"UUPSUpgradeable: must not be called through delegatecall\") */\n    tag_123:\n      pop\n      0x00\n      dup1\n      mload\n      0x20\n      data_75b20eef8615de99c108b05f0dbda081c91897128caa336d75dffb97c4132b4d\n      dup4\n      codecopy\n      dup2\n      mload\n      swap2\n      mstore\n        /* \"lib/contracts-upgradeable/proxy/utils/UUPSUpgradeable.sol\":3006:3137  function proxiableUUID() external view virtual override notDelegated returns (bytes32) {... */\n      swap1\n      jump\t// out\n        /* \"lib/contracts-upgradeable/access/OwnableUpgradeable.sol\":2071:2172  function renounceOwnership() public virtual onlyOwner {... */\n    tag_57:\n        /* \"lib/contracts-upgradeable/access/OwnableUpgradeable.sol\":1334:1347  _checkOwner() */\n      tag_128\n        /* \"lib/contracts-upgradeable/access/OwnableUpgradeable.sol\":1334:1345  _checkOwner */\n      tag_93\n        /* \"lib/contracts-upgradeable/access/OwnableUpgradeable.sol\":1334:1347  _checkOwner() */\n      jump\t// in\n    tag_128:\n        /* \"lib/contracts-upgradeable/access/OwnableUpgradeable.sol\":2135:2165  _transferOwnership(address(0)) */\n      tag_130\n        /* \"lib/contracts-upgradeable/access/OwnableUpgradeable.sol\":2162:2163  0 */\n      0x00\n        /* \"lib/contracts-upgradeable/access/OwnableUpgradeable.sol\":2135:2153  _transferOwnership */\n      tag_131\n        /* \"lib/contracts-upgradeable/access/OwnableUpgradeable.sol\":2135:2165  _transferOwnership(address(0)) */\n      jump\t// in\n    tag_130:\n        /* \"lib/contracts-upgradeable/access/OwnableUpgradeable.sol\":2071:2172  function renounceOwnership() public virtual onlyOwner {... */\n      jump\t// out\n        /* \"lib/contracts-upgradeable/access/OwnableUpgradeable.sol\":1441:1526  function owner() public view virtual returns (address) {... */\n    tag_60:\n        /* \"lib/contracts-upgradeable/access/OwnableUpgradeable.sol\":1513:1519  _owner */\n      and(sub(shl(0xa0, 0x01), 0x01), sload(0x33))\n      swap1\n        /* \"lib/contracts-upgradeable/access/OwnableUpgradeable.sol\":1441:1526  function owner() public view virtual returns (address) {... */\n      jump\t// out\n        /* \"contracts/MVEX.sol\":1210:1372  function initialize(address _acbConfig) initializer public {... */\n    tag_69:\n        /* \"lib/contracts-upgradeable/proxy/utils/Initializable.sol\":3268:3287  bool isTopLevelCall */\n      0x00\n        /* \"lib/contracts-upgradeable/proxy/utils/Initializable.sol\":3291:3304  _initializing */\n      sload\n      0x0100\n      swap1\n      div\n      0xff\n      and\n        /* \"lib/contracts-upgradeable/proxy/utils/Initializable.sol\":3290:3304  !_initializing */\n      iszero\n      dup1\n        /* \"lib/contracts-upgradeable/proxy/utils/Initializable.sol\":3336:3370  isTopLevelCall && _initialized < 1 */\n      dup1\n      iszero\n      tag_134\n      jumpi\n      pop\n        /* \"lib/contracts-upgradeable/proxy/utils/Initializable.sol\":3354:3366  _initialized */\n      sload(0x00)\n        /* \"lib/contracts-upgradeable/proxy/utils/Initializable.sol\":3369:3370  1 */\n      0x01\n        /* \"lib/contracts-upgradeable/proxy/utils/Initializable.sol\":3354:3366  _initialized */\n      0xff\n      swap1\n      swap2\n      and\n        /* \"lib/contracts-upgradeable/proxy/utils/Initializable.sol\":3354:3370  _initialized < 1 */\n      lt\n        /* \"lib/contracts-upgradeable/proxy/utils/Initializable.sol\":3336:3370  isTopLevelCall && _initialized < 1 */\n    tag_134:\n        /* \"lib/contracts-upgradeable/proxy/utils/Initializable.sol\":3335:3443  (isTopLevelCall && _initialized < 1) || (!AddressUpgradeable.isContract(address(this)) && _initialized == 1) */\n      dup1\n      tag_138\n      jumpi\n      pop\n        /* \"lib/contracts-upgradeable/proxy/utils/Initializable.sol\":3377:3421  AddressUpgradeable.isContract(address(this)) */\n      tag_136\n        /* \"lib/contracts-upgradeable/proxy/utils/Initializable.sol\":3415:3419  this */\n      address\n        /* \"lib/contracts-upgradeable/proxy/utils/Initializable.sol\":3377:3406  AddressUpgradeable.isContract */\n      tag_137\n        /* \"lib/contracts-upgradeable/proxy/utils/Initializable.sol\":3377:3421  AddressUpgradeable.isContract(address(this)) */\n      jump\t// in\n    tag_136:\n        /* \"lib/contracts-upgradeable/proxy/utils/Initializable.sol\":3376:3421  !AddressUpgradeable.isContract(address(this)) */\n      iszero\n        /* \"lib/contracts-upgradeable/proxy/utils/Initializable.sol\":3376:3442  !AddressUpgradeable.isContract(address(this)) && _initialized == 1 */\n      dup1\n      iszero\n      tag_138\n      jumpi\n      pop\n        /* \"lib/contracts-upgradeable/proxy/utils/Initializable.sol\":3425:3437  _initialized */\n      and(0xff, sload(0x00))\n      0x01\n        /* \"lib/contracts-upgradeable/proxy/utils/Initializable.sol\":3425:3442  _initialized == 1 */\n      eq\n        /* \"lib/contracts-upgradeable/proxy/utils/Initializable.sol\":3376:3442  !AddressUpgradeable.isContract(address(this)) && _initialized == 1 */\n    tag_138:\n        /* \"lib/contracts-upgradeable/proxy/utils/Initializable.sol\":3314:3515  require(... */\n      tag_139\n      jumpi\n      mload(0x40)\n      shl(0xe5, 0x461bcd)\n      dup2\n      mstore\n        /* \"#utility.yul\":3805:3807   */\n      0x20\n        /* \"lib/contracts-upgradeable/proxy/utils/Initializable.sol\":3314:3515  require(... */\n      0x04\n      dup3\n      add\n        /* \"#utility.yul\":3787:3808   */\n      mstore\n        /* \"#utility.yul\":3844:3846   */\n      0x2e\n        /* \"#utility.yul\":3824:3842   */\n      0x24\n      dup3\n      add\n        /* \"#utility.yul\":3817:3847   */\n      mstore\n        /* \"#utility.yul\":3883:3917   */\n      0x496e697469616c697a61626c653a20636f6e747261637420697320616c726561\n        /* \"#utility.yul\":3863:3881   */\n      0x44\n      dup3\n      add\n        /* \"#utility.yul\":3856:3918   */\n      mstore\n      shl(0x92, 0x191e481a5b9a5d1a585b1a5e9959)\n        /* \"#utility.yul\":3934:3952   */\n      0x64\n      dup3\n      add\n        /* \"#utility.yul\":3927:3971   */\n      mstore\n        /* \"#utility.yul\":3988:4007   */\n      0x84\n      add\n        /* \"lib/contracts-upgradeable/proxy/utils/Initializable.sol\":3314:3515  require(... */\n      tag_97\n        /* \"#utility.yul\":3603:4013   */\n      jump\n        /* \"lib/contracts-upgradeable/proxy/utils/Initializable.sol\":3314:3515  require(... */\n    tag_139:\n        /* \"lib/contracts-upgradeable/proxy/utils/Initializable.sol\":3525:3537  _initialized */\n      0x00\n        /* \"lib/contracts-upgradeable/proxy/utils/Initializable.sol\":3525:3541  _initialized = 1 */\n      dup1\n      sload\n      not(0xff)\n      and\n        /* \"lib/contracts-upgradeable/proxy/utils/Initializable.sol\":3540:3541  1 */\n      0x01\n        /* \"lib/contracts-upgradeable/proxy/utils/Initializable.sol\":3525:3541  _initialized = 1 */\n      or\n      swap1\n      sstore\n        /* \"lib/contracts-upgradeable/proxy/utils/Initializable.sol\":3551:3616  if (isTopLevelCall) {... */\n      dup1\n      iszero\n      tag_142\n      jumpi\n        /* \"lib/contracts-upgradeable/proxy/utils/Initializable.sol\":3585:3598  _initializing */\n      0x00\n        /* \"lib/contracts-upgradeable/proxy/utils/Initializable.sol\":3585:3605  _initializing = true */\n      dup1\n      sload\n      not(0xff00)\n      and\n      0x0100\n      or\n      swap1\n      sstore\n        /* \"lib/contracts-upgradeable/proxy/utils/Initializable.sol\":3551:3616  if (isTopLevelCall) {... */\n    tag_142:\n        /* \"contracts/MVEX.sol\":1280:1296  __Ownable_init() */\n      tag_144\n        /* \"contracts/MVEX.sol\":1280:1294  __Ownable_init */\n      tag_145\n        /* \"contracts/MVEX.sol\":1280:1296  __Ownable_init() */\n      jump\t// in\n    tag_144:\n        /* \"contracts/MVEX.sol\":1307:1331  __UUPSUpgradeable_init() */\n      tag_146\n        /* \"contracts/MVEX.sol\":1307:1329  __UUPSUpgradeable_init */\n      tag_147\n        /* \"contracts/MVEX.sol\":1307:1331  __UUPSUpgradeable_init() */\n      jump\t// in\n    tag_146:\n        /* \"contracts/MVEX.sol\":1343:1352  acbConfig */\n      0xcc\n        /* \"contracts/MVEX.sol\":1343:1364  acbConfig =_acbConfig */\n      dup1\n      sload\n      not(sub(shl(0xa0, 0x01), 0x01))\n      and\n      sub(shl(0xa0, 0x01), 0x01)\n      dup5\n      and\n      or\n      swap1\n      sstore\n        /* \"lib/contracts-upgradeable/proxy/utils/Initializable.sol\":3636:3735  if (isTopLevelCall) {... */\n      dup1\n      iszero\n      tag_121\n      jumpi\n        /* \"lib/contracts-upgradeable/proxy/utils/Initializable.sol\":3686:3691  false */\n      0x00\n        /* \"lib/contracts-upgradeable/proxy/utils/Initializable.sol\":3670:3691  _initializing = false */\n      dup1\n      sload\n      not(0xff00)\n      and\n      swap1\n      sstore\n        /* \"lib/contracts-upgradeable/proxy/utils/Initializable.sol\":3710:3724  Initialized(1) */\n      mload(0x40)\n      0x01\n        /* \"#utility.yul\":4170:4206   */\n      dup2\n      mstore\n        /* \"lib/contracts-upgradeable/proxy/utils/Initializable.sol\":3710:3724  Initialized(1) */\n      0x7f26b83ff96e1f2b6a682f133852f6798a09c465da95921460cefb3847402498\n      swap1\n        /* \"#utility.yul\":4158:4160   */\n      0x20\n        /* \"#utility.yul\":4143:4161   */\n      add\n        /* \"lib/contracts-upgradeable/proxy/utils/Initializable.sol\":3710:3724  Initialized(1) */\n      mload(0x40)\n      dup1\n      swap2\n      sub\n      swap1\n      log1\n        /* \"lib/contracts-upgradeable/proxy/utils/Initializable.sol\":3258:3741  {... */\n      pop\n        /* \"contracts/MVEX.sol\":1210:1372  function initialize(address _acbConfig) initializer public {... */\n      pop\n      jump\t// out\n        /* \"contracts/MVEX.sol\":1630:2097  function usdtswap(uint256 amount)external {... */\n    tag_74:\n        /* \"contracts/MVEX.sol\":1727:1736  acbConfig */\n      sload(0xcc)\n        /* \"contracts/MVEX.sol\":1718:1744  ACCONFIG(acbConfig).usdt() */\n      0x40\n      dup1\n      mload\n      shl(0xe0, 0x2f48ab7d)\n      dup2\n      mstore\n      swap1\n      mload\n        /* \"contracts/MVEX.sol\":1689:1697  bool res */\n      0x00\n      swap3\n      sub(shl(0xa0, 0x01), 0x01)\n        /* \"contracts/MVEX.sol\":1727:1736  acbConfig */\n      and\n      swap2\n        /* \"contracts/MVEX.sol\":1718:1742  ACCONFIG(acbConfig).usdt */\n      0x2f48ab7d\n      swap2\n        /* \"contracts/MVEX.sol\":1718:1744  ACCONFIG(acbConfig).usdt() */\n      0x04\n      dup1\n      dup4\n      add\n      swap3\n      0x20\n      swap3\n      swap2\n      swap1\n      dup3\n      swap1\n      sub\n      add\n      dup2\n        /* \"contracts/MVEX.sol\":1727:1736  acbConfig */\n      dup7\n        /* \"contracts/MVEX.sol\":1718:1744  ACCONFIG(acbConfig).usdt() */\n      gas\n      staticcall\n      iszero\n      dup1\n      iszero\n      tag_153\n      jumpi\n      returndatasize\n      0x00\n      dup1\n      returndatacopy\n      revert(0x00, returndatasize)\n    tag_153:\n      pop\n      pop\n      pop\n      pop\n      mload(0x40)\n      returndatasize\n      not(0x1f)\n      0x1f\n      dup3\n      add\n      and\n      dup3\n      add\n      dup1\n      0x40\n      mstore\n      pop\n      dup2\n      add\n      swap1\n      tag_154\n      swap2\n      swap1\n      tag_155\n      jump\t// in\n    tag_154:\n      sub(shl(0xa0, 0x01), 0x01)\n        /* \"contracts/MVEX.sol\":1700:1758  IERC20Upgradeable(ACCONFIG(acbConfig).usdt()).transferFrom */\n      and\n      0x23b872dd\n        /* \"contracts/MVEX.sol\":1759:1769  msg.sender */\n      caller\n        /* \"contracts/MVEX.sol\":1780:1789  acbConfig */\n      0xcc\n      0x00\n      swap1\n      sload\n      swap1\n      0x0100\n      exp\n      swap1\n      div\n      sub(shl(0xa0, 0x01), 0x01)\n      and\n      sub(shl(0xa0, 0x01), 0x01)\n        /* \"contracts/MVEX.sol\":1771:1808  ACCONFIG(acbConfig).teamRewardAddress */\n      and\n      0x4b21ddec\n        /* \"contracts/MVEX.sol\":1771:1810  ACCONFIG(acbConfig).teamRewardAddress() */\n      mload(0x40)\n      dup2\n      0xffffffff\n      and\n      0xe0\n      shl\n      dup2\n      mstore\n      0x04\n      add\n      0x20\n      mload(0x40)\n      dup1\n      dup4\n      sub\n      dup2\n      dup7\n      gas\n      staticcall\n      iszero\n      dup1\n      iszero\n      tag_157\n      jumpi\n      returndatasize\n      0x00\n      dup1\n      returndatacopy\n      revert(0x00, returndatasize)\n    tag_157:\n      pop\n      pop\n      pop\n      pop\n      mload(0x40)\n      returndatasize\n      not(0x1f)\n      0x1f\n      dup3\n      add\n      and\n      dup3\n      add\n      dup1\n      0x40\n      mstore\n      pop\n      dup2\n      add\n      swap1\n      tag_158\n      swap2\n      swap1\n      tag_155\n      jump\t// in\n    tag_158:\n        /* \"contracts/MVEX.sol\":1830:1839  acbConfig */\n      sload(0xcc)\n        /* \"contracts/MVEX.sol\":1821:1851  ACCONFIG(acbConfig).swapRate() */\n      0x40\n      dup1\n      mload\n      shl(0xe0, 0x698518e5)\n      dup2\n      mstore\n      swap1\n      mload\n        /* \"contracts/MVEX.sol\":1854:1858  1000 */\n      0x03e8\n      swap3\n      sub(shl(0xa0, 0x01), 0x01)\n        /* \"contracts/MVEX.sol\":1830:1839  acbConfig */\n      and\n      swap2\n        /* \"contracts/MVEX.sol\":1821:1849  ACCONFIG(acbConfig).swapRate */\n      0x698518e5\n      swap2\n        /* \"contracts/MVEX.sol\":1821:1851  ACCONFIG(acbConfig).swapRate() */\n      0x04\n      dup1\n      dup4\n      add\n      swap3\n      0x20\n      swap3\n      swap2\n      swap1\n      dup3\n      swap1\n      sub\n      add\n      dup2\n        /* \"contracts/MVEX.sol\":1830:1839  acbConfig */\n      dup7\n        /* \"contracts/MVEX.sol\":1821:1851  ACCONFIG(acbConfig).swapRate() */\n      gas\n      staticcall\n      iszero\n      dup1\n      iszero\n      tag_160\n      jumpi\n      returndatasize\n      0x00\n      dup1\n      returndatacopy\n      revert(0x00, returndatasize)\n    tag_160:\n      pop\n      pop\n      pop\n      pop\n      mload(0x40)\n      returndatasize\n      not(0x1f)\n      0x1f\n      dup3\n      add\n      and\n      dup3\n      add\n      dup1\n      0x40\n      mstore\n      pop\n      dup2\n      add\n      swap1\n      tag_161\n      swap2\n      swap1\n      tag_162\n      jump\t// in\n    tag_161:\n        /* \"contracts/MVEX.sol\":1812:1851  amount * ACCONFIG(acbConfig).swapRate() */\n      tag_163\n      swap1\n        /* \"contracts/MVEX.sol\":1812:1818  amount */\n      dup9\n        /* \"contracts/MVEX.sol\":1812:1851  amount * ACCONFIG(acbConfig).swapRate() */\n      tag_164\n      jump\t// in\n    tag_163:\n        /* \"contracts/MVEX.sol\":1812:1858  amount * ACCONFIG(acbConfig).swapRate() / 1000 */\n      tag_165\n      swap2\n      swap1\n      tag_166\n      jump\t// in\n    tag_165:\n        /* \"contracts/MVEX.sol\":1700:1859  IERC20Upgradeable(ACCONFIG(acbConfig).usdt()).transferFrom(msg.sender, ACCONFIG(acbConfig).teamRewardAddress(), amount * ACCONFIG(acbConfig).swapRate() / 1000) */\n      mload(0x40)\n      dup5\n      0xffffffff\n      and\n      0xe0\n      shl\n      dup2\n      mstore\n      0x04\n      add\n      tag_167\n      swap4\n      swap3\n      swap2\n      swap1\n      tag_168\n      jump\t// in\n    tag_167:\n      0x20\n      mload(0x40)\n      dup1\n      dup4\n      sub\n      dup2\n      0x00\n      dup8\n      gas\n      call\n      iszero\n      dup1\n      iszero\n      tag_170\n      jumpi\n      returndatasize\n      0x00\n      dup1\n      returndatacopy\n      revert(0x00, returndatasize)\n    tag_170:\n      pop\n      pop\n      pop\n      pop\n      mload(0x40)\n      returndatasize\n      not(0x1f)\n      0x1f\n      dup3\n      add\n      and\n      dup3\n      add\n      dup1\n      0x40\n      mstore\n      pop\n      dup2\n      add\n      swap1\n      tag_171\n      swap2\n      swap1\n      tag_172\n      jump\t// in\n    tag_171:\n        /* \"contracts/MVEX.sol\":1689:1859  bool res = IERC20Upgradeable(ACCONFIG(acbConfig).usdt()).transferFrom(msg.sender, ACCONFIG(acbConfig).teamRewardAddress(), amount * ACCONFIG(acbConfig).swapRate() / 1000) */\n      swap1\n      pop\n        /* \"contracts/MVEX.sol\":1873:1876  res */\n      dup1\n        /* \"contracts/MVEX.sol\":1870:2061  if(res){... */\n      iszero\n      tag_121\n      jumpi\n        /* \"contracts/MVEX.sol\":1919:1928  acbConfig */\n      0xcc\n      0x00\n      swap1\n      sload\n      swap1\n      0x0100\n      exp\n      swap1\n      div\n      sub(shl(0xa0, 0x01), 0x01)\n      and\n      sub(shl(0xa0, 0x01), 0x01)\n        /* \"contracts/MVEX.sol\":1910:1932  ACCONFIG(acbConfig).mv */\n      and\n      0x8f05cdf5\n        /* \"contracts/MVEX.sol\":1910:1934  ACCONFIG(acbConfig).mv() */\n      mload(0x40)\n      dup2\n      0xffffffff\n      and\n      0xe0\n      shl\n      dup2\n      mstore\n      0x04\n      add\n      0x20\n      mload(0x40)\n      dup1\n      dup4\n      sub\n      dup2\n      dup7\n      gas\n      staticcall\n      iszero\n      dup1\n      iszero\n      tag_175\n      jumpi\n      returndatasize\n      0x00\n      dup1\n      returndatacopy\n      revert(0x00, returndatasize)\n    tag_175:\n      pop\n      pop\n      pop\n      pop\n      mload(0x40)\n      returndatasize\n      not(0x1f)\n      0x1f\n      dup3\n      add\n      and\n      dup3\n      add\n      dup1\n      0x40\n      mstore\n      pop\n      dup2\n      add\n      swap1\n      tag_176\n      swap2\n      swap1\n      tag_155\n      jump\t// in\n    tag_176:\n      sub(shl(0xa0, 0x01), 0x01)\n        /* \"contracts/MVEX.sol\":1892:1948  IERC20Upgradeable(ACCONFIG(acbConfig).mv()).transferFrom */\n      and\n      0x23b872dd\n        /* \"contracts/MVEX.sol\":1959:1968  acbConfig */\n      0xcc\n      0x00\n      swap1\n      sload\n      swap1\n      0x0100\n      exp\n      swap1\n      div\n      sub(shl(0xa0, 0x01), 0x01)\n      and\n      sub(shl(0xa0, 0x01), 0x01)\n        /* \"contracts/MVEX.sol\":1950:1986  ACCONFIG(acbConfig).remainingAddress */\n      and\n      0xf97fe091\n        /* \"contracts/MVEX.sol\":1950:1988  ACCONFIG(acbConfig).remainingAddress() */\n      mload(0x40)\n      dup2\n      0xffffffff\n      and\n      0xe0\n      shl\n      dup2\n      mstore\n      0x04\n      add\n      0x20\n      mload(0x40)\n      dup1\n      dup4\n      sub\n      dup2\n      dup7\n      gas\n      staticcall\n      iszero\n      dup1\n      iszero\n      tag_178\n      jumpi\n      returndatasize\n      0x00\n      dup1\n      returndatacopy\n      revert(0x00, returndatasize)\n    tag_178:\n      pop\n      pop\n      pop\n      pop\n      mload(0x40)\n      returndatasize\n      not(0x1f)\n      0x1f\n      dup3\n      add\n      and\n      dup3\n      add\n      dup1\n      0x40\n      mstore\n      pop\n      dup2\n      add\n      swap1\n      tag_179\n      swap2\n      swap1\n      tag_155\n      jump\t// in\n    tag_179:\n        /* \"contracts/MVEX.sol\":1989:1999  msg.sender */\n      caller\n        /* \"contracts/MVEX.sol\":2044:2048  1000 */\n      0x03e8\n        /* \"contracts/MVEX.sol\":2020:2029  acbConfig */\n      0xcc\n      0x00\n      swap1\n      sload\n      swap1\n      0x0100\n      exp\n      swap1\n      div\n      sub(shl(0xa0, 0x01), 0x01)\n      and\n      sub(shl(0xa0, 0x01), 0x01)\n        /* \"contracts/MVEX.sol\":2011:2039  ACCONFIG(acbConfig).swapRate */\n      and\n      0x698518e5\n        /* \"contracts/MVEX.sol\":2011:2041  ACCONFIG(acbConfig).swapRate() */\n      mload(0x40)\n      dup2\n      0xffffffff\n      and\n      0xe0\n      shl\n      dup2\n      mstore\n      0x04\n      add\n      0x20\n      mload(0x40)\n      dup1\n      dup4\n      sub\n      dup2\n      dup7\n      gas\n      staticcall\n      iszero\n      dup1\n      iszero\n      tag_181\n      jumpi\n      returndatasize\n      0x00\n      dup1\n      returndatacopy\n      revert(0x00, returndatasize)\n    tag_181:\n      pop\n      pop\n      pop\n      pop\n      mload(0x40)\n      returndatasize\n      not(0x1f)\n      0x1f\n      dup3\n      add\n      and\n      dup3\n      add\n      dup1\n      0x40\n      mstore\n      pop\n      dup2\n      add\n      swap1\n      tag_182\n      swap2\n      swap1\n      tag_162\n      jump\t// in\n    tag_182:\n        /* \"contracts/MVEX.sol\":2002:2041  amount * ACCONFIG(acbConfig).swapRate() */\n      tag_183\n      swap1\n        /* \"contracts/MVEX.sol\":2002:2008  amount */\n      dup9\n        /* \"contracts/MVEX.sol\":2002:2041  amount * ACCONFIG(acbConfig).swapRate() */\n      tag_164\n      jump\t// in\n    tag_183:\n        /* \"contracts/MVEX.sol\":2002:2048  amount * ACCONFIG(acbConfig).swapRate() / 1000 */\n      tag_184\n      swap2\n      swap1\n      tag_166\n      jump\t// in\n    tag_184:\n        /* \"contracts/MVEX.sol\":1892:2049  IERC20Upgradeable(ACCONFIG(acbConfig).mv()).transferFrom( ACCONFIG(acbConfig).remainingAddress(),msg.sender , amount * ACCONFIG(acbConfig).swapRate() / 1000) */\n      mload(0x40)\n      dup5\n      0xffffffff\n      and\n      0xe0\n      shl\n      dup2\n      mstore\n      0x04\n      add\n      tag_185\n      swap4\n      swap3\n      swap2\n      swap1\n      tag_168\n      jump\t// in\n    tag_185:\n      0x20\n      mload(0x40)\n      dup1\n      dup4\n      sub\n      dup2\n      0x00\n      dup8\n      gas\n      call\n      iszero\n      dup1\n      iszero\n      tag_187\n      jumpi\n      returndatasize\n      0x00\n      dup1\n      returndatacopy\n      revert(0x00, returndatasize)\n    tag_187:\n      pop\n      pop\n      pop\n      pop\n      mload(0x40)\n      returndatasize\n      not(0x1f)\n      0x1f\n      dup3\n      add\n      and\n      dup3\n      add\n      dup1\n      0x40\n      mstore\n      pop\n      dup2\n      add\n      swap1\n      tag_188\n      swap2\n      swap1\n      tag_172\n      jump\t// in\n    tag_188:\n      pop\n        /* \"contracts/MVEX.sol\":1672:2097  {... */\n      pop\n        /* \"contracts/MVEX.sol\":1630:2097  function usdtswap(uint256 amount)external {... */\n      pop\n      jump\t// out\n        /* \"lib/contracts-upgradeable/access/OwnableUpgradeable.sol\":2321:2519  function transferOwnership(address newOwner) public virtual onlyOwner {... */\n    tag_86:\n        /* \"lib/contracts-upgradeable/access/OwnableUpgradeable.sol\":1334:1347  _checkOwner() */\n      tag_190\n        /* \"lib/contracts-upgradeable/access/OwnableUpgradeable.sol\":1334:1345  _checkOwner */\n      tag_93\n        /* \"lib/contracts-upgradeable/access/OwnableUpgradeable.sol\":1334:1347  _checkOwner() */\n      jump\t// in\n    tag_190:\n      sub(shl(0xa0, 0x01), 0x01)\n        /* \"lib/contracts-upgradeable/access/OwnableUpgradeable.sol\":2409:2431  newOwner != address(0) */\n      dup2\n      and\n        /* \"lib/contracts-upgradeable/access/OwnableUpgradeable.sol\":2401:2474  require(newOwner != address(0), \"Ownable: new owner is the zero address\") */\n      tag_192\n      jumpi\n      mload(0x40)\n      shl(0xe5, 0x461bcd)\n      dup2\n      mstore\n        /* \"#utility.yul\":6018:6020   */\n      0x20\n        /* \"lib/contracts-upgradeable/access/OwnableUpgradeable.sol\":2401:2474  require(newOwner != address(0), \"Ownable: new owner is the zero address\") */\n      0x04\n      dup3\n      add\n        /* \"#utility.yul\":6000:6021   */\n      mstore\n        /* \"#utility.yul\":6057:6059   */\n      0x26\n        /* \"#utility.yul\":6037:6055   */\n      0x24\n      dup3\n      add\n        /* \"#utility.yul\":6030:6060   */\n      mstore\n        /* \"#utility.yul\":6096:6130   */\n      0x4f776e61626c653a206e6577206f776e657220697320746865207a65726f2061\n        /* \"#utility.yul\":6076:6094   */\n      0x44\n      dup3\n      add\n        /* \"#utility.yul\":6069:6131   */\n      mstore\n      shl(0xd0, 0x646472657373)\n        /* \"#utility.yul\":6147:6165   */\n      0x64\n      dup3\n      add\n        /* \"#utility.yul\":6140:6176   */\n      mstore\n        /* \"#utility.yul\":6193:6212   */\n      0x84\n      add\n        /* \"lib/contracts-upgradeable/access/OwnableUpgradeable.sol\":2401:2474  require(newOwner != address(0), \"Ownable: new owner is the zero address\") */\n      tag_97\n        /* \"#utility.yul\":5816:6218   */\n      jump\n        /* \"lib/contracts-upgradeable/access/OwnableUpgradeable.sol\":2401:2474  require(newOwner != address(0), \"Ownable: new owner is the zero address\") */\n    tag_192:\n        /* \"lib/contracts-upgradeable/access/OwnableUpgradeable.sol\":2484:2512  _transferOwnership(newOwner) */\n      tag_107\n        /* \"lib/contracts-upgradeable/access/OwnableUpgradeable.sol\":2503:2511  newOwner */\n      dup2\n        /* \"lib/contracts-upgradeable/access/OwnableUpgradeable.sol\":2484:2502  _transferOwnership */\n      tag_131\n        /* \"lib/contracts-upgradeable/access/OwnableUpgradeable.sol\":2484:2512  _transferOwnership(newOwner) */\n      jump\t// in\n        /* \"lib/contracts-upgradeable/access/OwnableUpgradeable.sol\":1599:1729  function _checkOwner() internal view virtual {... */\n    tag_93:\n        /* \"lib/contracts-upgradeable/utils/ContextUpgradeable.sol\":929:939  msg.sender */\n      caller\n        /* \"lib/contracts-upgradeable/access/OwnableUpgradeable.sol\":1662:1669  owner() */\n      tag_199\n        /* \"lib/contracts-upgradeable/access/OwnableUpgradeable.sol\":1662:1667  owner */\n      tag_60\n        /* \"lib/contracts-upgradeable/access/OwnableUpgradeable.sol\":1662:1669  owner() */\n      jump\t// in\n    tag_199:\n      sub(shl(0xa0, 0x01), 0x01)\n        /* \"lib/contracts-upgradeable/access/OwnableUpgradeable.sol\":1662:1685  owner() == _msgSender() */\n      and\n      eq\n        /* \"lib/contracts-upgradeable/access/OwnableUpgradeable.sol\":1654:1722  require(owner() == _msgSender(), \"Ownable: caller is not the owner\") */\n      tag_130\n      jumpi\n      mload(0x40)\n      shl(0xe5, 0x461bcd)\n      dup2\n      mstore\n        /* \"#utility.yul\":6425:6427   */\n      0x20\n        /* \"lib/contracts-upgradeable/access/OwnableUpgradeable.sol\":1654:1722  require(owner() == _msgSender(), \"Ownable: caller is not the owner\") */\n      0x04\n      dup3\n      add\n        /* \"#utility.yul\":6407:6428   */\n      dup2\n      swap1\n      mstore\n        /* \"#utility.yul\":6444:6462   */\n      0x24\n      dup3\n      add\n        /* \"#utility.yul\":6437:6467   */\n      mstore\n        /* \"#utility.yul\":6503:6537   */\n      0x4f776e61626c653a2063616c6c6572206973206e6f7420746865206f776e6572\n        /* \"#utility.yul\":6483:6501   */\n      0x44\n      dup3\n      add\n        /* \"#utility.yul\":6476:6538   */\n      mstore\n        /* \"#utility.yul\":6555:6573   */\n      0x64\n      add\n        /* \"lib/contracts-upgradeable/access/OwnableUpgradeable.sol\":1654:1722  require(owner() == _msgSender(), \"Ownable: caller is not the owner\") */\n      tag_97\n        /* \"#utility.yul\":6223:6579   */\n      jump\n        /* \"lib/contracts-upgradeable/proxy/ERC1967/ERC1967UpgradeUpgradeable.sol\":1509:1660  function _getImplementation() internal view returns (address) {... */\n    tag_100:\n      0x00\n      dup1\n      mload\n      0x20\n      data_75b20eef8615de99c108b05f0dbda081c91897128caa336d75dffb97c4132b4d\n      dup4\n      codecopy\n      dup2\n      mload\n      swap2\n      mstore\n        /* \"lib/contracts-upgradeable/proxy/ERC1967/ERC1967UpgradeUpgradeable.sol\":1588:1653  StorageSlotUpgradeable.getAddressSlot(_IMPLEMENTATION_SLOT).value */\n      sload\n      sub(shl(0xa0, 0x01), 0x01)\n      and\n      swap1\n        /* \"lib/contracts-upgradeable/proxy/ERC1967/ERC1967UpgradeUpgradeable.sol\":1509:1660  function _getImplementation() internal view returns (address) {... */\n      jump\t// out\n        /* \"contracts/MVEX.sol\":1380:1496  function _authorizeUpgrade(address newImplementation)... */\n    tag_106:\n        /* \"lib/contracts-upgradeable/access/OwnableUpgradeable.sol\":1334:1347  _checkOwner() */\n      tag_107\n        /* \"lib/contracts-upgradeable/access/OwnableUpgradeable.sol\":1334:1345  _checkOwner */\n      tag_93\n        /* \"lib/contracts-upgradeable/access/OwnableUpgradeable.sol\":1334:1347  _checkOwner() */\n      jump\t// in\n        /* \"lib/contracts-upgradeable/proxy/ERC1967/ERC1967UpgradeUpgradeable.sol\":2884:3858  function _upgradeToAndCallUUPS(... */\n    tag_112:\n        /* \"lib/contracts-upgradeable/proxy/ERC1967/ERC1967UpgradeUpgradeable.sol\":1023:1089  0x4910fdfa16fed3260ed0e7147f7cc6da11a60208b5b9406d12a635614ffd9143 */\n      0x4910fdfa16fed3260ed0e7147f7cc6da11a60208b5b9406d12a635614ffd9143\n        /* \"lib/contracts-upgradeable/proxy/ERC1967/ERC1967UpgradeUpgradeable.sol\":3330:3389  StorageSlotUpgradeable.getBooleanSlot(_ROLLBACK_SLOT).value */\n      sload\n      0xff\n      and\n        /* \"lib/contracts-upgradeable/proxy/ERC1967/ERC1967UpgradeUpgradeable.sol\":3326:3852  if (StorageSlotUpgradeable.getBooleanSlot(_ROLLBACK_SLOT).value) {... */\n      iszero\n      tag_212\n      jumpi\n        /* \"lib/contracts-upgradeable/proxy/ERC1967/ERC1967UpgradeUpgradeable.sol\":3405:3442  _setImplementation(newImplementation) */\n      tag_188\n        /* \"lib/contracts-upgradeable/proxy/ERC1967/ERC1967UpgradeUpgradeable.sol\":3424:3441  newImplementation */\n      dup4\n        /* \"lib/contracts-upgradeable/proxy/ERC1967/ERC1967UpgradeUpgradeable.sol\":3405:3423  _setImplementation */\n      tag_214\n        /* \"lib/contracts-upgradeable/proxy/ERC1967/ERC1967UpgradeUpgradeable.sol\":3405:3442  _setImplementation(newImplementation) */\n      jump\t// in\n        /* \"lib/contracts-upgradeable/proxy/ERC1967/ERC1967UpgradeUpgradeable.sol\":3326:3852  if (StorageSlotUpgradeable.getBooleanSlot(_ROLLBACK_SLOT).value) {... */\n    tag_212:\n        /* \"lib/contracts-upgradeable/proxy/ERC1967/ERC1967UpgradeUpgradeable.sol\":3506:3523  newImplementation */\n      dup3\n      sub(shl(0xa0, 0x01), 0x01)\n        /* \"lib/contracts-upgradeable/proxy/ERC1967/ERC1967UpgradeUpgradeable.sol\":3477:3538  IERC1822ProxiableUpgradeable(newImplementation).proxiableUUID */\n      and\n      0x52d1902d\n        /* \"lib/contracts-upgradeable/proxy/ERC1967/ERC1967UpgradeUpgradeable.sol\":3477:3540  IERC1822ProxiableUpgradeable(newImplementation).proxiableUUID() */\n      mload(0x40)\n      dup2\n      0xffffffff\n      and\n      0xe0\n      shl\n      dup2\n      mstore\n      0x04\n      add\n      0x20\n      mload(0x40)\n      dup1\n      dup4\n      sub\n      dup2\n      dup7\n      gas\n      staticcall\n      swap3\n      pop\n      pop\n      pop\n      dup1\n      iszero\n      tag_216\n      jumpi\n      pop\n      0x40\n      dup1\n      mload\n      0x1f\n      returndatasize\n      swap1\n      dup2\n      add\n      not(0x1f)\n      and\n      dup3\n      add\n      swap1\n      swap3\n      mstore\n      tag_217\n      swap2\n      dup2\n      add\n      swap1\n      tag_162\n      jump\t// in\n    tag_217:\n      0x01\n    tag_216:\n        /* \"lib/contracts-upgradeable/proxy/ERC1967/ERC1967UpgradeUpgradeable.sol\":3473:3775  try IERC1822ProxiableUpgradeable(newImplementation).proxiableUUID() returns (bytes32 slot) {... */\n      tag_219\n      jumpi\n        /* \"lib/contracts-upgradeable/proxy/ERC1967/ERC1967UpgradeUpgradeable.sol\":3704:3760  revert(\"ERC1967Upgrade: new implementation is not UUPS\") */\n      mload(0x40)\n      shl(0xe5, 0x461bcd)\n      dup2\n      mstore\n        /* \"#utility.yul\":6975:6977   */\n      0x20\n        /* \"lib/contracts-upgradeable/proxy/ERC1967/ERC1967UpgradeUpgradeable.sol\":3704:3760  revert(\"ERC1967Upgrade: new implementation is not UUPS\") */\n      0x04\n      dup3\n      add\n        /* \"#utility.yul\":6957:6978   */\n      mstore\n        /* \"#utility.yul\":7014:7016   */\n      0x2e\n        /* \"#utility.yul\":6994:7012   */\n      0x24\n      dup3\n      add\n        /* \"#utility.yul\":6987:7017   */\n      mstore\n        /* \"#utility.yul\":7053:7087   */\n      0x45524331393637557067726164653a206e657720696d706c656d656e74617469\n        /* \"#utility.yul\":7033:7051   */\n      0x44\n      dup3\n      add\n        /* \"#utility.yul\":7026:7088   */\n      mstore\n      shl(0x90, 0x6f6e206973206e6f742055555053)\n        /* \"#utility.yul\":7104:7122   */\n      0x64\n      dup3\n      add\n        /* \"#utility.yul\":7097:7141   */\n      mstore\n        /* \"#utility.yul\":7158:7177   */\n      0x84\n      add\n        /* \"lib/contracts-upgradeable/proxy/ERC1967/ERC1967UpgradeUpgradeable.sol\":3704:3760  revert(\"ERC1967Upgrade: new implementation is not UUPS\") */\n      tag_97\n        /* \"#utility.yul\":6773:7183   */\n      jump\n        /* \"lib/contracts-upgradeable/proxy/ERC1967/ERC1967UpgradeUpgradeable.sol\":3473:3775  try IERC1822ProxiableUpgradeable(newImplementation).proxiableUUID() returns (bytes32 slot) {... */\n    tag_219:\n      0x00\n      dup1\n      mload\n      0x20\n      data_75b20eef8615de99c108b05f0dbda081c91897128caa336d75dffb97c4132b4d\n      dup4\n      codecopy\n      dup2\n      mload\n      swap2\n      mstore\n        /* \"lib/contracts-upgradeable/proxy/ERC1967/ERC1967UpgradeUpgradeable.sol\":3590:3618  slot == _IMPLEMENTATION_SLOT */\n      dup2\n      eq\n        /* \"lib/contracts-upgradeable/proxy/ERC1967/ERC1967UpgradeUpgradeable.sol\":3582:3664  require(slot == _IMPLEMENTATION_SLOT, \"ERC1967Upgrade: unsupported proxiableUUID\") */\n      tag_226\n      jumpi\n      mload(0x40)\n      shl(0xe5, 0x461bcd)\n      dup2\n      mstore\n        /* \"#utility.yul\":7390:7392   */\n      0x20\n        /* \"lib/contracts-upgradeable/proxy/ERC1967/ERC1967UpgradeUpgradeable.sol\":3582:3664  require(slot == _IMPLEMENTATION_SLOT, \"ERC1967Upgrade: unsupported proxiableUUID\") */\n      0x04\n      dup3\n      add\n        /* \"#utility.yul\":7372:7393   */\n      mstore\n        /* \"#utility.yul\":7429:7431   */\n      0x29\n        /* \"#utility.yul\":7409:7427   */\n      0x24\n      dup3\n      add\n        /* \"#utility.yul\":7402:7432   */\n      mstore\n        /* \"#utility.yul\":7468:7502   */\n      0x45524331393637557067726164653a20756e737570706f727465642070726f78\n        /* \"#utility.yul\":7448:7466   */\n      0x44\n      dup3\n      add\n        /* \"#utility.yul\":7441:7503   */\n      mstore\n      shl(0xba, 0x1a58589b1955555251)\n        /* \"#utility.yul\":7519:7537   */\n      0x64\n      dup3\n      add\n        /* \"#utility.yul\":7512:7551   */\n      mstore\n        /* \"#utility.yul\":7568:7587   */\n      0x84\n      add\n        /* \"lib/contracts-upgradeable/proxy/ERC1967/ERC1967UpgradeUpgradeable.sol\":3582:3664  require(slot == _IMPLEMENTATION_SLOT, \"ERC1967Upgrade: unsupported proxiableUUID\") */\n      tag_97\n        /* \"#utility.yul\":7188:7593   */\n      jump\n        /* \"lib/contracts-upgradeable/proxy/ERC1967/ERC1967UpgradeUpgradeable.sol\":3582:3664  require(slot == _IMPLEMENTATION_SLOT, \"ERC1967Upgrade: unsupported proxiableUUID\") */\n    tag_226:\n        /* \"lib/contracts-upgradeable/proxy/ERC1967/ERC1967UpgradeUpgradeable.sol\":3541:3679  returns (bytes32 slot) {... */\n      pop\n        /* \"lib/contracts-upgradeable/proxy/ERC1967/ERC1967UpgradeUpgradeable.sol\":3788:3841  _upgradeToAndCall(newImplementation, data, forceCall) */\n      tag_188\n        /* \"lib/contracts-upgradeable/proxy/ERC1967/ERC1967UpgradeUpgradeable.sol\":3806:3823  newImplementation */\n      dup4\n        /* \"lib/contracts-upgradeable/proxy/ERC1967/ERC1967UpgradeUpgradeable.sol\":3825:3829  data */\n      dup4\n        /* \"lib/contracts-upgradeable/proxy/ERC1967/ERC1967UpgradeUpgradeable.sol\":3831:3840  forceCall */\n      dup4\n        /* \"lib/contracts-upgradeable/proxy/ERC1967/ERC1967UpgradeUpgradeable.sol\":3788:3805  _upgradeToAndCall */\n      tag_230\n        /* \"lib/contracts-upgradeable/proxy/ERC1967/ERC1967UpgradeUpgradeable.sol\":3788:3841  _upgradeToAndCall(newImplementation, data, forceCall) */\n      jump\t// in\n        /* \"lib/contracts-upgradeable/access/OwnableUpgradeable.sol\":2673:2860  function _transferOwnership(address newOwner) internal virtual {... */\n    tag_131:\n        /* \"lib/contracts-upgradeable/access/OwnableUpgradeable.sol\":2765:2771  _owner */\n      0x33\n      dup1\n      sload\n      sub(shl(0xa0, 0x01), 0x01)\n        /* \"lib/contracts-upgradeable/access/OwnableUpgradeable.sol\":2781:2798  _owner = newOwner */\n      dup4\n      dup2\n      and\n      not(sub(shl(0xa0, 0x01), 0x01))\n      dup4\n      and\n      dup2\n      or\n      swap1\n      swap4\n      sstore\n        /* \"lib/contracts-upgradeable/access/OwnableUpgradeable.sol\":2813:2853  OwnershipTransferred(oldOwner, newOwner) */\n      mload(0x40)\n        /* \"lib/contracts-upgradeable/access/OwnableUpgradeable.sol\":2765:2771  _owner */\n      swap2\n      and\n      swap2\n        /* \"lib/contracts-upgradeable/access/OwnableUpgradeable.sol\":2781:2798  _owner = newOwner */\n      swap1\n        /* \"lib/contracts-upgradeable/access/OwnableUpgradeable.sol\":2765:2771  _owner */\n      dup3\n      swap1\n        /* \"lib/contracts-upgradeable/access/OwnableUpgradeable.sol\":2813:2853  OwnershipTransferred(oldOwner, newOwner) */\n      0x8be0079c531659141344cd1fd0a4f28419497f9722a3daafe3b4186f6b6457e0\n      swap1\n        /* \"lib/contracts-upgradeable/access/OwnableUpgradeable.sol\":2746:2762  address oldOwner */\n      0x00\n      swap1\n        /* \"lib/contracts-upgradeable/access/OwnableUpgradeable.sol\":2813:2853  OwnershipTransferred(oldOwner, newOwner) */\n      log3\n        /* \"lib/contracts-upgradeable/access/OwnableUpgradeable.sol\":2736:2860  {... */\n      pop\n        /* \"lib/contracts-upgradeable/access/OwnableUpgradeable.sol\":2673:2860  function _transferOwnership(address newOwner) internal virtual {... */\n      pop\n      jump\t// out\n        /* \"lib/contracts-upgradeable/utils/AddressUpgradeable.sol\":1186:1506  function isContract(address account) internal view returns (bool) {... */\n    tag_137:\n      sub(shl(0xa0, 0x01), 0x01)\n        /* \"lib/contracts-upgradeable/utils/AddressUpgradeable.sol\":1476:1495  account.code.length */\n      and\n      extcodesize\n        /* \"lib/contracts-upgradeable/utils/AddressUpgradeable.sol\":1476:1499  account.code.length > 0 */\n      iszero\n      iszero\n      swap1\n        /* \"lib/contracts-upgradeable/utils/AddressUpgradeable.sol\":1186:1506  function isContract(address account) internal view returns (bool) {... */\n      jump\t// out\n        /* \"lib/contracts-upgradeable/access/OwnableUpgradeable.sol\":1003:1098  function __Ownable_init() internal onlyInitializing {... */\n    tag_145:\n        /* \"lib/contracts-upgradeable/proxy/utils/Initializable.sol\":5363:5376  _initializing */\n      sload(0x00)\n      0x0100\n      swap1\n      div\n      0xff\n      and\n        /* \"lib/contracts-upgradeable/proxy/utils/Initializable.sol\":5355:5424  require(_initializing, \"Initializable: contract is not initializing\") */\n      tag_234\n      jumpi\n      mload(0x40)\n      shl(0xe5, 0x461bcd)\n      dup2\n      mstore\n      0x04\n      add\n      tag_97\n      swap1\n      tag_236\n      jump\t// in\n    tag_234:\n        /* \"lib/contracts-upgradeable/access/OwnableUpgradeable.sol\":1065:1091  __Ownable_init_unchained() */\n      tag_130\n        /* \"lib/contracts-upgradeable/access/OwnableUpgradeable.sol\":1065:1089  __Ownable_init_unchained */\n      tag_239\n        /* \"lib/contracts-upgradeable/access/OwnableUpgradeable.sol\":1065:1091  __Ownable_init_unchained() */\n      jump\t// in\n        /* \"lib/contracts-upgradeable/proxy/utils/UUPSUpgradeable.sol\":1042:1109  function __UUPSUpgradeable_init() internal onlyInitializing {... */\n    tag_147:\n        /* \"lib/contracts-upgradeable/proxy/utils/Initializable.sol\":5363:5376  _initializing */\n      sload(0x00)\n      0x0100\n      swap1\n      div\n      0xff\n      and\n        /* \"lib/contracts-upgradeable/proxy/utils/Initializable.sol\":5355:5424  require(_initializing, \"Initializable: contract is not initializing\") */\n      tag_130\n      jumpi\n      mload(0x40)\n      shl(0xe5, 0x461bcd)\n      dup2\n      mstore\n      0x04\n      add\n      tag_97\n      swap1\n      tag_236\n      jump\t// in\n        /* \"lib/contracts-upgradeable/proxy/ERC1967/ERC1967UpgradeUpgradeable.sol\":1751:2032  function _setImplementation(address newImplementation) private {... */\n    tag_214:\n        /* \"lib/contracts-upgradeable/proxy/ERC1967/ERC1967UpgradeUpgradeable.sol\":1832:1880  AddressUpgradeable.isContract(newImplementation) */\n      tag_248\n        /* \"lib/contracts-upgradeable/proxy/ERC1967/ERC1967UpgradeUpgradeable.sol\":1862:1879  newImplementation */\n      dup2\n        /* \"lib/contracts-upgradeable/proxy/ERC1967/ERC1967UpgradeUpgradeable.sol\":1832:1861  AddressUpgradeable.isContract */\n      tag_137\n        /* \"lib/contracts-upgradeable/proxy/ERC1967/ERC1967UpgradeUpgradeable.sol\":1832:1880  AddressUpgradeable.isContract(newImplementation) */\n      jump\t// in\n    tag_248:\n        /* \"lib/contracts-upgradeable/proxy/ERC1967/ERC1967UpgradeUpgradeable.sol\":1824:1930  require(AddressUpgradeable.isContract(newImplementation), \"ERC1967: new implementation is not a contract\") */\n      tag_249\n      jumpi\n      mload(0x40)\n      shl(0xe5, 0x461bcd)\n      dup2\n      mstore\n        /* \"#utility.yul\":8212:8214   */\n      0x20\n        /* \"lib/contracts-upgradeable/proxy/ERC1967/ERC1967UpgradeUpgradeable.sol\":1824:1930  require(AddressUpgradeable.isContract(newImplementation), \"ERC1967: new implementation is not a contract\") */\n      0x04\n      dup3\n      add\n        /* \"#utility.yul\":8194:8215   */\n      mstore\n        /* \"#utility.yul\":8251:8253   */\n      0x2d\n        /* \"#utility.yul\":8231:8249   */\n      0x24\n      dup3\n      add\n        /* \"#utility.yul\":8224:8254   */\n      mstore\n        /* \"#utility.yul\":8290:8324   */\n      0x455243313936373a206e657720696d706c656d656e746174696f6e206973206e\n        /* \"#utility.yul\":8270:8288   */\n      0x44\n      dup3\n      add\n        /* \"#utility.yul\":8263:8325   */\n      mstore\n      shl(0x9a, 0x1bdd08184818dbdb9d1c9858dd)\n        /* \"#utility.yul\":8341:8359   */\n      0x64\n      dup3\n      add\n        /* \"#utility.yul\":8334:8377   */\n      mstore\n        /* \"#utility.yul\":8394:8413   */\n      0x84\n      add\n        /* \"lib/contracts-upgradeable/proxy/ERC1967/ERC1967UpgradeUpgradeable.sol\":1824:1930  require(AddressUpgradeable.isContract(newImplementation), \"ERC1967: new implementation is not a contract\") */\n      tag_97\n        /* \"#utility.yul\":8010:8419   */\n      jump\n        /* \"lib/contracts-upgradeable/proxy/ERC1967/ERC1967UpgradeUpgradeable.sol\":1824:1930  require(AddressUpgradeable.isContract(newImplementation), \"ERC1967: new implementation is not a contract\") */\n    tag_249:\n      0x00\n      dup1\n      mload\n      0x20\n      data_75b20eef8615de99c108b05f0dbda081c91897128caa336d75dffb97c4132b4d\n      dup4\n      codecopy\n      dup2\n      mload\n      swap2\n      mstore\n        /* \"lib/contracts-upgradeable/proxy/ERC1967/ERC1967UpgradeUpgradeable.sol\":1940:2025  StorageSlotUpgradeable.getAddressSlot(_IMPLEMENTATION_SLOT).value = newImplementation */\n      dup1\n      sload\n      not(sub(shl(0xa0, 0x01), 0x01))\n      and\n      sub(shl(0xa0, 0x01), 0x01)\n      swap3\n      swap1\n      swap3\n      and\n      swap2\n      swap1\n      swap2\n      or\n      swap1\n      sstore\n        /* \"lib/contracts-upgradeable/proxy/ERC1967/ERC1967UpgradeUpgradeable.sol\":1751:2032  function _setImplementation(address newImplementation) private {... */\n      jump\t// out\n        /* \"lib/contracts-upgradeable/proxy/ERC1967/ERC1967UpgradeUpgradeable.sol\":2424:2712  function _upgradeToAndCall(... */\n    tag_230:\n        /* \"lib/contracts-upgradeable/proxy/ERC1967/ERC1967UpgradeUpgradeable.sol\":2562:2591  _upgradeTo(newImplementation) */\n      tag_254\n        /* \"lib/contracts-upgradeable/proxy/ERC1967/ERC1967UpgradeUpgradeable.sol\":2573:2590  newImplementation */\n      dup4\n        /* \"lib/contracts-upgradeable/proxy/ERC1967/ERC1967UpgradeUpgradeable.sol\":2562:2572  _upgradeTo */\n      tag_255\n        /* \"lib/contracts-upgradeable/proxy/ERC1967/ERC1967UpgradeUpgradeable.sol\":2562:2591  _upgradeTo(newImplementation) */\n      jump\t// in\n    tag_254:\n        /* \"lib/contracts-upgradeable/proxy/ERC1967/ERC1967UpgradeUpgradeable.sol\":2619:2620  0 */\n      0x00\n        /* \"lib/contracts-upgradeable/proxy/ERC1967/ERC1967UpgradeUpgradeable.sol\":2605:2609  data */\n      dup3\n        /* \"lib/contracts-upgradeable/proxy/ERC1967/ERC1967UpgradeUpgradeable.sol\":2605:2616  data.length */\n      mload\n        /* \"lib/contracts-upgradeable/proxy/ERC1967/ERC1967UpgradeUpgradeable.sol\":2605:2620  data.length > 0 */\n      gt\n        /* \"lib/contracts-upgradeable/proxy/ERC1967/ERC1967UpgradeUpgradeable.sol\":2605:2633  data.length > 0 || forceCall */\n      dup1\n      tag_256\n      jumpi\n      pop\n        /* \"lib/contracts-upgradeable/proxy/ERC1967/ERC1967UpgradeUpgradeable.sol\":2624:2633  forceCall */\n      dup1\n        /* \"lib/contracts-upgradeable/proxy/ERC1967/ERC1967UpgradeUpgradeable.sol\":2605:2633  data.length > 0 || forceCall */\n    tag_256:\n        /* \"lib/contracts-upgradeable/proxy/ERC1967/ERC1967UpgradeUpgradeable.sol\":2601:2706  if (data.length > 0 || forceCall) {... */\n      iszero\n      tag_188\n      jumpi\n        /* \"lib/contracts-upgradeable/proxy/ERC1967/ERC1967UpgradeUpgradeable.sol\":2649:2695  _functionDelegateCall(newImplementation, data) */\n      tag_258\n        /* \"lib/contracts-upgradeable/proxy/ERC1967/ERC1967UpgradeUpgradeable.sol\":2671:2688  newImplementation */\n      dup4\n        /* \"lib/contracts-upgradeable/proxy/ERC1967/ERC1967UpgradeUpgradeable.sol\":2690:2694  data */\n      dup4\n        /* \"lib/contracts-upgradeable/proxy/ERC1967/ERC1967UpgradeUpgradeable.sol\":2649:2670  _functionDelegateCall */\n      tag_259\n        /* \"lib/contracts-upgradeable/proxy/ERC1967/ERC1967UpgradeUpgradeable.sol\":2649:2695  _functionDelegateCall(newImplementation, data) */\n      jump\t// in\n    tag_258:\n      pop\n        /* \"lib/contracts-upgradeable/proxy/ERC1967/ERC1967UpgradeUpgradeable.sol\":2424:2712  function _upgradeToAndCall(... */\n      pop\n      pop\n      pop\n      jump\t// out\n        /* \"lib/contracts-upgradeable/access/OwnableUpgradeable.sol\":1104:1215  function __Ownable_init_unchained() internal onlyInitializing {... */\n    tag_239:\n        /* \"lib/contracts-upgradeable/proxy/utils/Initializable.sol\":5363:5376  _initializing */\n      sload(0x00)\n      0x0100\n      swap1\n      div\n      0xff\n      and\n        /* \"lib/contracts-upgradeable/proxy/utils/Initializable.sol\":5355:5424  require(_initializing, \"Initializable: contract is not initializing\") */\n      tag_261\n      jumpi\n      mload(0x40)\n      shl(0xe5, 0x461bcd)\n      dup2\n      mstore\n      0x04\n      add\n      tag_97\n      swap1\n      tag_236\n      jump\t// in\n    tag_261:\n        /* \"lib/contracts-upgradeable/access/OwnableUpgradeable.sol\":1176:1208  _transferOwnership(_msgSender()) */\n      tag_130\n        /* \"lib/contracts-upgradeable/utils/ContextUpgradeable.sol\":929:939  msg.sender */\n      caller\n        /* \"lib/contracts-upgradeable/access/OwnableUpgradeable.sol\":1176:1194  _transferOwnership */\n      tag_131\n        /* \"lib/contracts-upgradeable/access/OwnableUpgradeable.sol\":1176:1208  _transferOwnership(_msgSender()) */\n      jump\t// in\n        /* \"lib/contracts-upgradeable/proxy/ERC1967/ERC1967UpgradeUpgradeable.sol\":2138:2290  function _upgradeTo(address newImplementation) internal {... */\n    tag_255:\n        /* \"lib/contracts-upgradeable/proxy/ERC1967/ERC1967UpgradeUpgradeable.sol\":2204:2241  _setImplementation(newImplementation) */\n      tag_267\n        /* \"lib/contracts-upgradeable/proxy/ERC1967/ERC1967UpgradeUpgradeable.sol\":2223:2240  newImplementation */\n      dup2\n        /* \"lib/contracts-upgradeable/proxy/ERC1967/ERC1967UpgradeUpgradeable.sol\":2204:2222  _setImplementation */\n      tag_214\n        /* \"lib/contracts-upgradeable/proxy/ERC1967/ERC1967UpgradeUpgradeable.sol\":2204:2241  _setImplementation(newImplementation) */\n      jump\t// in\n    tag_267:\n        /* \"lib/contracts-upgradeable/proxy/ERC1967/ERC1967UpgradeUpgradeable.sol\":2256:2283  Upgraded(newImplementation) */\n      mload(0x40)\n      sub(shl(0xa0, 0x01), 0x01)\n      dup3\n      and\n      swap1\n      0xbc7cd75a20ee27fd9adebab32041f755214dbc6bffa90cc0225b39da2e5c2d3b\n      swap1\n      0x00\n      swap1\n      log2\n        /* \"lib/contracts-upgradeable/proxy/ERC1967/ERC1967UpgradeUpgradeable.sol\":2138:2290  function _upgradeTo(address newImplementation) internal {... */\n      pop\n      jump\t// out\n        /* \"lib/contracts-upgradeable/proxy/ERC1967/ERC1967UpgradeUpgradeable.sol\":6780:7235  function _functionDelegateCall(address target, bytes memory data) private returns (bytes memory) {... */\n    tag_259:\n        /* \"lib/contracts-upgradeable/proxy/ERC1967/ERC1967UpgradeUpgradeable.sol\":6863:6875  bytes memory */\n      0x60\n        /* \"lib/contracts-upgradeable/proxy/ERC1967/ERC1967UpgradeUpgradeable.sol\":6895:6932  AddressUpgradeable.isContract(target) */\n      tag_269\n        /* \"lib/contracts-upgradeable/proxy/ERC1967/ERC1967UpgradeUpgradeable.sol\":6925:6931  target */\n      dup4\n        /* \"lib/contracts-upgradeable/proxy/ERC1967/ERC1967UpgradeUpgradeable.sol\":6895:6924  AddressUpgradeable.isContract */\n      tag_137\n        /* \"lib/contracts-upgradeable/proxy/ERC1967/ERC1967UpgradeUpgradeable.sol\":6895:6932  AddressUpgradeable.isContract(target) */\n      jump\t// in\n    tag_269:\n        /* \"lib/contracts-upgradeable/proxy/ERC1967/ERC1967UpgradeUpgradeable.sol\":6887:6975  require(AddressUpgradeable.isContract(target), \"Address: delegate call to non-contract\") */\n      tag_270\n      jumpi\n      mload(0x40)\n      shl(0xe5, 0x461bcd)\n      dup2\n      mstore\n        /* \"#utility.yul\":8626:8628   */\n      0x20\n        /* \"lib/contracts-upgradeable/proxy/ERC1967/ERC1967UpgradeUpgradeable.sol\":6887:6975  require(AddressUpgradeable.isContract(target), \"Address: delegate call to non-contract\") */\n      0x04\n      dup3\n      add\n        /* \"#utility.yul\":8608:8629   */\n      mstore\n        /* \"#utility.yul\":8665:8667   */\n      0x26\n        /* \"#utility.yul\":8645:8663   */\n      0x24\n      dup3\n      add\n        /* \"#utility.yul\":8638:8668   */\n      mstore\n        /* \"#utility.yul\":8704:8738   */\n      0x416464726573733a2064656c65676174652063616c6c20746f206e6f6e2d636f\n        /* \"#utility.yul\":8684:8702   */\n      0x44\n      dup3\n      add\n        /* \"#utility.yul\":8677:8739   */\n      mstore\n      shl(0xd2, 0x1b9d1c9858dd)\n        /* \"#utility.yul\":8755:8773   */\n      0x64\n      dup3\n      add\n        /* \"#utility.yul\":8748:8784   */\n      mstore\n        /* \"#utility.yul\":8801:8820   */\n      0x84\n      add\n        /* \"lib/contracts-upgradeable/proxy/ERC1967/ERC1967UpgradeUpgradeable.sol\":6887:6975  require(AddressUpgradeable.isContract(target), \"Address: delegate call to non-contract\") */\n      tag_97\n        /* \"#utility.yul\":8424:8826   */\n      jump\n        /* \"lib/contracts-upgradeable/proxy/ERC1967/ERC1967UpgradeUpgradeable.sol\":6887:6975  require(AddressUpgradeable.isContract(target), \"Address: delegate call to non-contract\") */\n    tag_270:\n        /* \"lib/contracts-upgradeable/proxy/ERC1967/ERC1967UpgradeUpgradeable.sol\":7046:7058  bool success */\n      0x00\n        /* \"lib/contracts-upgradeable/proxy/ERC1967/ERC1967UpgradeUpgradeable.sol\":7060:7083  bytes memory returndata */\n      dup1\n        /* \"lib/contracts-upgradeable/proxy/ERC1967/ERC1967UpgradeUpgradeable.sol\":7087:7093  target */\n      dup5\n      sub(shl(0xa0, 0x01), 0x01)\n        /* \"lib/contracts-upgradeable/proxy/ERC1967/ERC1967UpgradeUpgradeable.sol\":7087:7106  target.delegatecall */\n      and\n        /* \"lib/contracts-upgradeable/proxy/ERC1967/ERC1967UpgradeUpgradeable.sol\":7107:7111  data */\n      dup5\n        /* \"lib/contracts-upgradeable/proxy/ERC1967/ERC1967UpgradeUpgradeable.sol\":7087:7112  target.delegatecall(data) */\n      mload(0x40)\n      tag_273\n      swap2\n      swap1\n      tag_274\n      jump\t// in\n    tag_273:\n      0x00\n      mload(0x40)\n      dup1\n      dup4\n      sub\n      dup2\n      dup6\n      gas\n      delegatecall\n      swap2\n      pop\n      pop\n      returndatasize\n      dup1\n      0x00\n      dup2\n      eq\n      tag_277\n      jumpi\n      mload(0x40)\n      swap2\n      pop\n      and(add(returndatasize, 0x3f), not(0x1f))\n      dup3\n      add\n      0x40\n      mstore\n      returndatasize\n      dup3\n      mstore\n      returndatasize\n      0x00\n      0x20\n      dup5\n      add\n      returndatacopy\n      jump(tag_276)\n    tag_277:\n      0x60\n      swap2\n      pop\n    tag_276:\n      pop\n        /* \"lib/contracts-upgradeable/proxy/ERC1967/ERC1967UpgradeUpgradeable.sol\":7045:7112  (bool success, bytes memory returndata) = target.delegatecall(data) */\n      swap2\n      pop\n      swap2\n      pop\n        /* \"lib/contracts-upgradeable/proxy/ERC1967/ERC1967UpgradeUpgradeable.sol\":7129:7228  AddressUpgradeable.verifyCallResult(success, returndata, \"Address: low-level delegate call failed\") */\n      tag_278\n        /* \"lib/contracts-upgradeable/proxy/ERC1967/ERC1967UpgradeUpgradeable.sol\":7165:7172  success */\n      dup3\n        /* \"lib/contracts-upgradeable/proxy/ERC1967/ERC1967UpgradeUpgradeable.sol\":7174:7184  returndata */\n      dup3\n        /* \"lib/contracts-upgradeable/proxy/ERC1967/ERC1967UpgradeUpgradeable.sol\":7129:7228  AddressUpgradeable.verifyCallResult(success, returndata, \"Address: low-level delegate call failed\") */\n      mload(0x40)\n      dup1\n      0x60\n      add\n      0x40\n      mstore\n      dup1\n      0x27\n      dup2\n      mstore\n      0x20\n      add\n      data_9fdcd12e4b726339b32a442b0a448365d5d85c96b2d2cff917b4f66c63110398\n      0x27\n      swap2\n      codecopy\n        /* \"lib/contracts-upgradeable/proxy/ERC1967/ERC1967UpgradeUpgradeable.sol\":7129:7164  AddressUpgradeable.verifyCallResult */\n      tag_279\n        /* \"lib/contracts-upgradeable/proxy/ERC1967/ERC1967UpgradeUpgradeable.sol\":7129:7228  AddressUpgradeable.verifyCallResult(success, returndata, \"Address: low-level delegate call failed\") */\n      jump\t// in\n    tag_278:\n        /* \"lib/contracts-upgradeable/proxy/ERC1967/ERC1967UpgradeUpgradeable.sol\":7122:7228  return AddressUpgradeable.verifyCallResult(success, returndata, \"Address: low-level delegate call failed\") */\n      swap3\n      pop\n      pop\n      pop\n        /* \"lib/contracts-upgradeable/proxy/ERC1967/ERC1967UpgradeUpgradeable.sol\":6780:7235  function _functionDelegateCall(address target, bytes memory data) private returns (bytes memory) {... */\n    tag_268:\n      swap3\n      swap2\n      pop\n      pop\n      jump\t// out\n        /* \"lib/contracts-upgradeable/utils/AddressUpgradeable.sol\":7438:7733  function verifyCallResult(... */\n    tag_279:\n        /* \"lib/contracts-upgradeable/utils/AddressUpgradeable.sol\":7584:7596  bytes memory */\n      0x60\n        /* \"lib/contracts-upgradeable/utils/AddressUpgradeable.sol\":7612:7619  success */\n      dup4\n        /* \"lib/contracts-upgradeable/utils/AddressUpgradeable.sol\":7608:7727  if (success) {... */\n      iszero\n      tag_281\n      jumpi\n      pop\n        /* \"lib/contracts-upgradeable/utils/AddressUpgradeable.sol\":7642:7652  returndata */\n      dup2\n        /* \"lib/contracts-upgradeable/utils/AddressUpgradeable.sol\":7635:7652  return returndata */\n      jump(tag_283)\n        /* \"lib/contracts-upgradeable/utils/AddressUpgradeable.sol\":7608:7727  if (success) {... */\n    tag_281:\n        /* \"lib/contracts-upgradeable/utils/AddressUpgradeable.sol\":7683:7716  _revert(returndata, errorMessage) */\n      tag_283\n        /* \"lib/contracts-upgradeable/utils/AddressUpgradeable.sol\":7691:7701  returndata */\n      dup4\n        /* \"lib/contracts-upgradeable/utils/AddressUpgradeable.sol\":7703:7715  errorMessage */\n      dup4\n        /* \"lib/contracts-upgradeable/utils/AddressUpgradeable.sol\":7683:7690  _revert */\n      tag_284\n        /* \"lib/contracts-upgradeable/utils/AddressUpgradeable.sol\":7683:7716  _revert(returndata, errorMessage) */\n      jump\t// in\n    tag_283:\n        /* \"lib/contracts-upgradeable/utils/AddressUpgradeable.sol\":7438:7733  function verifyCallResult(... */\n      swap4\n      swap3\n      pop\n      pop\n      pop\n      jump\t// out\n        /* \"lib/contracts-upgradeable/utils/AddressUpgradeable.sol\":7739:8279  function _revert(bytes memory returndata, string memory errorMessage) private pure {... */\n    tag_284:\n        /* \"lib/contracts-upgradeable/utils/AddressUpgradeable.sol\":7898:7915  returndata.length */\n      dup2\n      mload\n        /* \"lib/contracts-upgradeable/utils/AddressUpgradeable.sol\":7898:7919  returndata.length > 0 */\n      iszero\n        /* \"lib/contracts-upgradeable/utils/AddressUpgradeable.sol\":7894:8273  if (returndata.length > 0) {... */\n      tag_286\n      jumpi\n        /* \"lib/contracts-upgradeable/utils/AddressUpgradeable.sol\":8126:8136  returndata */\n      dup2\n        /* \"lib/contracts-upgradeable/utils/AddressUpgradeable.sol\":8120:8137  mload(returndata) */\n      mload\n        /* \"lib/contracts-upgradeable/utils/AddressUpgradeable.sol\":8182:8197  returndata_size */\n      dup1\n        /* \"lib/contracts-upgradeable/utils/AddressUpgradeable.sol\":8169:8179  returndata */\n      dup4\n        /* \"lib/contracts-upgradeable/utils/AddressUpgradeable.sol\":8165:8167  32 */\n      0x20\n        /* \"lib/contracts-upgradeable/utils/AddressUpgradeable.sol\":8161:8180  add(32, returndata) */\n      add\n        /* \"lib/contracts-upgradeable/utils/AddressUpgradeable.sol\":8154:8198  revert(add(32, returndata), returndata_size) */\n      revert\n        /* \"lib/contracts-upgradeable/utils/AddressUpgradeable.sol\":7894:8273  if (returndata.length > 0) {... */\n    tag_286:\n        /* \"lib/contracts-upgradeable/utils/AddressUpgradeable.sol\":8249:8261  errorMessage */\n      dup1\n        /* \"lib/contracts-upgradeable/utils/AddressUpgradeable.sol\":8242:8262  revert(errorMessage) */\n      mload(0x40)\n      shl(0xe5, 0x461bcd)\n      dup2\n      mstore\n      0x04\n      add\n      tag_97\n      swap2\n      swap1\n      tag_289\n      jump\t// in\n        /* \"#utility.yul\":14:145   */\n    tag_290:\n      sub(shl(0xa0, 0x01), 0x01)\n        /* \"#utility.yul\":89:120   */\n      dup2\n      and\n        /* \"#utility.yul\":79:121   */\n      dup2\n      eq\n        /* \"#utility.yul\":69:139   */\n      tag_107\n      jumpi\n        /* \"#utility.yul\":135:136   */\n      0x00\n        /* \"#utility.yul\":132:133   */\n      dup1\n        /* \"#utility.yul\":125:137   */\n      revert\n        /* \"#utility.yul\":150:397   */\n    tag_22:\n        /* \"#utility.yul\":209:215   */\n      0x00\n        /* \"#utility.yul\":262:264   */\n      0x20\n        /* \"#utility.yul\":250:259   */\n      dup3\n        /* \"#utility.yul\":241:248   */\n      dup5\n        /* \"#utility.yul\":237:260   */\n      sub\n        /* \"#utility.yul\":233:265   */\n      slt\n        /* \"#utility.yul\":230:282   */\n      iszero\n      tag_296\n      jumpi\n        /* \"#utility.yul\":278:279   */\n      0x00\n        /* \"#utility.yul\":275:276   */\n      dup1\n        /* \"#utility.yul\":268:280   */\n      revert\n        /* \"#utility.yul\":230:282   */\n    tag_296:\n        /* \"#utility.yul\":317:326   */\n      dup2\n        /* \"#utility.yul\":304:327   */\n      calldataload\n        /* \"#utility.yul\":336:367   */\n      tag_283\n        /* \"#utility.yul\":361:366   */\n      dup2\n        /* \"#utility.yul\":336:367   */\n      tag_290\n      jump\t// in\n        /* \"#utility.yul\":792:919   */\n    tag_110:\n        /* \"#utility.yul\":853:863   */\n      0x4e487b71\n        /* \"#utility.yul\":848:851   */\n      0xe0\n        /* \"#utility.yul\":844:864   */\n      shl\n        /* \"#utility.yul\":841:842   */\n      0x00\n        /* \"#utility.yul\":834:865   */\n      mstore\n        /* \"#utility.yul\":884:888   */\n      0x41\n        /* \"#utility.yul\":881:882   */\n      0x04\n        /* \"#utility.yul\":874:889   */\n      mstore\n        /* \"#utility.yul\":908:912   */\n      0x24\n        /* \"#utility.yul\":905:906   */\n      0x00\n        /* \"#utility.yul\":898:913   */\n      revert\n        /* \"#utility.yul\":924:1980   */\n    tag_44:\n        /* \"#utility.yul\":1001:1007   */\n      0x00\n        /* \"#utility.yul\":1009:1015   */\n      dup1\n        /* \"#utility.yul\":1062:1064   */\n      0x40\n        /* \"#utility.yul\":1050:1059   */\n      dup4\n        /* \"#utility.yul\":1041:1048   */\n      dup6\n        /* \"#utility.yul\":1037:1060   */\n      sub\n        /* \"#utility.yul\":1033:1065   */\n      slt\n        /* \"#utility.yul\":1030:1082   */\n      iszero\n      tag_302\n      jumpi\n        /* \"#utility.yul\":1078:1079   */\n      0x00\n        /* \"#utility.yul\":1075:1076   */\n      dup1\n        /* \"#utility.yul\":1068:1080   */\n      revert\n        /* \"#utility.yul\":1030:1082   */\n    tag_302:\n        /* \"#utility.yul\":1117:1126   */\n      dup3\n        /* \"#utility.yul\":1104:1127   */\n      calldataload\n        /* \"#utility.yul\":1136:1167   */\n      tag_303\n        /* \"#utility.yul\":1161:1166   */\n      dup2\n        /* \"#utility.yul\":1136:1167   */\n      tag_290\n      jump\t// in\n    tag_303:\n        /* \"#utility.yul\":1186:1191   */\n      swap2\n      pop\n        /* \"#utility.yul\":1242:1244   */\n      0x20\n        /* \"#utility.yul\":1227:1245   */\n      dup4\n      add\n        /* \"#utility.yul\":1214:1246   */\n      calldataload\n      sub(shl(0x40, 0x01), 0x01)\n        /* \"#utility.yul\":1295:1309   */\n      dup1\n      dup3\n      gt\n        /* \"#utility.yul\":1292:1326   */\n      iszero\n      tag_304\n      jumpi\n        /* \"#utility.yul\":1322:1323   */\n      0x00\n        /* \"#utility.yul\":1319:1320   */\n      dup1\n        /* \"#utility.yul\":1312:1324   */\n      revert\n        /* \"#utility.yul\":1292:1326   */\n    tag_304:\n        /* \"#utility.yul\":1360:1366   */\n      dup2\n        /* \"#utility.yul\":1349:1358   */\n      dup6\n        /* \"#utility.yul\":1345:1367   */\n      add\n        /* \"#utility.yul\":1335:1367   */\n      swap2\n      pop\n        /* \"#utility.yul\":1405:1412   */\n      dup6\n        /* \"#utility.yul\":1398:1402   */\n      0x1f\n        /* \"#utility.yul\":1394:1396   */\n      dup4\n        /* \"#utility.yul\":1390:1403   */\n      add\n        /* \"#utility.yul\":1386:1413   */\n      slt\n        /* \"#utility.yul\":1376:1431   */\n      tag_305\n      jumpi\n        /* \"#utility.yul\":1427:1428   */\n      0x00\n        /* \"#utility.yul\":1424:1425   */\n      dup1\n        /* \"#utility.yul\":1417:1429   */\n      revert\n        /* \"#utility.yul\":1376:1431   */\n    tag_305:\n        /* \"#utility.yul\":1463:1465   */\n      dup2\n        /* \"#utility.yul\":1450:1466   */\n      calldataload\n        /* \"#utility.yul\":1485:1487   */\n      dup2\n        /* \"#utility.yul\":1481:1483   */\n      dup2\n        /* \"#utility.yul\":1478:1488   */\n      gt\n        /* \"#utility.yul\":1475:1511   */\n      iszero\n      tag_307\n      jumpi\n        /* \"#utility.yul\":1491:1509   */\n      tag_307\n      tag_110\n      jump\t// in\n    tag_307:\n        /* \"#utility.yul\":1566:1568   */\n      0x40\n        /* \"#utility.yul\":1560:1569   */\n      mload\n        /* \"#utility.yul\":1534:1536   */\n      0x1f\n        /* \"#utility.yul\":1620:1633   */\n      dup3\n      add\n      not(0x1f)\n        /* \"#utility.yul\":1616:1638   */\n      swap1\n      dup2\n      and\n        /* \"#utility.yul\":1640:1642   */\n      0x3f\n        /* \"#utility.yul\":1612:1643   */\n      add\n        /* \"#utility.yul\":1608:1648   */\n      and\n        /* \"#utility.yul\":1596:1649   */\n      dup2\n      add\n      swap1\n        /* \"#utility.yul\":1664:1682   */\n      dup4\n      dup3\n      gt\n        /* \"#utility.yul\":1684:1706   */\n      dup2\n      dup4\n      lt\n        /* \"#utility.yul\":1661:1707   */\n      or\n        /* \"#utility.yul\":1658:1730   */\n      iszero\n      tag_309\n      jumpi\n        /* \"#utility.yul\":1710:1728   */\n      tag_309\n      tag_110\n      jump\t// in\n    tag_309:\n        /* \"#utility.yul\":1750:1760   */\n      dup2\n        /* \"#utility.yul\":1746:1748   */\n      0x40\n        /* \"#utility.yul\":1739:1761   */\n      mstore\n        /* \"#utility.yul\":1785:1787   */\n      dup3\n        /* \"#utility.yul\":1777:1783   */\n      dup2\n        /* \"#utility.yul\":1770:1788   */\n      mstore\n        /* \"#utility.yul\":1825:1832   */\n      dup9\n        /* \"#utility.yul\":1820:1822   */\n      0x20\n        /* \"#utility.yul\":1815:1817   */\n      dup5\n        /* \"#utility.yul\":1811:1813   */\n      dup8\n        /* \"#utility.yul\":1807:1818   */\n      add\n        /* \"#utility.yul\":1803:1823   */\n      add\n        /* \"#utility.yul\":1800:1833   */\n      gt\n        /* \"#utility.yul\":1797:1850   */\n      iszero\n      tag_310\n      jumpi\n        /* \"#utility.yul\":1846:1847   */\n      0x00\n        /* \"#utility.yul\":1843:1844   */\n      dup1\n        /* \"#utility.yul\":1836:1848   */\n      revert\n        /* \"#utility.yul\":1797:1850   */\n    tag_310:\n        /* \"#utility.yul\":1902:1904   */\n      dup3\n        /* \"#utility.yul\":1897:1899   */\n      0x20\n        /* \"#utility.yul\":1893:1895   */\n      dup7\n        /* \"#utility.yul\":1889:1900   */\n      add\n        /* \"#utility.yul\":1884:1886   */\n      0x20\n        /* \"#utility.yul\":1876:1882   */\n      dup4\n        /* \"#utility.yul\":1872:1887   */\n      add\n        /* \"#utility.yul\":1859:1905   */\n      calldatacopy\n        /* \"#utility.yul\":1947:1948   */\n      0x00\n        /* \"#utility.yul\":1942:1944   */\n      0x20\n        /* \"#utility.yul\":1937:1939   */\n      dup5\n        /* \"#utility.yul\":1929:1935   */\n      dup4\n        /* \"#utility.yul\":1925:1940   */\n      add\n        /* \"#utility.yul\":1921:1945   */\n      add\n        /* \"#utility.yul\":1914:1949   */\n      mstore\n        /* \"#utility.yul\":1968:1974   */\n      dup1\n        /* \"#utility.yul\":1958:1974   */\n      swap6\n      pop\n      pop\n      pop\n      pop\n      pop\n      pop\n        /* \"#utility.yul\":924:1980   */\n      swap3\n      pop\n      swap3\n      swap1\n      pop\n      jump\t// out\n        /* \"#utility.yul\":2167:2347   */\n    tag_73:\n        /* \"#utility.yul\":2226:2232   */\n      0x00\n        /* \"#utility.yul\":2279:2281   */\n      0x20\n        /* \"#utility.yul\":2267:2276   */\n      dup3\n        /* \"#utility.yul\":2258:2265   */\n      dup5\n        /* \"#utility.yul\":2254:2277   */\n      sub\n        /* \"#utility.yul\":2250:2282   */\n      slt\n        /* \"#utility.yul\":2247:2299   */\n      iszero\n      tag_313\n      jumpi\n        /* \"#utility.yul\":2295:2296   */\n      0x00\n        /* \"#utility.yul\":2292:2293   */\n      dup1\n        /* \"#utility.yul\":2285:2297   */\n      revert\n        /* \"#utility.yul\":2247:2299   */\n    tag_313:\n      pop\n        /* \"#utility.yul\":2318:2341   */\n      calldataload\n      swap2\n        /* \"#utility.yul\":2167:2347   */\n      swap1\n      pop\n      jump\t// out\n        /* \"#utility.yul\":2352:2760   */\n    tag_98:\n        /* \"#utility.yul\":2554:2556   */\n      0x20\n        /* \"#utility.yul\":2536:2557   */\n      dup1\n      dup3\n      mstore\n        /* \"#utility.yul\":2593:2595   */\n      0x2c\n        /* \"#utility.yul\":2573:2591   */\n      swap1\n      dup3\n      add\n        /* \"#utility.yul\":2566:2596   */\n      mstore\n      0x00\n      dup1\n      mload\n      0x20\n      data_662a7ba1d8fb60beff3d02117181416eb800676fa4d6f1ebc4c3fea5cd79ec88\n      dup4\n      codecopy\n      dup2\n      mload\n      swap2\n      mstore\n        /* \"#utility.yul\":2627:2629   */\n      0x40\n        /* \"#utility.yul\":2612:2630   */\n      dup3\n      add\n        /* \"#utility.yul\":2605:2667   */\n      mstore\n      shl(0xa2, 0x19195b1959d85d1958d85b1b)\n        /* \"#utility.yul\":2698:2700   */\n      0x60\n        /* \"#utility.yul\":2683:2701   */\n      dup3\n      add\n        /* \"#utility.yul\":2676:2718   */\n      mstore\n        /* \"#utility.yul\":2750:2753   */\n      0x80\n        /* \"#utility.yul\":2735:2754   */\n      add\n      swap1\n        /* \"#utility.yul\":2352:2760   */\n      jump\t// out\n        /* \"#utility.yul\":2765:3173   */\n    tag_103:\n        /* \"#utility.yul\":2967:2969   */\n      0x20\n        /* \"#utility.yul\":2949:2970   */\n      dup1\n      dup3\n      mstore\n        /* \"#utility.yul\":3006:3008   */\n      0x2c\n        /* \"#utility.yul\":2986:3004   */\n      swap1\n      dup3\n      add\n        /* \"#utility.yul\":2979:3009   */\n      mstore\n      0x00\n      dup1\n      mload\n      0x20\n      data_662a7ba1d8fb60beff3d02117181416eb800676fa4d6f1ebc4c3fea5cd79ec88\n      dup4\n      codecopy\n      dup2\n      mload\n      swap2\n      mstore\n        /* \"#utility.yul\":3040:3042   */\n      0x40\n        /* \"#utility.yul\":3025:3043   */\n      dup3\n      add\n        /* \"#utility.yul\":3018:3080   */\n      mstore\n      shl(0xa0, 0x6163746976652070726f7879)\n        /* \"#utility.yul\":3111:3113   */\n      0x60\n        /* \"#utility.yul\":3096:3114   */\n      dup3\n      add\n        /* \"#utility.yul\":3089:3131   */\n      mstore\n        /* \"#utility.yul\":3163:3166   */\n      0x80\n        /* \"#utility.yul\":3148:3167   */\n      add\n      swap1\n        /* \"#utility.yul\":2765:3173   */\n      jump\t// out\n        /* \"#utility.yul\":4217:4468   */\n    tag_155:\n        /* \"#utility.yul\":4287:4293   */\n      0x00\n        /* \"#utility.yul\":4340:4342   */\n      0x20\n        /* \"#utility.yul\":4328:4337   */\n      dup3\n        /* \"#utility.yul\":4319:4326   */\n      dup5\n        /* \"#utility.yul\":4315:4338   */\n      sub\n        /* \"#utility.yul\":4311:4343   */\n      slt\n        /* \"#utility.yul\":4308:4360   */\n      iszero\n      tag_320\n      jumpi\n        /* \"#utility.yul\":4356:4357   */\n      0x00\n        /* \"#utility.yul\":4353:4354   */\n      dup1\n        /* \"#utility.yul\":4346:4358   */\n      revert\n        /* \"#utility.yul\":4308:4360   */\n    tag_320:\n        /* \"#utility.yul\":4388:4397   */\n      dup2\n        /* \"#utility.yul\":4382:4398   */\n      mload\n        /* \"#utility.yul\":4407:4438   */\n      tag_283\n        /* \"#utility.yul\":4432:4437   */\n      dup2\n        /* \"#utility.yul\":4407:4438   */\n      tag_290\n      jump\t// in\n        /* \"#utility.yul\":4473:4657   */\n    tag_162:\n        /* \"#utility.yul\":4543:4549   */\n      0x00\n        /* \"#utility.yul\":4596:4598   */\n      0x20\n        /* \"#utility.yul\":4584:4593   */\n      dup3\n        /* \"#utility.yul\":4575:4582   */\n      dup5\n        /* \"#utility.yul\":4571:4594   */\n      sub\n        /* \"#utility.yul\":4567:4599   */\n      slt\n        /* \"#utility.yul\":4564:4616   */\n      iszero\n      tag_323\n      jumpi\n        /* \"#utility.yul\":4612:4613   */\n      0x00\n        /* \"#utility.yul\":4609:4610   */\n      dup1\n        /* \"#utility.yul\":4602:4614   */\n      revert\n        /* \"#utility.yul\":4564:4616   */\n    tag_323:\n      pop\n        /* \"#utility.yul\":4635:4651   */\n      mload\n      swap2\n        /* \"#utility.yul\":4473:4657   */\n      swap1\n      pop\n      jump\t// out\n        /* \"#utility.yul\":4662:4927   */\n    tag_164:\n        /* \"#utility.yul\":4735:4744   */\n      dup1\n      dup3\n      mul\n        /* \"#utility.yul\":4766:4775   */\n      dup2\n      iszero\n        /* \"#utility.yul\":4783:4798   */\n      dup3\n      dup3\n      div\n        /* \"#utility.yul\":4777:4799   */\n      dup5\n      eq\n        /* \"#utility.yul\":4763:4800   */\n      or\n        /* \"#utility.yul\":4753:4921   */\n      tag_268\n      jumpi\n        /* \"#utility.yul\":4843:4853   */\n      0x4e487b71\n        /* \"#utility.yul\":4838:4841   */\n      0xe0\n        /* \"#utility.yul\":4834:4854   */\n      shl\n        /* \"#utility.yul\":4831:4832   */\n      0x00\n        /* \"#utility.yul\":4824:4855   */\n      mstore\n        /* \"#utility.yul\":4878:4882   */\n      0x11\n        /* \"#utility.yul\":4875:4876   */\n      0x04\n        /* \"#utility.yul\":4868:4883   */\n      mstore\n        /* \"#utility.yul\":4906:4910   */\n      0x24\n        /* \"#utility.yul\":4903:4904   */\n      0x00\n        /* \"#utility.yul\":4896:4911   */\n      revert\n        /* \"#utility.yul\":4932:5149   */\n    tag_166:\n        /* \"#utility.yul\":4972:4973   */\n      0x00\n        /* \"#utility.yul\":4998:4999   */\n      dup3\n        /* \"#utility.yul\":4988:5120   */\n      tag_327\n      jumpi\n        /* \"#utility.yul\":5042:5052   */\n      0x4e487b71\n        /* \"#utility.yul\":5037:5040   */\n      0xe0\n        /* \"#utility.yul\":5033:5053   */\n      shl\n        /* \"#utility.yul\":5030:5031   */\n      0x00\n        /* \"#utility.yul\":5023:5054   */\n      mstore\n        /* \"#utility.yul\":5077:5081   */\n      0x12\n        /* \"#utility.yul\":5074:5075   */\n      0x04\n        /* \"#utility.yul\":5067:5082   */\n      mstore\n        /* \"#utility.yul\":5105:5109   */\n      0x24\n        /* \"#utility.yul\":5102:5103   */\n      0x00\n        /* \"#utility.yul\":5095:5110   */\n      revert\n        /* \"#utility.yul\":4988:5120   */\n    tag_327:\n      pop\n        /* \"#utility.yul\":5134:5143   */\n      div\n      swap1\n        /* \"#utility.yul\":4932:5149   */\n      jump\t// out\n        /* \"#utility.yul\":5154:5529   */\n    tag_168:\n      sub(shl(0xa0, 0x01), 0x01)\n        /* \"#utility.yul\":5412:5427   */\n      swap4\n      dup5\n      and\n        /* \"#utility.yul\":5394:5428   */\n      dup2\n      mstore\n        /* \"#utility.yul\":5464:5479   */\n      swap2\n      swap1\n      swap3\n      and\n        /* \"#utility.yul\":5459:5461   */\n      0x20\n        /* \"#utility.yul\":5444:5462   */\n      dup3\n      add\n        /* \"#utility.yul\":5437:5480   */\n      mstore\n        /* \"#utility.yul\":5511:5513   */\n      0x40\n        /* \"#utility.yul\":5496:5514   */\n      dup2\n      add\n        /* \"#utility.yul\":5489:5523   */\n      swap2\n      swap1\n      swap2\n      mstore\n        /* \"#utility.yul\":5344:5346   */\n      0x60\n        /* \"#utility.yul\":5329:5347   */\n      add\n      swap1\n        /* \"#utility.yul\":5154:5529   */\n      jump\t// out\n        /* \"#utility.yul\":5534:5811   */\n    tag_172:\n        /* \"#utility.yul\":5601:5607   */\n      0x00\n        /* \"#utility.yul\":5654:5656   */\n      0x20\n        /* \"#utility.yul\":5642:5651   */\n      dup3\n        /* \"#utility.yul\":5633:5640   */\n      dup5\n        /* \"#utility.yul\":5629:5652   */\n      sub\n        /* \"#utility.yul\":5625:5657   */\n      slt\n        /* \"#utility.yul\":5622:5674   */\n      iszero\n      tag_330\n      jumpi\n        /* \"#utility.yul\":5670:5671   */\n      0x00\n        /* \"#utility.yul\":5667:5668   */\n      dup1\n        /* \"#utility.yul\":5660:5672   */\n      revert\n        /* \"#utility.yul\":5622:5674   */\n    tag_330:\n        /* \"#utility.yul\":5702:5711   */\n      dup2\n        /* \"#utility.yul\":5696:5712   */\n      mload\n        /* \"#utility.yul\":5755:5760   */\n      dup1\n        /* \"#utility.yul\":5748:5761   */\n      iszero\n        /* \"#utility.yul\":5741:5762   */\n      iszero\n        /* \"#utility.yul\":5734:5739   */\n      dup2\n        /* \"#utility.yul\":5731:5763   */\n      eq\n        /* \"#utility.yul\":5721:5781   */\n      tag_283\n      jumpi\n        /* \"#utility.yul\":5777:5778   */\n      0x00\n        /* \"#utility.yul\":5774:5775   */\n      dup1\n        /* \"#utility.yul\":5767:5779   */\n      revert\n        /* \"#utility.yul\":7598:8005   */\n    tag_236:\n        /* \"#utility.yul\":7800:7802   */\n      0x20\n        /* \"#utility.yul\":7782:7803   */\n      dup1\n      dup3\n      mstore\n        /* \"#utility.yul\":7839:7841   */\n      0x2b\n        /* \"#utility.yul\":7819:7837   */\n      swap1\n      dup3\n      add\n        /* \"#utility.yul\":7812:7842   */\n      mstore\n        /* \"#utility.yul\":7878:7912   */\n      0x496e697469616c697a61626c653a20636f6e7472616374206973206e6f742069\n        /* \"#utility.yul\":7873:7875   */\n      0x40\n        /* \"#utility.yul\":7858:7876   */\n      dup3\n      add\n        /* \"#utility.yul\":7851:7913   */\n      mstore\n      shl(0xa8, 0x6e697469616c697a696e67)\n        /* \"#utility.yul\":7944:7946   */\n      0x60\n        /* \"#utility.yul\":7929:7947   */\n      dup3\n      add\n        /* \"#utility.yul\":7922:7963   */\n      mstore\n        /* \"#utility.yul\":7995:7998   */\n      0x80\n        /* \"#utility.yul\":7980:7999   */\n      add\n      swap1\n        /* \"#utility.yul\":7598:8005   */\n      jump\t// out\n        /* \"#utility.yul\":8831:9081   */\n    tag_291:\n        /* \"#utility.yul\":8916:8917   */\n      0x00\n        /* \"#utility.yul\":8926:9039   */\n    tag_342:\n        /* \"#utility.yul\":8940:8946   */\n      dup4\n        /* \"#utility.yul\":8937:8938   */\n      dup2\n        /* \"#utility.yul\":8934:8947   */\n      lt\n        /* \"#utility.yul\":8926:9039   */\n      iszero\n      tag_344\n      jumpi\n        /* \"#utility.yul\":9016:9027   */\n      dup2\n      dup2\n      add\n        /* \"#utility.yul\":9010:9028   */\n      mload\n        /* \"#utility.yul\":8997:9008   */\n      dup4\n      dup3\n      add\n        /* \"#utility.yul\":8990:9029   */\n      mstore\n        /* \"#utility.yul\":8962:8964   */\n      0x20\n        /* \"#utility.yul\":8955:8965   */\n      add\n        /* \"#utility.yul\":8926:9039   */\n      jump(tag_342)\n    tag_344:\n      pop\n      pop\n        /* \"#utility.yul\":9073:9074   */\n      0x00\n        /* \"#utility.yul\":9055:9071   */\n      swap2\n      add\n        /* \"#utility.yul\":9048:9075   */\n      mstore\n        /* \"#utility.yul\":8831:9081   */\n      jump\t// out\n        /* \"#utility.yul\":9086:9373   */\n    tag_274:\n        /* \"#utility.yul\":9215:9218   */\n      0x00\n        /* \"#utility.yul\":9253:9259   */\n      dup3\n        /* \"#utility.yul\":9247:9260   */\n      mload\n        /* \"#utility.yul\":9269:9335   */\n      tag_346\n        /* \"#utility.yul\":9328:9334   */\n      dup2\n        /* \"#utility.yul\":9323:9326   */\n      dup5\n        /* \"#utility.yul\":9316:9320   */\n      0x20\n        /* \"#utility.yul\":9308:9314   */\n      dup8\n        /* \"#utility.yul\":9304:9321   */\n      add\n        /* \"#utility.yul\":9269:9335   */\n      tag_291\n      jump\t// in\n    tag_346:\n        /* \"#utility.yul\":9351:9367   */\n      swap2\n      swap1\n      swap2\n      add\n      swap3\n        /* \"#utility.yul\":9086:9373   */\n      swap2\n      pop\n      pop\n      jump\t// out\n        /* \"#utility.yul\":9378:9774   */\n    tag_289:\n        /* \"#utility.yul\":9527:9529   */\n      0x20\n        /* \"#utility.yul\":9516:9525   */\n      dup2\n        /* \"#utility.yul\":9509:9530   */\n      mstore\n        /* \"#utility.yul\":9490:9494   */\n      0x00\n        /* \"#utility.yul\":9559:9565   */\n      dup3\n        /* \"#utility.yul\":9553:9566   */\n      mload\n        /* \"#utility.yul\":9602:9608   */\n      dup1\n        /* \"#utility.yul\":9597:9599   */\n      0x20\n        /* \"#utility.yul\":9586:9595   */\n      dup5\n        /* \"#utility.yul\":9582:9600   */\n      add\n        /* \"#utility.yul\":9575:9609   */\n      mstore\n        /* \"#utility.yul\":9618:9697   */\n      tag_348\n        /* \"#utility.yul\":9690:9696   */\n      dup2\n        /* \"#utility.yul\":9685:9687   */\n      0x40\n        /* \"#utility.yul\":9674:9683   */\n      dup6\n        /* \"#utility.yul\":9670:9688   */\n      add\n        /* \"#utility.yul\":9665:9667   */\n      0x20\n        /* \"#utility.yul\":9657:9663   */\n      dup8\n        /* \"#utility.yul\":9653:9668   */\n      add\n        /* \"#utility.yul\":9618:9697   */\n      tag_291\n      jump\t// in\n    tag_348:\n        /* \"#utility.yul\":9758:9760   */\n      0x1f\n        /* \"#utility.yul\":9737:9752   */\n      add\n      not(0x1f)\n        /* \"#utility.yul\":9733:9762   */\n      and\n        /* \"#utility.yul\":9718:9763   */\n      swap2\n      swap1\n      swap2\n      add\n        /* \"#utility.yul\":9765:9767   */\n      0x40\n        /* \"#utility.yul\":9714:9768   */\n      add\n      swap3\n        /* \"#utility.yul\":9378:9774   */\n      swap2\n      pop\n      pop\n      jump\t// out\n    stop\n    data_662a7ba1d8fb60beff3d02117181416eb800676fa4d6f1ebc4c3fea5cd79ec88 46756e6374696f6e206d7573742062652063616c6c6564207468726f75676820\n    data_75b20eef8615de99c108b05f0dbda081c91897128caa336d75dffb97c4132b4d 360894a13ba1a3210667c828492db98dca3e2076cc3735a920a3ca505d382bbc\n    data_9fdcd12e4b726339b32a442b0a448365d5d85c96b2d2cff917b4f66c63110398 416464726573733a206c6f772d6c6576656c2064656c65676174652063616c6c206661696c6564\n\n    auxdata: 0xa2646970667358221220ebb6973c87f7d6b9eeebf9e331351f202beacdfea13a4f4cc2ec024d79589c7d64736f6c63430008140033\n}\n",
				"bytecode": {
					"linkReferences": {},
					"object": "60a060405230608052348015610013575f80fd5b5061001c610021565b6100de565b5f54610100900460ff161561008c5760405162461bcd60e51b815260206004820152602760248201527f496e697469616c697a61626c653a20636f6e747261637420697320696e697469604482015266616c697a696e6760c81b606482015260840160405180910390fd5b5f5460ff90811610156100dc575f805460ff191660ff9081179091556040519081527f7f26b83ff96e1f2b6a682f133852f6798a09c465da95921460cefb38474024989060200160405180910390a15b565b6080516113546101125f395f818161030001528181610349015281816103d001528181610410015261048b01526113545ff3fe6080604052600436106100cd575f3560e01c8063210835ae146100d15780632f48ab7d146100f25780633659cfe61461012e57806336e0cac61461014d5780634b21ddec146101705780634f1ef2861461018f57806352d1902d146101a2578063698518e5146101b6578063715018a6146101cb5780638da5cb5b146101df578063b2cf085e146101f3578063c4d66de814610212578063d0675bfd14610231578063dba64f8f14610250578063dbe55e561461026f578063f2fde38b1461028e578063f97fe091146102ad575b5f80fd5b3480156100dc575f80fd5b506100f06100eb366004610fd1565b6102cc565b005b3480156100fd575f80fd5b5060c954610111906001600160a01b031681565b6040516001600160a01b0390911681526020015b60405180910390f35b348015610139575f80fd5b506100f0610148366004610fd1565b6102f6565b348015610158575f80fd5b5061016260cf5481565b604051908152602001610125565b34801561017b575f80fd5b5060cd54610111906001600160a01b031681565b6100f061019d366004611000565b6103c6565b3480156101ad575f80fd5b5061016261047f565b3480156101c1575f80fd5b5061016260d05481565b3480156101d6575f80fd5b506100f061052b565b3480156101ea575f80fd5b5061011161053e565b3480156101fe575f80fd5b5060cb54610111906001600160a01b031681565b34801561021d575f80fd5b506100f061022c366004610fd1565b61054d565b34801561023c575f80fd5b506100f061024b3660046110bd565b610682565b34801561025b575f80fd5b5060cc54610111906001600160a01b031681565b34801561027a575f80fd5b5060ca54610111906001600160a01b031681565b348015610299575f80fd5b506100f06102a8366004610fd1565b610a3c565b3480156102b8575f80fd5b5060ce54610111906001600160a01b031681565b6102d4610ab2565b60cc80546001600160a01b0319166001600160a01b0392909216919091179055565b6001600160a01b037f00000000000000000000000000000000000000000000000000000000000000001630036103475760405162461bcd60e51b815260040161033e906110d4565b60405180910390fd5b7f00000000000000000000000000000000000000000000000000000000000000006001600160a01b0316610379610b11565b6001600160a01b03161461039f5760405162461bcd60e51b815260040161033e9061110d565b6103a881610b2c565b604080515f808252602082019092526103c391839190610b34565b50565b6001600160a01b037f000000000000000000000000000000000000000000000000000000000000000016300361040e5760405162461bcd60e51b815260040161033e906110d4565b7f00000000000000000000000000000000000000000000000000000000000000006001600160a01b0316610440610b11565b6001600160a01b0316146104665760405162461bcd60e51b815260040161033e9061110d565b61046f82610b2c565b61047b82826001610b34565b5050565b5f306001600160a01b037f000000000000000000000000000000000000000000000000000000000000000016146105195760405162461bcd60e51b815260206004820152603860248201527f555550535570677261646561626c653a206d757374206e6f742062652063616c6044820152771b1959081d1a1c9bdd59da0819195b1959d85d1958d85b1b60421b606482015260840161033e565b505f805160206112d883398151915290565b610533610ab2565b61053c5f610c9e565b565b6033546001600160a01b031690565b5f54610100900460ff161580801561056b57505f54600160ff909116105b8061058b575061057a30610cef565b15801561058b57505f5460ff166001145b6105ee5760405162461bcd60e51b815260206004820152602e60248201527f496e697469616c697a61626c653a20636f6e747261637420697320616c72656160448201526d191e481a5b9a5d1a585b1a5e995960921b606482015260840161033e565b5f805460ff19166001179055801561060f575f805461ff0019166101001790555b610617610cfe565b61061f610d2c565b60cc80546001600160a01b0319166001600160a01b038416179055801561047b575f805461ff0019169055604051600181527f7f26b83ff96e1f2b6a682f133852f6798a09c465da95921460cefb38474024989060200160405180910390a15050565b60cc5460408051632f48ab7d60e01b815290515f926001600160a01b031691632f48ab7d9160048083019260209291908290030181865afa1580156106c9573d5f803e3d5ffd5b505050506040513d601f19601f820116820180604052508101906106ed9190611146565b6001600160a01b03166323b872dd3360cc5f9054906101000a90046001600160a01b03166001600160a01b0316634b21ddec6040518163ffffffff1660e01b8152600401602060405180830381865afa15801561074c573d5f803e3d5ffd5b505050506040513d601f19601f820116820180604052508101906107709190611146565b60cc546040805163698518e560e01b815290516103e8926001600160a01b03169163698518e59160048083019260209291908290030181865afa1580156107b9573d5f803e3d5ffd5b505050506040513d601f19601f820116820180604052508101906107dd9190611161565b6107e79088611178565b6107f1919061119b565b6040518463ffffffff1660e01b815260040161080f939291906111ba565b6020604051808303815f875af115801561082b573d5f803e3d5ffd5b505050506040513d601f19601f8201168201806040525081019061084f91906111de565b9050801561047b5760cc5f9054906101000a90046001600160a01b03166001600160a01b0316638f05cdf56040518163ffffffff1660e01b8152600401602060405180830381865afa1580156108a7573d5f803e3d5ffd5b505050506040513d601f19601f820116820180604052508101906108cb9190611146565b6001600160a01b03166323b872dd60cc5f9054906101000a90046001600160a01b03166001600160a01b031663f97fe0916040518163ffffffff1660e01b8152600401602060405180830381865afa158015610929573d5f803e3d5ffd5b505050506040513d601f19601f8201168201806040525081019061094d9190611146565b336103e860cc5f9054906101000a90046001600160a01b03166001600160a01b031663698518e56040518163ffffffff1660e01b8152600401602060405180830381865afa1580156109a1573d5f803e3d5ffd5b505050506040513d601f19601f820116820180604052508101906109c59190611161565b6109cf9088611178565b6109d9919061119b565b6040518463ffffffff1660e01b81526004016109f7939291906111ba565b6020604051808303815f875af1158015610a13573d5f803e3d5ffd5b505050506040513d601f19601f82011682018060405250810190610a3791906111de565b505050565b610a44610ab2565b6001600160a01b038116610aa95760405162461bcd60e51b815260206004820152602660248201527f4f776e61626c653a206e6577206f776e657220697320746865207a65726f206160448201526564647265737360d01b606482015260840161033e565b6103c381610c9e565b33610abb61053e565b6001600160a01b03161461053c5760405162461bcd60e51b815260206004820181905260248201527f4f776e61626c653a2063616c6c6572206973206e6f7420746865206f776e6572604482015260640161033e565b5f805160206112d8833981519152546001600160a01b031690565b6103c3610ab2565b7f4910fdfa16fed3260ed0e7147f7cc6da11a60208b5b9406d12a635614ffd91435460ff1615610b6757610a3783610d52565b826001600160a01b03166352d1902d6040518163ffffffff1660e01b8152600401602060405180830381865afa925050508015610bc1575060408051601f3d908101601f19168201909252610bbe91810190611161565b60015b610c245760405162461bcd60e51b815260206004820152602e60248201527f45524331393637557067726164653a206e657720696d706c656d656e7461746960448201526d6f6e206973206e6f74205555505360901b606482015260840161033e565b5f805160206112d88339815191528114610c925760405162461bcd60e51b815260206004820152602960248201527f45524331393637557067726164653a20756e737570706f727465642070726f786044820152681a58589b195555525160ba1b606482015260840161033e565b50610a37838383610deb565b603380546001600160a01b038381166001600160a01b0319831681179093556040519116919082907f8be0079c531659141344cd1fd0a4f28419497f9722a3daafe3b4186f6b6457e0905f90a35050565b6001600160a01b03163b151590565b5f54610100900460ff16610d245760405162461bcd60e51b815260040161033e906111fd565b61053c610e15565b5f54610100900460ff1661053c5760405162461bcd60e51b815260040161033e906111fd565b610d5b81610cef565b610dbd5760405162461bcd60e51b815260206004820152602d60248201527f455243313936373a206e657720696d706c656d656e746174696f6e206973206e60448201526c1bdd08184818dbdb9d1c9858dd609a1b606482015260840161033e565b5f805160206112d883398151915280546001600160a01b0319166001600160a01b0392909216919091179055565b610df483610e44565b5f82511180610e005750805b15610a3757610e0f8383610e83565b50505050565b5f54610100900460ff16610e3b5760405162461bcd60e51b815260040161033e906111fd565b61053c33610c9e565b610e4d81610d52565b6040516001600160a01b038216907fbc7cd75a20ee27fd9adebab32041f755214dbc6bffa90cc0225b39da2e5c2d3b905f90a250565b6060610e8e83610cef565b610ee95760405162461bcd60e51b815260206004820152602660248201527f416464726573733a2064656c65676174652063616c6c20746f206e6f6e2d636f6044820152651b9d1c9858dd60d21b606482015260840161033e565b5f80846001600160a01b031684604051610f03919061126a565b5f60405180830381855af49150503d805f8114610f3b576040519150601f19603f3d011682016040523d82523d5f602084013e610f40565b606091505b5091509150610f6882826040518060600160405280602781526020016112f860279139610f73565b925050505b92915050565b60608315610f82575081610f8c565b610f8c8383610f93565b9392505050565b815115610fa35781518083602001fd5b8060405162461bcd60e51b815260040161033e9190611285565b6001600160a01b03811681146103c3575f80fd5b5f60208284031215610fe1575f80fd5b8135610f8c81610fbd565b634e487b7160e01b5f52604160045260245ffd5b5f8060408385031215611011575f80fd5b823561101c81610fbd565b915060208301356001600160401b0380821115611037575f80fd5b818501915085601f83011261104a575f80fd5b81358181111561105c5761105c610fec565b604051601f8201601f19908116603f0116810190838211818310171561108457611084610fec565b8160405282815288602084870101111561109c575f80fd5b826020860160208301375f6020848301015280955050505050509250929050565b5f602082840312156110cd575f80fd5b5035919050565b6020808252602c908201525f805160206112b883398151915260408201526b19195b1959d85d1958d85b1b60a21b606082015260800190565b6020808252602c908201525f805160206112b883398151915260408201526b6163746976652070726f787960a01b606082015260800190565b5f60208284031215611156575f80fd5b8151610f8c81610fbd565b5f60208284031215611171575f80fd5b5051919050565b8082028115828204841417610f6d57634e487b7160e01b5f52601160045260245ffd5b5f826111b557634e487b7160e01b5f52601260045260245ffd5b500490565b6001600160a01b039384168152919092166020820152604081019190915260600190565b5f602082840312156111ee575f80fd5b81518015158114610f8c575f80fd5b6020808252602b908201527f496e697469616c697a61626c653a20636f6e7472616374206973206e6f74206960408201526a6e697469616c697a696e6760a81b606082015260800190565b5f5b8381101561126257818101518382015260200161124a565b50505f910152565b5f825161127b818460208701611248565b9190910192915050565b602081525f82518060208401526112a3816040850160208701611248565b601f01601f1916919091016040019291505056fe46756e6374696f6e206d7573742062652063616c6c6564207468726f75676820360894a13ba1a3210667c828492db98dca3e2076cc3735a920a3ca505d382bbc416464726573733a206c6f772d6c6576656c2064656c65676174652063616c6c206661696c6564a2646970667358221220ebb6973c87f7d6b9eeebf9e331351f202beacdfea13a4f4cc2ec024d79589c7d64736f6c63430008140033",
					"opcodes": "PUSH1 0xA0 PUSH1 0x40 MSTORE ADDRESS PUSH1 0x80 MSTORE CALLVALUE DUP1 ISZERO PUSH2 0x13 JUMPI PUSH0 DUP1 REVERT JUMPDEST POP PUSH2 0x1C PUSH2 0x21 JUMP JUMPDEST PUSH2 0xDE JUMP JUMPDEST PUSH0 SLOAD PUSH2 0x100 SWAP1 DIV PUSH1 0xFF AND ISZERO PUSH2 0x8C JUMPI PUSH1 0x40 MLOAD PUSH3 0x461BCD PUSH1 0xE5 SHL DUP2 MSTORE PUSH1 0x20 PUSH1 0x4 DUP3 ADD MSTORE PUSH1 0x27 PUSH1 0x24 DUP3 ADD MSTORE PUSH32 0x496E697469616C697A61626C653A20636F6E747261637420697320696E697469 PUSH1 0x44 DUP3 ADD MSTORE PUSH7 0x616C697A696E67 PUSH1 0xC8 SHL PUSH1 0x64 DUP3 ADD MSTORE PUSH1 0x84 ADD PUSH1 0x40 MLOAD DUP1 SWAP2 SUB SWAP1 REVERT JUMPDEST PUSH0 SLOAD PUSH1 0xFF SWAP1 DUP2 AND LT ISZERO PUSH2 0xDC JUMPI PUSH0 DUP1 SLOAD PUSH1 0xFF NOT AND PUSH1 0xFF SWAP1 DUP2 OR SWAP1 SWAP2 SSTORE PUSH1 0x40 MLOAD SWAP1 DUP2 MSTORE PUSH32 0x7F26B83FF96E1F2B6A682F133852F6798A09C465DA95921460CEFB3847402498 SWAP1 PUSH1 0x20 ADD PUSH1 0x40 MLOAD DUP1 SWAP2 SUB SWAP1 LOG1 JUMPDEST JUMP JUMPDEST PUSH1 0x80 MLOAD PUSH2 0x1354 PUSH2 0x112 PUSH0 CODECOPY PUSH0 DUP2 DUP2 PUSH2 0x300 ADD MSTORE DUP2 DUP2 PUSH2 0x349 ADD MSTORE DUP2 DUP2 PUSH2 0x3D0 ADD MSTORE DUP2 DUP2 PUSH2 0x410 ADD MSTORE PUSH2 0x48B ADD MSTORE PUSH2 0x1354 PUSH0 RETURN INVALID PUSH1 0x80 PUSH1 0x40 MSTORE PUSH1 0x4 CALLDATASIZE LT PUSH2 0xCD JUMPI PUSH0 CALLDATALOAD PUSH1 0xE0 SHR DUP1 PUSH4 0x210835AE EQ PUSH2 0xD1 JUMPI DUP1 PUSH4 0x2F48AB7D EQ PUSH2 0xF2 JUMPI DUP1 PUSH4 0x3659CFE6 EQ PUSH2 0x12E JUMPI DUP1 PUSH4 0x36E0CAC6 EQ PUSH2 0x14D JUMPI DUP1 PUSH4 0x4B21DDEC EQ PUSH2 0x170 JUMPI DUP1 PUSH4 0x4F1EF286 EQ PUSH2 0x18F JUMPI DUP1 PUSH4 0x52D1902D EQ PUSH2 0x1A2 JUMPI DUP1 PUSH4 0x698518E5 EQ PUSH2 0x1B6 JUMPI DUP1 PUSH4 0x715018A6 EQ PUSH2 0x1CB JUMPI DUP1 PUSH4 0x8DA5CB5B EQ PUSH2 0x1DF JUMPI DUP1 PUSH4 0xB2CF085E EQ PUSH2 0x1F3 JUMPI DUP1 PUSH4 0xC4D66DE8 EQ PUSH2 0x212 JUMPI DUP1 PUSH4 0xD0675BFD EQ PUSH2 0x231 JUMPI DUP1 PUSH4 0xDBA64F8F EQ PUSH2 0x250 JUMPI DUP1 PUSH4 0xDBE55E56 EQ PUSH2 0x26F JUMPI DUP1 PUSH4 0xF2FDE38B EQ PUSH2 0x28E JUMPI DUP1 PUSH4 0xF97FE091 EQ PUSH2 0x2AD JUMPI JUMPDEST PUSH0 DUP1 REVERT JUMPDEST CALLVALUE DUP1 ISZERO PUSH2 0xDC JUMPI PUSH0 DUP1 REVERT JUMPDEST POP PUSH2 0xF0 PUSH2 0xEB CALLDATASIZE PUSH1 0x4 PUSH2 0xFD1 JUMP JUMPDEST PUSH2 0x2CC JUMP JUMPDEST STOP JUMPDEST CALLVALUE DUP1 ISZERO PUSH2 0xFD JUMPI PUSH0 DUP1 REVERT JUMPDEST POP PUSH1 0xC9 SLOAD PUSH2 0x111 SWAP1 PUSH1 0x1 PUSH1 0x1 PUSH1 0xA0 SHL SUB AND DUP2 JUMP JUMPDEST PUSH1 0x40 MLOAD PUSH1 0x1 PUSH1 0x1 PUSH1 0xA0 SHL SUB SWAP1 SWAP2 AND DUP2 MSTORE PUSH1 0x20 ADD JUMPDEST PUSH1 0x40 MLOAD DUP1 SWAP2 SUB SWAP1 RETURN JUMPDEST CALLVALUE DUP1 ISZERO PUSH2 0x139 JUMPI PUSH0 DUP1 REVERT JUMPDEST POP PUSH2 0xF0 PUSH2 0x148 CALLDATASIZE PUSH1 0x4 PUSH2 0xFD1 JUMP JUMPDEST PUSH2 0x2F6 JUMP JUMPDEST CALLVALUE DUP1 ISZERO PUSH2 0x158 JUMPI PUSH0 DUP1 REVERT JUMPDEST POP PUSH2 0x162 PUSH1 0xCF SLOAD DUP2 JUMP JUMPDEST PUSH1 0x40 MLOAD SWAP1 DUP2 MSTORE PUSH1 0x20 ADD PUSH2 0x125 JUMP JUMPDEST CALLVALUE DUP1 ISZERO PUSH2 0x17B JUMPI PUSH0 DUP1 REVERT JUMPDEST POP PUSH1 0xCD SLOAD PUSH2 0x111 SWAP1 PUSH1 0x1 PUSH1 0x1 PUSH1 0xA0 SHL SUB AND DUP2 JUMP JUMPDEST PUSH2 0xF0 PUSH2 0x19D CALLDATASIZE PUSH1 0x4 PUSH2 0x1000 JUMP JUMPDEST PUSH2 0x3C6 JUMP JUMPDEST CALLVALUE DUP1 ISZERO PUSH2 0x1AD JUMPI PUSH0 DUP1 REVERT JUMPDEST POP PUSH2 0x162 PUSH2 0x47F JUMP JUMPDEST CALLVALUE DUP1 ISZERO PUSH2 0x1C1 JUMPI PUSH0 DUP1 REVERT JUMPDEST POP PUSH2 0x162 PUSH1 0xD0 SLOAD DUP2 JUMP JUMPDEST CALLVALUE DUP1 ISZERO PUSH2 0x1D6 JUMPI PUSH0 DUP1 REVERT JUMPDEST POP PUSH2 0xF0 PUSH2 0x52B JUMP JUMPDEST CALLVALUE DUP1 ISZERO PUSH2 0x1EA JUMPI PUSH0 DUP1 REVERT JUMPDEST POP PUSH2 0x111 PUSH2 0x53E JUMP JUMPDEST CALLVALUE DUP1 ISZERO PUSH2 0x1FE JUMPI PUSH0 DUP1 REVERT JUMPDEST POP PUSH1 0xCB SLOAD PUSH2 0x111 SWAP1 PUSH1 0x1 PUSH1 0x1 PUSH1 0xA0 SHL SUB AND DUP2 JUMP JUMPDEST CALLVALUE DUP1 ISZERO PUSH2 0x21D JUMPI PUSH0 DUP1 REVERT JUMPDEST POP PUSH2 0xF0 PUSH2 0x22C CALLDATASIZE PUSH1 0x4 PUSH2 0xFD1 JUMP JUMPDEST PUSH2 0x54D JUMP JUMPDEST CALLVALUE DUP1 ISZERO PUSH2 0x23C JUMPI PUSH0 DUP1 REVERT JUMPDEST POP PUSH2 0xF0 PUSH2 0x24B CALLDATASIZE PUSH1 0x4 PUSH2 0x10BD JUMP JUMPDEST PUSH2 0x682 JUMP JUMPDEST CALLVALUE DUP1 ISZERO PUSH2 0x25B JUMPI PUSH0 DUP1 REVERT JUMPDEST POP PUSH1 0xCC SLOAD PUSH2 0x111 SWAP1 PUSH1 0x1 PUSH1 0x1 PUSH1 0xA0 SHL SUB AND DUP2 JUMP JUMPDEST CALLVALUE DUP1 ISZERO PUSH2 0x27A JUMPI PUSH0 DUP1 REVERT JUMPDEST POP PUSH1 0xCA SLOAD PUSH2 0x111 SWAP1 PUSH1 0x1 PUSH1 0x1 PUSH1 0xA0 SHL SUB AND DUP2 JUMP JUMPDEST CALLVALUE DUP1 ISZERO PUSH2 0x299 JUMPI PUSH0 DUP1 REVERT JUMPDEST POP PUSH2 0xF0 PUSH2 0x2A8 CALLDATASIZE PUSH1 0x4 PUSH2 0xFD1 JUMP JUMPDEST PUSH2 0xA3C JUMP JUMPDEST CALLVALUE DUP1 ISZERO PUSH2 0x2B8 JUMPI PUSH0 DUP1 REVERT JUMPDEST POP PUSH1 0xCE SLOAD PUSH2 0x111 SWAP1 PUSH1 0x1 PUSH1 0x1 PUSH1 0xA0 SHL SUB AND DUP2 JUMP JUMPDEST PUSH2 0x2D4 PUSH2 0xAB2 JUMP JUMPDEST PUSH1 0xCC DUP1 SLOAD PUSH1 0x1 PUSH1 0x1 PUSH1 0xA0 SHL SUB NOT AND PUSH1 0x1 PUSH1 0x1 PUSH1 0xA0 SHL SUB SWAP3 SWAP1 SWAP3 AND SWAP2 SWAP1 SWAP2 OR SWAP1 SSTORE JUMP JUMPDEST PUSH1 0x1 PUSH1 0x1 PUSH1 0xA0 SHL SUB PUSH32 0x0 AND ADDRESS SUB PUSH2 0x347 JUMPI PUSH1 0x40 MLOAD PUSH3 0x461BCD PUSH1 0xE5 SHL DUP2 MSTORE PUSH1 0x4 ADD PUSH2 0x33E SWAP1 PUSH2 0x10D4 JUMP JUMPDEST PUSH1 0x40 MLOAD DUP1 SWAP2 SUB SWAP1 REVERT JUMPDEST PUSH32 0x0 PUSH1 0x1 PUSH1 0x1 PUSH1 0xA0 SHL SUB AND PUSH2 0x379 PUSH2 0xB11 JUMP JUMPDEST PUSH1 0x1 PUSH1 0x1 PUSH1 0xA0 SHL SUB AND EQ PUSH2 0x39F JUMPI PUSH1 0x40 MLOAD PUSH3 0x461BCD PUSH1 0xE5 SHL DUP2 MSTORE PUSH1 0x4 ADD PUSH2 0x33E SWAP1 PUSH2 0x110D JUMP JUMPDEST PUSH2 0x3A8 DUP2 PUSH2 0xB2C JUMP JUMPDEST PUSH1 0x40 DUP1 MLOAD PUSH0 DUP1 DUP3 MSTORE PUSH1 0x20 DUP3 ADD SWAP1 SWAP3 MSTORE PUSH2 0x3C3 SWAP2 DUP4 SWAP2 SWAP1 PUSH2 0xB34 JUMP JUMPDEST POP JUMP JUMPDEST PUSH1 0x1 PUSH1 0x1 PUSH1 0xA0 SHL SUB PUSH32 0x0 AND ADDRESS SUB PUSH2 0x40E JUMPI PUSH1 0x40 MLOAD PUSH3 0x461BCD PUSH1 0xE5 SHL DUP2 MSTORE PUSH1 0x4 ADD PUSH2 0x33E SWAP1 PUSH2 0x10D4 JUMP JUMPDEST PUSH32 0x0 PUSH1 0x1 PUSH1 0x1 PUSH1 0xA0 SHL SUB AND PUSH2 0x440 PUSH2 0xB11 JUMP JUMPDEST PUSH1 0x1 PUSH1 0x1 PUSH1 0xA0 SHL SUB AND EQ PUSH2 0x466 JUMPI PUSH1 0x40 MLOAD PUSH3 0x461BCD PUSH1 0xE5 SHL DUP2 MSTORE PUSH1 0x4 ADD PUSH2 0x33E SWAP1 PUSH2 0x110D JUMP JUMPDEST PUSH2 0x46F DUP3 PUSH2 0xB2C JUMP JUMPDEST PUSH2 0x47B DUP3 DUP3 PUSH1 0x1 PUSH2 0xB34 JUMP JUMPDEST POP POP JUMP JUMPDEST PUSH0 ADDRESS PUSH1 0x1 PUSH1 0x1 PUSH1 0xA0 SHL SUB PUSH32 0x0 AND EQ PUSH2 0x519 JUMPI PUSH1 0x40 MLOAD PUSH3 0x461BCD PUSH1 0xE5 SHL DUP2 MSTORE PUSH1 0x20 PUSH1 0x4 DUP3 ADD MSTORE PUSH1 0x38 PUSH1 0x24 DUP3 ADD MSTORE PUSH32 0x555550535570677261646561626C653A206D757374206E6F742062652063616C PUSH1 0x44 DUP3 ADD MSTORE PUSH24 0x1B1959081D1A1C9BDD59DA0819195B1959D85D1958D85B1B PUSH1 0x42 SHL PUSH1 0x64 DUP3 ADD MSTORE PUSH1 0x84 ADD PUSH2 0x33E JUMP JUMPDEST POP PUSH0 DUP1 MLOAD PUSH1 0x20 PUSH2 0x12D8 DUP4 CODECOPY DUP2 MLOAD SWAP2 MSTORE SWAP1 JUMP JUMPDEST PUSH2 0x533 PUSH2 0xAB2 JUMP JUMPDEST PUSH2 0x53C PUSH0 PUSH2 0xC9E JUMP JUMPDEST JUMP JUMPDEST PUSH1 0x33 SLOAD PUSH1 0x1 PUSH1 0x1 PUSH1 0xA0 SHL SUB AND SWAP1 JUMP JUMPDEST PUSH0 SLOAD PUSH2 0x100 SWAP1 DIV PUSH1 0xFF AND ISZERO DUP1 DUP1 ISZERO PUSH2 0x56B JUMPI POP PUSH0 SLOAD PUSH1 0x1 PUSH1 0xFF SWAP1 SWAP2 AND LT JUMPDEST DUP1 PUSH2 0x58B JUMPI POP PUSH2 0x57A ADDRESS PUSH2 0xCEF JUMP JUMPDEST ISZERO DUP1 ISZERO PUSH2 0x58B JUMPI POP PUSH0 SLOAD PUSH1 0xFF AND PUSH1 0x1 EQ JUMPDEST PUSH2 0x5EE JUMPI PUSH1 0x40 MLOAD PUSH3 0x461BCD PUSH1 0xE5 SHL DUP2 MSTORE PUSH1 0x20 PUSH1 0x4 DUP3 ADD MSTORE PUSH1 0x2E PUSH1 0x24 DUP3 ADD MSTORE PUSH32 0x496E697469616C697A61626C653A20636F6E747261637420697320616C726561 PUSH1 0x44 DUP3 ADD MSTORE PUSH14 0x191E481A5B9A5D1A585B1A5E9959 PUSH1 0x92 SHL PUSH1 0x64 DUP3 ADD MSTORE PUSH1 0x84 ADD PUSH2 0x33E JUMP JUMPDEST PUSH0 DUP1 SLOAD PUSH1 0xFF NOT AND PUSH1 0x1 OR SWAP1 SSTORE DUP1 ISZERO PUSH2 0x60F JUMPI PUSH0 DUP1 SLOAD PUSH2 0xFF00 NOT AND PUSH2 0x100 OR SWAP1 SSTORE JUMPDEST PUSH2 0x617 PUSH2 0xCFE JUMP JUMPDEST PUSH2 0x61F PUSH2 0xD2C JUMP JUMPDEST PUSH1 0xCC DUP1 SLOAD PUSH1 0x1 PUSH1 0x1 PUSH1 0xA0 SHL SUB NOT AND PUSH1 0x1 PUSH1 0x1 PUSH1 0xA0 SHL SUB DUP5 AND OR SWAP1 SSTORE DUP1 ISZERO PUSH2 0x47B JUMPI PUSH0 DUP1 SLOAD PUSH2 0xFF00 NOT AND SWAP1 SSTORE PUSH1 0x40 MLOAD PUSH1 0x1 DUP2 MSTORE PUSH32 0x7F26B83FF96E1F2B6A682F133852F6798A09C465DA95921460CEFB3847402498 SWAP1 PUSH1 0x20 ADD PUSH1 0x40 MLOAD DUP1 SWAP2 SUB SWAP1 LOG1 POP POP JUMP JUMPDEST PUSH1 0xCC SLOAD PUSH1 0x40 DUP1 MLOAD PUSH4 0x2F48AB7D PUSH1 0xE0 SHL DUP2 MSTORE SWAP1 MLOAD PUSH0 SWAP3 PUSH1 0x1 PUSH1 0x1 PUSH1 0xA0 SHL SUB AND SWAP2 PUSH4 0x2F48AB7D SWAP2 PUSH1 0x4 DUP1 DUP4 ADD SWAP3 PUSH1 0x20 SWAP3 SWAP2 SWAP1 DUP3 SWAP1 SUB ADD DUP2 DUP7 GAS STATICCALL ISZERO DUP1 ISZERO PUSH2 0x6C9 JUMPI RETURNDATASIZE PUSH0 DUP1 RETURNDATACOPY RETURNDATASIZE PUSH0 REVERT JUMPDEST POP POP POP POP PUSH1 0x40 MLOAD RETURNDATASIZE PUSH1 0x1F NOT PUSH1 0x1F DUP3 ADD AND DUP3 ADD DUP1 PUSH1 0x40 MSTORE POP DUP2 ADD SWAP1 PUSH2 0x6ED SWAP2 SWAP1 PUSH2 0x1146 JUMP JUMPDEST PUSH1 0x1 PUSH1 0x1 PUSH1 0xA0 SHL SUB AND PUSH4 0x23B872DD CALLER PUSH1 0xCC PUSH0 SWAP1 SLOAD SWAP1 PUSH2 0x100 EXP SWAP1 DIV PUSH1 0x1 PUSH1 0x1 PUSH1 0xA0 SHL SUB AND PUSH1 0x1 PUSH1 0x1 PUSH1 0xA0 SHL SUB AND PUSH4 0x4B21DDEC PUSH1 0x40 MLOAD DUP2 PUSH4 0xFFFFFFFF AND PUSH1 0xE0 SHL DUP2 MSTORE PUSH1 0x4 ADD PUSH1 0x20 PUSH1 0x40 MLOAD DUP1 DUP4 SUB DUP2 DUP7 GAS STATICCALL ISZERO DUP1 ISZERO PUSH2 0x74C JUMPI RETURNDATASIZE PUSH0 DUP1 RETURNDATACOPY RETURNDATASIZE PUSH0 REVERT JUMPDEST POP POP POP POP PUSH1 0x40 MLOAD RETURNDATASIZE PUSH1 0x1F NOT PUSH1 0x1F DUP3 ADD AND DUP3 ADD DUP1 PUSH1 0x40 MSTORE POP DUP2 ADD SWAP1 PUSH2 0x770 SWAP2 SWAP1 PUSH2 0x1146 JUMP JUMPDEST PUSH1 0xCC SLOAD PUSH1 0x40 DUP1 MLOAD PUSH4 0x698518E5 PUSH1 0xE0 SHL DUP2 MSTORE SWAP1 MLOAD PUSH2 0x3E8 SWAP3 PUSH1 0x1 PUSH1 0x1 PUSH1 0xA0 SHL SUB AND SWAP2 PUSH4 0x698518E5 SWAP2 PUSH1 0x4 DUP1 DUP4 ADD SWAP3 PUSH1 0x20 SWAP3 SWAP2 SWAP1 DUP3 SWAP1 SUB ADD DUP2 DUP7 GAS STATICCALL ISZERO DUP1 ISZERO PUSH2 0x7B9 JUMPI RETURNDATASIZE PUSH0 DUP1 RETURNDATACOPY RETURNDATASIZE PUSH0 REVERT JUMPDEST POP POP POP POP PUSH1 0x40 MLOAD RETURNDATASIZE PUSH1 0x1F NOT PUSH1 0x1F DUP3 ADD AND DUP3 ADD DUP1 PUSH1 0x40 MSTORE POP DUP2 ADD SWAP1 PUSH2 0x7DD SWAP2 SWAP1 PUSH2 0x1161 JUMP JUMPDEST PUSH2 0x7E7 SWAP1 DUP9 PUSH2 0x1178 JUMP JUMPDEST PUSH2 0x7F1 SWAP2 SWAP1 PUSH2 0x119B JUMP JUMPDEST PUSH1 0x40 MLOAD DUP5 PUSH4 0xFFFFFFFF AND PUSH1 0xE0 SHL DUP2 MSTORE PUSH1 0x4 ADD PUSH2 0x80F SWAP4 SWAP3 SWAP2 SWAP1 PUSH2 0x11BA JUMP JUMPDEST PUSH1 0x20 PUSH1 0x40 MLOAD DUP1 DUP4 SUB DUP2 PUSH0 DUP8 GAS CALL ISZERO DUP1 ISZERO PUSH2 0x82B JUMPI RETURNDATASIZE PUSH0 DUP1 RETURNDATACOPY RETURNDATASIZE PUSH0 REVERT JUMPDEST POP POP POP POP PUSH1 0x40 MLOAD RETURNDATASIZE PUSH1 0x1F NOT PUSH1 0x1F DUP3 ADD AND DUP3 ADD DUP1 PUSH1 0x40 MSTORE POP DUP2 ADD SWAP1 PUSH2 0x84F SWAP2 SWAP1 PUSH2 0x11DE JUMP JUMPDEST SWAP1 POP DUP1 ISZERO PUSH2 0x47B JUMPI PUSH1 0xCC PUSH0 SWAP1 SLOAD SWAP1 PUSH2 0x100 EXP SWAP1 DIV PUSH1 0x1 PUSH1 0x1 PUSH1 0xA0 SHL SUB AND PUSH1 0x1 PUSH1 0x1 PUSH1 0xA0 SHL SUB AND PUSH4 0x8F05CDF5 PUSH1 0x40 MLOAD DUP2 PUSH4 0xFFFFFFFF AND PUSH1 0xE0 SHL DUP2 MSTORE PUSH1 0x4 ADD PUSH1 0x20 PUSH1 0x40 MLOAD DUP1 DUP4 SUB DUP2 DUP7 GAS STATICCALL ISZERO DUP1 ISZERO PUSH2 0x8A7 JUMPI RETURNDATASIZE PUSH0 DUP1 RETURNDATACOPY RETURNDATASIZE PUSH0 REVERT JUMPDEST POP POP POP POP PUSH1 0x40 MLOAD RETURNDATASIZE PUSH1 0x1F NOT PUSH1 0x1F DUP3 ADD AND DUP3 ADD DUP1 PUSH1 0x40 MSTORE POP DUP2 ADD SWAP1 PUSH2 0x8CB SWAP2 SWAP1 PUSH2 0x1146 JUMP JUMPDEST PUSH1 0x1 PUSH1 0x1 PUSH1 0xA0 SHL SUB AND PUSH4 0x23B872DD PUSH1 0xCC PUSH0 SWAP1 SLOAD SWAP1 PUSH2 0x100 EXP SWAP1 DIV PUSH1 0x1 PUSH1 0x1 PUSH1 0xA0 SHL SUB AND PUSH1 0x1 PUSH1 0x1 PUSH1 0xA0 SHL SUB AND PUSH4 0xF97FE091 PUSH1 0x40 MLOAD DUP2 PUSH4 0xFFFFFFFF AND PUSH1 0xE0 SHL DUP2 MSTORE PUSH1 0x4 ADD PUSH1 0x20 PUSH1 0x40 MLOAD DUP1 DUP4 SUB DUP2 DUP7 GAS STATICCALL ISZERO DUP1 ISZERO PUSH2 0x929 JUMPI RETURNDATASIZE PUSH0 DUP1 RETURNDATACOPY RETURNDATASIZE PUSH0 REVERT JUMPDEST POP POP POP POP PUSH1 0x40 MLOAD RETURNDATASIZE PUSH1 0x1F NOT PUSH1 0x1F DUP3 ADD AND DUP3 ADD DUP1 PUSH1 0x40 MSTORE POP DUP2 ADD SWAP1 PUSH2 0x94D SWAP2 SWAP1 PUSH2 0x1146 JUMP JUMPDEST CALLER PUSH2 0x3E8 PUSH1 0xCC PUSH0 SWAP1 SLOAD SWAP1 PUSH2 0x100 EXP SWAP1 DIV PUSH1 0x1 PUSH1 0x1 PUSH1 0xA0 SHL SUB AND PUSH1 0x1 PUSH1 0x1 PUSH1 0xA0 SHL SUB AND PUSH4 0x698518E5 PUSH1 0x40 MLOAD DUP2 PUSH4 0xFFFFFFFF AND PUSH1 0xE0 SHL DUP2 MSTORE PUSH1 0x4 ADD PUSH1 0x20 PUSH1 0x40 MLOAD DUP1 DUP4 SUB DUP2 DUP7 GAS STATICCALL ISZERO DUP1 ISZERO PUSH2 0x9A1 JUMPI RETURNDATASIZE PUSH0 DUP1 RETURNDATACOPY RETURNDATASIZE PUSH0 REVERT JUMPDEST POP POP POP POP PUSH1 0x40 MLOAD RETURNDATASIZE PUSH1 0x1F NOT PUSH1 0x1F DUP3 ADD AND DUP3 ADD DUP1 PUSH1 0x40 MSTORE POP DUP2 ADD SWAP1 PUSH2 0x9C5 SWAP2 SWAP1 PUSH2 0x1161 JUMP JUMPDEST PUSH2 0x9CF SWAP1 DUP9 PUSH2 0x1178 JUMP JUMPDEST PUSH2 0x9D9 SWAP2 SWAP1 PUSH2 0x119B JUMP JUMPDEST PUSH1 0x40 MLOAD DUP5 PUSH4 0xFFFFFFFF AND PUSH1 0xE0 SHL DUP2 MSTORE PUSH1 0x4 ADD PUSH2 0x9F7 SWAP4 SWAP3 SWAP2 SWAP1 PUSH2 0x11BA JUMP JUMPDEST PUSH1 0x20 PUSH1 0x40 MLOAD DUP1 DUP4 SUB DUP2 PUSH0 DUP8 GAS CALL ISZERO DUP1 ISZERO PUSH2 0xA13 JUMPI RETURNDATASIZE PUSH0 DUP1 RETURNDATACOPY RETURNDATASIZE PUSH0 REVERT JUMPDEST POP POP POP POP PUSH1 0x40 MLOAD RETURNDATASIZE PUSH1 0x1F NOT PUSH1 0x1F DUP3 ADD AND DUP3 ADD DUP1 PUSH1 0x40 MSTORE POP DUP2 ADD SWAP1 PUSH2 0xA37 SWAP2 SWAP1 PUSH2 0x11DE JUMP JUMPDEST POP POP POP JUMP JUMPDEST PUSH2 0xA44 PUSH2 0xAB2 JUMP JUMPDEST PUSH1 0x1 PUSH1 0x1 PUSH1 0xA0 SHL SUB DUP2 AND PUSH2 0xAA9 JUMPI PUSH1 0x40 MLOAD PUSH3 0x461BCD PUSH1 0xE5 SHL DUP2 MSTORE PUSH1 0x20 PUSH1 0x4 DUP3 ADD MSTORE PUSH1 0x26 PUSH1 0x24 DUP3 ADD MSTORE PUSH32 0x4F776E61626C653A206E6577206F776E657220697320746865207A65726F2061 PUSH1 0x44 DUP3 ADD MSTORE PUSH6 0x646472657373 PUSH1 0xD0 SHL PUSH1 0x64 DUP3 ADD MSTORE PUSH1 0x84 ADD PUSH2 0x33E JUMP JUMPDEST PUSH2 0x3C3 DUP2 PUSH2 0xC9E JUMP JUMPDEST CALLER PUSH2 0xABB PUSH2 0x53E JUMP JUMPDEST PUSH1 0x1 PUSH1 0x1 PUSH1 0xA0 SHL SUB AND EQ PUSH2 0x53C JUMPI PUSH1 0x40 MLOAD PUSH3 0x461BCD PUSH1 0xE5 SHL DUP2 MSTORE PUSH1 0x20 PUSH1 0x4 DUP3 ADD DUP2 SWAP1 MSTORE PUSH1 0x24 DUP3 ADD MSTORE PUSH32 0x4F776E61626C653A2063616C6C6572206973206E6F7420746865206F776E6572 PUSH1 0x44 DUP3 ADD MSTORE PUSH1 0x64 ADD PUSH2 0x33E JUMP JUMPDEST PUSH0 DUP1 MLOAD PUSH1 0x20 PUSH2 0x12D8 DUP4 CODECOPY DUP2 MLOAD SWAP2 MSTORE SLOAD PUSH1 0x1 PUSH1 0x1 PUSH1 0xA0 SHL SUB AND SWAP1 JUMP JUMPDEST PUSH2 0x3C3 PUSH2 0xAB2 JUMP JUMPDEST PUSH32 0x4910FDFA16FED3260ED0E7147F7CC6DA11A60208B5B9406D12A635614FFD9143 SLOAD PUSH1 0xFF AND ISZERO PUSH2 0xB67 JUMPI PUSH2 0xA37 DUP4 PUSH2 0xD52 JUMP JUMPDEST DUP3 PUSH1 0x1 PUSH1 0x1 PUSH1 0xA0 SHL SUB AND PUSH4 0x52D1902D PUSH1 0x40 MLOAD DUP2 PUSH4 0xFFFFFFFF AND PUSH1 0xE0 SHL DUP2 MSTORE PUSH1 0x4 ADD PUSH1 0x20 PUSH1 0x40 MLOAD DUP1 DUP4 SUB DUP2 DUP7 GAS STATICCALL SWAP3 POP POP POP DUP1 ISZERO PUSH2 0xBC1 JUMPI POP PUSH1 0x40 DUP1 MLOAD PUSH1 0x1F RETURNDATASIZE SWAP1 DUP2 ADD PUSH1 0x1F NOT AND DUP3 ADD SWAP1 SWAP3 MSTORE PUSH2 0xBBE SWAP2 DUP2 ADD SWAP1 PUSH2 0x1161 JUMP JUMPDEST PUSH1 0x1 JUMPDEST PUSH2 0xC24 JUMPI PUSH1 0x40 MLOAD PUSH3 0x461BCD PUSH1 0xE5 SHL DUP2 MSTORE PUSH1 0x20 PUSH1 0x4 DUP3 ADD MSTORE PUSH1 0x2E PUSH1 0x24 DUP3 ADD MSTORE PUSH32 0x45524331393637557067726164653A206E657720696D706C656D656E74617469 PUSH1 0x44 DUP3 ADD MSTORE PUSH14 0x6F6E206973206E6F742055555053 PUSH1 0x90 SHL PUSH1 0x64 DUP3 ADD MSTORE PUSH1 0x84 ADD PUSH2 0x33E JUMP JUMPDEST PUSH0 DUP1 MLOAD PUSH1 0x20 PUSH2 0x12D8 DUP4 CODECOPY DUP2 MLOAD SWAP2 MSTORE DUP2 EQ PUSH2 0xC92 JUMPI PUSH1 0x40 MLOAD PUSH3 0x461BCD PUSH1 0xE5 SHL DUP2 MSTORE PUSH1 0x20 PUSH1 0x4 DUP3 ADD MSTORE PUSH1 0x29 PUSH1 0x24 DUP3 ADD MSTORE PUSH32 0x45524331393637557067726164653A20756E737570706F727465642070726F78 PUSH1 0x44 DUP3 ADD MSTORE PUSH9 0x1A58589B1955555251 PUSH1 0xBA SHL PUSH1 0x64 DUP3 ADD MSTORE PUSH1 0x84 ADD PUSH2 0x33E JUMP JUMPDEST POP PUSH2 0xA37 DUP4 DUP4 DUP4 PUSH2 0xDEB JUMP JUMPDEST PUSH1 0x33 DUP1 SLOAD PUSH1 0x1 PUSH1 0x1 PUSH1 0xA0 SHL SUB DUP4 DUP2 AND PUSH1 0x1 PUSH1 0x1 PUSH1 0xA0 SHL SUB NOT DUP4 AND DUP2 OR SWAP1 SWAP4 SSTORE PUSH1 0x40 MLOAD SWAP2 AND SWAP2 SWAP1 DUP3 SWAP1 PUSH32 0x8BE0079C531659141344CD1FD0A4F28419497F9722A3DAAFE3B4186F6B6457E0 SWAP1 PUSH0 SWAP1 LOG3 POP POP JUMP JUMPDEST PUSH1 0x1 PUSH1 0x1 PUSH1 0xA0 SHL SUB AND EXTCODESIZE ISZERO ISZERO SWAP1 JUMP JUMPDEST PUSH0 SLOAD PUSH2 0x100 SWAP1 DIV PUSH1 0xFF AND PUSH2 0xD24 JUMPI PUSH1 0x40 MLOAD PUSH3 0x461BCD PUSH1 0xE5 SHL DUP2 MSTORE PUSH1 0x4 ADD PUSH2 0x33E SWAP1 PUSH2 0x11FD JUMP JUMPDEST PUSH2 0x53C PUSH2 0xE15 JUMP JUMPDEST PUSH0 SLOAD PUSH2 0x100 SWAP1 DIV PUSH1 0xFF AND PUSH2 0x53C JUMPI PUSH1 0x40 MLOAD PUSH3 0x461BCD PUSH1 0xE5 SHL DUP2 MSTORE PUSH1 0x4 ADD PUSH2 0x33E SWAP1 PUSH2 0x11FD JUMP JUMPDEST PUSH2 0xD5B DUP2 PUSH2 0xCEF JUMP JUMPDEST PUSH2 0xDBD JUMPI PUSH1 0x40 MLOAD PUSH3 0x461BCD PUSH1 0xE5 SHL DUP2 MSTORE PUSH1 0x20 PUSH1 0x4 DUP3 ADD MSTORE PUSH1 0x2D PUSH1 0x24 DUP3 ADD MSTORE PUSH32 0x455243313936373A206E657720696D706C656D656E746174696F6E206973206E PUSH1 0x44 DUP3 ADD MSTORE PUSH13 0x1BDD08184818DBDB9D1C9858DD PUSH1 0x9A SHL PUSH1 0x64 DUP3 ADD MSTORE PUSH1 0x84 ADD PUSH2 0x33E JUMP JUMPDEST PUSH0 DUP1 MLOAD PUSH1 0x20 PUSH2 0x12D8 DUP4 CODECOPY DUP2 MLOAD SWAP2 MSTORE DUP1 SLOAD PUSH1 0x1 PUSH1 0x1 PUSH1 0xA0 SHL SUB NOT AND PUSH1 0x1 PUSH1 0x1 PUSH1 0xA0 SHL SUB SWAP3 SWAP1 SWAP3 AND SWAP2 SWAP1 SWAP2 OR SWAP1 SSTORE JUMP JUMPDEST PUSH2 0xDF4 DUP4 PUSH2 0xE44 JUMP JUMPDEST PUSH0 DUP3 MLOAD GT DUP1 PUSH2 0xE00 JUMPI POP DUP1 JUMPDEST ISZERO PUSH2 0xA37 JUMPI PUSH2 0xE0F DUP4 DUP4 PUSH2 0xE83 JUMP JUMPDEST POP POP POP POP JUMP JUMPDEST PUSH0 SLOAD PUSH2 0x100 SWAP1 DIV PUSH1 0xFF AND PUSH2 0xE3B JUMPI PUSH1 0x40 MLOAD PUSH3 0x461BCD PUSH1 0xE5 SHL DUP2 MSTORE PUSH1 0x4 ADD PUSH2 0x33E SWAP1 PUSH2 0x11FD JUMP JUMPDEST PUSH2 0x53C CALLER PUSH2 0xC9E JUMP JUMPDEST PUSH2 0xE4D DUP2 PUSH2 0xD52 JUMP JUMPDEST PUSH1 0x40 MLOAD PUSH1 0x1 PUSH1 0x1 PUSH1 0xA0 SHL SUB DUP3 AND SWAP1 PUSH32 0xBC7CD75A20EE27FD9ADEBAB32041F755214DBC6BFFA90CC0225B39DA2E5C2D3B SWAP1 PUSH0 SWAP1 LOG2 POP JUMP JUMPDEST PUSH1 0x60 PUSH2 0xE8E DUP4 PUSH2 0xCEF JUMP JUMPDEST PUSH2 0xEE9 JUMPI PUSH1 0x40 MLOAD PUSH3 0x461BCD PUSH1 0xE5 SHL DUP2 MSTORE PUSH1 0x20 PUSH1 0x4 DUP3 ADD MSTORE PUSH1 0x26 PUSH1 0x24 DUP3 ADD MSTORE PUSH32 0x416464726573733A2064656C65676174652063616C6C20746F206E6F6E2D636F PUSH1 0x44 DUP3 ADD MSTORE PUSH6 0x1B9D1C9858DD PUSH1 0xD2 SHL PUSH1 0x64 DUP3 ADD MSTORE PUSH1 0x84 ADD PUSH2 0x33E JUMP JUMPDEST PUSH0 DUP1 DUP5 PUSH1 0x1 PUSH1 0x1 PUSH1 0xA0 SHL SUB AND DUP5 PUSH1 0x40 MLOAD PUSH2 0xF03 SWAP2 SWAP1 PUSH2 0x126A JUMP JUMPDEST PUSH0 PUSH1 0x40 MLOAD DUP1 DUP4 SUB DUP2 DUP6 GAS DELEGATECALL SWAP2 POP POP RETURNDATASIZE DUP1 PUSH0 DUP2 EQ PUSH2 0xF3B JUMPI PUSH1 0x40 MLOAD SWAP2 POP PUSH1 0x1F NOT PUSH1 0x3F RETURNDATASIZE ADD AND DUP3 ADD PUSH1 0x40 MSTORE RETURNDATASIZE DUP3 MSTORE RETURNDATASIZE PUSH0 PUSH1 0x20 DUP5 ADD RETURNDATACOPY PUSH2 0xF40 JUMP JUMPDEST PUSH1 0x60 SWAP2 POP JUMPDEST POP SWAP2 POP SWAP2 POP PUSH2 0xF68 DUP3 DUP3 PUSH1 0x40 MLOAD DUP1 PUSH1 0x60 ADD PUSH1 0x40 MSTORE DUP1 PUSH1 0x27 DUP2 MSTORE PUSH1 0x20 ADD PUSH2 0x12F8 PUSH1 0x27 SWAP2 CODECOPY PUSH2 0xF73 JUMP JUMPDEST SWAP3 POP POP POP JUMPDEST SWAP3 SWAP2 POP POP JUMP JUMPDEST PUSH1 0x60 DUP4 ISZERO PUSH2 0xF82 JUMPI POP DUP2 PUSH2 0xF8C JUMP JUMPDEST PUSH2 0xF8C DUP4 DUP4 PUSH2 0xF93 JUMP JUMPDEST SWAP4 SWAP3 POP POP POP JUMP JUMPDEST DUP2 MLOAD ISZERO PUSH2 0xFA3 JUMPI DUP2 MLOAD DUP1 DUP4 PUSH1 0x20 ADD REVERT JUMPDEST DUP1 PUSH1 0x40 MLOAD PUSH3 0x461BCD PUSH1 0xE5 SHL DUP2 MSTORE PUSH1 0x4 ADD PUSH2 0x33E SWAP2 SWAP1 PUSH2 0x1285 JUMP JUMPDEST PUSH1 0x1 PUSH1 0x1 PUSH1 0xA0 SHL SUB DUP2 AND DUP2 EQ PUSH2 0x3C3 JUMPI PUSH0 DUP1 REVERT JUMPDEST PUSH0 PUSH1 0x20 DUP3 DUP5 SUB SLT ISZERO PUSH2 0xFE1 JUMPI PUSH0 DUP1 REVERT JUMPDEST DUP2 CALLDATALOAD PUSH2 0xF8C DUP2 PUSH2 0xFBD JUMP JUMPDEST PUSH4 0x4E487B71 PUSH1 0xE0 SHL PUSH0 MSTORE PUSH1 0x41 PUSH1 0x4 MSTORE PUSH1 0x24 PUSH0 REVERT JUMPDEST PUSH0 DUP1 PUSH1 0x40 DUP4 DUP6 SUB SLT ISZERO PUSH2 0x1011 JUMPI PUSH0 DUP1 REVERT JUMPDEST DUP3 CALLDATALOAD PUSH2 0x101C DUP2 PUSH2 0xFBD JUMP JUMPDEST SWAP2 POP PUSH1 0x20 DUP4 ADD CALLDATALOAD PUSH1 0x1 PUSH1 0x1 PUSH1 0x40 SHL SUB DUP1 DUP3 GT ISZERO PUSH2 0x1037 JUMPI PUSH0 DUP1 REVERT JUMPDEST DUP2 DUP6 ADD SWAP2 POP DUP6 PUSH1 0x1F DUP4 ADD SLT PUSH2 0x104A JUMPI PUSH0 DUP1 REVERT JUMPDEST DUP2 CALLDATALOAD DUP2 DUP2 GT ISZERO PUSH2 0x105C JUMPI PUSH2 0x105C PUSH2 0xFEC JUMP JUMPDEST PUSH1 0x40 MLOAD PUSH1 0x1F DUP3 ADD PUSH1 0x1F NOT SWAP1 DUP2 AND PUSH1 0x3F ADD AND DUP2 ADD SWAP1 DUP4 DUP3 GT DUP2 DUP4 LT OR ISZERO PUSH2 0x1084 JUMPI PUSH2 0x1084 PUSH2 0xFEC JUMP JUMPDEST DUP2 PUSH1 0x40 MSTORE DUP3 DUP2 MSTORE DUP9 PUSH1 0x20 DUP5 DUP8 ADD ADD GT ISZERO PUSH2 0x109C JUMPI PUSH0 DUP1 REVERT JUMPDEST DUP3 PUSH1 0x20 DUP7 ADD PUSH1 0x20 DUP4 ADD CALLDATACOPY PUSH0 PUSH1 0x20 DUP5 DUP4 ADD ADD MSTORE DUP1 SWAP6 POP POP POP POP POP POP SWAP3 POP SWAP3 SWAP1 POP JUMP JUMPDEST PUSH0 PUSH1 0x20 DUP3 DUP5 SUB SLT ISZERO PUSH2 0x10CD JUMPI PUSH0 DUP1 REVERT JUMPDEST POP CALLDATALOAD SWAP2 SWAP1 POP JUMP JUMPDEST PUSH1 0x20 DUP1 DUP3 MSTORE PUSH1 0x2C SWAP1 DUP3 ADD MSTORE PUSH0 DUP1 MLOAD PUSH1 0x20 PUSH2 0x12B8 DUP4 CODECOPY DUP2 MLOAD SWAP2 MSTORE PUSH1 0x40 DUP3 ADD MSTORE PUSH12 0x19195B1959D85D1958D85B1B PUSH1 0xA2 SHL PUSH1 0x60 DUP3 ADD MSTORE PUSH1 0x80 ADD SWAP1 JUMP JUMPDEST PUSH1 0x20 DUP1 DUP3 MSTORE PUSH1 0x2C SWAP1 DUP3 ADD MSTORE PUSH0 DUP1 MLOAD PUSH1 0x20 PUSH2 0x12B8 DUP4 CODECOPY DUP2 MLOAD SWAP2 MSTORE PUSH1 0x40 DUP3 ADD MSTORE PUSH12 0x6163746976652070726F7879 PUSH1 0xA0 SHL PUSH1 0x60 DUP3 ADD MSTORE PUSH1 0x80 ADD SWAP1 JUMP JUMPDEST PUSH0 PUSH1 0x20 DUP3 DUP5 SUB SLT ISZERO PUSH2 0x1156 JUMPI PUSH0 DUP1 REVERT JUMPDEST DUP2 MLOAD PUSH2 0xF8C DUP2 PUSH2 0xFBD JUMP JUMPDEST PUSH0 PUSH1 0x20 DUP3 DUP5 SUB SLT ISZERO PUSH2 0x1171 JUMPI PUSH0 DUP1 REVERT JUMPDEST POP MLOAD SWAP2 SWAP1 POP JUMP JUMPDEST DUP1 DUP3 MUL DUP2 ISZERO DUP3 DUP3 DIV DUP5 EQ OR PUSH2 0xF6D JUMPI PUSH4 0x4E487B71 PUSH1 0xE0 SHL PUSH0 MSTORE PUSH1 0x11 PUSH1 0x4 MSTORE PUSH1 0x24 PUSH0 REVERT JUMPDEST PUSH0 DUP3 PUSH2 0x11B5 JUMPI PUSH4 0x4E487B71 PUSH1 0xE0 SHL PUSH0 MSTORE PUSH1 0x12 PUSH1 0x4 MSTORE PUSH1 0x24 PUSH0 REVERT JUMPDEST POP DIV SWAP1 JUMP JUMPDEST PUSH1 0x1 PUSH1 0x1 PUSH1 0xA0 SHL SUB SWAP4 DUP5 AND DUP2 MSTORE SWAP2 SWAP1 SWAP3 AND PUSH1 0x20 DUP3 ADD MSTORE PUSH1 0x40 DUP2 ADD SWAP2 SWAP1 SWAP2 MSTORE PUSH1 0x60 ADD SWAP1 JUMP JUMPDEST PUSH0 PUSH1 0x20 DUP3 DUP5 SUB SLT ISZERO PUSH2 0x11EE JUMPI PUSH0 DUP1 REVERT JUMPDEST DUP2 MLOAD DUP1 ISZERO ISZERO DUP2 EQ PUSH2 0xF8C JUMPI PUSH0 DUP1 REVERT JUMPDEST PUSH1 0x20 DUP1 DUP3 MSTORE PUSH1 0x2B SWAP1 DUP3 ADD MSTORE PUSH32 0x496E697469616C697A61626C653A20636F6E7472616374206973206E6F742069 PUSH1 0x40 DUP3 ADD MSTORE PUSH11 0x6E697469616C697A696E67 PUSH1 0xA8 SHL PUSH1 0x60 DUP3 ADD MSTORE PUSH1 0x80 ADD SWAP1 JUMP JUMPDEST PUSH0 JUMPDEST DUP4 DUP2 LT ISZERO PUSH2 0x1262 JUMPI DUP2 DUP2 ADD MLOAD DUP4 DUP3 ADD MSTORE PUSH1 0x20 ADD PUSH2 0x124A JUMP JUMPDEST POP POP PUSH0 SWAP2 ADD MSTORE JUMP JUMPDEST PUSH0 DUP3 MLOAD PUSH2 0x127B DUP2 DUP5 PUSH1 0x20 DUP8 ADD PUSH2 0x1248 JUMP JUMPDEST SWAP2 SWAP1 SWAP2 ADD SWAP3 SWAP2 POP POP JUMP JUMPDEST PUSH1 0x20 DUP2 MSTORE PUSH0 DUP3 MLOAD DUP1 PUSH1 0x20 DUP5 ADD MSTORE PUSH2 0x12A3 DUP2 PUSH1 0x40 DUP6 ADD PUSH1 0x20 DUP8 ADD PUSH2 0x1248 JUMP JUMPDEST PUSH1 0x1F ADD PUSH1 0x1F NOT AND SWAP2 SWAP1 SWAP2 ADD PUSH1 0x40 ADD SWAP3 SWAP2 POP POP JUMP INVALID CHAINID PUSH22 0x6E6374696F6E206D7573742062652063616C6C656420 PUSH21 0x68726F75676820360894A13BA1A3210667C828492D 0xB9 DUP14 0xCA RETURNDATACOPY KECCAK256 PUSH23 0xCC3735A920A3CA505D382BBC416464726573733A206C6F PUSH24 0x2D6C6576656C2064656C65676174652063616C6C20666169 PUSH13 0x6564A2646970667358221220EB 0xB6 SWAP8 EXTCODECOPY DUP8 0xF7 0xD6 0xB9 0xEE 0xEB 0xF9 0xE3 BALANCE CALLDATALOAD 0x1F KECCAK256 0x2B 0xEA 0xCD INVALID LOG1 GASPRICE 0x4F 0x4C 0xC2 0xEC MUL 0x4D PUSH26 0x589C7D64736F6C63430008140033000000000000000000000000 "
				},
				"gasEstimates": {
					"creation": {
						"codeDepositCost": "989600",
						"executionCost": "infinite",
						"totalCost": "infinite"
					},
					"external": {
						"acbConfig()": "2589",
						"changeConfig(address)": "26750",
						"initialize(address)": "infinite",
						"monthDividendAddress()": "2523",
						"owner()": "2510",
						"platformAddress()": "2611",
						"platformRate()": "2338",
						"proxiableUUID()": "infinite",
						"remainingAddress()": "2655",
						"renounceOwnership()": "infinite",
						"swapRate()": "2426",
						"teamRewardAddress()": "2391",
						"transferOwnership(address)": "infinite",
						"upgradeTo(address)": "infinite",
						"upgradeToAndCall(address,bytes)": "infinite",
						"usdt()": "2325",
						"usdtswap(uint256)": "infinite"
					},
					"internal": {
						"_authorizeUpgrade(address)": "infinite"
					}
				},
				"methodIdentifiers": {
					"acbConfig()": "dba64f8f",
					"changeConfig(address)": "210835ae",
					"initialize(address)": "c4d66de8",
					"monthDividendAddress()": "b2cf085e",
					"owner()": "8da5cb5b",
					"platformAddress()": "dbe55e56",
					"platformRate()": "36e0cac6",
					"proxiableUUID()": "52d1902d",
					"remainingAddress()": "f97fe091",
					"renounceOwnership()": "715018a6",
					"swapRate()": "698518e5",
					"teamRewardAddress()": "4b21ddec",
					"transferOwnership(address)": "f2fde38b",
					"upgradeTo(address)": "3659cfe6",
					"upgradeToAndCall(address,bytes)": "4f1ef286",
					"usdt()": "2f48ab7d",
					"usdtswap(uint256)": "d0675bfd"
				}
			},
			"storageLayout": {
				"storage": [
					{
						"astId": 719,
						"contract": "contracts/MVEX.sol:MVEXContract",
						"label": "_initialized",
						"offset": 0,
						"slot": "0",
						"type": "t_uint8"
					},
					{
						"astId": 722,
						"contract": "contracts/MVEX.sol:MVEXContract",
						"label": "_initializing",
						"offset": 1,
						"slot": "0",
						"type": "t_bool"
					},
					{
						"astId": 1420,
						"contract": "contracts/MVEX.sol:MVEXContract",
						"label": "__gap",
						"offset": 0,
						"slot": "1",
						"type": "t_array(t_uint256)50_storage"
					},
					{
						"astId": 195,
						"contract": "contracts/MVEX.sol:MVEXContract",
						"label": "_owner",
						"offset": 0,
						"slot": "51",
						"type": "t_address"
					},
					{
						"astId": 315,
						"contract": "contracts/MVEX.sol:MVEXContract",
						"label": "__gap",
						"offset": 0,
						"slot": "52",
						"type": "t_array(t_uint256)49_storage"
					},
					{
						"astId": 701,
						"contract": "contracts/MVEX.sol:MVEXContract",
						"label": "__gap",
						"offset": 0,
						"slot": "101",
						"type": "t_array(t_uint256)50_storage"
					},
					{
						"astId": 1016,
						"contract": "contracts/MVEX.sol:MVEXContract",
						"label": "__gap",
						"offset": 0,
						"slot": "151",
						"type": "t_array(t_uint256)50_storage"
					},
					{
						"astId": 13,
						"contract": "contracts/MVEX.sol:MVEXContract",
						"label": "usdt",
						"offset": 0,
						"slot": "201",
						"type": "t_address"
					},
					{
						"astId": 15,
						"contract": "contracts/MVEX.sol:MVEXContract",
						"label": "platformAddress",
						"offset": 0,
						"slot": "202",
						"type": "t_address"
					},
					{
						"astId": 17,
						"contract": "contracts/MVEX.sol:MVEXContract",
						"label": "monthDividendAddress",
						"offset": 0,
						"slot": "203",
						"type": "t_address"
					},
					{
						"astId": 19,
						"contract": "contracts/MVEX.sol:MVEXContract",
						"label": "acbConfig",
						"offset": 0,
						"slot": "204",
						"type": "t_address"
					},
					{
						"astId": 21,
						"contract": "contracts/MVEX.sol:MVEXContract",
						"label": "teamRewardAddress",
						"offset": 0,
						"slot": "205",
						"type": "t_address"
					},
					{
						"astId": 23,
						"contract": "contracts/MVEX.sol:MVEXContract",
						"label": "remainingAddress",
						"offset": 0,
						"slot": "206",
						"type": "t_address"
					},
					{
						"astId": 25,
						"contract": "contracts/MVEX.sol:MVEXContract",
						"label": "platformRate",
						"offset": 0,
						"slot": "207",
						"type": "t_uint256"
					},
					{
						"astId": 27,
						"contract": "contracts/MVEX.sol:MVEXContract",
						"label": "swapRate",
						"offset": 0,
						"slot": "208",
						"type": "t_uint256"
					}
				],
				"types": {
					"t_address": {
						"encoding": "inplace",
						"label": "address",
						"numberOfBytes": "20"
					},
					"t_array(t_uint256)49_storage": {
						"base": "t_uint256",
						"encoding": "inplace",
						"label": "uint256[49]",
						"numberOfBytes": "1568"
					},
					"t_array(t_uint256)50_storage": {
						"base": "t_uint256",
						"encoding": "inplace",
						"label": "uint256[50]",
						"numberOfBytes": "1600"
					},
					"t_bool": {
						"encoding": "inplace",
						"label": "bool",
						"numberOfBytes": "1"
					},
					"t_uint256": {
						"encoding": "inplace",
						"label": "uint256",
						"numberOfBytes": "32"
					},
					"t_uint8": {
						"encoding": "inplace",
						"label": "uint8",
						"numberOfBytes": "1"
					}
				}
			},
			"userdoc": {
				"kind": "user",
				"methods": {},
				"version": 1
			}
		}
	}
}