{
	"data": {
		"bytecode": {
			"linkReferences": {},
			"object": "60a060405230608052600060e75534801561001957600080fd5b50608051612c1261005160003960008181610f3401528181610f740152818161119e015281816111de015261125a0152612c126000f3fe6080604052600436106103045760003560e01c8063669934a911610198578063669934a91461073257806366bf8f8314610752578063698518e5146107725780636b1a9c0714610788578063715018a6146107ab57806372765009146107c05780637634b070146107e0578063767608e214610800578063796f838e14610820578063812df3951461084057806385adb29414610860578063863be1ab146108765780638a5705d4146108965780638da5cb5b146108ac5780638e10ef0b146108c15780638f05cdf5146108d757806395623641146108f75780639a3135a814610917578063a03cc2a61461093a578063a40b64d514610950578063b2cf085e14610970578063c4d66de814610990578063cde85744146109b0578063dbe55e56146109d0578063e3d9aa05146109f0578063e9d610e514610a10578063eb2266bc14610a30578063ee787b1114610a50578063f2fde38b14610a66578063f765670414610a86578063f80183b214610aa6578063f97fe09114610ac6578063fe6dcdba14610ae6578063ff85807914610b0e57600080fd5b8063057d77811461030957806306394c9b1461034657806308f93bd8146103685780630b433a1214610388578063182d326e146103ac57806319a2ef5f146103ce5780631e56cfab146103ee5780631e79aa0a1461040e57806321596c2514610430578063254720b714610446578063280e31cc1461048f5780632d8852ee146104bc5780632f48ab7d146104d25780633360364d146104f257806333f5780e1461051257806335aed778146105325780633659cfe61461055257806336e0cac61461057257806339cbc405146105885780633b2c2e551461059e5780633d08e5b3146105be578063434f9736146105d4578063498c1e3c146105ea5780634b0bddd21461060a5780634b21ddec1461062a5780634dd402341461064a5780634f1ef2861461066a5780635250c9b51461067d57806352d1902d1461069d578063570ca735146106b257806357629f82146106d25780635bff9787146106f2578063602e662314610712575b600080fd5b34801561031557600080fd5b506103296103243660046125bf565b610b2e565b6040516001600160a01b0390911681526020015b60405180910390f35b34801561035257600080fd5b506103666103613660046125f4565b610b58565b005b34801561037457600080fd5b506103666103833660046125bf565b610b82565b34801561039457600080fd5b5061039e60e35481565b60405190815260200161033d565b3480156103b857600080fd5b506103c1610be2565b60405161033d9190612653565b3480156103da57600080fd5b506103666103e93660046125bf565b610c76565b3480156103fa57600080fd5b5060d454610329906001600160a01b031681565b34801561041a57600080fd5b50610423610ccd565b60405161033d9190612696565b34801561043c57600080fd5b5061039e60de5481565b34801561045257600080fd5b5061047a6104613660046125bf565b60df602052600090815260409020805460019091015482565b6040805192835260208301919091520161033d565b34801561049b57600080fd5b5061039e6104aa3660046125f4565b60e06020526000908152604090205481565b3480156104c857600080fd5b5061039e60e25481565b3480156104de57600080fd5b5060c954610329906001600160a01b031681565b3480156104fe57600080fd5b5061036661050d3660046125bf565b610dbf565b34801561051e57600080fd5b5061036661052d3660046126a9565b610e16565b34801561053e57600080fd5b5061036661054d3660046125f4565b610eb6565b34801561055e57600080fd5b5061036661056d3660046125f4565b610f2a565b34801561057e57600080fd5b5061039e60d15481565b34801561059457600080fd5b5061039e60dd5481565b3480156105aa57600080fd5b506103666105b9366004612798565b610ff2565b3480156105ca57600080fd5b5061039e60e65481565b3480156105e057600080fd5b5061039e60d85481565b3480156105f657600080fd5b506103666106053660046125bf565b61110a565b34801561061657600080fd5b506103666106253660046127fb565b611161565b34801561063657600080fd5b5060db54610329906001600160a01b031681565b34801561065657600080fd5b5060cc54610329906001600160a01b031681565b610366610678366004612837565b611194565b34801561068957600080fd5b5060ce54610329906001600160a01b031681565b3480156106a957600080fd5b5061039e61124d565b3480156106be57600080fd5b5060e454610329906001600160a01b031681565b3480156106de57600080fd5b506103666106ed3660046126a9565b6112fb565b3480156106fe57600080fd5b5060ca54610329906001600160a01b031681565b34801561071e57600080fd5b5060cd54610329906001600160a01b031681565b34801561073e57600080fd5b5061036661074d3660046125f4565b6113b7565b34801561075e57600080fd5b5061036661076d3660046125bf565b61142b565b34801561077e57600080fd5b5061039e60d25481565b34801561079457600080fd5b5061079d611482565b60405161033d9291906128dc565b3480156107b757600080fd5b506103666115a6565b3480156107cc57600080fd5b506103666107db3660046125bf565b6115ba565b3480156107ec57600080fd5b506103666107fb3660046125bf565b611611565b34801561080c57600080fd5b5061036661081b3660046125bf565b611668565b34801561082c57600080fd5b5061036661083b3660046125bf565b6116bf565b34801561084c57600080fd5b5061036661085b366004612901565b611716565b34801561086c57600080fd5b5061039e60d65481565b34801561088257600080fd5b506103666108913660046125bf565b6117d7565b3480156108a257600080fd5b5061039e60d75481565b3480156108b857600080fd5b5061032961182e565b3480156108cd57600080fd5b5061039e60da5481565b3480156108e357600080fd5b5060cb54610329906001600160a01b031681565b34801561090357600080fd5b5060d554610329906001600160a01b031681565b34801561092357600080fd5b5061092c61183d565b60405161033d929190612975565b34801561094657600080fd5b5061039e60e75481565b34801561095c57600080fd5b5061036661096b3660046125bf565b611905565b34801561097c57600080fd5b5060d054610329906001600160a01b031681565b34801561099c57600080fd5b506103666109ab3660046125f4565b61195c565b3480156109bc57600080fd5b506103666109cb3660046125f4565b611db9565b3480156109dc57600080fd5b5060cf54610329906001600160a01b031681565b3480156109fc57600080fd5b50610366610a0b366004612988565b611e2d565b348015610a1c57600080fd5b5060d354610329906001600160a01b031681565b348015610a3c57600080fd5b50610366610a4b3660046125f4565b611e8a565b348015610a5c57600080fd5b5061039e60d95481565b348015610a7257600080fd5b50610366610a813660046125f4565b611efe565b348015610a9257600080fd5b50610366610aa13660046125f4565b611f74565b348015610ab257600080fd5b50610366610ac13660046125f4565b611fe8565b348015610ad257600080fd5b5060dc54610329906001600160a01b031681565b348015610af257600080fd5b5061032973f51446f195d697ed51235e7b382fc170503e197681565b348015610b1a57600080fd5b50610366610b293660046125f4565b61205c565b60e18181548110610b3e57600080fd5b6000918252602090912001546001600160a01b0316905081565b610b606120d0565b60e480546001600160a01b0319166001600160a01b0392909216919091179055565b33600090815260e5602052604090205460ff1680610bb85750610ba361182e565b6001600160a01b0316336001600160a01b0316145b610bdd5760405162461bcd60e51b8152600401610bd4906129aa565b60405180910390fd5b60d255565b6040805160028082526060808301845292602083019080368337505060db5482519293506001600160a01b031691839150600090610c2257610c226129cd565b6001600160a01b03928316602091820292909201015260dc54825191169082906001908110610c5357610c536129cd565b60200260200101906001600160a01b031690816001600160a01b03168152505090565b33600090815260e5602052604090205460ff1680610cac5750610c9761182e565b6001600160a01b0316336001600160a01b0316145b610cc85760405162461bcd60e51b8152600401610bd4906129aa565b60dd55565b60408051600680825260e082019092526060916020820160c08036833701905050905060d75481600081518110610d0657610d066129cd565b60200260200101818152505060d85481600181518110610d2857610d286129cd565b60200260200101818152505060d95481600281518110610d4a57610d4a6129cd565b60200260200101818152505060da5481600381518110610d6c57610d6c6129cd565b60200260200101818152505060dd5481600481518110610d8e57610d8e6129cd565b60200260200101818152505060de5481600581518110610db057610db06129cd565b60200260200101818152505090565b33600090815260e5602052604090205460ff1680610df55750610de061182e565b6001600160a01b0316336001600160a01b0316145b610e115760405162461bcd60e51b8152600401610bd4906129aa565b60d655565b33600090815260e5602052604090205460ff1680610e4c5750610e3761182e565b6001600160a01b0316336001600160a01b0316145b610e685760405162461bcd60e51b8152600401610bd4906129aa565b6001600160a01b03909116600081815260e0602052604081209290925560e180546001810182559252600080516020612bbd83398151915290910180546001600160a01b0319169091179055565b33600090815260e5602052604090205460ff1680610eec5750610ed761182e565b6001600160a01b0316336001600160a01b0316145b610f085760405162461bcd60e51b8152600401610bd4906129aa565b60d580546001600160a01b0319166001600160a01b0392909216919091179055565b6001600160a01b037f0000000000000000000000000000000000000000000000000000000000000000163003610f725760405162461bcd60e51b8152600401610bd4906129e3565b7f00000000000000000000000000000000000000000000000000000000000000006001600160a01b0316610fa461212f565b6001600160a01b031614610fca5760405162461bcd60e51b8152600401610bd490612a1d565b610fd38161214b565b60408051600080825260208201909252610fef91839190612153565b50565b33600090815260e5602052604090205460ff1680611028575061101361182e565b6001600160a01b0316336001600160a01b0316145b6110445760405162461bcd60e51b8152600401610bd4906129aa565b80518251146110845760405162461bcd60e51b815260206004820152600c60248201526b3632b733ba341032b93937b960a11b6044820152606401610bd4565b60005b82518110156111055760405180604001604052808483815181106110ad576110ad6129cd565b602002602001015181526020018383815181106110cc576110cc6129cd565b602090810291909101810151909152600083815260df825260409020825181559101516001909101556110fe81612a57565b9050611087565b505050565b33600090815260e5602052604090205460ff1680611140575061112b61182e565b6001600160a01b0316336001600160a01b0316145b61115c5760405162461bcd60e51b8152600401610bd4906129aa565b60d955565b6111696120d0565b6001600160a01b0391909116600090815260e560205260409020805460ff1916911515919091179055565b6001600160a01b037f00000000000000000000000000000000000000000000000000000000000000001630036111dc5760405162461bcd60e51b8152600401610bd4906129e3565b7f00000000000000000000000000000000000000000000000000000000000000006001600160a01b031661120e61212f565b6001600160a01b0316146112345760405162461bcd60e51b8152600401610bd490612a1d565b61123d8261214b565b61124982826001612153565b5050565b6000306001600160a01b037f000000000000000000000000000000000000000000000000000000000000000016146112e85760405162461bcd60e51b815260206004820152603860248201527f555550535570677261646561626c653a206d757374206e6f742062652063616c6044820152771b1959081d1a1c9bdd59da0819195b1959d85d1958d85b1b60421b6064820152608401610bd4565b50600080516020612b7683398151915290565b33600090815260e5602052604090205460ff1680611331575061131c61182e565b6001600160a01b0316336001600160a01b0316145b61134d5760405162461bcd60e51b8152600401610bd4906129aa565b60cc54604051632bb14fc160e11b81526001600160a01b03848116600483015260248201849052909116906357629f8290604401600060405180830381600087803b15801561139b57600080fd5b505af11580156113af573d6000803e3d6000fd5b505050505050565b33600090815260e5602052604090205460ff16806113ed57506113d861182e565b6001600160a01b0316336001600160a01b0316145b6114095760405162461bcd60e51b8152600401610bd4906129aa565b60d480546001600160a01b0319166001600160a01b0392909216919091179055565b33600090815260e5602052604090205460ff1680611461575061144c61182e565b6001600160a01b0316336001600160a01b0316145b61147d5760405162461bcd60e51b8152600401610bd4906129aa565b60de55565b60608060e18054806020026020016040519081016040528092919081815260200182805480156114db57602002820191906000526020600020905b81546001600160a01b031681526001909101906020018083116114bd575b5050505050915081516001600160401b038111156114fb576114fb6126d3565b604051908082528060200260200182016040528015611524578160200160208202803683370190505b50905060005b82518110156115a15760e06000848381518110611549576115496129cd565b60200260200101516001600160a01b03166001600160a01b0316815260200190815260200160002054828281518110611584576115846129cd565b60209081029190910101528061159981612a57565b91505061152a565b509091565b6115ae6120d0565b6115b860006122be565b565b33600090815260e5602052604090205460ff16806115f057506115db61182e565b6001600160a01b0316336001600160a01b0316145b61160c5760405162461bcd60e51b8152600401610bd4906129aa565b60d155565b33600090815260e5602052604090205460ff1680611647575061163261182e565b6001600160a01b0316336001600160a01b0316145b6116635760405162461bcd60e51b8152600401610bd4906129aa565b60e255565b33600090815260e5602052604090205460ff168061169e575061168961182e565b6001600160a01b0316336001600160a01b0316145b6116ba5760405162461bcd60e51b8152600401610bd4906129aa565b60e655565b33600090815260e5602052604090205460ff16806116f557506116e061182e565b6001600160a01b0316336001600160a01b0316145b6117115760405162461bcd60e51b8152600401610bd4906129aa565b60e355565b33600090815260e5602052604090205460ff168061174c575061173761182e565b6001600160a01b0316336001600160a01b0316145b6117685760405162461bcd60e51b8152600401610bd4906129aa565b60c980546001600160a01b03199081166001600160a01b039889161790915560cb805482169688169690961790955560ca805486169487169490941790935560cd805485169286169290921790915560cc8054841691851691909117905560ce80549092169216919091179055565b33600090815260e5602052604090205460ff168061180d57506117f861182e565b6001600160a01b0316336001600160a01b0316145b6118295760405162461bcd60e51b8152600401610bd4906129aa565b60da55565b6033546001600160a01b031690565b60408051600480825260a0820190925260609182919060208201608080368337505060408051600480825260a0820190925292945090506020820160808036833701905050905060005b60048110156115a157600081815260df602052604090205483518490839081106118b3576118b36129cd565b60200260200101818152505060df6000828152602001908152602001600020600101548282815181106118e8576118e86129cd565b6020908102919091010152806118fd81612a57565b915050611887565b33600090815260e5602052604090205460ff168061193b575061192661182e565b6001600160a01b0316336001600160a01b0316145b6119575760405162461bcd60e51b8152600401610bd4906129aa565b60e755565b600054610100900460ff161580801561197c5750600054600160ff909116105b8061199d575061198b30612310565b15801561199d575060005460ff166001145b611a005760405162461bcd60e51b815260206004820152602e60248201527f496e697469616c697a61626c653a20636f6e747261637420697320616c72656160448201526d191e481a5b9a5d1a585b1a5e995960921b6064820152608401610bd4565b6000805460ff191660011790558015611a23576000805461ff0019166101001790555b611a2b61231f565b60e480546001600160a01b0384166001600160a01b03199182161790915560cf8054821673df9228fc02f4554cd80af6d036dade242022e4f217905560d080548216734076af4556458cdd0ad25e86ed23b4dc8437dce417905561038460d1556103e860d25560d38054821673fae25f1ae4b758d7c96d7eb075b62af4f3398b8917905560d480548216737fba7858083836d9169eb3be21a48189e1798c8e17905560d580548216732737ac6359664096f22863088246d885f14e6ff29081179091556801158e460913d0000060d65569014542ba12a337c0000060e655609660d755606460d881905560d981905560da5560db80548316909117905560dc8054821673b36f6361dcf31d0d7956e9e826a9915a5ddec272179055603260dd5569043c33c193756480000060de556040805180820182526000808252602080830182815282805260df80835293517f4b917336ba36fefa23b90074e126fe5413f0e3fc800e7ab1da217d9a2807b71155517f4b917336ba36fefa23b90074e126fe5413f0e3fc800e7ab1da217d9a2807b712558351808501855269021e19e0c9bab2400000815260c8818301908152600180855285845291517f55c38c42e971eeb957b61422467f67fa3b212021ac50a6b2b3d5acd9d01cb97d55517f55c38c42e971eeb957b61422467f67fa3b212021ac50a6b2b3d5acd9d01cb97e558451808601865269065a4da25d3016c00000815261015e8184019081526002855285845290517f36d20378f308040d39a8a5e0299048c5eb6a3e2af0aad6fc5cbd63dba6084c7555517f36d20378f308040d39a8a5e0299048c5eb6a3e2af0aad6fc5cbd63dba6084c7655845180860190955269152d02c7e14af680000085526101f4858301908152600380855294835294517f780609eda5e52d7936e75ead8ec77fc018859646a90304d10fb581006956b09e5593517f780609eda5e52d7936e75ead8ec77fc018859646a90304d10fb581006956b09f5560e090527f8c1b51b97da4a7d19a16112b2b5f6595497c2a9fa9d3658419a1a3a06f79af0e9190915560e1805492830181559052600080516020612bbd83398151915201805490911673f51446f195d697ed51235e7b382fc170503e19761790556301e1338060e255603c60e3558015611249576000805461ff0019169055604051600181527f7f26b83ff96e1f2b6a682f133852f6798a09c465da95921460cefb38474024989060200160405180910390a15050565b33600090815260e5602052604090205460ff1680611def5750611dda61182e565b6001600160a01b0316336001600160a01b0316145b611e0b5760405162461bcd60e51b8152600401610bd4906129aa565b60cf80546001600160a01b0319166001600160a01b0392909216919091179055565b33600090815260e5602052604090205460ff1680611e635750611e4e61182e565b6001600160a01b0316336001600160a01b0316145b611e7f5760405162461bcd60e51b8152600401610bd4906129aa565b60d79190915560d855565b33600090815260e5602052604090205460ff1680611ec05750611eab61182e565b6001600160a01b0316336001600160a01b0316145b611edc5760405162461bcd60e51b8152600401610bd4906129aa565b60dc80546001600160a01b0319166001600160a01b0392909216919091179055565b611f066120d0565b6001600160a01b038116611f6b5760405162461bcd60e51b815260206004820152602660248201527f4f776e61626c653a206e6577206f776e657220697320746865207a65726f206160448201526564647265737360d01b6064820152608401610bd4565b610fef816122be565b33600090815260e5602052604090205460ff1680611faa5750611f9561182e565b6001600160a01b0316336001600160a01b0316145b611fc65760405162461bcd60e51b8152600401610bd4906129aa565b60d080546001600160a01b0319166001600160a01b0392909216919091179055565b33600090815260e5602052604090205460ff168061201e575061200961182e565b6001600160a01b0316336001600160a01b0316145b61203a5760405162461bcd60e51b8152600401610bd4906129aa565b60d380546001600160a01b0319166001600160a01b0392909216919091179055565b33600090815260e5602052604090205460ff1680612092575061207d61182e565b6001600160a01b0316336001600160a01b0316145b6120ae5760405162461bcd60e51b8152600401610bd4906129aa565b60db80546001600160a01b0319166001600160a01b0392909216919091179055565b336120d961182e565b6001600160a01b0316146115b85760405162461bcd60e51b815260206004820181905260248201527f4f776e61626c653a2063616c6c6572206973206e6f7420746865206f776e65726044820152606401610bd4565b600080516020612b76833981519152546001600160a01b031690565b610fef6120d0565b7f4910fdfa16fed3260ed0e7147f7cc6da11a60208b5b9406d12a635614ffd91435460ff1615612186576111058361234e565b826001600160a01b03166352d1902d6040518163ffffffff1660e01b8152600401602060405180830381865afa9250505080156121e0575060408051601f3d908101601f191682019092526121dd91810190612a7e565b60015b6122435760405162461bcd60e51b815260206004820152602e60248201527f45524331393637557067726164653a206e657720696d706c656d656e7461746960448201526d6f6e206973206e6f74205555505360901b6064820152608401610bd4565b600080516020612b7683398151915281146122b25760405162461bcd60e51b815260206004820152602960248201527f45524331393637557067726164653a20756e737570706f727465642070726f786044820152681a58589b195555525160ba1b6064820152608401610bd4565b506111058383836123e8565b603380546001600160a01b038381166001600160a01b0319831681179093556040519116919082907f8be0079c531659141344cd1fd0a4f28419497f9722a3daafe3b4186f6b6457e090600090a35050565b6001600160a01b03163b151590565b600054610100900460ff166123465760405162461bcd60e51b8152600401610bd490612a97565b6115b8612413565b61235781612310565b6123b95760405162461bcd60e51b815260206004820152602d60248201527f455243313936373a206e657720696d706c656d656e746174696f6e206973206e60448201526c1bdd08184818dbdb9d1c9858dd609a1b6064820152608401610bd4565b600080516020612b7683398151915280546001600160a01b0319166001600160a01b0392909216919091179055565b6123f183612443565b6000825111806123fe5750805b156111055761240d8383612483565b50505050565b600054610100900460ff1661243a5760405162461bcd60e51b8152600401610bd490612a97565b6115b8336122be565b61244c8161234e565b6040516001600160a01b038216907fbc7cd75a20ee27fd9adebab32041f755214dbc6bffa90cc0225b39da2e5c2d3b90600090a250565b606061248e83612310565b6124e95760405162461bcd60e51b815260206004820152602660248201527f416464726573733a2064656c65676174652063616c6c20746f206e6f6e2d636f6044820152651b9d1c9858dd60d21b6064820152608401610bd4565b600080846001600160a01b0316846040516125049190612b06565b600060405180830381855af49150503d806000811461253f576040519150601f19603f3d011682016040523d82523d6000602084013e612544565b606091505b509150915061256c8282604051806060016040528060278152602001612b9660279139612575565b95945050505050565b6060831561258457508161258e565b61258e8383612595565b9392505050565b8151156125a55781518083602001fd5b8060405162461bcd60e51b8152600401610bd49190612b22565b6000602082840312156125d157600080fd5b5035919050565b80356001600160a01b03811681146125ef57600080fd5b919050565b60006020828403121561260657600080fd5b61258e826125d8565b600081518084526020808501945080840160005b838110156126485781516001600160a01b031687529582019590820190600101612623565b509495945050505050565b60208152600061258e602083018461260f565b600081518084526020808501945080840160005b838110156126485781518752958201959082019060010161267a565b60208152600061258e6020830184612666565b600080604083850312156126bc57600080fd5b6126c5836125d8565b946020939093013593505050565b634e487b7160e01b600052604160045260246000fd5b604051601f8201601f191681016001600160401b0381118282101715612711576127116126d3565b604052919050565b600082601f83011261272a57600080fd5b813560206001600160401b03821115612745576127456126d3565b8160051b6127548282016126e9565b928352848101820192828101908785111561276e57600080fd5b83870192505b8483101561278d57823582529183019190830190612774565b979650505050505050565b600080604083850312156127ab57600080fd5b82356001600160401b03808211156127c257600080fd5b6127ce86838701612719565b935060208501359150808211156127e457600080fd5b506127f185828601612719565b9150509250929050565b6000806040838503121561280e57600080fd5b612817836125d8565b91506020830135801515811461282c57600080fd5b809150509250929050565b6000806040838503121561284a57600080fd5b612853836125d8565b91506020838101356001600160401b038082111561287057600080fd5b818601915086601f83011261288457600080fd5b813581811115612896576128966126d3565b6128a8601f8201601f191685016126e9565b915080825287848285010111156128be57600080fd5b80848401858401376000848284010152508093505050509250929050565b6040815260006128ef604083018561260f565b828103602084015261256c8185612666565b60008060008060008060c0878903121561291a57600080fd5b612923876125d8565b9550612931602088016125d8565b945061293f604088016125d8565b935061294d606088016125d8565b925061295b608088016125d8565b915061296960a088016125d8565b90509295509295509295565b6040815260006128ef6040830185612666565b6000806040838503121561299b57600080fd5b50508035926020909101359150565b6020808252600990820152683737ba1030b236b4b760b91b604082015260600190565b634e487b7160e01b600052603260045260246000fd5b6020808252602c90820152600080516020612b5683398151915260408201526b19195b1959d85d1958d85b1b60a21b606082015260800190565b6020808252602c90820152600080516020612b5683398151915260408201526b6163746976652070726f787960a01b606082015260800190565b600060018201612a7757634e487b7160e01b600052601160045260246000fd5b5060010190565b600060208284031215612a9057600080fd5b5051919050565b6020808252602b908201527f496e697469616c697a61626c653a20636f6e7472616374206973206e6f74206960408201526a6e697469616c697a696e6760a81b606082015260800190565b60005b83811015612afd578181015183820152602001612ae5565b50506000910152565b60008251612b18818460208701612ae2565b9190910192915050565b6020815260008251806020840152612b41816040850160208701612ae2565b601f01601f1916919091016040019291505056fe46756e6374696f6e206d7573742062652063616c6c6564207468726f75676820360894a13ba1a3210667c828492db98dca3e2076cc3735a920a3ca505d382bbc416464726573733a206c6f772d6c6576656c2064656c65676174652063616c6c206661696c65643efdd7a884ff9e18c9e5711c185aa6c5e413b68f23197997da5b1665ca978f99a2646970667358221220faed19c08155d1a058122080def96a93a095377b5fd59a3e14ce53a243bd229764736f6c63430008140033",
			"opcodes": "PUSH1 0xA0 PUSH1 0x40 MSTORE ADDRESS PUSH1 0x80 MSTORE PUSH1 0x0 PUSH1 0xE7 SSTORE CALLVALUE DUP1 ISZERO PUSH2 0x19 JUMPI PUSH1 0x0 DUP1 REVERT JUMPDEST POP PUSH1 0x80 MLOAD PUSH2 0x2C12 PUSH2 0x51 PUSH1 0x0 CODECOPY PUSH1 0x0 DUP2 DUP2 PUSH2 0xF34 ADD MSTORE DUP2 DUP2 PUSH2 0xF74 ADD MSTORE DUP2 DUP2 PUSH2 0x119E ADD MSTORE DUP2 DUP2 PUSH2 0x11DE ADD MSTORE PUSH2 0x125A ADD MSTORE PUSH2 0x2C12 PUSH1 0x0 RETURN INVALID PUSH1 0x80 PUSH1 0x40 MSTORE PUSH1 0x4 CALLDATASIZE LT PUSH2 0x304 JUMPI PUSH1 0x0 CALLDATALOAD PUSH1 0xE0 SHR DUP1 PUSH4 0x669934A9 GT PUSH2 0x198 JUMPI DUP1 PUSH4 0x669934A9 EQ PUSH2 0x732 JUMPI DUP1 PUSH4 0x66BF8F83 EQ PUSH2 0x752 JUMPI DUP1 PUSH4 0x698518E5 EQ PUSH2 0x772 JUMPI DUP1 PUSH4 0x6B1A9C07 EQ PUSH2 0x788 JUMPI DUP1 PUSH4 0x715018A6 EQ PUSH2 0x7AB JUMPI DUP1 PUSH4 0x72765009 EQ PUSH2 0x7C0 JUMPI DUP1 PUSH4 0x7634B070 EQ PUSH2 0x7E0 JUMPI DUP1 PUSH4 0x767608E2 EQ PUSH2 0x800 JUMPI DUP1 PUSH4 0x796F838E EQ PUSH2 0x820 JUMPI DUP1 PUSH4 0x812DF395 EQ PUSH2 0x840 JUMPI DUP1 PUSH4 0x85ADB294 EQ PUSH2 0x860 JUMPI DUP1 PUSH4 0x863BE1AB EQ PUSH2 0x876 JUMPI DUP1 PUSH4 0x8A5705D4 EQ PUSH2 0x896 JUMPI DUP1 PUSH4 0x8DA5CB5B EQ PUSH2 0x8AC JUMPI DUP1 PUSH4 0x8E10EF0B EQ PUSH2 0x8C1 JUMPI DUP1 PUSH4 0x8F05CDF5 EQ PUSH2 0x8D7 JUMPI DUP1 PUSH4 0x95623641 EQ PUSH2 0x8F7 JUMPI DUP1 PUSH4 0x9A3135A8 EQ PUSH2 0x917 JUMPI DUP1 PUSH4 0xA03CC2A6 EQ PUSH2 0x93A JUMPI DUP1 PUSH4 0xA40B64D5 EQ PUSH2 0x950 JUMPI DUP1 PUSH4 0xB2CF085E EQ PUSH2 0x970 JUMPI DUP1 PUSH4 0xC4D66DE8 EQ PUSH2 0x990 JUMPI DUP1 PUSH4 0xCDE85744 EQ PUSH2 0x9B0 JUMPI DUP1 PUSH4 0xDBE55E56 EQ PUSH2 0x9D0 JUMPI DUP1 PUSH4 0xE3D9AA05 EQ PUSH2 0x9F0 JUMPI DUP1 PUSH4 0xE9D610E5 EQ PUSH2 0xA10 JUMPI DUP1 PUSH4 0xEB2266BC EQ PUSH2 0xA30 JUMPI DUP1 PUSH4 0xEE787B11 EQ PUSH2 0xA50 JUMPI DUP1 PUSH4 0xF2FDE38B EQ PUSH2 0xA66 JUMPI DUP1 PUSH4 0xF7656704 EQ PUSH2 0xA86 JUMPI DUP1 PUSH4 0xF80183B2 EQ PUSH2 0xAA6 JUMPI DUP1 PUSH4 0xF97FE091 EQ PUSH2 0xAC6 JUMPI DUP1 PUSH4 0xFE6DCDBA EQ PUSH2 0xAE6 JUMPI DUP1 PUSH4 0xFF858079 EQ PUSH2 0xB0E JUMPI PUSH1 0x0 DUP1 REVERT JUMPDEST DUP1 PUSH4 0x57D7781 EQ PUSH2 0x309 JUMPI DUP1 PUSH4 0x6394C9B EQ PUSH2 0x346 JUMPI DUP1 PUSH4 0x8F93BD8 EQ PUSH2 0x368 JUMPI DUP1 PUSH4 0xB433A12 EQ PUSH2 0x388 JUMPI DUP1 PUSH4 0x182D326E EQ PUSH2 0x3AC JUMPI DUP1 PUSH4 0x19A2EF5F EQ PUSH2 0x3CE JUMPI DUP1 PUSH4 0x1E56CFAB EQ PUSH2 0x3EE JUMPI DUP1 PUSH4 0x1E79AA0A EQ PUSH2 0x40E JUMPI DUP1 PUSH4 0x21596C25 EQ PUSH2 0x430 JUMPI DUP1 PUSH4 0x254720B7 EQ PUSH2 0x446 JUMPI DUP1 PUSH4 0x280E31CC EQ PUSH2 0x48F JUMPI DUP1 PUSH4 0x2D8852EE EQ PUSH2 0x4BC JUMPI DUP1 PUSH4 0x2F48AB7D EQ PUSH2 0x4D2 JUMPI DUP1 PUSH4 0x3360364D EQ PUSH2 0x4F2 JUMPI DUP1 PUSH4 0x33F5780E EQ PUSH2 0x512 JUMPI DUP1 PUSH4 0x35AED778 EQ PUSH2 0x532 JUMPI DUP1 PUSH4 0x3659CFE6 EQ PUSH2 0x552 JUMPI DUP1 PUSH4 0x36E0CAC6 EQ PUSH2 0x572 JUMPI DUP1 PUSH4 0x39CBC405 EQ PUSH2 0x588 JUMPI DUP1 PUSH4 0x3B2C2E55 EQ PUSH2 0x59E JUMPI DUP1 PUSH4 0x3D08E5B3 EQ PUSH2 0x5BE JUMPI DUP1 PUSH4 0x434F9736 EQ PUSH2 0x5D4 JUMPI DUP1 PUSH4 0x498C1E3C EQ PUSH2 0x5EA JUMPI DUP1 PUSH4 0x4B0BDDD2 EQ PUSH2 0x60A JUMPI DUP1 PUSH4 0x4B21DDEC EQ PUSH2 0x62A JUMPI DUP1 PUSH4 0x4DD40234 EQ PUSH2 0x64A JUMPI DUP1 PUSH4 0x4F1EF286 EQ PUSH2 0x66A JUMPI DUP1 PUSH4 0x5250C9B5 EQ PUSH2 0x67D JUMPI DUP1 PUSH4 0x52D1902D EQ PUSH2 0x69D JUMPI DUP1 PUSH4 0x570CA735 EQ PUSH2 0x6B2 JUMPI DUP1 PUSH4 0x57629F82 EQ PUSH2 0x6D2 JUMPI DUP1 PUSH4 0x5BFF9787 EQ PUSH2 0x6F2 JUMPI DUP1 PUSH4 0x602E6623 EQ PUSH2 0x712 JUMPI JUMPDEST PUSH1 0x0 DUP1 REVERT JUMPDEST CALLVALUE DUP1 ISZERO PUSH2 0x315 JUMPI PUSH1 0x0 DUP1 REVERT JUMPDEST POP PUSH2 0x329 PUSH2 0x324 CALLDATASIZE PUSH1 0x4 PUSH2 0x25BF JUMP JUMPDEST PUSH2 0xB2E JUMP JUMPDEST PUSH1 0x40 MLOAD PUSH1 0x1 PUSH1 0x1 PUSH1 0xA0 SHL SUB SWAP1 SWAP2 AND DUP2 MSTORE PUSH1 0x20 ADD JUMPDEST PUSH1 0x40 MLOAD DUP1 SWAP2 SUB SWAP1 RETURN JUMPDEST CALLVALUE DUP1 ISZERO PUSH2 0x352 JUMPI PUSH1 0x0 DUP1 REVERT JUMPDEST POP PUSH2 0x366 PUSH2 0x361 CALLDATASIZE PUSH1 0x4 PUSH2 0x25F4 JUMP JUMPDEST PUSH2 0xB58 JUMP JUMPDEST STOP JUMPDEST CALLVALUE DUP1 ISZERO PUSH2 0x374 JUMPI PUSH1 0x0 DUP1 REVERT JUMPDEST POP PUSH2 0x366 PUSH2 0x383 CALLDATASIZE PUSH1 0x4 PUSH2 0x25BF JUMP JUMPDEST PUSH2 0xB82 JUMP JUMPDEST CALLVALUE DUP1 ISZERO PUSH2 0x394 JUMPI PUSH1 0x0 DUP1 REVERT JUMPDEST POP PUSH2 0x39E PUSH1 0xE3 SLOAD DUP2 JUMP JUMPDEST PUSH1 0x40 MLOAD SWAP1 DUP2 MSTORE PUSH1 0x20 ADD PUSH2 0x33D JUMP JUMPDEST CALLVALUE DUP1 ISZERO PUSH2 0x3B8 JUMPI PUSH1 0x0 DUP1 REVERT JUMPDEST POP PUSH2 0x3C1 PUSH2 0xBE2 JUMP JUMPDEST PUSH1 0x40 MLOAD PUSH2 0x33D SWAP2 SWAP1 PUSH2 0x2653 JUMP JUMPDEST CALLVALUE DUP1 ISZERO PUSH2 0x3DA JUMPI PUSH1 0x0 DUP1 REVERT JUMPDEST POP PUSH2 0x366 PUSH2 0x3E9 CALLDATASIZE PUSH1 0x4 PUSH2 0x25BF JUMP JUMPDEST PUSH2 0xC76 JUMP JUMPDEST CALLVALUE DUP1 ISZERO PUSH2 0x3FA JUMPI PUSH1 0x0 DUP1 REVERT JUMPDEST POP PUSH1 0xD4 SLOAD PUSH2 0x329 SWAP1 PUSH1 0x1 PUSH1 0x1 PUSH1 0xA0 SHL SUB AND DUP2 JUMP JUMPDEST CALLVALUE DUP1 ISZERO PUSH2 0x41A JUMPI PUSH1 0x0 DUP1 REVERT JUMPDEST POP PUSH2 0x423 PUSH2 0xCCD JUMP JUMPDEST PUSH1 0x40 MLOAD PUSH2 0x33D SWAP2 SWAP1 PUSH2 0x2696 JUMP JUMPDEST CALLVALUE DUP1 ISZERO PUSH2 0x43C JUMPI PUSH1 0x0 DUP1 REVERT JUMPDEST POP PUSH2 0x39E PUSH1 0xDE SLOAD DUP2 JUMP JUMPDEST CALLVALUE DUP1 ISZERO PUSH2 0x452 JUMPI PUSH1 0x0 DUP1 REVERT JUMPDEST POP PUSH2 0x47A PUSH2 0x461 CALLDATASIZE PUSH1 0x4 PUSH2 0x25BF JUMP JUMPDEST PUSH1 0xDF PUSH1 0x20 MSTORE PUSH1 0x0 SWAP1 DUP2 MSTORE PUSH1 0x40 SWAP1 KECCAK256 DUP1 SLOAD PUSH1 0x1 SWAP1 SWAP2 ADD SLOAD DUP3 JUMP JUMPDEST PUSH1 0x40 DUP1 MLOAD SWAP3 DUP4 MSTORE PUSH1 0x20 DUP4 ADD SWAP2 SWAP1 SWAP2 MSTORE ADD PUSH2 0x33D JUMP JUMPDEST CALLVALUE DUP1 ISZERO PUSH2 0x49B JUMPI PUSH1 0x0 DUP1 REVERT JUMPDEST POP PUSH2 0x39E PUSH2 0x4AA CALLDATASIZE PUSH1 0x4 PUSH2 0x25F4 JUMP JUMPDEST PUSH1 0xE0 PUSH1 0x20 MSTORE PUSH1 0x0 SWAP1 DUP2 MSTORE PUSH1 0x40 SWAP1 KECCAK256 SLOAD DUP2 JUMP JUMPDEST CALLVALUE DUP1 ISZERO PUSH2 0x4C8 JUMPI PUSH1 0x0 DUP1 REVERT JUMPDEST POP PUSH2 0x39E PUSH1 0xE2 SLOAD DUP2 JUMP JUMPDEST CALLVALUE DUP1 ISZERO PUSH2 0x4DE JUMPI PUSH1 0x0 DUP1 REVERT JUMPDEST POP PUSH1 0xC9 SLOAD PUSH2 0x329 SWAP1 PUSH1 0x1 PUSH1 0x1 PUSH1 0xA0 SHL SUB AND DUP2 JUMP JUMPDEST CALLVALUE DUP1 ISZERO PUSH2 0x4FE JUMPI PUSH1 0x0 DUP1 REVERT JUMPDEST POP PUSH2 0x366 PUSH2 0x50D CALLDATASIZE PUSH1 0x4 PUSH2 0x25BF JUMP JUMPDEST PUSH2 0xDBF JUMP JUMPDEST CALLVALUE DUP1 ISZERO PUSH2 0x51E JUMPI PUSH1 0x0 DUP1 REVERT JUMPDEST POP PUSH2 0x366 PUSH2 0x52D CALLDATASIZE PUSH1 0x4 PUSH2 0x26A9 JUMP JUMPDEST PUSH2 0xE16 JUMP JUMPDEST CALLVALUE DUP1 ISZERO PUSH2 0x53E JUMPI PUSH1 0x0 DUP1 REVERT JUMPDEST POP PUSH2 0x366 PUSH2 0x54D CALLDATASIZE PUSH1 0x4 PUSH2 0x25F4 JUMP JUMPDEST PUSH2 0xEB6 JUMP JUMPDEST CALLVALUE DUP1 ISZERO PUSH2 0x55E JUMPI PUSH1 0x0 DUP1 REVERT JUMPDEST POP PUSH2 0x366 PUSH2 0x56D CALLDATASIZE PUSH1 0x4 PUSH2 0x25F4 JUMP JUMPDEST PUSH2 0xF2A JUMP JUMPDEST CALLVALUE DUP1 ISZERO PUSH2 0x57E JUMPI PUSH1 0x0 DUP1 REVERT JUMPDEST POP PUSH2 0x39E PUSH1 0xD1 SLOAD DUP2 JUMP JUMPDEST CALLVALUE DUP1 ISZERO PUSH2 0x594 JUMPI PUSH1 0x0 DUP1 REVERT JUMPDEST POP PUSH2 0x39E PUSH1 0xDD SLOAD DUP2 JUMP JUMPDEST CALLVALUE DUP1 ISZERO PUSH2 0x5AA JUMPI PUSH1 0x0 DUP1 REVERT JUMPDEST POP PUSH2 0x366 PUSH2 0x5B9 CALLDATASIZE PUSH1 0x4 PUSH2 0x2798 JUMP JUMPDEST PUSH2 0xFF2 JUMP JUMPDEST CALLVALUE DUP1 ISZERO PUSH2 0x5CA JUMPI PUSH1 0x0 DUP1 REVERT JUMPDEST POP PUSH2 0x39E PUSH1 0xE6 SLOAD DUP2 JUMP JUMPDEST CALLVALUE DUP1 ISZERO PUSH2 0x5E0 JUMPI PUSH1 0x0 DUP1 REVERT JUMPDEST POP PUSH2 0x39E PUSH1 0xD8 SLOAD DUP2 JUMP JUMPDEST CALLVALUE DUP1 ISZERO PUSH2 0x5F6 JUMPI PUSH1 0x0 DUP1 REVERT JUMPDEST POP PUSH2 0x366 PUSH2 0x605 CALLDATASIZE PUSH1 0x4 PUSH2 0x25BF JUMP JUMPDEST PUSH2 0x110A JUMP JUMPDEST CALLVALUE DUP1 ISZERO PUSH2 0x616 JUMPI PUSH1 0x0 DUP1 REVERT JUMPDEST POP PUSH2 0x366 PUSH2 0x625 CALLDATASIZE PUSH1 0x4 PUSH2 0x27FB JUMP JUMPDEST PUSH2 0x1161 JUMP JUMPDEST CALLVALUE DUP1 ISZERO PUSH2 0x636 JUMPI PUSH1 0x0 DUP1 REVERT JUMPDEST POP PUSH1 0xDB SLOAD PUSH2 0x329 SWAP1 PUSH1 0x1 PUSH1 0x1 PUSH1 0xA0 SHL SUB AND DUP2 JUMP JUMPDEST CALLVALUE DUP1 ISZERO PUSH2 0x656 JUMPI PUSH1 0x0 DUP1 REVERT JUMPDEST POP PUSH1 0xCC SLOAD PUSH2 0x329 SWAP1 PUSH1 0x1 PUSH1 0x1 PUSH1 0xA0 SHL SUB AND DUP2 JUMP JUMPDEST PUSH2 0x366 PUSH2 0x678 CALLDATASIZE PUSH1 0x4 PUSH2 0x2837 JUMP JUMPDEST PUSH2 0x1194 JUMP JUMPDEST CALLVALUE DUP1 ISZERO PUSH2 0x689 JUMPI PUSH1 0x0 DUP1 REVERT JUMPDEST POP PUSH1 0xCE SLOAD PUSH2 0x329 SWAP1 PUSH1 0x1 PUSH1 0x1 PUSH1 0xA0 SHL SUB AND DUP2 JUMP JUMPDEST CALLVALUE DUP1 ISZERO PUSH2 0x6A9 JUMPI PUSH1 0x0 DUP1 REVERT JUMPDEST POP PUSH2 0x39E PUSH2 0x124D JUMP JUMPDEST CALLVALUE DUP1 ISZERO PUSH2 0x6BE JUMPI PUSH1 0x0 DUP1 REVERT JUMPDEST POP PUSH1 0xE4 SLOAD PUSH2 0x329 SWAP1 PUSH1 0x1 PUSH1 0x1 PUSH1 0xA0 SHL SUB AND DUP2 JUMP JUMPDEST CALLVALUE DUP1 ISZERO PUSH2 0x6DE JUMPI PUSH1 0x0 DUP1 REVERT JUMPDEST POP PUSH2 0x366 PUSH2 0x6ED CALLDATASIZE PUSH1 0x4 PUSH2 0x26A9 JUMP JUMPDEST PUSH2 0x12FB JUMP JUMPDEST CALLVALUE DUP1 ISZERO PUSH2 0x6FE JUMPI PUSH1 0x0 DUP1 REVERT JUMPDEST POP PUSH1 0xCA SLOAD PUSH2 0x329 SWAP1 PUSH1 0x1 PUSH1 0x1 PUSH1 0xA0 SHL SUB AND DUP2 JUMP JUMPDEST CALLVALUE DUP1 ISZERO PUSH2 0x71E JUMPI PUSH1 0x0 DUP1 REVERT JUMPDEST POP PUSH1 0xCD SLOAD PUSH2 0x329 SWAP1 PUSH1 0x1 PUSH1 0x1 PUSH1 0xA0 SHL SUB AND DUP2 JUMP JUMPDEST CALLVALUE DUP1 ISZERO PUSH2 0x73E JUMPI PUSH1 0x0 DUP1 REVERT JUMPDEST POP PUSH2 0x366 PUSH2 0x74D CALLDATASIZE PUSH1 0x4 PUSH2 0x25F4 JUMP JUMPDEST PUSH2 0x13B7 JUMP JUMPDEST CALLVALUE DUP1 ISZERO PUSH2 0x75E JUMPI PUSH1 0x0 DUP1 REVERT JUMPDEST POP PUSH2 0x366 PUSH2 0x76D CALLDATASIZE PUSH1 0x4 PUSH2 0x25BF JUMP JUMPDEST PUSH2 0x142B JUMP JUMPDEST CALLVALUE DUP1 ISZERO PUSH2 0x77E JUMPI PUSH1 0x0 DUP1 REVERT JUMPDEST POP PUSH2 0x39E PUSH1 0xD2 SLOAD DUP2 JUMP JUMPDEST CALLVALUE DUP1 ISZERO PUSH2 0x794 JUMPI PUSH1 0x0 DUP1 REVERT JUMPDEST POP PUSH2 0x79D PUSH2 0x1482 JUMP JUMPDEST PUSH1 0x40 MLOAD PUSH2 0x33D SWAP3 SWAP2 SWAP1 PUSH2 0x28DC JUMP JUMPDEST CALLVALUE DUP1 ISZERO PUSH2 0x7B7 JUMPI PUSH1 0x0 DUP1 REVERT JUMPDEST POP PUSH2 0x366 PUSH2 0x15A6 JUMP JUMPDEST CALLVALUE DUP1 ISZERO PUSH2 0x7CC JUMPI PUSH1 0x0 DUP1 REVERT JUMPDEST POP PUSH2 0x366 PUSH2 0x7DB CALLDATASIZE PUSH1 0x4 PUSH2 0x25BF JUMP JUMPDEST PUSH2 0x15BA JUMP JUMPDEST CALLVALUE DUP1 ISZERO PUSH2 0x7EC JUMPI PUSH1 0x0 DUP1 REVERT JUMPDEST POP PUSH2 0x366 PUSH2 0x7FB CALLDATASIZE PUSH1 0x4 PUSH2 0x25BF JUMP JUMPDEST PUSH2 0x1611 JUMP JUMPDEST CALLVALUE DUP1 ISZERO PUSH2 0x80C JUMPI PUSH1 0x0 DUP1 REVERT JUMPDEST POP PUSH2 0x366 PUSH2 0x81B CALLDATASIZE PUSH1 0x4 PUSH2 0x25BF JUMP JUMPDEST PUSH2 0x1668 JUMP JUMPDEST CALLVALUE DUP1 ISZERO PUSH2 0x82C JUMPI PUSH1 0x0 DUP1 REVERT JUMPDEST POP PUSH2 0x366 PUSH2 0x83B CALLDATASIZE PUSH1 0x4 PUSH2 0x25BF JUMP JUMPDEST PUSH2 0x16BF JUMP JUMPDEST CALLVALUE DUP1 ISZERO PUSH2 0x84C JUMPI PUSH1 0x0 DUP1 REVERT JUMPDEST POP PUSH2 0x366 PUSH2 0x85B CALLDATASIZE PUSH1 0x4 PUSH2 0x2901 JUMP JUMPDEST PUSH2 0x1716 JUMP JUMPDEST CALLVALUE DUP1 ISZERO PUSH2 0x86C JUMPI PUSH1 0x0 DUP1 REVERT JUMPDEST POP PUSH2 0x39E PUSH1 0xD6 SLOAD DUP2 JUMP JUMPDEST CALLVALUE DUP1 ISZERO PUSH2 0x882 JUMPI PUSH1 0x0 DUP1 REVERT JUMPDEST POP PUSH2 0x366 PUSH2 0x891 CALLDATASIZE PUSH1 0x4 PUSH2 0x25BF JUMP JUMPDEST PUSH2 0x17D7 JUMP JUMPDEST CALLVALUE DUP1 ISZERO PUSH2 0x8A2 JUMPI PUSH1 0x0 DUP1 REVERT JUMPDEST POP PUSH2 0x39E PUSH1 0xD7 SLOAD DUP2 JUMP JUMPDEST CALLVALUE DUP1 ISZERO PUSH2 0x8B8 JUMPI PUSH1 0x0 DUP1 REVERT JUMPDEST POP PUSH2 0x329 PUSH2 0x182E JUMP JUMPDEST CALLVALUE DUP1 ISZERO PUSH2 0x8CD JUMPI PUSH1 0x0 DUP1 REVERT JUMPDEST POP PUSH2 0x39E PUSH1 0xDA SLOAD DUP2 JUMP JUMPDEST CALLVALUE DUP1 ISZERO PUSH2 0x8E3 JUMPI PUSH1 0x0 DUP1 REVERT JUMPDEST POP PUSH1 0xCB SLOAD PUSH2 0x329 SWAP1 PUSH1 0x1 PUSH1 0x1 PUSH1 0xA0 SHL SUB AND DUP2 JUMP JUMPDEST CALLVALUE DUP1 ISZERO PUSH2 0x903 JUMPI PUSH1 0x0 DUP1 REVERT JUMPDEST POP PUSH1 0xD5 SLOAD PUSH2 0x329 SWAP1 PUSH1 0x1 PUSH1 0x1 PUSH1 0xA0 SHL SUB AND DUP2 JUMP JUMPDEST CALLVALUE DUP1 ISZERO PUSH2 0x923 JUMPI PUSH1 0x0 DUP1 REVERT JUMPDEST POP PUSH2 0x92C PUSH2 0x183D JUMP JUMPDEST PUSH1 0x40 MLOAD PUSH2 0x33D SWAP3 SWAP2 SWAP1 PUSH2 0x2975 JUMP JUMPDEST CALLVALUE DUP1 ISZERO PUSH2 0x946 JUMPI PUSH1 0x0 DUP1 REVERT JUMPDEST POP PUSH2 0x39E PUSH1 0xE7 SLOAD DUP2 JUMP JUMPDEST CALLVALUE DUP1 ISZERO PUSH2 0x95C JUMPI PUSH1 0x0 DUP1 REVERT JUMPDEST POP PUSH2 0x366 PUSH2 0x96B CALLDATASIZE PUSH1 0x4 PUSH2 0x25BF JUMP JUMPDEST PUSH2 0x1905 JUMP JUMPDEST CALLVALUE DUP1 ISZERO PUSH2 0x97C JUMPI PUSH1 0x0 DUP1 REVERT JUMPDEST POP PUSH1 0xD0 SLOAD PUSH2 0x329 SWAP1 PUSH1 0x1 PUSH1 0x1 PUSH1 0xA0 SHL SUB AND DUP2 JUMP JUMPDEST CALLVALUE DUP1 ISZERO PUSH2 0x99C JUMPI PUSH1 0x0 DUP1 REVERT JUMPDEST POP PUSH2 0x366 PUSH2 0x9AB CALLDATASIZE PUSH1 0x4 PUSH2 0x25F4 JUMP JUMPDEST PUSH2 0x195C JUMP JUMPDEST CALLVALUE DUP1 ISZERO PUSH2 0x9BC JUMPI PUSH1 0x0 DUP1 REVERT JUMPDEST POP PUSH2 0x366 PUSH2 0x9CB CALLDATASIZE PUSH1 0x4 PUSH2 0x25F4 JUMP JUMPDEST PUSH2 0x1DB9 JUMP JUMPDEST CALLVALUE DUP1 ISZERO PUSH2 0x9DC JUMPI PUSH1 0x0 DUP1 REVERT JUMPDEST POP PUSH1 0xCF SLOAD PUSH2 0x329 SWAP1 PUSH1 0x1 PUSH1 0x1 PUSH1 0xA0 SHL SUB AND DUP2 JUMP JUMPDEST CALLVALUE DUP1 ISZERO PUSH2 0x9FC JUMPI PUSH1 0x0 DUP1 REVERT JUMPDEST POP PUSH2 0x366 PUSH2 0xA0B CALLDATASIZE PUSH1 0x4 PUSH2 0x2988 JUMP JUMPDEST PUSH2 0x1E2D JUMP JUMPDEST CALLVALUE DUP1 ISZERO PUSH2 0xA1C JUMPI PUSH1 0x0 DUP1 REVERT JUMPDEST POP PUSH1 0xD3 SLOAD PUSH2 0x329 SWAP1 PUSH1 0x1 PUSH1 0x1 PUSH1 0xA0 SHL SUB AND DUP2 JUMP JUMPDEST CALLVALUE DUP1 ISZERO PUSH2 0xA3C JUMPI PUSH1 0x0 DUP1 REVERT JUMPDEST POP PUSH2 0x366 PUSH2 0xA4B CALLDATASIZE PUSH1 0x4 PUSH2 0x25F4 JUMP JUMPDEST PUSH2 0x1E8A JUMP JUMPDEST CALLVALUE DUP1 ISZERO PUSH2 0xA5C JUMPI PUSH1 0x0 DUP1 REVERT JUMPDEST POP PUSH2 0x39E PUSH1 0xD9 SLOAD DUP2 JUMP JUMPDEST CALLVALUE DUP1 ISZERO PUSH2 0xA72 JUMPI PUSH1 0x0 DUP1 REVERT JUMPDEST POP PUSH2 0x366 PUSH2 0xA81 CALLDATASIZE PUSH1 0x4 PUSH2 0x25F4 JUMP JUMPDEST PUSH2 0x1EFE JUMP JUMPDEST CALLVALUE DUP1 ISZERO PUSH2 0xA92 JUMPI PUSH1 0x0 DUP1 REVERT JUMPDEST POP PUSH2 0x366 PUSH2 0xAA1 CALLDATASIZE PUSH1 0x4 PUSH2 0x25F4 JUMP JUMPDEST PUSH2 0x1F74 JUMP JUMPDEST CALLVALUE DUP1 ISZERO PUSH2 0xAB2 JUMPI PUSH1 0x0 DUP1 REVERT JUMPDEST POP PUSH2 0x366 PUSH2 0xAC1 CALLDATASIZE PUSH1 0x4 PUSH2 0x25F4 JUMP JUMPDEST PUSH2 0x1FE8 JUMP JUMPDEST CALLVALUE DUP1 ISZERO PUSH2 0xAD2 JUMPI PUSH1 0x0 DUP1 REVERT JUMPDEST POP PUSH1 0xDC SLOAD PUSH2 0x329 SWAP1 PUSH1 0x1 PUSH1 0x1 PUSH1 0xA0 SHL SUB AND DUP2 JUMP JUMPDEST CALLVALUE DUP1 ISZERO PUSH2 0xAF2 JUMPI PUSH1 0x0 DUP1 REVERT JUMPDEST POP PUSH2 0x329 PUSH20 0xF51446F195D697ED51235E7B382FC170503E1976 DUP2 JUMP JUMPDEST CALLVALUE DUP1 ISZERO PUSH2 0xB1A JUMPI PUSH1 0x0 DUP1 REVERT JUMPDEST POP PUSH2 0x366 PUSH2 0xB29 CALLDATASIZE PUSH1 0x4 PUSH2 0x25F4 JUMP JUMPDEST PUSH2 0x205C JUMP JUMPDEST PUSH1 0xE1 DUP2 DUP2 SLOAD DUP2 LT PUSH2 0xB3E JUMPI PUSH1 0x0 DUP1 REVERT JUMPDEST PUSH1 0x0 SWAP2 DUP3 MSTORE PUSH1 0x20 SWAP1 SWAP2 KECCAK256 ADD SLOAD PUSH1 0x1 PUSH1 0x1 PUSH1 0xA0 SHL SUB AND SWAP1 POP DUP2 JUMP JUMPDEST PUSH2 0xB60 PUSH2 0x20D0 JUMP JUMPDEST PUSH1 0xE4 DUP1 SLOAD PUSH1 0x1 PUSH1 0x1 PUSH1 0xA0 SHL SUB NOT AND PUSH1 0x1 PUSH1 0x1 PUSH1 0xA0 SHL SUB SWAP3 SWAP1 SWAP3 AND SWAP2 SWAP1 SWAP2 OR SWAP1 SSTORE JUMP JUMPDEST CALLER PUSH1 0x0 SWAP1 DUP2 MSTORE PUSH1 0xE5 PUSH1 0x20 MSTORE PUSH1 0x40 SWAP1 KECCAK256 SLOAD PUSH1 0xFF AND DUP1 PUSH2 0xBB8 JUMPI POP PUSH2 0xBA3 PUSH2 0x182E JUMP JUMPDEST PUSH1 0x1 PUSH1 0x1 PUSH1 0xA0 SHL SUB AND CALLER PUSH1 0x1 PUSH1 0x1 PUSH1 0xA0 SHL SUB AND EQ JUMPDEST PUSH2 0xBDD JUMPI PUSH1 0x40 MLOAD PUSH3 0x461BCD PUSH1 0xE5 SHL DUP2 MSTORE PUSH1 0x4 ADD PUSH2 0xBD4 SWAP1 PUSH2 0x29AA JUMP JUMPDEST PUSH1 0x40 MLOAD DUP1 SWAP2 SUB SWAP1 REVERT JUMPDEST PUSH1 0xD2 SSTORE JUMP JUMPDEST PUSH1 0x40 DUP1 MLOAD PUSH1 0x2 DUP1 DUP3 MSTORE PUSH1 0x60 DUP1 DUP4 ADD DUP5 MSTORE SWAP3 PUSH1 0x20 DUP4 ADD SWAP1 DUP1 CALLDATASIZE DUP4 CALLDATACOPY POP POP PUSH1 0xDB SLOAD DUP3 MLOAD SWAP3 SWAP4 POP PUSH1 0x1 PUSH1 0x1 PUSH1 0xA0 SHL SUB AND SWAP2 DUP4 SWAP2 POP PUSH1 0x0 SWAP1 PUSH2 0xC22 JUMPI PUSH2 0xC22 PUSH2 0x29CD JUMP JUMPDEST PUSH1 0x1 PUSH1 0x1 PUSH1 0xA0 SHL SUB SWAP3 DUP4 AND PUSH1 0x20 SWAP2 DUP3 MUL SWAP3 SWAP1 SWAP3 ADD ADD MSTORE PUSH1 0xDC SLOAD DUP3 MLOAD SWAP2 AND SWAP1 DUP3 SWAP1 PUSH1 0x1 SWAP1 DUP2 LT PUSH2 0xC53 JUMPI PUSH2 0xC53 PUSH2 0x29CD JUMP JUMPDEST PUSH1 0x20 MUL PUSH1 0x20 ADD ADD SWAP1 PUSH1 0x1 PUSH1 0x1 PUSH1 0xA0 SHL SUB AND SWAP1 DUP2 PUSH1 0x1 PUSH1 0x1 PUSH1 0xA0 SHL SUB AND DUP2 MSTORE POP POP SWAP1 JUMP JUMPDEST CALLER PUSH1 0x0 SWAP1 DUP2 MSTORE PUSH1 0xE5 PUSH1 0x20 MSTORE PUSH1 0x40 SWAP1 KECCAK256 SLOAD PUSH1 0xFF AND DUP1 PUSH2 0xCAC JUMPI POP PUSH2 0xC97 PUSH2 0x182E JUMP JUMPDEST PUSH1 0x1 PUSH1 0x1 PUSH1 0xA0 SHL SUB AND CALLER PUSH1 0x1 PUSH1 0x1 PUSH1 0xA0 SHL SUB AND EQ JUMPDEST PUSH2 0xCC8 JUMPI PUSH1 0x40 MLOAD PUSH3 0x461BCD PUSH1 0xE5 SHL DUP2 MSTORE PUSH1 0x4 ADD PUSH2 0xBD4 SWAP1 PUSH2 0x29AA JUMP JUMPDEST PUSH1 0xDD SSTORE JUMP JUMPDEST PUSH1 0x40 DUP1 MLOAD PUSH1 0x6 DUP1 DUP3 MSTORE PUSH1 0xE0 DUP3 ADD SWAP1 SWAP3 MSTORE PUSH1 0x60 SWAP2 PUSH1 0x20 DUP3 ADD PUSH1 0xC0 DUP1 CALLDATASIZE DUP4 CALLDATACOPY ADD SWAP1 POP POP SWAP1 POP PUSH1 0xD7 SLOAD DUP2 PUSH1 0x0 DUP2 MLOAD DUP2 LT PUSH2 0xD06 JUMPI PUSH2 0xD06 PUSH2 0x29CD JUMP JUMPDEST PUSH1 0x20 MUL PUSH1 0x20 ADD ADD DUP2 DUP2 MSTORE POP POP PUSH1 0xD8 SLOAD DUP2 PUSH1 0x1 DUP2 MLOAD DUP2 LT PUSH2 0xD28 JUMPI PUSH2 0xD28 PUSH2 0x29CD JUMP JUMPDEST PUSH1 0x20 MUL PUSH1 0x20 ADD ADD DUP2 DUP2 MSTORE POP POP PUSH1 0xD9 SLOAD DUP2 PUSH1 0x2 DUP2 MLOAD DUP2 LT PUSH2 0xD4A JUMPI PUSH2 0xD4A PUSH2 0x29CD JUMP JUMPDEST PUSH1 0x20 MUL PUSH1 0x20 ADD ADD DUP2 DUP2 MSTORE POP POP PUSH1 0xDA SLOAD DUP2 PUSH1 0x3 DUP2 MLOAD DUP2 LT PUSH2 0xD6C JUMPI PUSH2 0xD6C PUSH2 0x29CD JUMP JUMPDEST PUSH1 0x20 MUL PUSH1 0x20 ADD ADD DUP2 DUP2 MSTORE POP POP PUSH1 0xDD SLOAD DUP2 PUSH1 0x4 DUP2 MLOAD DUP2 LT PUSH2 0xD8E JUMPI PUSH2 0xD8E PUSH2 0x29CD JUMP JUMPDEST PUSH1 0x20 MUL PUSH1 0x20 ADD ADD DUP2 DUP2 MSTORE POP POP PUSH1 0xDE SLOAD DUP2 PUSH1 0x5 DUP2 MLOAD DUP2 LT PUSH2 0xDB0 JUMPI PUSH2 0xDB0 PUSH2 0x29CD JUMP JUMPDEST PUSH1 0x20 MUL PUSH1 0x20 ADD ADD DUP2 DUP2 MSTORE POP POP SWAP1 JUMP JUMPDEST CALLER PUSH1 0x0 SWAP1 DUP2 MSTORE PUSH1 0xE5 PUSH1 0x20 MSTORE PUSH1 0x40 SWAP1 KECCAK256 SLOAD PUSH1 0xFF AND DUP1 PUSH2 0xDF5 JUMPI POP PUSH2 0xDE0 PUSH2 0x182E JUMP JUMPDEST PUSH1 0x1 PUSH1 0x1 PUSH1 0xA0 SHL SUB AND CALLER PUSH1 0x1 PUSH1 0x1 PUSH1 0xA0 SHL SUB AND EQ JUMPDEST PUSH2 0xE11 JUMPI PUSH1 0x40 MLOAD PUSH3 0x461BCD PUSH1 0xE5 SHL DUP2 MSTORE PUSH1 0x4 ADD PUSH2 0xBD4 SWAP1 PUSH2 0x29AA JUMP JUMPDEST PUSH1 0xD6 SSTORE JUMP JUMPDEST CALLER PUSH1 0x0 SWAP1 DUP2 MSTORE PUSH1 0xE5 PUSH1 0x20 MSTORE PUSH1 0x40 SWAP1 KECCAK256 SLOAD PUSH1 0xFF AND DUP1 PUSH2 0xE4C JUMPI POP PUSH2 0xE37 PUSH2 0x182E JUMP JUMPDEST PUSH1 0x1 PUSH1 0x1 PUSH1 0xA0 SHL SUB AND CALLER PUSH1 0x1 PUSH1 0x1 PUSH1 0xA0 SHL SUB AND EQ JUMPDEST PUSH2 0xE68 JUMPI PUSH1 0x40 MLOAD PUSH3 0x461BCD PUSH1 0xE5 SHL DUP2 MSTORE PUSH1 0x4 ADD PUSH2 0xBD4 SWAP1 PUSH2 0x29AA JUMP JUMPDEST PUSH1 0x1 PUSH1 0x1 PUSH1 0xA0 SHL SUB SWAP1 SWAP2 AND PUSH1 0x0 DUP2 DUP2 MSTORE PUSH1 0xE0 PUSH1 0x20 MSTORE PUSH1 0x40 DUP2 KECCAK256 SWAP3 SWAP1 SWAP3 SSTORE PUSH1 0xE1 DUP1 SLOAD PUSH1 0x1 DUP2 ADD DUP3 SSTORE SWAP3 MSTORE PUSH1 0x0 DUP1 MLOAD PUSH1 0x20 PUSH2 0x2BBD DUP4 CODECOPY DUP2 MLOAD SWAP2 MSTORE SWAP1 SWAP2 ADD DUP1 SLOAD PUSH1 0x1 PUSH1 0x1 PUSH1 0xA0 SHL SUB NOT AND SWAP1 SWAP2 OR SWAP1 SSTORE JUMP JUMPDEST CALLER PUSH1 0x0 SWAP1 DUP2 MSTORE PUSH1 0xE5 PUSH1 0x20 MSTORE PUSH1 0x40 SWAP1 KECCAK256 SLOAD PUSH1 0xFF AND DUP1 PUSH2 0xEEC JUMPI POP PUSH2 0xED7 PUSH2 0x182E JUMP JUMPDEST PUSH1 0x1 PUSH1 0x1 PUSH1 0xA0 SHL SUB AND CALLER PUSH1 0x1 PUSH1 0x1 PUSH1 0xA0 SHL SUB AND EQ JUMPDEST PUSH2 0xF08 JUMPI PUSH1 0x40 MLOAD PUSH3 0x461BCD PUSH1 0xE5 SHL DUP2 MSTORE PUSH1 0x4 ADD PUSH2 0xBD4 SWAP1 PUSH2 0x29AA JUMP JUMPDEST PUSH1 0xD5 DUP1 SLOAD PUSH1 0x1 PUSH1 0x1 PUSH1 0xA0 SHL SUB NOT AND PUSH1 0x1 PUSH1 0x1 PUSH1 0xA0 SHL SUB SWAP3 SWAP1 SWAP3 AND SWAP2 SWAP1 SWAP2 OR SWAP1 SSTORE JUMP JUMPDEST PUSH1 0x1 PUSH1 0x1 PUSH1 0xA0 SHL SUB PUSH32 0x0 AND ADDRESS SUB PUSH2 0xF72 JUMPI PUSH1 0x40 MLOAD PUSH3 0x461BCD PUSH1 0xE5 SHL DUP2 MSTORE PUSH1 0x4 ADD PUSH2 0xBD4 SWAP1 PUSH2 0x29E3 JUMP JUMPDEST PUSH32 0x0 PUSH1 0x1 PUSH1 0x1 PUSH1 0xA0 SHL SUB AND PUSH2 0xFA4 PUSH2 0x212F JUMP JUMPDEST PUSH1 0x1 PUSH1 0x1 PUSH1 0xA0 SHL SUB AND EQ PUSH2 0xFCA JUMPI PUSH1 0x40 MLOAD PUSH3 0x461BCD PUSH1 0xE5 SHL DUP2 MSTORE PUSH1 0x4 ADD PUSH2 0xBD4 SWAP1 PUSH2 0x2A1D JUMP JUMPDEST PUSH2 0xFD3 DUP2 PUSH2 0x214B JUMP JUMPDEST PUSH1 0x40 DUP1 MLOAD PUSH1 0x0 DUP1 DUP3 MSTORE PUSH1 0x20 DUP3 ADD SWAP1 SWAP3 MSTORE PUSH2 0xFEF SWAP2 DUP4 SWAP2 SWAP1 PUSH2 0x2153 JUMP JUMPDEST POP JUMP JUMPDEST CALLER PUSH1 0x0 SWAP1 DUP2 MSTORE PUSH1 0xE5 PUSH1 0x20 MSTORE PUSH1 0x40 SWAP1 KECCAK256 SLOAD PUSH1 0xFF AND DUP1 PUSH2 0x1028 JUMPI POP PUSH2 0x1013 PUSH2 0x182E JUMP JUMPDEST PUSH1 0x1 PUSH1 0x1 PUSH1 0xA0 SHL SUB AND CALLER PUSH1 0x1 PUSH1 0x1 PUSH1 0xA0 SHL SUB AND EQ JUMPDEST PUSH2 0x1044 JUMPI PUSH1 0x40 MLOAD PUSH3 0x461BCD PUSH1 0xE5 SHL DUP2 MSTORE PUSH1 0x4 ADD PUSH2 0xBD4 SWAP1 PUSH2 0x29AA JUMP JUMPDEST DUP1 MLOAD DUP3 MLOAD EQ PUSH2 0x1084 JUMPI PUSH1 0x40 MLOAD PUSH3 0x461BCD PUSH1 0xE5 SHL DUP2 MSTORE PUSH1 0x20 PUSH1 0x4 DUP3 ADD MSTORE PUSH1 0xC PUSH1 0x24 DUP3 ADD MSTORE PUSH12 0x3632B733BA341032B93937B9 PUSH1 0xA1 SHL PUSH1 0x44 DUP3 ADD MSTORE PUSH1 0x64 ADD PUSH2 0xBD4 JUMP JUMPDEST PUSH1 0x0 JUMPDEST DUP3 MLOAD DUP2 LT ISZERO PUSH2 0x1105 JUMPI PUSH1 0x40 MLOAD DUP1 PUSH1 0x40 ADD PUSH1 0x40 MSTORE DUP1 DUP5 DUP4 DUP2 MLOAD DUP2 LT PUSH2 0x10AD JUMPI PUSH2 0x10AD PUSH2 0x29CD JUMP JUMPDEST PUSH1 0x20 MUL PUSH1 0x20 ADD ADD MLOAD DUP2 MSTORE PUSH1 0x20 ADD DUP4 DUP4 DUP2 MLOAD DUP2 LT PUSH2 0x10CC JUMPI PUSH2 0x10CC PUSH2 0x29CD JUMP JUMPDEST PUSH1 0x20 SWAP1 DUP2 MUL SWAP2 SWAP1 SWAP2 ADD DUP2 ADD MLOAD SWAP1 SWAP2 MSTORE PUSH1 0x0 DUP4 DUP2 MSTORE PUSH1 0xDF DUP3 MSTORE PUSH1 0x40 SWAP1 KECCAK256 DUP3 MLOAD DUP2 SSTORE SWAP2 ADD MLOAD PUSH1 0x1 SWAP1 SWAP2 ADD SSTORE PUSH2 0x10FE DUP2 PUSH2 0x2A57 JUMP JUMPDEST SWAP1 POP PUSH2 0x1087 JUMP JUMPDEST POP POP POP JUMP JUMPDEST CALLER PUSH1 0x0 SWAP1 DUP2 MSTORE PUSH1 0xE5 PUSH1 0x20 MSTORE PUSH1 0x40 SWAP1 KECCAK256 SLOAD PUSH1 0xFF AND DUP1 PUSH2 0x1140 JUMPI POP PUSH2 0x112B PUSH2 0x182E JUMP JUMPDEST PUSH1 0x1 PUSH1 0x1 PUSH1 0xA0 SHL SUB AND CALLER PUSH1 0x1 PUSH1 0x1 PUSH1 0xA0 SHL SUB AND EQ JUMPDEST PUSH2 0x115C JUMPI PUSH1 0x40 MLOAD PUSH3 0x461BCD PUSH1 0xE5 SHL DUP2 MSTORE PUSH1 0x4 ADD PUSH2 0xBD4 SWAP1 PUSH2 0x29AA JUMP JUMPDEST PUSH1 0xD9 SSTORE JUMP JUMPDEST PUSH2 0x1169 PUSH2 0x20D0 JUMP JUMPDEST PUSH1 0x1 PUSH1 0x1 PUSH1 0xA0 SHL SUB SWAP2 SWAP1 SWAP2 AND PUSH1 0x0 SWAP1 DUP2 MSTORE PUSH1 0xE5 PUSH1 0x20 MSTORE PUSH1 0x40 SWAP1 KECCAK256 DUP1 SLOAD PUSH1 0xFF NOT AND SWAP2 ISZERO ISZERO SWAP2 SWAP1 SWAP2 OR SWAP1 SSTORE JUMP JUMPDEST PUSH1 0x1 PUSH1 0x1 PUSH1 0xA0 SHL SUB PUSH32 0x0 AND ADDRESS SUB PUSH2 0x11DC JUMPI PUSH1 0x40 MLOAD PUSH3 0x461BCD PUSH1 0xE5 SHL DUP2 MSTORE PUSH1 0x4 ADD PUSH2 0xBD4 SWAP1 PUSH2 0x29E3 JUMP JUMPDEST PUSH32 0x0 PUSH1 0x1 PUSH1 0x1 PUSH1 0xA0 SHL SUB AND PUSH2 0x120E PUSH2 0x212F JUMP JUMPDEST PUSH1 0x1 PUSH1 0x1 PUSH1 0xA0 SHL SUB AND EQ PUSH2 0x1234 JUMPI PUSH1 0x40 MLOAD PUSH3 0x461BCD PUSH1 0xE5 SHL DUP2 MSTORE PUSH1 0x4 ADD PUSH2 0xBD4 SWAP1 PUSH2 0x2A1D JUMP JUMPDEST PUSH2 0x123D DUP3 PUSH2 0x214B JUMP JUMPDEST PUSH2 0x1249 DUP3 DUP3 PUSH1 0x1 PUSH2 0x2153 JUMP JUMPDEST POP POP JUMP JUMPDEST PUSH1 0x0 ADDRESS PUSH1 0x1 PUSH1 0x1 PUSH1 0xA0 SHL SUB PUSH32 0x0 AND EQ PUSH2 0x12E8 JUMPI PUSH1 0x40 MLOAD PUSH3 0x461BCD PUSH1 0xE5 SHL DUP2 MSTORE PUSH1 0x20 PUSH1 0x4 DUP3 ADD MSTORE PUSH1 0x38 PUSH1 0x24 DUP3 ADD MSTORE PUSH32 0x555550535570677261646561626C653A206D757374206E6F742062652063616C PUSH1 0x44 DUP3 ADD MSTORE PUSH24 0x1B1959081D1A1C9BDD59DA0819195B1959D85D1958D85B1B PUSH1 0x42 SHL PUSH1 0x64 DUP3 ADD MSTORE PUSH1 0x84 ADD PUSH2 0xBD4 JUMP JUMPDEST POP PUSH1 0x0 DUP1 MLOAD PUSH1 0x20 PUSH2 0x2B76 DUP4 CODECOPY DUP2 MLOAD SWAP2 MSTORE SWAP1 JUMP JUMPDEST CALLER PUSH1 0x0 SWAP1 DUP2 MSTORE PUSH1 0xE5 PUSH1 0x20 MSTORE PUSH1 0x40 SWAP1 KECCAK256 SLOAD PUSH1 0xFF AND DUP1 PUSH2 0x1331 JUMPI POP PUSH2 0x131C PUSH2 0x182E JUMP JUMPDEST PUSH1 0x1 PUSH1 0x1 PUSH1 0xA0 SHL SUB AND CALLER PUSH1 0x1 PUSH1 0x1 PUSH1 0xA0 SHL SUB AND EQ JUMPDEST PUSH2 0x134D JUMPI PUSH1 0x40 MLOAD PUSH3 0x461BCD PUSH1 0xE5 SHL DUP2 MSTORE PUSH1 0x4 ADD PUSH2 0xBD4 SWAP1 PUSH2 0x29AA JUMP JUMPDEST PUSH1 0xCC SLOAD PUSH1 0x40 MLOAD PUSH4 0x2BB14FC1 PUSH1 0xE1 SHL DUP2 MSTORE PUSH1 0x1 PUSH1 0x1 PUSH1 0xA0 SHL SUB DUP5 DUP2 AND PUSH1 0x4 DUP4 ADD MSTORE PUSH1 0x24 DUP3 ADD DUP5 SWAP1 MSTORE SWAP1 SWAP2 AND SWAP1 PUSH4 0x57629F82 SWAP1 PUSH1 0x44 ADD PUSH1 0x0 PUSH1 0x40 MLOAD DUP1 DUP4 SUB DUP2 PUSH1 0x0 DUP8 DUP1 EXTCODESIZE ISZERO DUP1 ISZERO PUSH2 0x139B JUMPI PUSH1 0x0 DUP1 REVERT JUMPDEST POP GAS CALL ISZERO DUP1 ISZERO PUSH2 0x13AF JUMPI RETURNDATASIZE PUSH1 0x0 DUP1 RETURNDATACOPY RETURNDATASIZE PUSH1 0x0 REVERT JUMPDEST POP POP POP POP POP POP JUMP JUMPDEST CALLER PUSH1 0x0 SWAP1 DUP2 MSTORE PUSH1 0xE5 PUSH1 0x20 MSTORE PUSH1 0x40 SWAP1 KECCAK256 SLOAD PUSH1 0xFF AND DUP1 PUSH2 0x13ED JUMPI POP PUSH2 0x13D8 PUSH2 0x182E JUMP JUMPDEST PUSH1 0x1 PUSH1 0x1 PUSH1 0xA0 SHL SUB AND CALLER PUSH1 0x1 PUSH1 0x1 PUSH1 0xA0 SHL SUB AND EQ JUMPDEST PUSH2 0x1409 JUMPI PUSH1 0x40 MLOAD PUSH3 0x461BCD PUSH1 0xE5 SHL DUP2 MSTORE PUSH1 0x4 ADD PUSH2 0xBD4 SWAP1 PUSH2 0x29AA JUMP JUMPDEST PUSH1 0xD4 DUP1 SLOAD PUSH1 0x1 PUSH1 0x1 PUSH1 0xA0 SHL SUB NOT AND PUSH1 0x1 PUSH1 0x1 PUSH1 0xA0 SHL SUB SWAP3 SWAP1 SWAP3 AND SWAP2 SWAP1 SWAP2 OR SWAP1 SSTORE JUMP JUMPDEST CALLER PUSH1 0x0 SWAP1 DUP2 MSTORE PUSH1 0xE5 PUSH1 0x20 MSTORE PUSH1 0x40 SWAP1 KECCAK256 SLOAD PUSH1 0xFF AND DUP1 PUSH2 0x1461 JUMPI POP PUSH2 0x144C PUSH2 0x182E JUMP JUMPDEST PUSH1 0x1 PUSH1 0x1 PUSH1 0xA0 SHL SUB AND CALLER PUSH1 0x1 PUSH1 0x1 PUSH1 0xA0 SHL SUB AND EQ JUMPDEST PUSH2 0x147D JUMPI PUSH1 0x40 MLOAD PUSH3 0x461BCD PUSH1 0xE5 SHL DUP2 MSTORE PUSH1 0x4 ADD PUSH2 0xBD4 SWAP1 PUSH2 0x29AA JUMP JUMPDEST PUSH1 0xDE SSTORE JUMP JUMPDEST PUSH1 0x60 DUP1 PUSH1 0xE1 DUP1 SLOAD DUP1 PUSH1 0x20 MUL PUSH1 0x20 ADD PUSH1 0x40 MLOAD SWAP1 DUP2 ADD PUSH1 0x40 MSTORE DUP1 SWAP3 SWAP2 SWAP1 DUP2 DUP2 MSTORE PUSH1 0x20 ADD DUP3 DUP1 SLOAD DUP1 ISZERO PUSH2 0x14DB JUMPI PUSH1 0x20 MUL DUP3 ADD SWAP2 SWAP1 PUSH1 0x0 MSTORE PUSH1 0x20 PUSH1 0x0 KECCAK256 SWAP1 JUMPDEST DUP2 SLOAD PUSH1 0x1 PUSH1 0x1 PUSH1 0xA0 SHL SUB AND DUP2 MSTORE PUSH1 0x1 SWAP1 SWAP2 ADD SWAP1 PUSH1 0x20 ADD DUP1 DUP4 GT PUSH2 0x14BD JUMPI JUMPDEST POP POP POP POP POP SWAP2 POP DUP2 MLOAD PUSH1 0x1 PUSH1 0x1 PUSH1 0x40 SHL SUB DUP2 GT ISZERO PUSH2 0x14FB JUMPI PUSH2 0x14FB PUSH2 0x26D3 JUMP JUMPDEST PUSH1 0x40 MLOAD SWAP1 DUP1 DUP3 MSTORE DUP1 PUSH1 0x20 MUL PUSH1 0x20 ADD DUP3 ADD PUSH1 0x40 MSTORE DUP1 ISZERO PUSH2 0x1524 JUMPI DUP2 PUSH1 0x20 ADD PUSH1 0x20 DUP3 MUL DUP1 CALLDATASIZE DUP4 CALLDATACOPY ADD SWAP1 POP JUMPDEST POP SWAP1 POP PUSH1 0x0 JUMPDEST DUP3 MLOAD DUP2 LT ISZERO PUSH2 0x15A1 JUMPI PUSH1 0xE0 PUSH1 0x0 DUP5 DUP4 DUP2 MLOAD DUP2 LT PUSH2 0x1549 JUMPI PUSH2 0x1549 PUSH2 0x29CD JUMP JUMPDEST PUSH1 0x20 MUL PUSH1 0x20 ADD ADD MLOAD PUSH1 0x1 PUSH1 0x1 PUSH1 0xA0 SHL SUB AND PUSH1 0x1 PUSH1 0x1 PUSH1 0xA0 SHL SUB AND DUP2 MSTORE PUSH1 0x20 ADD SWAP1 DUP2 MSTORE PUSH1 0x20 ADD PUSH1 0x0 KECCAK256 SLOAD DUP3 DUP3 DUP2 MLOAD DUP2 LT PUSH2 0x1584 JUMPI PUSH2 0x1584 PUSH2 0x29CD JUMP JUMPDEST PUSH1 0x20 SWAP1 DUP2 MUL SWAP2 SWAP1 SWAP2 ADD ADD MSTORE DUP1 PUSH2 0x1599 DUP2 PUSH2 0x2A57 JUMP JUMPDEST SWAP2 POP POP PUSH2 0x152A JUMP JUMPDEST POP SWAP1 SWAP2 JUMP JUMPDEST PUSH2 0x15AE PUSH2 0x20D0 JUMP JUMPDEST PUSH2 0x15B8 PUSH1 0x0 PUSH2 0x22BE JUMP JUMPDEST JUMP JUMPDEST CALLER PUSH1 0x0 SWAP1 DUP2 MSTORE PUSH1 0xE5 PUSH1 0x20 MSTORE PUSH1 0x40 SWAP1 KECCAK256 SLOAD PUSH1 0xFF AND DUP1 PUSH2 0x15F0 JUMPI POP PUSH2 0x15DB PUSH2 0x182E JUMP JUMPDEST PUSH1 0x1 PUSH1 0x1 PUSH1 0xA0 SHL SUB AND CALLER PUSH1 0x1 PUSH1 0x1 PUSH1 0xA0 SHL SUB AND EQ JUMPDEST PUSH2 0x160C JUMPI PUSH1 0x40 MLOAD PUSH3 0x461BCD PUSH1 0xE5 SHL DUP2 MSTORE PUSH1 0x4 ADD PUSH2 0xBD4 SWAP1 PUSH2 0x29AA JUMP JUMPDEST PUSH1 0xD1 SSTORE JUMP JUMPDEST CALLER PUSH1 0x0 SWAP1 DUP2 MSTORE PUSH1 0xE5 PUSH1 0x20 MSTORE PUSH1 0x40 SWAP1 KECCAK256 SLOAD PUSH1 0xFF AND DUP1 PUSH2 0x1647 JUMPI POP PUSH2 0x1632 PUSH2 0x182E JUMP JUMPDEST PUSH1 0x1 PUSH1 0x1 PUSH1 0xA0 SHL SUB AND CALLER PUSH1 0x1 PUSH1 0x1 PUSH1 0xA0 SHL SUB AND EQ JUMPDEST PUSH2 0x1663 JUMPI PUSH1 0x40 MLOAD PUSH3 0x461BCD PUSH1 0xE5 SHL DUP2 MSTORE PUSH1 0x4 ADD PUSH2 0xBD4 SWAP1 PUSH2 0x29AA JUMP JUMPDEST PUSH1 0xE2 SSTORE JUMP JUMPDEST CALLER PUSH1 0x0 SWAP1 DUP2 MSTORE PUSH1 0xE5 PUSH1 0x20 MSTORE PUSH1 0x40 SWAP1 KECCAK256 SLOAD PUSH1 0xFF AND DUP1 PUSH2 0x169E JUMPI POP PUSH2 0x1689 PUSH2 0x182E JUMP JUMPDEST PUSH1 0x1 PUSH1 0x1 PUSH1 0xA0 SHL SUB AND CALLER PUSH1 0x1 PUSH1 0x1 PUSH1 0xA0 SHL SUB AND EQ JUMPDEST PUSH2 0x16BA JUMPI PUSH1 0x40 MLOAD PUSH3 0x461BCD PUSH1 0xE5 SHL DUP2 MSTORE PUSH1 0x4 ADD PUSH2 0xBD4 SWAP1 PUSH2 0x29AA JUMP JUMPDEST PUSH1 0xE6 SSTORE JUMP JUMPDEST CALLER PUSH1 0x0 SWAP1 DUP2 MSTORE PUSH1 0xE5 PUSH1 0x20 MSTORE PUSH1 0x40 SWAP1 KECCAK256 SLOAD PUSH1 0xFF AND DUP1 PUSH2 0x16F5 JUMPI POP PUSH2 0x16E0 PUSH2 0x182E JUMP JUMPDEST PUSH1 0x1 PUSH1 0x1 PUSH1 0xA0 SHL SUB AND CALLER PUSH1 0x1 PUSH1 0x1 PUSH1 0xA0 SHL SUB AND EQ JUMPDEST PUSH2 0x1711 JUMPI PUSH1 0x40 MLOAD PUSH3 0x461BCD PUSH1 0xE5 SHL DUP2 MSTORE PUSH1 0x4 ADD PUSH2 0xBD4 SWAP1 PUSH2 0x29AA JUMP JUMPDEST PUSH1 0xE3 SSTORE JUMP JUMPDEST CALLER PUSH1 0x0 SWAP1 DUP2 MSTORE PUSH1 0xE5 PUSH1 0x20 MSTORE PUSH1 0x40 SWAP1 KECCAK256 SLOAD PUSH1 0xFF AND DUP1 PUSH2 0x174C JUMPI POP PUSH2 0x1737 PUSH2 0x182E JUMP JUMPDEST PUSH1 0x1 PUSH1 0x1 PUSH1 0xA0 SHL SUB AND CALLER PUSH1 0x1 PUSH1 0x1 PUSH1 0xA0 SHL SUB AND EQ JUMPDEST PUSH2 0x1768 JUMPI PUSH1 0x40 MLOAD PUSH3 0x461BCD PUSH1 0xE5 SHL DUP2 MSTORE PUSH1 0x4 ADD PUSH2 0xBD4 SWAP1 PUSH2 0x29AA JUMP JUMPDEST PUSH1 0xC9 DUP1 SLOAD PUSH1 0x1 PUSH1 0x1 PUSH1 0xA0 SHL SUB NOT SWAP1 DUP2 AND PUSH1 0x1 PUSH1 0x1 PUSH1 0xA0 SHL SUB SWAP9 DUP10 AND OR SWAP1 SWAP2 SSTORE PUSH1 0xCB DUP1 SLOAD DUP3 AND SWAP7 DUP9 AND SWAP7 SWAP1 SWAP7 OR SWAP1 SWAP6 SSTORE PUSH1 0xCA DUP1 SLOAD DUP7 AND SWAP5 DUP8 AND SWAP5 SWAP1 SWAP5 OR SWAP1 SWAP4 SSTORE PUSH1 0xCD DUP1 SLOAD DUP6 AND SWAP3 DUP7 AND SWAP3 SWAP1 SWAP3 OR SWAP1 SWAP2 SSTORE PUSH1 0xCC DUP1 SLOAD DUP5 AND SWAP2 DUP6 AND SWAP2 SWAP1 SWAP2 OR SWAP1 SSTORE PUSH1 0xCE DUP1 SLOAD SWAP1 SWAP3 AND SWAP3 AND SWAP2 SWAP1 SWAP2 OR SWAP1 SSTORE JUMP JUMPDEST CALLER PUSH1 0x0 SWAP1 DUP2 MSTORE PUSH1 0xE5 PUSH1 0x20 MSTORE PUSH1 0x40 SWAP1 KECCAK256 SLOAD PUSH1 0xFF AND DUP1 PUSH2 0x180D JUMPI POP PUSH2 0x17F8 PUSH2 0x182E JUMP JUMPDEST PUSH1 0x1 PUSH1 0x1 PUSH1 0xA0 SHL SUB AND CALLER PUSH1 0x1 PUSH1 0x1 PUSH1 0xA0 SHL SUB AND EQ JUMPDEST PUSH2 0x1829 JUMPI PUSH1 0x40 MLOAD PUSH3 0x461BCD PUSH1 0xE5 SHL DUP2 MSTORE PUSH1 0x4 ADD PUSH2 0xBD4 SWAP1 PUSH2 0x29AA JUMP JUMPDEST PUSH1 0xDA SSTORE JUMP JUMPDEST PUSH1 0x33 SLOAD PUSH1 0x1 PUSH1 0x1 PUSH1 0xA0 SHL SUB AND SWAP1 JUMP JUMPDEST PUSH1 0x40 DUP1 MLOAD PUSH1 0x4 DUP1 DUP3 MSTORE PUSH1 0xA0 DUP3 ADD SWAP1 SWAP3 MSTORE PUSH1 0x60 SWAP2 DUP3 SWAP2 SWAP1 PUSH1 0x20 DUP3 ADD PUSH1 0x80 DUP1 CALLDATASIZE DUP4 CALLDATACOPY POP POP PUSH1 0x40 DUP1 MLOAD PUSH1 0x4 DUP1 DUP3 MSTORE PUSH1 0xA0 DUP3 ADD SWAP1 SWAP3 MSTORE SWAP3 SWAP5 POP SWAP1 POP PUSH1 0x20 DUP3 ADD PUSH1 0x80 DUP1 CALLDATASIZE DUP4 CALLDATACOPY ADD SWAP1 POP POP SWAP1 POP PUSH1 0x0 JUMPDEST PUSH1 0x4 DUP2 LT ISZERO PUSH2 0x15A1 JUMPI PUSH1 0x0 DUP2 DUP2 MSTORE PUSH1 0xDF PUSH1 0x20 MSTORE PUSH1 0x40 SWAP1 KECCAK256 SLOAD DUP4 MLOAD DUP5 SWAP1 DUP4 SWAP1 DUP2 LT PUSH2 0x18B3 JUMPI PUSH2 0x18B3 PUSH2 0x29CD JUMP JUMPDEST PUSH1 0x20 MUL PUSH1 0x20 ADD ADD DUP2 DUP2 MSTORE POP POP PUSH1 0xDF PUSH1 0x0 DUP3 DUP2 MSTORE PUSH1 0x20 ADD SWAP1 DUP2 MSTORE PUSH1 0x20 ADD PUSH1 0x0 KECCAK256 PUSH1 0x1 ADD SLOAD DUP3 DUP3 DUP2 MLOAD DUP2 LT PUSH2 0x18E8 JUMPI PUSH2 0x18E8 PUSH2 0x29CD JUMP JUMPDEST PUSH1 0x20 SWAP1 DUP2 MUL SWAP2 SWAP1 SWAP2 ADD ADD MSTORE DUP1 PUSH2 0x18FD DUP2 PUSH2 0x2A57 JUMP JUMPDEST SWAP2 POP POP PUSH2 0x1887 JUMP JUMPDEST CALLER PUSH1 0x0 SWAP1 DUP2 MSTORE PUSH1 0xE5 PUSH1 0x20 MSTORE PUSH1 0x40 SWAP1 KECCAK256 SLOAD PUSH1 0xFF AND DUP1 PUSH2 0x193B JUMPI POP PUSH2 0x1926 PUSH2 0x182E JUMP JUMPDEST PUSH1 0x1 PUSH1 0x1 PUSH1 0xA0 SHL SUB AND CALLER PUSH1 0x1 PUSH1 0x1 PUSH1 0xA0 SHL SUB AND EQ JUMPDEST PUSH2 0x1957 JUMPI PUSH1 0x40 MLOAD PUSH3 0x461BCD PUSH1 0xE5 SHL DUP2 MSTORE PUSH1 0x4 ADD PUSH2 0xBD4 SWAP1 PUSH2 0x29AA JUMP JUMPDEST PUSH1 0xE7 SSTORE JUMP JUMPDEST PUSH1 0x0 SLOAD PUSH2 0x100 SWAP1 DIV PUSH1 0xFF AND ISZERO DUP1 DUP1 ISZERO PUSH2 0x197C JUMPI POP PUSH1 0x0 SLOAD PUSH1 0x1 PUSH1 0xFF SWAP1 SWAP2 AND LT JUMPDEST DUP1 PUSH2 0x199D JUMPI POP PUSH2 0x198B ADDRESS PUSH2 0x2310 JUMP JUMPDEST ISZERO DUP1 ISZERO PUSH2 0x199D JUMPI POP PUSH1 0x0 SLOAD PUSH1 0xFF AND PUSH1 0x1 EQ JUMPDEST PUSH2 0x1A00 JUMPI PUSH1 0x40 MLOAD PUSH3 0x461BCD PUSH1 0xE5 SHL DUP2 MSTORE PUSH1 0x20 PUSH1 0x4 DUP3 ADD MSTORE PUSH1 0x2E PUSH1 0x24 DUP3 ADD MSTORE PUSH32 0x496E697469616C697A61626C653A20636F6E747261637420697320616C726561 PUSH1 0x44 DUP3 ADD MSTORE PUSH14 0x191E481A5B9A5D1A585B1A5E9959 PUSH1 0x92 SHL PUSH1 0x64 DUP3 ADD MSTORE PUSH1 0x84 ADD PUSH2 0xBD4 JUMP JUMPDEST PUSH1 0x0 DUP1 SLOAD PUSH1 0xFF NOT AND PUSH1 0x1 OR SWAP1 SSTORE DUP1 ISZERO PUSH2 0x1A23 JUMPI PUSH1 0x0 DUP1 SLOAD PUSH2 0xFF00 NOT AND PUSH2 0x100 OR SWAP1 SSTORE JUMPDEST PUSH2 0x1A2B PUSH2 0x231F JUMP JUMPDEST PUSH1 0xE4 DUP1 SLOAD PUSH1 0x1 PUSH1 0x1 PUSH1 0xA0 SHL SUB DUP5 AND PUSH1 0x1 PUSH1 0x1 PUSH1 0xA0 SHL SUB NOT SWAP2 DUP3 AND OR SWAP1 SWAP2 SSTORE PUSH1 0xCF DUP1 SLOAD DUP3 AND PUSH20 0xDF9228FC02F4554CD80AF6D036DADE242022E4F2 OR SWAP1 SSTORE PUSH1 0xD0 DUP1 SLOAD DUP3 AND PUSH20 0x4076AF4556458CDD0AD25E86ED23B4DC8437DCE4 OR SWAP1 SSTORE PUSH2 0x384 PUSH1 0xD1 SSTORE PUSH2 0x3E8 PUSH1 0xD2 SSTORE PUSH1 0xD3 DUP1 SLOAD DUP3 AND PUSH20 0xFAE25F1AE4B758D7C96D7EB075B62AF4F3398B89 OR SWAP1 SSTORE PUSH1 0xD4 DUP1 SLOAD DUP3 AND PUSH20 0x7FBA7858083836D9169EB3BE21A48189E1798C8E OR SWAP1 SSTORE PUSH1 0xD5 DUP1 SLOAD DUP3 AND PUSH20 0x2737AC6359664096F22863088246D885F14E6FF2 SWAP1 DUP2 OR SWAP1 SWAP2 SSTORE PUSH9 0x1158E460913D00000 PUSH1 0xD6 SSTORE PUSH10 0x14542BA12A337C00000 PUSH1 0xE6 SSTORE PUSH1 0x96 PUSH1 0xD7 SSTORE PUSH1 0x64 PUSH1 0xD8 DUP2 SWAP1 SSTORE PUSH1 0xD9 DUP2 SWAP1 SSTORE PUSH1 0xDA SSTORE PUSH1 0xDB DUP1 SLOAD DUP4 AND SWAP1 SWAP2 OR SWAP1 SSTORE PUSH1 0xDC DUP1 SLOAD DUP3 AND PUSH20 0xB36F6361DCF31D0D7956E9E826A9915A5DDEC272 OR SWAP1 SSTORE PUSH1 0x32 PUSH1 0xDD SSTORE PUSH10 0x43C33C1937564800000 PUSH1 0xDE SSTORE PUSH1 0x40 DUP1 MLOAD DUP1 DUP3 ADD DUP3 MSTORE PUSH1 0x0 DUP1 DUP3 MSTORE PUSH1 0x20 DUP1 DUP4 ADD DUP3 DUP2 MSTORE DUP3 DUP1 MSTORE PUSH1 0xDF DUP1 DUP4 MSTORE SWAP4 MLOAD PUSH32 0x4B917336BA36FEFA23B90074E126FE5413F0E3FC800E7AB1DA217D9A2807B711 SSTORE MLOAD PUSH32 0x4B917336BA36FEFA23B90074E126FE5413F0E3FC800E7AB1DA217D9A2807B712 SSTORE DUP4 MLOAD DUP1 DUP6 ADD DUP6 MSTORE PUSH10 0x21E19E0C9BAB2400000 DUP2 MSTORE PUSH1 0xC8 DUP2 DUP4 ADD SWAP1 DUP2 MSTORE PUSH1 0x1 DUP1 DUP6 MSTORE DUP6 DUP5 MSTORE SWAP2 MLOAD PUSH32 0x55C38C42E971EEB957B61422467F67FA3B212021AC50A6B2B3D5ACD9D01CB97D SSTORE MLOAD PUSH32 0x55C38C42E971EEB957B61422467F67FA3B212021AC50A6B2B3D5ACD9D01CB97E SSTORE DUP5 MLOAD DUP1 DUP7 ADD DUP7 MSTORE PUSH10 0x65A4DA25D3016C00000 DUP2 MSTORE PUSH2 0x15E DUP2 DUP5 ADD SWAP1 DUP2 MSTORE PUSH1 0x2 DUP6 MSTORE DUP6 DUP5 MSTORE SWAP1 MLOAD PUSH32 0x36D20378F308040D39A8A5E0299048C5EB6A3E2AF0AAD6FC5CBD63DBA6084C75 SSTORE MLOAD PUSH32 0x36D20378F308040D39A8A5E0299048C5EB6A3E2AF0AAD6FC5CBD63DBA6084C76 SSTORE DUP5 MLOAD DUP1 DUP7 ADD SWAP1 SWAP6 MSTORE PUSH10 0x152D02C7E14AF6800000 DUP6 MSTORE PUSH2 0x1F4 DUP6 DUP4 ADD SWAP1 DUP2 MSTORE PUSH1 0x3 DUP1 DUP6 MSTORE SWAP5 DUP4 MSTORE SWAP5 MLOAD PUSH32 0x780609EDA5E52D7936E75EAD8EC77FC018859646A90304D10FB581006956B09E SSTORE SWAP4 MLOAD PUSH32 0x780609EDA5E52D7936E75EAD8EC77FC018859646A90304D10FB581006956B09F SSTORE PUSH1 0xE0 SWAP1 MSTORE PUSH32 0x8C1B51B97DA4A7D19A16112B2B5F6595497C2A9FA9D3658419A1A3A06F79AF0E SWAP2 SWAP1 SWAP2 SSTORE PUSH1 0xE1 DUP1 SLOAD SWAP3 DUP4 ADD DUP2 SSTORE SWAP1 MSTORE PUSH1 0x0 DUP1 MLOAD PUSH1 0x20 PUSH2 0x2BBD DUP4 CODECOPY DUP2 MLOAD SWAP2 MSTORE ADD DUP1 SLOAD SWAP1 SWAP2 AND PUSH20 0xF51446F195D697ED51235E7B382FC170503E1976 OR SWAP1 SSTORE PUSH4 0x1E13380 PUSH1 0xE2 SSTORE PUSH1 0x3C PUSH1 0xE3 SSTORE DUP1 ISZERO PUSH2 0x1249 JUMPI PUSH1 0x0 DUP1 SLOAD PUSH2 0xFF00 NOT AND SWAP1 SSTORE PUSH1 0x40 MLOAD PUSH1 0x1 DUP2 MSTORE PUSH32 0x7F26B83FF96E1F2B6A682F133852F6798A09C465DA95921460CEFB3847402498 SWAP1 PUSH1 0x20 ADD PUSH1 0x40 MLOAD DUP1 SWAP2 SUB SWAP1 LOG1 POP POP JUMP JUMPDEST CALLER PUSH1 0x0 SWAP1 DUP2 MSTORE PUSH1 0xE5 PUSH1 0x20 MSTORE PUSH1 0x40 SWAP1 KECCAK256 SLOAD PUSH1 0xFF AND DUP1 PUSH2 0x1DEF JUMPI POP PUSH2 0x1DDA PUSH2 0x182E JUMP JUMPDEST PUSH1 0x1 PUSH1 0x1 PUSH1 0xA0 SHL SUB AND CALLER PUSH1 0x1 PUSH1 0x1 PUSH1 0xA0 SHL SUB AND EQ JUMPDEST PUSH2 0x1E0B JUMPI PUSH1 0x40 MLOAD PUSH3 0x461BCD PUSH1 0xE5 SHL DUP2 MSTORE PUSH1 0x4 ADD PUSH2 0xBD4 SWAP1 PUSH2 0x29AA JUMP JUMPDEST PUSH1 0xCF DUP1 SLOAD PUSH1 0x1 PUSH1 0x1 PUSH1 0xA0 SHL SUB NOT AND PUSH1 0x1 PUSH1 0x1 PUSH1 0xA0 SHL SUB SWAP3 SWAP1 SWAP3 AND SWAP2 SWAP1 SWAP2 OR SWAP1 SSTORE JUMP JUMPDEST CALLER PUSH1 0x0 SWAP1 DUP2 MSTORE PUSH1 0xE5 PUSH1 0x20 MSTORE PUSH1 0x40 SWAP1 KECCAK256 SLOAD PUSH1 0xFF AND DUP1 PUSH2 0x1E63 JUMPI POP PUSH2 0x1E4E PUSH2 0x182E JUMP JUMPDEST PUSH1 0x1 PUSH1 0x1 PUSH1 0xA0 SHL SUB AND CALLER PUSH1 0x1 PUSH1 0x1 PUSH1 0xA0 SHL SUB AND EQ JUMPDEST PUSH2 0x1E7F JUMPI PUSH1 0x40 MLOAD PUSH3 0x461BCD PUSH1 0xE5 SHL DUP2 MSTORE PUSH1 0x4 ADD PUSH2 0xBD4 SWAP1 PUSH2 0x29AA JUMP JUMPDEST PUSH1 0xD7 SWAP2 SWAP1 SWAP2 SSTORE PUSH1 0xD8 SSTORE JUMP JUMPDEST CALLER PUSH1 0x0 SWAP1 DUP2 MSTORE PUSH1 0xE5 PUSH1 0x20 MSTORE PUSH1 0x40 SWAP1 KECCAK256 SLOAD PUSH1 0xFF AND DUP1 PUSH2 0x1EC0 JUMPI POP PUSH2 0x1EAB PUSH2 0x182E JUMP JUMPDEST PUSH1 0x1 PUSH1 0x1 PUSH1 0xA0 SHL SUB AND CALLER PUSH1 0x1 PUSH1 0x1 PUSH1 0xA0 SHL SUB AND EQ JUMPDEST PUSH2 0x1EDC JUMPI PUSH1 0x40 MLOAD PUSH3 0x461BCD PUSH1 0xE5 SHL DUP2 MSTORE PUSH1 0x4 ADD PUSH2 0xBD4 SWAP1 PUSH2 0x29AA JUMP JUMPDEST PUSH1 0xDC DUP1 SLOAD PUSH1 0x1 PUSH1 0x1 PUSH1 0xA0 SHL SUB NOT AND PUSH1 0x1 PUSH1 0x1 PUSH1 0xA0 SHL SUB SWAP3 SWAP1 SWAP3 AND SWAP2 SWAP1 SWAP2 OR SWAP1 SSTORE JUMP JUMPDEST PUSH2 0x1F06 PUSH2 0x20D0 JUMP JUMPDEST PUSH1 0x1 PUSH1 0x1 PUSH1 0xA0 SHL SUB DUP2 AND PUSH2 0x1F6B JUMPI PUSH1 0x40 MLOAD PUSH3 0x461BCD PUSH1 0xE5 SHL DUP2 MSTORE PUSH1 0x20 PUSH1 0x4 DUP3 ADD MSTORE PUSH1 0x26 PUSH1 0x24 DUP3 ADD MSTORE PUSH32 0x4F776E61626C653A206E6577206F776E657220697320746865207A65726F2061 PUSH1 0x44 DUP3 ADD MSTORE PUSH6 0x646472657373 PUSH1 0xD0 SHL PUSH1 0x64 DUP3 ADD MSTORE PUSH1 0x84 ADD PUSH2 0xBD4 JUMP JUMPDEST PUSH2 0xFEF DUP2 PUSH2 0x22BE JUMP JUMPDEST CALLER PUSH1 0x0 SWAP1 DUP2 MSTORE PUSH1 0xE5 PUSH1 0x20 MSTORE PUSH1 0x40 SWAP1 KECCAK256 SLOAD PUSH1 0xFF AND DUP1 PUSH2 0x1FAA JUMPI POP PUSH2 0x1F95 PUSH2 0x182E JUMP JUMPDEST PUSH1 0x1 PUSH1 0x1 PUSH1 0xA0 SHL SUB AND CALLER PUSH1 0x1 PUSH1 0x1 PUSH1 0xA0 SHL SUB AND EQ JUMPDEST PUSH2 0x1FC6 JUMPI PUSH1 0x40 MLOAD PUSH3 0x461BCD PUSH1 0xE5 SHL DUP2 MSTORE PUSH1 0x4 ADD PUSH2 0xBD4 SWAP1 PUSH2 0x29AA JUMP JUMPDEST PUSH1 0xD0 DUP1 SLOAD PUSH1 0x1 PUSH1 0x1 PUSH1 0xA0 SHL SUB NOT AND PUSH1 0x1 PUSH1 0x1 PUSH1 0xA0 SHL SUB SWAP3 SWAP1 SWAP3 AND SWAP2 SWAP1 SWAP2 OR SWAP1 SSTORE JUMP JUMPDEST CALLER PUSH1 0x0 SWAP1 DUP2 MSTORE PUSH1 0xE5 PUSH1 0x20 MSTORE PUSH1 0x40 SWAP1 KECCAK256 SLOAD PUSH1 0xFF AND DUP1 PUSH2 0x201E JUMPI POP PUSH2 0x2009 PUSH2 0x182E JUMP JUMPDEST PUSH1 0x1 PUSH1 0x1 PUSH1 0xA0 SHL SUB AND CALLER PUSH1 0x1 PUSH1 0x1 PUSH1 0xA0 SHL SUB AND EQ JUMPDEST PUSH2 0x203A JUMPI PUSH1 0x40 MLOAD PUSH3 0x461BCD PUSH1 0xE5 SHL DUP2 MSTORE PUSH1 0x4 ADD PUSH2 0xBD4 SWAP1 PUSH2 0x29AA JUMP JUMPDEST PUSH1 0xD3 DUP1 SLOAD PUSH1 0x1 PUSH1 0x1 PUSH1 0xA0 SHL SUB NOT AND PUSH1 0x1 PUSH1 0x1 PUSH1 0xA0 SHL SUB SWAP3 SWAP1 SWAP3 AND SWAP2 SWAP1 SWAP2 OR SWAP1 SSTORE JUMP JUMPDEST CALLER PUSH1 0x0 SWAP1 DUP2 MSTORE PUSH1 0xE5 PUSH1 0x20 MSTORE PUSH1 0x40 SWAP1 KECCAK256 SLOAD PUSH1 0xFF AND DUP1 PUSH2 0x2092 JUMPI POP PUSH2 0x207D PUSH2 0x182E JUMP JUMPDEST PUSH1 0x1 PUSH1 0x1 PUSH1 0xA0 SHL SUB AND CALLER PUSH1 0x1 PUSH1 0x1 PUSH1 0xA0 SHL SUB AND EQ JUMPDEST PUSH2 0x20AE JUMPI PUSH1 0x40 MLOAD PUSH3 0x461BCD PUSH1 0xE5 SHL DUP2 MSTORE PUSH1 0x4 ADD PUSH2 0xBD4 SWAP1 PUSH2 0x29AA JUMP JUMPDEST PUSH1 0xDB DUP1 SLOAD PUSH1 0x1 PUSH1 0x1 PUSH1 0xA0 SHL SUB NOT AND PUSH1 0x1 PUSH1 0x1 PUSH1 0xA0 SHL SUB SWAP3 SWAP1 SWAP3 AND SWAP2 SWAP1 SWAP2 OR SWAP1 SSTORE JUMP JUMPDEST CALLER PUSH2 0x20D9 PUSH2 0x182E JUMP JUMPDEST PUSH1 0x1 PUSH1 0x1 PUSH1 0xA0 SHL SUB AND EQ PUSH2 0x15B8 JUMPI PUSH1 0x40 MLOAD PUSH3 0x461BCD PUSH1 0xE5 SHL DUP2 MSTORE PUSH1 0x20 PUSH1 0x4 DUP3 ADD DUP2 SWAP1 MSTORE PUSH1 0x24 DUP3 ADD MSTORE PUSH32 0x4F776E61626C653A2063616C6C6572206973206E6F7420746865206F776E6572 PUSH1 0x44 DUP3 ADD MSTORE PUSH1 0x64 ADD PUSH2 0xBD4 JUMP JUMPDEST PUSH1 0x0 DUP1 MLOAD PUSH1 0x20 PUSH2 0x2B76 DUP4 CODECOPY DUP2 MLOAD SWAP2 MSTORE SLOAD PUSH1 0x1 PUSH1 0x1 PUSH1 0xA0 SHL SUB AND SWAP1 JUMP JUMPDEST PUSH2 0xFEF PUSH2 0x20D0 JUMP JUMPDEST PUSH32 0x4910FDFA16FED3260ED0E7147F7CC6DA11A60208B5B9406D12A635614FFD9143 SLOAD PUSH1 0xFF AND ISZERO PUSH2 0x2186 JUMPI PUSH2 0x1105 DUP4 PUSH2 0x234E JUMP JUMPDEST DUP3 PUSH1 0x1 PUSH1 0x1 PUSH1 0xA0 SHL SUB AND PUSH4 0x52D1902D PUSH1 0x40 MLOAD DUP2 PUSH4 0xFFFFFFFF AND PUSH1 0xE0 SHL DUP2 MSTORE PUSH1 0x4 ADD PUSH1 0x20 PUSH1 0x40 MLOAD DUP1 DUP4 SUB DUP2 DUP7 GAS STATICCALL SWAP3 POP POP POP DUP1 ISZERO PUSH2 0x21E0 JUMPI POP PUSH1 0x40 DUP1 MLOAD PUSH1 0x1F RETURNDATASIZE SWAP1 DUP2 ADD PUSH1 0x1F NOT AND DUP3 ADD SWAP1 SWAP3 MSTORE PUSH2 0x21DD SWAP2 DUP2 ADD SWAP1 PUSH2 0x2A7E JUMP JUMPDEST PUSH1 0x1 JUMPDEST PUSH2 0x2243 JUMPI PUSH1 0x40 MLOAD PUSH3 0x461BCD PUSH1 0xE5 SHL DUP2 MSTORE PUSH1 0x20 PUSH1 0x4 DUP3 ADD MSTORE PUSH1 0x2E PUSH1 0x24 DUP3 ADD MSTORE PUSH32 0x45524331393637557067726164653A206E657720696D706C656D656E74617469 PUSH1 0x44 DUP3 ADD MSTORE PUSH14 0x6F6E206973206E6F742055555053 PUSH1 0x90 SHL PUSH1 0x64 DUP3 ADD MSTORE PUSH1 0x84 ADD PUSH2 0xBD4 JUMP JUMPDEST PUSH1 0x0 DUP1 MLOAD PUSH1 0x20 PUSH2 0x2B76 DUP4 CODECOPY DUP2 MLOAD SWAP2 MSTORE DUP2 EQ PUSH2 0x22B2 JUMPI PUSH1 0x40 MLOAD PUSH3 0x461BCD PUSH1 0xE5 SHL DUP2 MSTORE PUSH1 0x20 PUSH1 0x4 DUP3 ADD MSTORE PUSH1 0x29 PUSH1 0x24 DUP3 ADD MSTORE PUSH32 0x45524331393637557067726164653A20756E737570706F727465642070726F78 PUSH1 0x44 DUP3 ADD MSTORE PUSH9 0x1A58589B1955555251 PUSH1 0xBA SHL PUSH1 0x64 DUP3 ADD MSTORE PUSH1 0x84 ADD PUSH2 0xBD4 JUMP JUMPDEST POP PUSH2 0x1105 DUP4 DUP4 DUP4 PUSH2 0x23E8 JUMP JUMPDEST PUSH1 0x33 DUP1 SLOAD PUSH1 0x1 PUSH1 0x1 PUSH1 0xA0 SHL SUB DUP4 DUP2 AND PUSH1 0x1 PUSH1 0x1 PUSH1 0xA0 SHL SUB NOT DUP4 AND DUP2 OR SWAP1 SWAP4 SSTORE PUSH1 0x40 MLOAD SWAP2 AND SWAP2 SWAP1 DUP3 SWAP1 PUSH32 0x8BE0079C531659141344CD1FD0A4F28419497F9722A3DAAFE3B4186F6B6457E0 SWAP1 PUSH1 0x0 SWAP1 LOG3 POP POP JUMP JUMPDEST PUSH1 0x1 PUSH1 0x1 PUSH1 0xA0 SHL SUB AND EXTCODESIZE ISZERO ISZERO SWAP1 JUMP JUMPDEST PUSH1 0x0 SLOAD PUSH2 0x100 SWAP1 DIV PUSH1 0xFF AND PUSH2 0x2346 JUMPI PUSH1 0x40 MLOAD PUSH3 0x461BCD PUSH1 0xE5 SHL DUP2 MSTORE PUSH1 0x4 ADD PUSH2 0xBD4 SWAP1 PUSH2 0x2A97 JUMP JUMPDEST PUSH2 0x15B8 PUSH2 0x2413 JUMP JUMPDEST PUSH2 0x2357 DUP2 PUSH2 0x2310 JUMP JUMPDEST PUSH2 0x23B9 JUMPI PUSH1 0x40 MLOAD PUSH3 0x461BCD PUSH1 0xE5 SHL DUP2 MSTORE PUSH1 0x20 PUSH1 0x4 DUP3 ADD MSTORE PUSH1 0x2D PUSH1 0x24 DUP3 ADD MSTORE PUSH32 0x455243313936373A206E657720696D706C656D656E746174696F6E206973206E PUSH1 0x44 DUP3 ADD MSTORE PUSH13 0x1BDD08184818DBDB9D1C9858DD PUSH1 0x9A SHL PUSH1 0x64 DUP3 ADD MSTORE PUSH1 0x84 ADD PUSH2 0xBD4 JUMP JUMPDEST PUSH1 0x0 DUP1 MLOAD PUSH1 0x20 PUSH2 0x2B76 DUP4 CODECOPY DUP2 MLOAD SWAP2 MSTORE DUP1 SLOAD PUSH1 0x1 PUSH1 0x1 PUSH1 0xA0 SHL SUB NOT AND PUSH1 0x1 PUSH1 0x1 PUSH1 0xA0 SHL SUB SWAP3 SWAP1 SWAP3 AND SWAP2 SWAP1 SWAP2 OR SWAP1 SSTORE JUMP JUMPDEST PUSH2 0x23F1 DUP4 PUSH2 0x2443 JUMP JUMPDEST PUSH1 0x0 DUP3 MLOAD GT DUP1 PUSH2 0x23FE JUMPI POP DUP1 JUMPDEST ISZERO PUSH2 0x1105 JUMPI PUSH2 0x240D DUP4 DUP4 PUSH2 0x2483 JUMP JUMPDEST POP POP POP POP JUMP JUMPDEST PUSH1 0x0 SLOAD PUSH2 0x100 SWAP1 DIV PUSH1 0xFF AND PUSH2 0x243A JUMPI PUSH1 0x40 MLOAD PUSH3 0x461BCD PUSH1 0xE5 SHL DUP2 MSTORE PUSH1 0x4 ADD PUSH2 0xBD4 SWAP1 PUSH2 0x2A97 JUMP JUMPDEST PUSH2 0x15B8 CALLER PUSH2 0x22BE JUMP JUMPDEST PUSH2 0x244C DUP2 PUSH2 0x234E JUMP JUMPDEST PUSH1 0x40 MLOAD PUSH1 0x1 PUSH1 0x1 PUSH1 0xA0 SHL SUB DUP3 AND SWAP1 PUSH32 0xBC7CD75A20EE27FD9ADEBAB32041F755214DBC6BFFA90CC0225B39DA2E5C2D3B SWAP1 PUSH1 0x0 SWAP1 LOG2 POP JUMP JUMPDEST PUSH1 0x60 PUSH2 0x248E DUP4 PUSH2 0x2310 JUMP JUMPDEST PUSH2 0x24E9 JUMPI PUSH1 0x40 MLOAD PUSH3 0x461BCD PUSH1 0xE5 SHL DUP2 MSTORE PUSH1 0x20 PUSH1 0x4 DUP3 ADD MSTORE PUSH1 0x26 PUSH1 0x24 DUP3 ADD MSTORE PUSH32 0x416464726573733A2064656C65676174652063616C6C20746F206E6F6E2D636F PUSH1 0x44 DUP3 ADD MSTORE PUSH6 0x1B9D1C9858DD PUSH1 0xD2 SHL PUSH1 0x64 DUP3 ADD MSTORE PUSH1 0x84 ADD PUSH2 0xBD4 JUMP JUMPDEST PUSH1 0x0 DUP1 DUP5 PUSH1 0x1 PUSH1 0x1 PUSH1 0xA0 SHL SUB AND DUP5 PUSH1 0x40 MLOAD PUSH2 0x2504 SWAP2 SWAP1 PUSH2 0x2B06 JUMP JUMPDEST PUSH1 0x0 PUSH1 0x40 MLOAD DUP1 DUP4 SUB DUP2 DUP6 GAS DELEGATECALL SWAP2 POP POP RETURNDATASIZE DUP1 PUSH1 0x0 DUP2 EQ PUSH2 0x253F JUMPI PUSH1 0x40 MLOAD SWAP2 POP PUSH1 0x1F NOT PUSH1 0x3F RETURNDATASIZE ADD AND DUP3 ADD PUSH1 0x40 MSTORE RETURNDATASIZE DUP3 MSTORE RETURNDATASIZE PUSH1 0x0 PUSH1 0x20 DUP5 ADD RETURNDATACOPY PUSH2 0x2544 JUMP JUMPDEST PUSH1 0x60 SWAP2 POP JUMPDEST POP SWAP2 POP SWAP2 POP PUSH2 0x256C DUP3 DUP3 PUSH1 0x40 MLOAD DUP1 PUSH1 0x60 ADD PUSH1 0x40 MSTORE DUP1 PUSH1 0x27 DUP2 MSTORE PUSH1 0x20 ADD PUSH2 0x2B96 PUSH1 0x27 SWAP2 CODECOPY PUSH2 0x2575 JUMP JUMPDEST SWAP6 SWAP5 POP POP POP POP POP JUMP JUMPDEST PUSH1 0x60 DUP4 ISZERO PUSH2 0x2584 JUMPI POP DUP2 PUSH2 0x258E JUMP JUMPDEST PUSH2 0x258E DUP4 DUP4 PUSH2 0x2595 JUMP JUMPDEST SWAP4 SWAP3 POP POP POP JUMP JUMPDEST DUP2 MLOAD ISZERO PUSH2 0x25A5 JUMPI DUP2 MLOAD DUP1 DUP4 PUSH1 0x20 ADD REVERT JUMPDEST DUP1 PUSH1 0x40 MLOAD PUSH3 0x461BCD PUSH1 0xE5 SHL DUP2 MSTORE PUSH1 0x4 ADD PUSH2 0xBD4 SWAP2 SWAP1 PUSH2 0x2B22 JUMP JUMPDEST PUSH1 0x0 PUSH1 0x20 DUP3 DUP5 SUB SLT ISZERO PUSH2 0x25D1 JUMPI PUSH1 0x0 DUP1 REVERT JUMPDEST POP CALLDATALOAD SWAP2 SWAP1 POP JUMP JUMPDEST DUP1 CALLDATALOAD PUSH1 0x1 PUSH1 0x1 PUSH1 0xA0 SHL SUB DUP2 AND DUP2 EQ PUSH2 0x25EF JUMPI PUSH1 0x0 DUP1 REVERT JUMPDEST SWAP2 SWAP1 POP JUMP JUMPDEST PUSH1 0x0 PUSH1 0x20 DUP3 DUP5 SUB SLT ISZERO PUSH2 0x2606 JUMPI PUSH1 0x0 DUP1 REVERT JUMPDEST PUSH2 0x258E DUP3 PUSH2 0x25D8 JUMP JUMPDEST PUSH1 0x0 DUP2 MLOAD DUP1 DUP5 MSTORE PUSH1 0x20 DUP1 DUP6 ADD SWAP5 POP DUP1 DUP5 ADD PUSH1 0x0 JUMPDEST DUP4 DUP2 LT ISZERO PUSH2 0x2648 JUMPI DUP2 MLOAD PUSH1 0x1 PUSH1 0x1 PUSH1 0xA0 SHL SUB AND DUP8 MSTORE SWAP6 DUP3 ADD SWAP6 SWAP1 DUP3 ADD SWAP1 PUSH1 0x1 ADD PUSH2 0x2623 JUMP JUMPDEST POP SWAP5 SWAP6 SWAP5 POP POP POP POP POP JUMP JUMPDEST PUSH1 0x20 DUP2 MSTORE PUSH1 0x0 PUSH2 0x258E PUSH1 0x20 DUP4 ADD DUP5 PUSH2 0x260F JUMP JUMPDEST PUSH1 0x0 DUP2 MLOAD DUP1 DUP5 MSTORE PUSH1 0x20 DUP1 DUP6 ADD SWAP5 POP DUP1 DUP5 ADD PUSH1 0x0 JUMPDEST DUP4 DUP2 LT ISZERO PUSH2 0x2648 JUMPI DUP2 MLOAD DUP8 MSTORE SWAP6 DUP3 ADD SWAP6 SWAP1 DUP3 ADD SWAP1 PUSH1 0x1 ADD PUSH2 0x267A JUMP JUMPDEST PUSH1 0x20 DUP2 MSTORE PUSH1 0x0 PUSH2 0x258E PUSH1 0x20 DUP4 ADD DUP5 PUSH2 0x2666 JUMP JUMPDEST PUSH1 0x0 DUP1 PUSH1 0x40 DUP4 DUP6 SUB SLT ISZERO PUSH2 0x26BC JUMPI PUSH1 0x0 DUP1 REVERT JUMPDEST PUSH2 0x26C5 DUP4 PUSH2 0x25D8 JUMP JUMPDEST SWAP5 PUSH1 0x20 SWAP4 SWAP1 SWAP4 ADD CALLDATALOAD SWAP4 POP POP POP JUMP JUMPDEST PUSH4 0x4E487B71 PUSH1 0xE0 SHL PUSH1 0x0 MSTORE PUSH1 0x41 PUSH1 0x4 MSTORE PUSH1 0x24 PUSH1 0x0 REVERT JUMPDEST PUSH1 0x40 MLOAD PUSH1 0x1F DUP3 ADD PUSH1 0x1F NOT AND DUP2 ADD PUSH1 0x1 PUSH1 0x1 PUSH1 0x40 SHL SUB DUP2 GT DUP3 DUP3 LT OR ISZERO PUSH2 0x2711 JUMPI PUSH2 0x2711 PUSH2 0x26D3 JUMP JUMPDEST PUSH1 0x40 MSTORE SWAP2 SWAP1 POP JUMP JUMPDEST PUSH1 0x0 DUP3 PUSH1 0x1F DUP4 ADD SLT PUSH2 0x272A JUMPI PUSH1 0x0 DUP1 REVERT JUMPDEST DUP2 CALLDATALOAD PUSH1 0x20 PUSH1 0x1 PUSH1 0x1 PUSH1 0x40 SHL SUB DUP3 GT ISZERO PUSH2 0x2745 JUMPI PUSH2 0x2745 PUSH2 0x26D3 JUMP JUMPDEST DUP2 PUSH1 0x5 SHL PUSH2 0x2754 DUP3 DUP3 ADD PUSH2 0x26E9 JUMP JUMPDEST SWAP3 DUP4 MSTORE DUP5 DUP2 ADD DUP3 ADD SWAP3 DUP3 DUP2 ADD SWAP1 DUP8 DUP6 GT ISZERO PUSH2 0x276E JUMPI PUSH1 0x0 DUP1 REVERT JUMPDEST DUP4 DUP8 ADD SWAP3 POP JUMPDEST DUP5 DUP4 LT ISZERO PUSH2 0x278D JUMPI DUP3 CALLDATALOAD DUP3 MSTORE SWAP2 DUP4 ADD SWAP2 SWAP1 DUP4 ADD SWAP1 PUSH2 0x2774 JUMP JUMPDEST SWAP8 SWAP7 POP POP POP POP POP POP POP JUMP JUMPDEST PUSH1 0x0 DUP1 PUSH1 0x40 DUP4 DUP6 SUB SLT ISZERO PUSH2 0x27AB JUMPI PUSH1 0x0 DUP1 REVERT JUMPDEST DUP3 CALLDATALOAD PUSH1 0x1 PUSH1 0x1 PUSH1 0x40 SHL SUB DUP1 DUP3 GT ISZERO PUSH2 0x27C2 JUMPI PUSH1 0x0 DUP1 REVERT JUMPDEST PUSH2 0x27CE DUP7 DUP4 DUP8 ADD PUSH2 0x2719 JUMP JUMPDEST SWAP4 POP PUSH1 0x20 DUP6 ADD CALLDATALOAD SWAP2 POP DUP1 DUP3 GT ISZERO PUSH2 0x27E4 JUMPI PUSH1 0x0 DUP1 REVERT JUMPDEST POP PUSH2 0x27F1 DUP6 DUP3 DUP7 ADD PUSH2 0x2719 JUMP JUMPDEST SWAP2 POP POP SWAP3 POP SWAP3 SWAP1 POP JUMP JUMPDEST PUSH1 0x0 DUP1 PUSH1 0x40 DUP4 DUP6 SUB SLT ISZERO PUSH2 0x280E JUMPI PUSH1 0x0 DUP1 REVERT JUMPDEST PUSH2 0x2817 DUP4 PUSH2 0x25D8 JUMP JUMPDEST SWAP2 POP PUSH1 0x20 DUP4 ADD CALLDATALOAD DUP1 ISZERO ISZERO DUP2 EQ PUSH2 0x282C JUMPI PUSH1 0x0 DUP1 REVERT JUMPDEST DUP1 SWAP2 POP POP SWAP3 POP SWAP3 SWAP1 POP JUMP JUMPDEST PUSH1 0x0 DUP1 PUSH1 0x40 DUP4 DUP6 SUB SLT ISZERO PUSH2 0x284A JUMPI PUSH1 0x0 DUP1 REVERT JUMPDEST PUSH2 0x2853 DUP4 PUSH2 0x25D8 JUMP JUMPDEST SWAP2 POP PUSH1 0x20 DUP4 DUP2 ADD CALLDATALOAD PUSH1 0x1 PUSH1 0x1 PUSH1 0x40 SHL SUB DUP1 DUP3 GT ISZERO PUSH2 0x2870 JUMPI PUSH1 0x0 DUP1 REVERT JUMPDEST DUP2 DUP7 ADD SWAP2 POP DUP7 PUSH1 0x1F DUP4 ADD SLT PUSH2 0x2884 JUMPI PUSH1 0x0 DUP1 REVERT JUMPDEST DUP2 CALLDATALOAD DUP2 DUP2 GT ISZERO PUSH2 0x2896 JUMPI PUSH2 0x2896 PUSH2 0x26D3 JUMP JUMPDEST PUSH2 0x28A8 PUSH1 0x1F DUP3 ADD PUSH1 0x1F NOT AND DUP6 ADD PUSH2 0x26E9 JUMP JUMPDEST SWAP2 POP DUP1 DUP3 MSTORE DUP8 DUP5 DUP3 DUP6 ADD ADD GT ISZERO PUSH2 0x28BE JUMPI PUSH1 0x0 DUP1 REVERT JUMPDEST DUP1 DUP5 DUP5 ADD DUP6 DUP5 ADD CALLDATACOPY PUSH1 0x0 DUP5 DUP3 DUP5 ADD ADD MSTORE POP DUP1 SWAP4 POP POP POP POP SWAP3 POP SWAP3 SWAP1 POP JUMP JUMPDEST PUSH1 0x40 DUP2 MSTORE PUSH1 0x0 PUSH2 0x28EF PUSH1 0x40 DUP4 ADD DUP6 PUSH2 0x260F JUMP JUMPDEST DUP3 DUP2 SUB PUSH1 0x20 DUP5 ADD MSTORE PUSH2 0x256C DUP2 DUP6 PUSH2 0x2666 JUMP JUMPDEST PUSH1 0x0 DUP1 PUSH1 0x0 DUP1 PUSH1 0x0 DUP1 PUSH1 0xC0 DUP8 DUP10 SUB SLT ISZERO PUSH2 0x291A JUMPI PUSH1 0x0 DUP1 REVERT JUMPDEST PUSH2 0x2923 DUP8 PUSH2 0x25D8 JUMP JUMPDEST SWAP6 POP PUSH2 0x2931 PUSH1 0x20 DUP9 ADD PUSH2 0x25D8 JUMP JUMPDEST SWAP5 POP PUSH2 0x293F PUSH1 0x40 DUP9 ADD PUSH2 0x25D8 JUMP JUMPDEST SWAP4 POP PUSH2 0x294D PUSH1 0x60 DUP9 ADD PUSH2 0x25D8 JUMP JUMPDEST SWAP3 POP PUSH2 0x295B PUSH1 0x80 DUP9 ADD PUSH2 0x25D8 JUMP JUMPDEST SWAP2 POP PUSH2 0x2969 PUSH1 0xA0 DUP9 ADD PUSH2 0x25D8 JUMP JUMPDEST SWAP1 POP SWAP3 SWAP6 POP SWAP3 SWAP6 POP SWAP3 SWAP6 JUMP JUMPDEST PUSH1 0x40 DUP2 MSTORE PUSH1 0x0 PUSH2 0x28EF PUSH1 0x40 DUP4 ADD DUP6 PUSH2 0x2666 JUMP JUMPDEST PUSH1 0x0 DUP1 PUSH1 0x40 DUP4 DUP6 SUB SLT ISZERO PUSH2 0x299B JUMPI PUSH1 0x0 DUP1 REVERT JUMPDEST POP POP DUP1 CALLDATALOAD SWAP3 PUSH1 0x20 SWAP1 SWAP2 ADD CALLDATALOAD SWAP2 POP JUMP JUMPDEST PUSH1 0x20 DUP1 DUP3 MSTORE PUSH1 0x9 SWAP1 DUP3 ADD MSTORE PUSH9 0x3737BA1030B236B4B7 PUSH1 0xB9 SHL PUSH1 0x40 DUP3 ADD MSTORE PUSH1 0x60 ADD SWAP1 JUMP JUMPDEST PUSH4 0x4E487B71 PUSH1 0xE0 SHL PUSH1 0x0 MSTORE PUSH1 0x32 PUSH1 0x4 MSTORE PUSH1 0x24 PUSH1 0x0 REVERT JUMPDEST PUSH1 0x20 DUP1 DUP3 MSTORE PUSH1 0x2C SWAP1 DUP3 ADD MSTORE PUSH1 0x0 DUP1 MLOAD PUSH1 0x20 PUSH2 0x2B56 DUP4 CODECOPY DUP2 MLOAD SWAP2 MSTORE PUSH1 0x40 DUP3 ADD MSTORE PUSH12 0x19195B1959D85D1958D85B1B PUSH1 0xA2 SHL PUSH1 0x60 DUP3 ADD MSTORE PUSH1 0x80 ADD SWAP1 JUMP JUMPDEST PUSH1 0x20 DUP1 DUP3 MSTORE PUSH1 0x2C SWAP1 DUP3 ADD MSTORE PUSH1 0x0 DUP1 MLOAD PUSH1 0x20 PUSH2 0x2B56 DUP4 CODECOPY DUP2 MLOAD SWAP2 MSTORE PUSH1 0x40 DUP3 ADD MSTORE PUSH12 0x6163746976652070726F7879 PUSH1 0xA0 SHL PUSH1 0x60 DUP3 ADD MSTORE PUSH1 0x80 ADD SWAP1 JUMP JUMPDEST PUSH1 0x0 PUSH1 0x1 DUP3 ADD PUSH2 0x2A77 JUMPI PUSH4 0x4E487B71 PUSH1 0xE0 SHL PUSH1 0x0 MSTORE PUSH1 0x11 PUSH1 0x4 MSTORE PUSH1 0x24 PUSH1 0x0 REVERT JUMPDEST POP PUSH1 0x1 ADD SWAP1 JUMP JUMPDEST PUSH1 0x0 PUSH1 0x20 DUP3 DUP5 SUB SLT ISZERO PUSH2 0x2A90 JUMPI PUSH1 0x0 DUP1 REVERT JUMPDEST POP MLOAD SWAP2 SWAP1 POP JUMP JUMPDEST PUSH1 0x20 DUP1 DUP3 MSTORE PUSH1 0x2B SWAP1 DUP3 ADD MSTORE PUSH32 0x496E697469616C697A61626C653A20636F6E7472616374206973206E6F742069 PUSH1 0x40 DUP3 ADD MSTORE PUSH11 0x6E697469616C697A696E67 PUSH1 0xA8 SHL PUSH1 0x60 DUP3 ADD MSTORE PUSH1 0x80 ADD SWAP1 JUMP JUMPDEST PUSH1 0x0 JUMPDEST DUP4 DUP2 LT ISZERO PUSH2 0x2AFD JUMPI DUP2 DUP2 ADD MLOAD DUP4 DUP3 ADD MSTORE PUSH1 0x20 ADD PUSH2 0x2AE5 JUMP JUMPDEST POP POP PUSH1 0x0 SWAP2 ADD MSTORE JUMP JUMPDEST PUSH1 0x0 DUP3 MLOAD PUSH2 0x2B18 DUP2 DUP5 PUSH1 0x20 DUP8 ADD PUSH2 0x2AE2 JUMP JUMPDEST SWAP2 SWAP1 SWAP2 ADD SWAP3 SWAP2 POP POP JUMP JUMPDEST PUSH1 0x20 DUP2 MSTORE PUSH1 0x0 DUP3 MLOAD DUP1 PUSH1 0x20 DUP5 ADD MSTORE PUSH2 0x2B41 DUP2 PUSH1 0x40 DUP6 ADD PUSH1 0x20 DUP8 ADD PUSH2 0x2AE2 JUMP JUMPDEST PUSH1 0x1F ADD PUSH1 0x1F NOT AND SWAP2 SWAP1 SWAP2 ADD PUSH1 0x40 ADD SWAP3 SWAP2 POP POP JUMP INVALID CHAINID PUSH22 0x6E6374696F6E206D7573742062652063616C6C656420 PUSH21 0x68726F75676820360894A13BA1A3210667C828492D 0xB9 DUP14 0xCA RETURNDATACOPY KECCAK256 PUSH23 0xCC3735A920A3CA505D382BBC416464726573733A206C6F PUSH24 0x2D6C6576656C2064656C65676174652063616C6C20666169 PUSH13 0x65643EFDD7A884FF9E18C9E571 SHR XOR GAS 0xA6 0xC5 0xE4 SGT 0xB6 DUP16 0x23 NOT PUSH26 0x97DA5B1665CA978F99A2646970667358221220FAED19C08155D1 LOG0 PC SLT KECCAK256 DUP1 0xDE 0xF9 PUSH11 0x93A095377B5FD59A3E14CE MSTORE8 LOG2 NUMBER 0xBD 0x22 SWAP8 PUSH5 0x736F6C6343 STOP ADDMOD EQ STOP CALLER "
		},
		"gasEstimates": {
			"creation": {
				"codeDepositCost": "2256400",
				"executionCost": "infinite",
				"totalCost": "infinite"
			},
			"external": {
				"acb()": "1709",
				"acbPair()": "1621",
				"airdropMachine(address,uint256)": "infinite",
				"buylocked()": "1391",
				"changeBuylock(uint256)": "22441",
				"changeClaimInterval(uint256)": "22199",
				"changeMachineExpireTime(uint256)": "22155",
				"changeMarketAddress(address)": "23301",
				"changeMaxComputingPower(uint256)": "22177",
				"changeMinComputingPower(uint256)": "22310",
				"changeMonthDividenAddress(address)": "23608",
				"changeMvCollectionAddress(address)": "23630",
				"changeOperator(address)": "22103",
				"changePlatformAddress(address)": "23454",
				"changePlatformRate(uint256)": "22133",
				"changeRefRewardRate(uint256,uint256)": "42586",
				"changeRemainingAddress(address)": "23542",
				"changeSameLevelRewardRate(uint256)": "22508",
				"changeShareHolderMinLimit(uint256)": "22045",
				"changeShareHolderRewardRate(uint256)": "22134",
				"changeSwapRate(uint256)": "22068",
				"changeTeamLevel(uint256[],uint256[])": "infinite",
				"changeTeamRewardAddress(address)": "23696",
				"changeTeamRewardRate(uint256)": "22265",
				"changeTechAddress(address)": "22970",
				"claimInterval()": "1062",
				"getRateConfig()": "infinite",
				"getTeamAddress()": "infinite",
				"getTeamLevel()": "infinite",
				"getUserLevels()": "infinite",
				"initialize(address)": "infinite",
				"machineExpireTime()": "1238",
				"marketAddress()": "1378",
				"maxComputingPower()": "1436",
				"minComputingPower()": "1215",
				"minePool()": "1731",
				"mmStore()": "1577",
				"monthDividendAddress()": "1466",
				"mv()": "1356",
				"mvCollectionAddress()": "1576",
				"operator()": "1665",
				"owner()": "1321",
				"platformAddress()": "1532",
				"platformRate()": "1370",
				"proxiableUUID()": "infinite",
				"refRewardOneRate()": "1259",
				"refRewardTwoRate()": "1458",
				"remainingAddress()": "1708",
				"renounceOwnership()": "infinite",
				"sameLevelRewardRate()": "1589",
				"setAdmin(address,bool)": "22710",
				"setConfig(address,address,address,address,address,address)": "infinite",
				"setUserLevel(address,uint256)": "64238",
				"shareHolderMinLimit()": "1172",
				"shareHolderRewardRate()": "1392",
				"swapRate()": "1039",
				"teamLevel(uint256)": "2176",
				"teamRewardAddress()": "1555",
				"teamRewardRate()": "1303",
				"techAddress()": "1159",
				"top()": "909",
				"transferOwnership(address)": "24297",
				"upgradeTo(address)": "infinite",
				"upgradeToAndCall(address,bytes)": "infinite",
				"usdt()": "1291",
				"userArr(uint256)": "2004",
				"userLevel(address)": "1440"
			},
			"internal": {
				"_authorizeUpgrade(address)": "infinite"
			}
		},
		"methodIdentifiers": {
			"acb()": "5bff9787",
			"acbPair()": "5250c9b5",
			"airdropMachine(address,uint256)": "57629f82",
			"buylocked()": "a03cc2a6",
			"changeBuylock(uint256)": "a40b64d5",
			"changeClaimInterval(uint256)": "796f838e",
			"changeMachineExpireTime(uint256)": "7634b070",
			"changeMarketAddress(address)": "35aed778",
			"changeMaxComputingPower(uint256)": "767608e2",
			"changeMinComputingPower(uint256)": "3360364d",
			"changeMonthDividenAddress(address)": "f7656704",
			"changeMvCollectionAddress(address)": "f80183b2",
			"changeOperator(address)": "06394c9b",
			"changePlatformAddress(address)": "cde85744",
			"changePlatformRate(uint256)": "72765009",
			"changeRefRewardRate(uint256,uint256)": "e3d9aa05",
			"changeRemainingAddress(address)": "eb2266bc",
			"changeSameLevelRewardRate(uint256)": "498c1e3c",
			"changeShareHolderMinLimit(uint256)": "66bf8f83",
			"changeShareHolderRewardRate(uint256)": "19a2ef5f",
			"changeSwapRate(uint256)": "08f93bd8",
			"changeTeamLevel(uint256[],uint256[])": "3b2c2e55",
			"changeTeamRewardAddress(address)": "ff858079",
			"changeTeamRewardRate(uint256)": "863be1ab",
			"changeTechAddress(address)": "669934a9",
			"claimInterval()": "0b433a12",
			"getRateConfig()": "1e79aa0a",
			"getTeamAddress()": "182d326e",
			"getTeamLevel()": "9a3135a8",
			"getUserLevels()": "6b1a9c07",
			"initialize(address)": "c4d66de8",
			"machineExpireTime()": "2d8852ee",
			"marketAddress()": "95623641",
			"maxComputingPower()": "3d08e5b3",
			"minComputingPower()": "85adb294",
			"minePool()": "602e6623",
			"mmStore()": "4dd40234",
			"monthDividendAddress()": "b2cf085e",
			"mv()": "8f05cdf5",
			"mvCollectionAddress()": "e9d610e5",
			"operator()": "570ca735",
			"owner()": "8da5cb5b",
			"platformAddress()": "dbe55e56",
			"platformRate()": "36e0cac6",
			"proxiableUUID()": "52d1902d",
			"refRewardOneRate()": "8a5705d4",
			"refRewardTwoRate()": "434f9736",
			"remainingAddress()": "f97fe091",
			"renounceOwnership()": "715018a6",
			"sameLevelRewardRate()": "ee787b11",
			"setAdmin(address,bool)": "4b0bddd2",
			"setConfig(address,address,address,address,address,address)": "812df395",
			"setUserLevel(address,uint256)": "33f5780e",
			"shareHolderMinLimit()": "21596c25",
			"shareHolderRewardRate()": "39cbc405",
			"swapRate()": "698518e5",
			"teamLevel(uint256)": "254720b7",
			"teamRewardAddress()": "4b21ddec",
			"teamRewardRate()": "8e10ef0b",
			"techAddress()": "1e56cfab",
			"top()": "fe6dcdba",
			"transferOwnership(address)": "f2fde38b",
			"upgradeTo(address)": "3659cfe6",
			"upgradeToAndCall(address,bytes)": "4f1ef286",
			"usdt()": "2f48ab7d",
			"userArr(uint256)": "057d7781",
			"userLevel(address)": "280e31cc"
		}
	},
	"abi": [
		{
			"anonymous": false,
			"inputs": [
				{
					"indexed": false,
					"internalType": "address",
					"name": "previousAdmin",
					"type": "address"
				},
				{
					"indexed": false,
					"internalType": "address",
					"name": "newAdmin",
					"type": "address"
				}
			],
			"name": "AdminChanged",
			"type": "event"
		},
		{
			"anonymous": false,
			"inputs": [
				{
					"indexed": true,
					"internalType": "address",
					"name": "beacon",
					"type": "address"
				}
			],
			"name": "BeaconUpgraded",
			"type": "event"
		},
		{
			"anonymous": false,
			"inputs": [
				{
					"indexed": false,
					"internalType": "uint8",
					"name": "version",
					"type": "uint8"
				}
			],
			"name": "Initialized",
			"type": "event"
		},
		{
			"anonymous": false,
			"inputs": [
				{
					"indexed": true,
					"internalType": "address",
					"name": "previousOwner",
					"type": "address"
				},
				{
					"indexed": true,
					"internalType": "address",
					"name": "newOwner",
					"type": "address"
				}
			],
			"name": "OwnershipTransferred",
			"type": "event"
		},
		{
			"anonymous": false,
			"inputs": [
				{
					"indexed": true,
					"internalType": "address",
					"name": "implementation",
					"type": "address"
				}
			],
			"name": "Upgraded",
			"type": "event"
		},
		{
			"inputs": [],
			"name": "acb",
			"outputs": [
				{
					"internalType": "address",
					"name": "",
					"type": "address"
				}
			],
			"stateMutability": "view",
			"type": "function"
		},
		{
			"inputs": [],
			"name": "acbPair",
			"outputs": [
				{
					"internalType": "address",
					"name": "",
					"type": "address"
				}
			],
			"stateMutability": "view",
			"type": "function"
		},
		{
			"inputs": [
				{
					"internalType": "address",
					"name": "user",
					"type": "address"
				},
				{
					"internalType": "uint256",
					"name": "amount",
					"type": "uint256"
				}
			],
			"name": "airdropMachine",
			"outputs": [],
			"stateMutability": "nonpayable",
			"type": "function"
		},
		{
			"inputs": [],
			"name": "buylocked",
			"outputs": [
				{
					"internalType": "uint256",
					"name": "",
					"type": "uint256"
				}
			],
			"stateMutability": "view",
			"type": "function"
		},
		{
			"inputs": [
				{
					"internalType": "uint256",
					"name": "_buylocked",
					"type": "uint256"
				}
			],
			"name": "changeBuylock",
			"outputs": [],
			"stateMutability": "nonpayable",
			"type": "function"
		},
		{
			"inputs": [
				{
					"internalType": "uint256",
					"name": "_claimInterval",
					"type": "uint256"
				}
			],
			"name": "changeClaimInterval",
			"outputs": [],
			"stateMutability": "nonpayable",
			"type": "function"
		},
		{
			"inputs": [
				{
					"internalType": "uint256",
					"name": "_machineExpireTime",
					"type": "uint256"
				}
			],
			"name": "changeMachineExpireTime",
			"outputs": [],
			"stateMutability": "nonpayable",
			"type": "function"
		},
		{
			"inputs": [
				{
					"internalType": "address",
					"name": "_marketAddress",
					"type": "address"
				}
			],
			"name": "changeMarketAddress",
			"outputs": [],
			"stateMutability": "nonpayable",
			"type": "function"
		},
		{
			"inputs": [
				{
					"internalType": "uint256",
					"name": "_maxComputingPower",
					"type": "uint256"
				}
			],
			"name": "changeMaxComputingPower",
			"outputs": [],
			"stateMutability": "nonpayable",
			"type": "function"
		},
		{
			"inputs": [
				{
					"internalType": "uint256",
					"name": "_minComputingPower",
					"type": "uint256"
				}
			],
			"name": "changeMinComputingPower",
			"outputs": [],
			"stateMutability": "nonpayable",
			"type": "function"
		},
		{
			"inputs": [
				{
					"internalType": "address",
					"name": "_monthDividendAddress",
					"type": "address"
				}
			],
			"name": "changeMonthDividenAddress",
			"outputs": [],
			"stateMutability": "nonpayable",
			"type": "function"
		},
		{
			"inputs": [
				{
					"internalType": "address",
					"name": "_mvCollectionAddress",
					"type": "address"
				}
			],
			"name": "changeMvCollectionAddress",
			"outputs": [],
			"stateMutability": "nonpayable",
			"type": "function"
		},
		{
			"inputs": [
				{
					"internalType": "address",
					"name": "_operator",
					"type": "address"
				}
			],
			"name": "changeOperator",
			"outputs": [],
			"stateMutability": "nonpayable",
			"type": "function"
		},
		{
			"inputs": [
				{
					"internalType": "address",
					"name": "_platformAddress",
					"type": "address"
				}
			],
			"name": "changePlatformAddress",
			"outputs": [],
			"stateMutability": "nonpayable",
			"type": "function"
		},
		{
			"inputs": [
				{
					"internalType": "uint256",
					"name": "_platformRate",
					"type": "uint256"
				}
			],
			"name": "changePlatformRate",
			"outputs": [],
			"stateMutability": "nonpayable",
			"type": "function"
		},
		{
			"inputs": [
				{
					"internalType": "uint256",
					"name": "_oneRate",
					"type": "uint256"
				},
				{
					"internalType": "uint256",
					"name": "_twoRate",
					"type": "uint256"
				}
			],
			"name": "changeRefRewardRate",
			"outputs": [],
			"stateMutability": "nonpayable",
			"type": "function"
		},
		{
			"inputs": [
				{
					"internalType": "address",
					"name": "_remainingAddress",
					"type": "address"
				}
			],
			"name": "changeRemainingAddress",
			"outputs": [],
			"stateMutability": "nonpayable",
			"type": "function"
		},
		{
			"inputs": [
				{
					"internalType": "uint256",
					"name": "_sameLevelRewardRate",
					"type": "uint256"
				}
			],
			"name": "changeSameLevelRewardRate",
			"outputs": [],
			"stateMutability": "nonpayable",
			"type": "function"
		},
		{
			"inputs": [
				{
					"internalType": "uint256",
					"name": "_shareHolderMinLimit",
					"type": "uint256"
				}
			],
			"name": "changeShareHolderMinLimit",
			"outputs": [],
			"stateMutability": "nonpayable",
			"type": "function"
		},
		{
			"inputs": [
				{
					"internalType": "uint256",
					"name": "_shareHolderRewardRate",
					"type": "uint256"
				}
			],
			"name": "changeShareHolderRewardRate",
			"outputs": [],
			"stateMutability": "nonpayable",
			"type": "function"
		},
		{
			"inputs": [
				{
					"internalType": "uint256",
					"name": "_swapRate",
					"type": "uint256"
				}
			],
			"name": "changeSwapRate",
			"outputs": [],
			"stateMutability": "nonpayable",
			"type": "function"
		},
		{
			"inputs": [
				{
					"internalType": "uint256[]",
					"name": "_amount",
					"type": "uint256[]"
				},
				{
					"internalType": "uint256[]",
					"name": "_rate",
					"type": "uint256[]"
				}
			],
			"name": "changeTeamLevel",
			"outputs": [],
			"stateMutability": "nonpayable",
			"type": "function"
		},
		{
			"inputs": [
				{
					"internalType": "address",
					"name": "_teamRewardAddress",
					"type": "address"
				}
			],
			"name": "changeTeamRewardAddress",
			"outputs": [],
			"stateMutability": "nonpayable",
			"type": "function"
		},
		{
			"inputs": [
				{
					"internalType": "uint256",
					"name": "_teamRewardRate",
					"type": "uint256"
				}
			],
			"name": "changeTeamRewardRate",
			"outputs": [],
			"stateMutability": "nonpayable",
			"type": "function"
		},
		{
			"inputs": [
				{
					"internalType": "address",
					"name": "_techAddress",
					"type": "address"
				}
			],
			"name": "changeTechAddress",
			"outputs": [],
			"stateMutability": "nonpayable",
			"type": "function"
		},
		{
			"inputs": [],
			"name": "claimInterval",
			"outputs": [
				{
					"internalType": "uint256",
					"name": "",
					"type": "uint256"
				}
			],
			"stateMutability": "view",
			"type": "function"
		},
		{
			"inputs": [],
			"name": "getRateConfig",
			"outputs": [
				{
					"internalType": "uint256[]",
					"name": "rates",
					"type": "uint256[]"
				}
			],
			"stateMutability": "view",
			"type": "function"
		},
		{
			"inputs": [],
			"name": "getTeamAddress",
			"outputs": [
				{
					"internalType": "address[]",
					"name": "addressArr",
					"type": "address[]"
				}
			],
			"stateMutability": "view",
			"type": "function"
		},
		{
			"inputs": [],
			"name": "getTeamLevel",
			"outputs": [
				{
					"internalType": "uint256[]",
					"name": "amounts",
					"type": "uint256[]"
				},
				{
					"internalType": "uint256[]",
					"name": "rates",
					"type": "uint256[]"
				}
			],
			"stateMutability": "view",
			"type": "function"
		},
		{
			"inputs": [],
			"name": "getUserLevels",
			"outputs": [
				{
					"internalType": "address[]",
					"name": "users",
					"type": "address[]"
				},
				{
					"internalType": "uint256[]",
					"name": "levels",
					"type": "uint256[]"
				}
			],
			"stateMutability": "view",
			"type": "function"
		},
		{
			"inputs": [
				{
					"internalType": "address",
					"name": "_operator",
					"type": "address"
				}
			],
			"name": "initialize",
			"outputs": [],
			"stateMutability": "nonpayable",
			"type": "function"
		},
		{
			"inputs": [],
			"name": "machineExpireTime",
			"outputs": [
				{
					"internalType": "uint256",
					"name": "",
					"type": "uint256"
				}
			],
			"stateMutability": "view",
			"type": "function"
		},
		{
			"inputs": [],
			"name": "marketAddress",
			"outputs": [
				{
					"internalType": "address",
					"name": "",
					"type": "address"
				}
			],
			"stateMutability": "view",
			"type": "function"
		},
		{
			"inputs": [],
			"name": "maxComputingPower",
			"outputs": [
				{
					"internalType": "uint256",
					"name": "",
					"type": "uint256"
				}
			],
			"stateMutability": "view",
			"type": "function"
		},
		{
			"inputs": [],
			"name": "minComputingPower",
			"outputs": [
				{
					"internalType": "uint256",
					"name": "",
					"type": "uint256"
				}
			],
			"stateMutability": "view",
			"type": "function"
		},
		{
			"inputs": [],
			"name": "minePool",
			"outputs": [
				{
					"internalType": "address",
					"name": "",
					"type": "address"
				}
			],
			"stateMutability": "view",
			"type": "function"
		},
		{
			"inputs": [],
			"name": "mmStore",
			"outputs": [
				{
					"internalType": "address",
					"name": "",
					"type": "address"
				}
			],
			"stateMutability": "view",
			"type": "function"
		},
		{
			"inputs": [],
			"name": "monthDividendAddress",
			"outputs": [
				{
					"internalType": "address",
					"name": "",
					"type": "address"
				}
			],
			"stateMutability": "view",
			"type": "function"
		},
		{
			"inputs": [],
			"name": "mv",
			"outputs": [
				{
					"internalType": "address",
					"name": "",
					"type": "address"
				}
			],
			"stateMutability": "view",
			"type": "function"
		},
		{
			"inputs": [],
			"name": "mvCollectionAddress",
			"outputs": [
				{
					"internalType": "address",
					"name": "",
					"type": "address"
				}
			],
			"stateMutability": "view",
			"type": "function"
		},
		{
			"inputs": [],
			"name": "operator",
			"outputs": [
				{
					"internalType": "address",
					"name": "",
					"type": "address"
				}
			],
			"stateMutability": "view",
			"type": "function"
		},
		{
			"inputs": [],
			"name": "owner",
			"outputs": [
				{
					"internalType": "address",
					"name": "",
					"type": "address"
				}
			],
			"stateMutability": "view",
			"type": "function"
		},
		{
			"inputs": [],
			"name": "platformAddress",
			"outputs": [
				{
					"internalType": "address",
					"name": "",
					"type": "address"
				}
			],
			"stateMutability": "view",
			"type": "function"
		},
		{
			"inputs": [],
			"name": "platformRate",
			"outputs": [
				{
					"internalType": "uint256",
					"name": "",
					"type": "uint256"
				}
			],
			"stateMutability": "view",
			"type": "function"
		},
		{
			"inputs": [],
			"name": "proxiableUUID",
			"outputs": [
				{
					"internalType": "bytes32",
					"name": "",
					"type": "bytes32"
				}
			],
			"stateMutability": "view",
			"type": "function"
		},
		{
			"inputs": [],
			"name": "refRewardOneRate",
			"outputs": [
				{
					"internalType": "uint256",
					"name": "",
					"type": "uint256"
				}
			],
			"stateMutability": "view",
			"type": "function"
		},
		{
			"inputs": [],
			"name": "refRewardTwoRate",
			"outputs": [
				{
					"internalType": "uint256",
					"name": "",
					"type": "uint256"
				}
			],
			"stateMutability": "view",
			"type": "function"
		},
		{
			"inputs": [],
			"name": "remainingAddress",
			"outputs": [
				{
					"internalType": "address",
					"name": "",
					"type": "address"
				}
			],
			"stateMutability": "view",
			"type": "function"
		},
		{
			"inputs": [],
			"name": "renounceOwnership",
			"outputs": [],
			"stateMutability": "nonpayable",
			"type": "function"
		},
		{
			"inputs": [],
			"name": "sameLevelRewardRate",
			"outputs": [
				{
					"internalType": "uint256",
					"name": "",
					"type": "uint256"
				}
			],
			"stateMutability": "view",
			"type": "function"
		},
		{
			"inputs": [
				{
					"internalType": "address",
					"name": "user",
					"type": "address"
				},
				{
					"internalType": "bool",
					"name": "auth",
					"type": "bool"
				}
			],
			"name": "setAdmin",
			"outputs": [],
			"stateMutability": "nonpayable",
			"type": "function"
		},
		{
			"inputs": [
				{
					"internalType": "address",
					"name": "_usdt",
					"type": "address"
				},
				{
					"internalType": "address",
					"name": "_mv",
					"type": "address"
				},
				{
					"internalType": "address",
					"name": "_acb",
					"type": "address"
				},
				{
					"internalType": "address",
					"name": "_minePool",
					"type": "address"
				},
				{
					"internalType": "address",
					"name": "_mmStore",
					"type": "address"
				},
				{
					"internalType": "address",
					"name": "_acbPair",
					"type": "address"
				}
			],
			"name": "setConfig",
			"outputs": [],
			"stateMutability": "nonpayable",
			"type": "function"
		},
		{
			"inputs": [
				{
					"internalType": "address",
					"name": "_user",
					"type": "address"
				},
				{
					"internalType": "uint256",
					"name": "_level",
					"type": "uint256"
				}
			],
			"name": "setUserLevel",
			"outputs": [],
			"stateMutability": "nonpayable",
			"type": "function"
		},
		{
			"inputs": [],
			"name": "shareHolderMinLimit",
			"outputs": [
				{
					"internalType": "uint256",
					"name": "",
					"type": "uint256"
				}
			],
			"stateMutability": "view",
			"type": "function"
		},
		{
			"inputs": [],
			"name": "shareHolderRewardRate",
			"outputs": [
				{
					"internalType": "uint256",
					"name": "",
					"type": "uint256"
				}
			],
			"stateMutability": "view",
			"type": "function"
		},
		{
			"inputs": [],
			"name": "swapRate",
			"outputs": [
				{
					"internalType": "uint256",
					"name": "",
					"type": "uint256"
				}
			],
			"stateMutability": "view",
			"type": "function"
		},
		{
			"inputs": [
				{
					"internalType": "uint256",
					"name": "",
					"type": "uint256"
				}
			],
			"name": "teamLevel",
			"outputs": [
				{
					"internalType": "uint256",
					"name": "amount",
					"type": "uint256"
				},
				{
					"internalType": "uint256",
					"name": "rate",
					"type": "uint256"
				}
			],
			"stateMutability": "view",
			"type": "function"
		},
		{
			"inputs": [],
			"name": "teamRewardAddress",
			"outputs": [
				{
					"internalType": "address",
					"name": "",
					"type": "address"
				}
			],
			"stateMutability": "view",
			"type": "function"
		},
		{
			"inputs": [],
			"name": "teamRewardRate",
			"outputs": [
				{
					"internalType": "uint256",
					"name": "",
					"type": "uint256"
				}
			],
			"stateMutability": "view",
			"type": "function"
		},
		{
			"inputs": [],
			"name": "techAddress",
			"outputs": [
				{
					"internalType": "address",
					"name": "",
					"type": "address"
				}
			],
			"stateMutability": "view",
			"type": "function"
		},
		{
			"inputs": [],
			"name": "top",
			"outputs": [
				{
					"internalType": "address",
					"name": "",
					"type": "address"
				}
			],
			"stateMutability": "view",
			"type": "function"
		},
		{
			"inputs": [
				{
					"internalType": "address",
					"name": "newOwner",
					"type": "address"
				}
			],
			"name": "transferOwnership",
			"outputs": [],
			"stateMutability": "nonpayable",
			"type": "function"
		},
		{
			"inputs": [
				{
					"internalType": "address",
					"name": "newImplementation",
					"type": "address"
				}
			],
			"name": "upgradeTo",
			"outputs": [],
			"stateMutability": "nonpayable",
			"type": "function"
		},
		{
			"inputs": [
				{
					"internalType": "address",
					"name": "newImplementation",
					"type": "address"
				},
				{
					"internalType": "bytes",
					"name": "data",
					"type": "bytes"
				}
			],
			"name": "upgradeToAndCall",
			"outputs": [],
			"stateMutability": "payable",
			"type": "function"
		},
		{
			"inputs": [],
			"name": "usdt",
			"outputs": [
				{
					"internalType": "address",
					"name": "",
					"type": "address"
				}
			],
			"stateMutability": "view",
			"type": "function"
		},
		{
			"inputs": [
				{
					"internalType": "uint256",
					"name": "",
					"type": "uint256"
				}
			],
			"name": "userArr",
			"outputs": [
				{
					"internalType": "address",
					"name": "",
					"type": "address"
				}
			],
			"stateMutability": "view",
			"type": "function"
		},
		{
			"inputs": [
				{
					"internalType": "address",
					"name": "",
					"type": "address"
				}
			],
			"name": "userLevel",
			"outputs": [
				{
					"internalType": "uint256",
					"name": "",
					"type": "uint256"
				}
			],
			"stateMutability": "view",
			"type": "function"
		}
	]
}